{
  "_format": "hh-sol-artifact-1",
  "contractName": "ContentCore",
  "sourceName": "contracts/rigs/content/ContentCore.sol",
  "abi": [
    {
      "inputs": [
        {
          "internalType": "address",
          "name": "_registry",
          "type": "address"
        },
        {
          "internalType": "address",
          "name": "_quote",
          "type": "address"
        },
        {
          "internalType": "address",
          "name": "_donutToken",
          "type": "address"
        },
        {
          "internalType": "address",
          "name": "_uniswapV2Factory",
          "type": "address"
        },
        {
          "internalType": "address",
          "name": "_uniswapV2Router",
          "type": "address"
        },
        {
          "internalType": "address",
          "name": "_unitFactory",
          "type": "address"
        },
        {
          "internalType": "address",
          "name": "_contentRigFactory",
          "type": "address"
        },
        {
          "internalType": "address",
          "name": "_minterFactory",
          "type": "address"
        },
        {
          "internalType": "address",
          "name": "_auctionFactory",
          "type": "address"
        },
        {
          "internalType": "address",
          "name": "_rewarderFactory",
          "type": "address"
        },
        {
          "internalType": "address",
          "name": "_protocolFeeAddress",
          "type": "address"
        },
        {
          "internalType": "uint256",
          "name": "_minDonutForLaunch",
          "type": "uint256"
        }
      ],
      "stateMutability": "nonpayable",
      "type": "constructor"
    },
    {
      "inputs": [],
      "name": "ContentCore__AuctionEpochPeriodOutOfRange",
      "type": "error"
    },
    {
      "inputs": [],
      "name": "ContentCore__AuctionInitPriceOutOfRange",
      "type": "error"
    },
    {
      "inputs": [],
      "name": "ContentCore__AuctionMinInitPriceOutOfRange",
      "type": "error"
    },
    {
      "inputs": [],
      "name": "ContentCore__AuctionPriceMultiplierOutOfRange",
      "type": "error"
    },
    {
      "inputs": [],
      "name": "ContentCore__ContentMinInitPriceOutOfRange",
      "type": "error"
    },
    {
      "inputs": [],
      "name": "ContentCore__EmptyTokenName",
      "type": "error"
    },
    {
      "inputs": [],
      "name": "ContentCore__EmptyTokenSymbol",
      "type": "error"
    },
    {
      "inputs": [],
      "name": "ContentCore__HalvingPeriodOutOfRange",
      "type": "error"
    },
    {
      "inputs": [],
      "name": "ContentCore__InitialUpsOutOfRange",
      "type": "error"
    },
    {
      "inputs": [],
      "name": "ContentCore__InsufficientDonut",
      "type": "error"
    },
    {
      "inputs": [],
      "name": "ContentCore__InvalidLauncher",
      "type": "error"
    },
    {
      "inputs": [],
      "name": "ContentCore__InvalidUnitAmount",
      "type": "error"
    },
    {
      "inputs": [],
      "name": "ContentCore__TailUpsOutOfRange",
      "type": "error"
    },
    {
      "inputs": [],
      "name": "ContentCore__ZeroAddress",
      "type": "error"
    },
    {
      "anonymous": false,
      "inputs": [
        {
          "indexed": true,
          "internalType": "address",
          "name": "launcher",
          "type": "address"
        },
        {
          "indexed": true,
          "internalType": "address",
          "name": "rig",
          "type": "address"
        },
        {
          "indexed": true,
          "internalType": "address",
          "name": "unit",
          "type": "address"
        },
        {
          "indexed": false,
          "internalType": "address",
          "name": "minter",
          "type": "address"
        },
        {
          "indexed": false,
          "internalType": "address",
          "name": "rewarder",
          "type": "address"
        },
        {
          "indexed": false,
          "internalType": "address",
          "name": "auction",
          "type": "address"
        },
        {
          "indexed": false,
          "internalType": "address",
          "name": "lpToken",
          "type": "address"
        },
        {
          "indexed": false,
          "internalType": "string",
          "name": "tokenName",
          "type": "string"
        },
        {
          "indexed": false,
          "internalType": "string",
          "name": "tokenSymbol",
          "type": "string"
        },
        {
          "indexed": false,
          "internalType": "string",
          "name": "uri",
          "type": "string"
        },
        {
          "indexed": false,
          "internalType": "uint256",
          "name": "donutAmount",
          "type": "uint256"
        },
        {
          "indexed": false,
          "internalType": "uint256",
          "name": "unitAmount",
          "type": "uint256"
        },
        {
          "indexed": false,
          "internalType": "uint256",
          "name": "initialUps",
          "type": "uint256"
        },
        {
          "indexed": false,
          "internalType": "uint256",
          "name": "tailUps",
          "type": "uint256"
        },
        {
          "indexed": false,
          "internalType": "uint256",
          "name": "halvingPeriod",
          "type": "uint256"
        },
        {
          "indexed": false,
          "internalType": "uint256",
          "name": "contentMinInitPrice",
          "type": "uint256"
        },
        {
          "indexed": false,
          "internalType": "bool",
          "name": "contentIsModerated",
          "type": "bool"
        },
        {
          "indexed": false,
          "internalType": "uint256",
          "name": "auctionInitPrice",
          "type": "uint256"
        },
        {
          "indexed": false,
          "internalType": "uint256",
          "name": "auctionEpochPeriod",
          "type": "uint256"
        },
        {
          "indexed": false,
          "internalType": "uint256",
          "name": "auctionPriceMultiplier",
          "type": "uint256"
        },
        {
          "indexed": false,
          "internalType": "uint256",
          "name": "auctionMinInitPrice",
          "type": "uint256"
        }
      ],
      "name": "ContentCore__Launched",
      "type": "event"
    },
    {
      "anonymous": false,
      "inputs": [
        {
          "indexed": false,
          "internalType": "uint256",
          "name": "minDonutForLaunch",
          "type": "uint256"
        }
      ],
      "name": "ContentCore__MinDonutForLaunchSet",
      "type": "event"
    },
    {
      "anonymous": false,
      "inputs": [
        {
          "indexed": false,
          "internalType": "address",
          "name": "protocolFeeAddress",
          "type": "address"
        }
      ],
      "name": "ContentCore__ProtocolFeeAddressSet",
      "type": "event"
    },
    {
      "anonymous": false,
      "inputs": [
        {
          "indexed": true,
          "internalType": "address",
          "name": "previousOwner",
          "type": "address"
        },
        {
          "indexed": true,
          "internalType": "address",
          "name": "newOwner",
          "type": "address"
        }
      ],
      "name": "OwnershipTransferred",
      "type": "event"
    },
    {
      "inputs": [],
      "name": "AUCTION_ABS_MAX_INIT_PRICE",
      "outputs": [
        {
          "internalType": "uint256",
          "name": "",
          "type": "uint256"
        }
      ],
      "stateMutability": "view",
      "type": "function"
    },
    {
      "inputs": [],
      "name": "AUCTION_ABS_MIN_INIT_PRICE",
      "outputs": [
        {
          "internalType": "uint256",
          "name": "",
          "type": "uint256"
        }
      ],
      "stateMutability": "view",
      "type": "function"
    },
    {
      "inputs": [],
      "name": "AUCTION_MAX_EPOCH_PERIOD",
      "outputs": [
        {
          "internalType": "uint256",
          "name": "",
          "type": "uint256"
        }
      ],
      "stateMutability": "view",
      "type": "function"
    },
    {
      "inputs": [],
      "name": "AUCTION_MAX_PRICE_MULTIPLIER",
      "outputs": [
        {
          "internalType": "uint256",
          "name": "",
          "type": "uint256"
        }
      ],
      "stateMutability": "view",
      "type": "function"
    },
    {
      "inputs": [],
      "name": "AUCTION_MIN_EPOCH_PERIOD",
      "outputs": [
        {
          "internalType": "uint256",
          "name": "",
          "type": "uint256"
        }
      ],
      "stateMutability": "view",
      "type": "function"
    },
    {
      "inputs": [],
      "name": "AUCTION_MIN_PRICE_MULTIPLIER",
      "outputs": [
        {
          "internalType": "uint256",
          "name": "",
          "type": "uint256"
        }
      ],
      "stateMutability": "view",
      "type": "function"
    },
    {
      "inputs": [],
      "name": "CONTENT_ABS_MAX_INIT_PRICE",
      "outputs": [
        {
          "internalType": "uint256",
          "name": "",
          "type": "uint256"
        }
      ],
      "stateMutability": "view",
      "type": "function"
    },
    {
      "inputs": [],
      "name": "CONTENT_ABS_MIN_INIT_PRICE",
      "outputs": [
        {
          "internalType": "uint256",
          "name": "",
          "type": "uint256"
        }
      ],
      "stateMutability": "view",
      "type": "function"
    },
    {
      "inputs": [],
      "name": "DEAD_ADDRESS",
      "outputs": [
        {
          "internalType": "address",
          "name": "",
          "type": "address"
        }
      ],
      "stateMutability": "view",
      "type": "function"
    },
    {
      "inputs": [],
      "name": "MINTER_MAX_HALVING_PERIOD",
      "outputs": [
        {
          "internalType": "uint256",
          "name": "",
          "type": "uint256"
        }
      ],
      "stateMutability": "view",
      "type": "function"
    },
    {
      "inputs": [],
      "name": "MINTER_MAX_INITIAL_UPS",
      "outputs": [
        {
          "internalType": "uint256",
          "name": "",
          "type": "uint256"
        }
      ],
      "stateMutability": "view",
      "type": "function"
    },
    {
      "inputs": [],
      "name": "MINTER_MIN_HALVING_PERIOD",
      "outputs": [
        {
          "internalType": "uint256",
          "name": "",
          "type": "uint256"
        }
      ],
      "stateMutability": "view",
      "type": "function"
    },
    {
      "inputs": [],
      "name": "RIG_TYPE",
      "outputs": [
        {
          "internalType": "string",
          "name": "",
          "type": "string"
        }
      ],
      "stateMutability": "view",
      "type": "function"
    },
    {
      "inputs": [],
      "name": "auctionFactory",
      "outputs": [
        {
          "internalType": "address",
          "name": "",
          "type": "address"
        }
      ],
      "stateMutability": "view",
      "type": "function"
    },
    {
      "inputs": [],
      "name": "contentRigFactory",
      "outputs": [
        {
          "internalType": "address",
          "name": "",
          "type": "address"
        }
      ],
      "stateMutability": "view",
      "type": "function"
    },
    {
      "inputs": [
        {
          "internalType": "uint256",
          "name": "",
          "type": "uint256"
        }
      ],
      "name": "deployedRigs",
      "outputs": [
        {
          "internalType": "address",
          "name": "",
          "type": "address"
        }
      ],
      "stateMutability": "view",
      "type": "function"
    },
    {
      "inputs": [],
      "name": "deployedRigsLength",
      "outputs": [
        {
          "internalType": "uint256",
          "name": "",
          "type": "uint256"
        }
      ],
      "stateMutability": "view",
      "type": "function"
    },
    {
      "inputs": [],
      "name": "donutToken",
      "outputs": [
        {
          "internalType": "address",
          "name": "",
          "type": "address"
        }
      ],
      "stateMutability": "view",
      "type": "function"
    },
    {
      "inputs": [
        {
          "internalType": "address",
          "name": "",
          "type": "address"
        }
      ],
      "name": "isDeployedRig",
      "outputs": [
        {
          "internalType": "bool",
          "name": "",
          "type": "bool"
        }
      ],
      "stateMutability": "view",
      "type": "function"
    },
    {
      "inputs": [
        {
          "components": [
            {
              "internalType": "address",
              "name": "launcher",
              "type": "address"
            },
            {
              "internalType": "string",
              "name": "tokenName",
              "type": "string"
            },
            {
              "internalType": "string",
              "name": "tokenSymbol",
              "type": "string"
            },
            {
              "internalType": "string",
              "name": "uri",
              "type": "string"
            },
            {
              "internalType": "uint256",
              "name": "donutAmount",
              "type": "uint256"
            },
            {
              "internalType": "uint256",
              "name": "unitAmount",
              "type": "uint256"
            },
            {
              "internalType": "uint256",
              "name": "initialUps",
              "type": "uint256"
            },
            {
              "internalType": "uint256",
              "name": "tailUps",
              "type": "uint256"
            },
            {
              "internalType": "uint256",
              "name": "halvingPeriod",
              "type": "uint256"
            },
            {
              "internalType": "uint256",
              "name": "contentMinInitPrice",
              "type": "uint256"
            },
            {
              "internalType": "bool",
              "name": "contentIsModerated",
              "type": "bool"
            },
            {
              "internalType": "uint256",
              "name": "auctionInitPrice",
              "type": "uint256"
            },
            {
              "internalType": "uint256",
              "name": "auctionEpochPeriod",
              "type": "uint256"
            },
            {
              "internalType": "uint256",
              "name": "auctionPriceMultiplier",
              "type": "uint256"
            },
            {
              "internalType": "uint256",
              "name": "auctionMinInitPrice",
              "type": "uint256"
            }
          ],
          "internalType": "struct ContentCore.LaunchParams",
          "name": "params",
          "type": "tuple"
        }
      ],
      "name": "launch",
      "outputs": [
        {
          "internalType": "address",
          "name": "unit",
          "type": "address"
        },
        {
          "internalType": "address",
          "name": "rig",
          "type": "address"
        },
        {
          "internalType": "address",
          "name": "minter",
          "type": "address"
        },
        {
          "internalType": "address",
          "name": "rewarder",
          "type": "address"
        },
        {
          "internalType": "address",
          "name": "auction",
          "type": "address"
        },
        {
          "internalType": "address",
          "name": "lpToken",
          "type": "address"
        }
      ],
      "stateMutability": "nonpayable",
      "type": "function"
    },
    {
      "inputs": [],
      "name": "minDonutForLaunch",
      "outputs": [
        {
          "internalType": "uint256",
          "name": "",
          "type": "uint256"
        }
      ],
      "stateMutability": "view",
      "type": "function"
    },
    {
      "inputs": [],
      "name": "minterFactory",
      "outputs": [
        {
          "internalType": "address",
          "name": "",
          "type": "address"
        }
      ],
      "stateMutability": "view",
      "type": "function"
    },
    {
      "inputs": [],
      "name": "owner",
      "outputs": [
        {
          "internalType": "address",
          "name": "",
          "type": "address"
        }
      ],
      "stateMutability": "view",
      "type": "function"
    },
    {
      "inputs": [],
      "name": "protocolFeeAddress",
      "outputs": [
        {
          "internalType": "address",
          "name": "",
          "type": "address"
        }
      ],
      "stateMutability": "view",
      "type": "function"
    },
    {
      "inputs": [],
      "name": "quote",
      "outputs": [
        {
          "internalType": "address",
          "name": "",
          "type": "address"
        }
      ],
      "stateMutability": "view",
      "type": "function"
    },
    {
      "inputs": [],
      "name": "registry",
      "outputs": [
        {
          "internalType": "address",
          "name": "",
          "type": "address"
        }
      ],
      "stateMutability": "view",
      "type": "function"
    },
    {
      "inputs": [],
      "name": "renounceOwnership",
      "outputs": [],
      "stateMutability": "nonpayable",
      "type": "function"
    },
    {
      "inputs": [],
      "name": "rewarderFactory",
      "outputs": [
        {
          "internalType": "address",
          "name": "",
          "type": "address"
        }
      ],
      "stateMutability": "view",
      "type": "function"
    },
    {
      "inputs": [
        {
          "internalType": "address",
          "name": "",
          "type": "address"
        }
      ],
      "name": "rigToAuction",
      "outputs": [
        {
          "internalType": "address",
          "name": "",
          "type": "address"
        }
      ],
      "stateMutability": "view",
      "type": "function"
    },
    {
      "inputs": [
        {
          "internalType": "address",
          "name": "",
          "type": "address"
        }
      ],
      "name": "rigToLP",
      "outputs": [
        {
          "internalType": "address",
          "name": "",
          "type": "address"
        }
      ],
      "stateMutability": "view",
      "type": "function"
    },
    {
      "inputs": [
        {
          "internalType": "address",
          "name": "",
          "type": "address"
        }
      ],
      "name": "rigToLauncher",
      "outputs": [
        {
          "internalType": "address",
          "name": "",
          "type": "address"
        }
      ],
      "stateMutability": "view",
      "type": "function"
    },
    {
      "inputs": [
        {
          "internalType": "address",
          "name": "",
          "type": "address"
        }
      ],
      "name": "rigToMinter",
      "outputs": [
        {
          "internalType": "address",
          "name": "",
          "type": "address"
        }
      ],
      "stateMutability": "view",
      "type": "function"
    },
    {
      "inputs": [
        {
          "internalType": "address",
          "name": "",
          "type": "address"
        }
      ],
      "name": "rigToRewarder",
      "outputs": [
        {
          "internalType": "address",
          "name": "",
          "type": "address"
        }
      ],
      "stateMutability": "view",
      "type": "function"
    },
    {
      "inputs": [
        {
          "internalType": "address",
          "name": "",
          "type": "address"
        }
      ],
      "name": "rigToUnit",
      "outputs": [
        {
          "internalType": "address",
          "name": "",
          "type": "address"
        }
      ],
      "stateMutability": "view",
      "type": "function"
    },
    {
      "inputs": [
        {
          "internalType": "uint256",
          "name": "_minDonutForLaunch",
          "type": "uint256"
        }
      ],
      "name": "setMinDonutForLaunch",
      "outputs": [],
      "stateMutability": "nonpayable",
      "type": "function"
    },
    {
      "inputs": [
        {
          "internalType": "address",
          "name": "_protocolFeeAddress",
          "type": "address"
        }
      ],
      "name": "setProtocolFeeAddress",
      "outputs": [],
      "stateMutability": "nonpayable",
      "type": "function"
    },
    {
      "inputs": [
        {
          "internalType": "address",
          "name": "newOwner",
          "type": "address"
        }
      ],
      "name": "transferOwnership",
      "outputs": [],
      "stateMutability": "nonpayable",
      "type": "function"
    },
    {
      "inputs": [],
      "name": "uniswapV2Factory",
      "outputs": [
        {
          "internalType": "address",
          "name": "",
          "type": "address"
        }
      ],
      "stateMutability": "view",
      "type": "function"
    },
    {
      "inputs": [],
      "name": "uniswapV2Router",
      "outputs": [
        {
          "internalType": "address",
          "name": "",
          "type": "address"
        }
      ],
      "stateMutability": "view",
      "type": "function"
    },
    {
      "inputs": [],
      "name": "unitFactory",
      "outputs": [
        {
          "internalType": "address",
          "name": "",
          "type": "address"
        }
      ],
      "stateMutability": "view",
      "type": "function"
    }
  ],
  "bytecode": "0x6101c0346200037157601f620023db38819003918201601f19168301916001600160401b0383118484101762000376578084926101809460405283398101031262000371576200004f816200038c565b6200005d602083016200038c565b6200006b604084016200038c565b916200007a606085016200038c565b9362000089608082016200038c565b946200009860a083016200038c565b620000a660c084016200038c565b620000b460e085016200038c565b9161010098620000c68a87016200038c565b9461012099620000d88b89016200038c565b99610160620000eb6101408b016200038c565b99015160008054336001600160a01b0319821681178355604051939d939290916001600160a01b0316907f8be0079c531659141344cd1fd0a4f28419497f9722a3daafe3b4186f6b6457e09080a3600180556001600160a01b0382161580156200035f575b80156200034d575b80156200033b575b801562000329575b801562000317575b801562000305575b8015620002f3575b8015620002e1575b8015620002cf575b620002c0575060805260a05260c05260e052895287526101405261016052610180526101a092835260018060a01b031660018060a01b03196002541617600255600355604051916120399384620003a285396080518481816105f80152818161138c0152611415015260a0518481816104f40152611072015260c05184818161089801528181610b5101528181610d0001528181610d5a01528181610db40152610e6e015260e0518481816107ec0152610ea001525183818161095e01528181610c7201528181610cac01528181610cdf01528181610d390152610e1e0152518281816104020152610be501526101405182818161084e01526110f80152610160518281816107a701526111b101526101805182818161046f0152610f7f0152518181816108fb01526110b00152f35b632cf8743b60e21b8152600490fd5b506001600160a01b038d161562000190565b506001600160a01b038a161562000188565b506001600160a01b0389161562000180565b506001600160a01b0388161562000178565b506001600160a01b0387161562000170565b506001600160a01b0386161562000168565b506001600160a01b0385161562000160565b506001600160a01b0384161562000158565b506001600160a01b0383161562000150565b600080fd5b634e487b7160e01b600052604160045260246000fd5b51906001600160a01b0382168203620003715756fe608080604052600436101561001357600080fd5b600090813560e01c9081630524c46a146119dd575080630986e40f1461087d5780630c26d8bb1461199e57806316707f8d1461098d5780631694505e14610948578063202dbecb14610454578063238c9ed51461092a5780632d1d444a146108e557806332359f6d146108c757806332a8ad9914610882578063361488031461087d5780633635bdfd146104d95780634e08220a146108385780634e6fd6c41461081b57806359d0f713146107d657806366f7490f14610791578063699b22b11461076e5780636b7b9112146106ff578063715018a6146106a55780637975e2a11461066657806379d32fbe146106275780637b103999146105e25780637db986ff146105bd578063832c0e5f1461058957806383e9d76b1461054a5780638da5cb5b14610523578063999b93af146104de5780639a12b45c146104d9578063a3fcb57a146104bc578063a8c493c31461049e578063abf4fde414610459578063ad3857fb14610454578063ba0d1a5e14610431578063bbba90e2146103ec578063cce516b7146103c3578063d21bde931461037d578063d7a8c47514610339578063eb081747146102fa578063f2fde38b146102295763f9e6e6e7146101d957600080fd5b34610226576020366003190112610226577fc4ec3b6796393e0f8ed45d84a9f589be5da2c0f60e393b91e0138bf9f005c7ce6020600435610218611bb6565b80600355604051908152a180f35b80fd5b5034610226576020366003190112610226576004356001600160a01b03818116918290036102f657610259611bb6565b81156102a257600054826bffffffffffffffffffffffff60a01b821617600055167f8be0079c531659141344cd1fd0a4f28419497f9722a3daafe3b4186f6b6457e0600080a380f35b60405162461bcd60e51b815260206004820152602660248201527f4f776e61626c653a206e6577206f776e657220697320746865207a65726f206160448201526564647265737360d01b6064820152608490fd5b8280fd5b5034610226576020366003190112610226576001600160a01b03600435818116908190036102f657826040916020945260068452205416604051908152f35b5034610226576020366003190112610226576004359060045482101561022657602061036483611b69565b905460405160039290921b1c6001600160a01b03168152f35b5034610226576020366003190112610226576004356001600160a01b038116908190036103bf5760408260ff9260209452600584522054166040519015158152f35b5080fd5b50346102265780600319360112610226576002546040516001600160a01b039091168152602090f35b50346102265780600319360112610226576040517f00000000000000000000000000000000000000000000000000000000000000006001600160a01b03168152602090f35b50346102265780600319360112610226576020604051670f43fc2c04ee00008152f35b611a45565b50346102265780600319360112610226576040517f00000000000000000000000000000000000000000000000000000000000000006001600160a01b03168152602090f35b50346102265780600319360112610226576020600354604051908152f35b50346102265780600319360112610226576020604051610e108152f35b611a64565b50346102265780600319360112610226576040517f00000000000000000000000000000000000000000000000000000000000000006001600160a01b03168152602090f35b5034610226578060031936011261022657546040516001600160a01b039091168152602090f35b5034610226576020366003190112610226576001600160a01b03600435818116908190036102f6578260409160209452600b8452205416604051908152f35b50346102265780600319360112610226576105b96105a5611b06565b604051918291602083526020830190611b29565b0390f35b5034610226578060031936011261022657602060405169d3c21bcecceda10000008152f35b50346102265780600319360112610226576040517f00000000000000000000000000000000000000000000000000000000000000006001600160a01b03168152602090f35b5034610226576020366003190112610226576001600160a01b03600435818116908190036102f6578260409160209452600a8452205416604051908152f35b5034610226576020366003190112610226576001600160a01b03600435818116908190036102f657826040916020945260078452205416604051908152f35b50346102265780600319360112610226576106be611bb6565b600080546001600160a01b0319811682556001600160a01b03167f8be0079c531659141344cd1fd0a4f28419497f9722a3daafe3b4186f6b6457e08280a380f35b5034610226576020366003190112610226576004356001600160a01b038116908190036103bf5760207f38ad7b0ba1f527c2d373ce7cc75a6362954edb64ca95751c58b0dddea68cbd8091610752611bb6565b600280546001600160a01b03191682179055604051908152a180f35b503461022657806003193601126102265760206040516729a2241af62c00008152f35b50346102265780600319360112610226576040517f00000000000000000000000000000000000000000000000000000000000000006001600160a01b03168152602090f35b50346102265780600319360112610226576040517f00000000000000000000000000000000000000000000000000000000000000006001600160a01b03168152602090f35b5034610226578060031936011261022657602060405161dead8152f35b50346102265780600319360112610226576040517f00000000000000000000000000000000000000000000000000000000000000006001600160a01b03168152602090f35b611a1d565b50346102265780600319360112610226576040517f00000000000000000000000000000000000000000000000000000000000000006001600160a01b03168152602090f35b50346102265780600319360112610226576020600454604051908152f35b50346102265780600319360112610226576040517f00000000000000000000000000000000000000000000000000000000000000006001600160a01b03168152602090f35b5034610226578060031936011261022657602060405162093a808152f35b50346102265780600319360112610226576040517f00000000000000000000000000000000000000000000000000000000000000006001600160a01b03168152602090f35b50346102265760203660031901126102265767ffffffffffffffff60043511610226576101e060043536036003190112610226576002600154146119595760026001556001600160a01b036109e56004803501611c81565b161561194757600354608460043501351061193557610a0e602460043501600435600401611c0e565b90501561192357610a29604460043501600435600401611c0e565b9050156119115760a46004350135156118ff5760c460043501351580156118e6575b6118d45760e460043501351580156118bf575b6118ad5762093a806101046004350135108015611899575b61188757620f42406101246004350135108015611870575b61185f57610e10610184600435013510801561184b575b61183957670f43fc2c04ee00006101a46004350135108015611821575b61180f57620f42406101c460043501351080156117f8575b6117e6576101c4600435013561016460043501351080156117cf575b6117bd57604051906323b872dd60e01b6020830152336024830152306044830152608460043501356064830152606482528160a081011067ffffffffffffffff60a0840111176117a95760a08201604052610bce91610b7e907f00000000000000000000000000000000000000000000000000000000000000006001600160a01b0316611e22565b6020610b94602460043501600435600401611c0e565b610be0610bab604460043501600435600401611c0e565b604051978895869563b548848760e01b8752604060048801526044870191611c60565b84810360031901602486015291611c60565b0381847f00000000000000000000000000000000000000000000000000000000000000006001600160a01b03165af1918215611695578192611788575b506001600160a01b0382163b15610226576040516340c10f1960e01b8152306004808301919091523560a4013560248201528181604481836001600160a01b0388165af1801561161d57611779575b50610ca07f00000000000000000000000000000000000000000000000000000000000000006001600160a01b038416611ca2565b610cda60043560a401357f00000000000000000000000000000000000000000000000000000000000000006001600160a01b038516611ce4565b610d2d7f00000000000000000000000000000000000000000000000000000000000000007f00000000000000000000000000000000000000000000000000000000000000006001600160a01b0316611ca2565b610d87600435608401357f00000000000000000000000000000000000000000000000000000000000000007f00000000000000000000000000000000000000000000000000000000000000006001600160a01b0316611ce4565b6104b0420142116117655760405162e8e33760e81b81526001600160a01b038381166004808401919091527f0000000000000000000000000000000000000000000000000000000000000000821660248401523560a4818101356044850181905260849283013560648601819052928501528301523060c4830152426104b00160e4830152909190606090839061010490829085907f0000000000000000000000000000000000000000000000000000000000000000165af191821561169557819261172e575b5060405163e6a4390560e01b81526001600160a01b0380851660048301527f000000000000000000000000000000000000000000000000000000000000000016602482015291602083806044810103817f00000000000000000000000000000000000000000000000000000000000000006001600160a01b03165afa92831561161d578293611709575b50610f17906040519063a9059cbb60e01b602083015261dead6024830152604482015260448152610f0881611ac8565b6001600160a01b038416611e22565b60405190633e25ba8f60e21b82526101646004350135600483015260018060a01b038316602483015261dead6044830152610184600435013560648301526101a4600435013560848301526101c4600435013560a483015260208260c4818460018060a01b037f0000000000000000000000000000000000000000000000000000000000000000165af19182156116955781926116e4575b5061103c906020610fca602460043501600435600401611c0e565b610fde604460043501600435600401611c0e565b611060610ff5606460043501600435600401611c0e565b61104e611006600435600401611c81565b9561101661014460043501611c95565b956040519c8d9a8b9a63bed1b89360e01b8c5261016060048d01526101648c0191611c60565b8981036003190160248b015291611c60565b86810360031901604488015291611c60565b6001600160a01b038b811660648601527f00000000000000000000000000000000000000000000000000000000000000008116608486015289811660a486015292831660c48501523060e48501527f00000000000000000000000000000000000000000000000000000000000000008316610104850152610124600435810135908501529015156101448401529190910390829085907f0000000000000000000000000000000000000000000000000000000000000000165af19182156116955781926116c3575b50604051636e61f03760e11b8152916020836004816001600160a01b0385165afa92831561161d5782936116a2575b506040516304a913c760e11b81526001600160a01b0387811660048084019190915285821660248401523560c4810135604484015260e4810135606484015261010401356084830152909290602090849060a490829085907f0000000000000000000000000000000000000000000000000000000000000000165af1928315611695578193611664575b506001600160a01b0387163b156102265760405163588d95c960e11b81526001600160a01b03848116600483015282908290602490829084908d165af1801561161d57908291611650575b505061123c600435600401611c81565b6001600160a01b0383163b156103bf5760405163f2fde38b60e01b81526001600160a01b03918216600482015290829082906024908290849088165af1801561161d5790829161163c575b505060045468010000000000000000811015611628578060016112ad9201600455611b69565b81546001600160a01b0385811660039390931b83811b91901b19909116179091558152600560205260408120805460ff191660011790556112f16004803501611c81565b60066020908152604080842080546001600160a01b03199081166001600160a01b039586161790915560078352818520805482168c861617905560088352818520805482168a86161790556009835281852080548216888616179055600a835281852080548216898616179055600b9092528320805490911691881691909117905561137b611b06565b611389600435600401611c81565b907f00000000000000000000000000000000000000000000000000000000000000006001600160a01b03163b156102f657604051631d3317b360e31b81526001600160a01b038516600482015260806024820152918391839182916113f2906084840190611b29565b6001600160a01b038d8116604485015291821660648401529190910390829084907f0000000000000000000000000000000000000000000000000000000000000000165af1801561161d57611609575b505060043560040161145390611c81565b61146560048035602481019101611c0e565b919061147960048035604481019101611c0e565b9061148c60048035606481019101611c0e565b9190926004356101440161149f90611c95565b604080516001600160a01b038c811682528d811660208301528e811692820192909252908e16606082015261024060808201819052909891966114e692918a019190611c60565b9087820360a08901526114f892611c60565b9085820360c087015261150a92611c60565b600435608481013560e086015260a481013561010086015260c481013561012086015260e48101356101408601526101048101356101608601526101248101356101808601529115156101a08501526101648201356101c08501526101848201356101e08501526101a48201356102008501526101c4909101356102208401526001600160a01b038981169385821693909116917fb88c2596f204ec68f6d50dcc2438455ca64e670158a5266122e0488f55a4f6b0919081900390a460018055604080516001600160a01b03978816815291871660208301529186169181019190915290841660608201529083166080820152911660a082015260c090f35b6116138291611a82565b6102265780611442565b6040513d84823e3d90fd5b634e487b7160e01b82526041600452602482fd5b61164590611a82565b610226578038611287565b61165990611a82565b61022657803861122c565b61168791935060203d60201161168e575b61167f8183611ae4565b810190611c41565b91386111e1565b503d611675565b50604051903d90823e3d90fd5b6116bc91935060203d60201161168e5761167f8183611ae4565b9138611157565b6116dd91925060203d60201161168e5761167f8183611ae4565b9038611128565b61103c9192506117029060203d60201161168e5761167f8183611ae4565b9190610faf565b610f179193506117279060203d60201161168e5761167f8183611ae4565b9290610ed8565b9091506060813d60601161175d575b8161174a60609383611ae4565b810103126103bf57604001519038610e4e565b3d915061173d565b634e487b7160e01b81526011600452602490fd5b61178290611a82565b38610c6c565b6117a291925060203d60201161168e5761167f8183611ae4565b9038610c1d565b634e487b7160e01b81526041600452602490fd5b60405163d2fa04b560e01b8152600490fd5b506001600160c01b03600435610164013511610af6565b604051633c95e4ff60e01b8152600490fd5b506001600160c01b036004356101c4013511610ada565b6040516303f54db160e01b8152600490fd5b506729a2241af62c00006101a4600435013511610ac2565b60405163a99dc95d60e01b8152600490fd5b506301e13380610184600435013511610aa5565b6040516219544760e81b8152600490fd5b506001600160c01b03600435610124013511610a8e565b604051633b89451960e01b8152600490fd5b506301e13380610104600435013511610a76565b604051631330968f60e21b8152600490fd5b5060c4600435013560e4600435013511610a5e565b6040516308ed366560e21b8152600490fd5b5069d3c21bcecceda100000060c4600435013511610a4b565b60405163037f13e360e01b8152600490fd5b6040516339ebe9a560e01b8152600490fd5b6040516354a9193560e11b8152600490fd5b604051631a0b8ba760e11b8152600490fd5b60405163499f9dab60e11b8152600490fd5b60405162461bcd60e51b815260206004820152601f60248201527f5265656e7472616e637947756172643a207265656e7472616e742063616c6c006044820152606490fd5b5034610226576020366003190112610226576001600160a01b03600435818116908190036102f657826040916020945260098452205416604051908152f35b9050346103bf5760203660031901126103bf576001600160a01b0360043581811690819003611a19578360409160209552600885522054168152f35b8380fd5b34611a40576000366003190112611a40576040516001600160c01b038152602090f35b600080fd5b34611a40576000366003190112611a405760206040516301e133808152f35b34611a40576000366003190112611a40576020604051620f42408152f35b67ffffffffffffffff8111611a9657604052565b634e487b7160e01b600052604160045260246000fd5b6040810190811067ffffffffffffffff821117611a9657604052565b6080810190811067ffffffffffffffff821117611a9657604052565b90601f8019910116810190811067ffffffffffffffff821117611a9657604052565b60405190611b1382611aac565b600782526618dbdb9d195b9d60ca1b6020830152565b919082519283825260005b848110611b55575050826000602080949584010152601f8019910116010190565b602081830181015184830182015201611b34565b600454811015611ba05760046000527f8a35acfbc15ff81a39ae7d344fd709f28e8600b4aa8c65c6b64bfe7fe36bd19b0190600090565b634e487b7160e01b600052603260045260246000fd5b6000546001600160a01b03163303611bca57565b606460405162461bcd60e51b815260206004820152602060248201527f4f776e61626c653a2063616c6c6572206973206e6f7420746865206f776e65726044820152fd5b903590601e1981360301821215611a40570180359067ffffffffffffffff8211611a4057602001918136038313611a4057565b90816020910312611a4057516001600160a01b0381168103611a405790565b908060209392818452848401376000828201840152601f01601f1916010190565b356001600160a01b0381168103611a405790565b358015158103611a405790565b60405163095ea7b360e01b60208201526001600160a01b03909216602483015260006044808401919091528252611ce29190611cdd82611ac8565b611e22565b565b91909181158015611d96575b15611d325760405163095ea7b360e01b60208201526001600160a01b03939093166024840152604480840192909252908252611ce29190611cdd606483611ae4565b60405162461bcd60e51b815260206004820152603660248201527f5361666545524332303a20617070726f76652066726f6d206e6f6e2d7a65726f60448201527520746f206e6f6e2d7a65726f20616c6c6f77616e636560501b6064820152608490fd5b50604051636eb1769f60e11b81523060048201526001600160a01b0384166024820152602081806044810103816001600160a01b0386165afa908115611e1657600091611de5575b5015611cf0565b906020823d8211611e0e575b81611dfe60209383611ae4565b8101031261022657505138611dde565b3d9150611df1565b6040513d6000823e3d90fd5b60018060a01b031690604051611e3781611aac565b6020928382527f5361666545524332303a206c6f772d6c6576656c2063616c6c206661696c6564848301526000808486829651910182855af13d15611f5c573d9167ffffffffffffffff8311611f485790611eb293929160405192611ea588601f19601f8401160185611ae4565b83523d868885013e611f66565b805191821591848315611f24575b505050905015611ecd5750565b6084906040519062461bcd60e51b82526004820152602a60248201527f5361666545524332303a204552433230206f7065726174696f6e20646964206e6044820152691bdd081cdd58d8d9595960b21b6064820152fd5b9193818094500103126103bf57820151908115158203610226575080388084611ec0565b634e487b7160e01b85526041600452602485fd5b90611eb292916060915b91929015611fc85750815115611f7a575090565b3b15611f835790565b60405162461bcd60e51b815260206004820152601d60248201527f416464726573733a2063616c6c20746f206e6f6e2d636f6e74726163740000006044820152606490fd5b825190915015611fdb5750805190602001fd5b60405162461bcd60e51b815260206004820152908190611fff906024830190611b29565b0390fdfea2646970667358221220338ff9311b60628c82c33505461197c506626e4dbdd87b1f3cf4684ceec8df3464736f6c63430008130033",
  "linkReferences": {},
  "deployedLinkReferences": {}
}