{
  "_format": "hh-sol-artifact-1",
  "contractName": "ContentRig",
  "sourceName": "contracts/rigs/content/ContentRig.sol",
  "abi": [
    {
      "inputs": [
        {
          "internalType": "string",
          "name": "_name",
          "type": "string"
        },
        {
          "internalType": "string",
          "name": "_symbol",
          "type": "string"
        },
        {
          "internalType": "string",
          "name": "_uri",
          "type": "string"
        },
        {
          "internalType": "address",
          "name": "_unit",
          "type": "address"
        },
        {
          "internalType": "address",
          "name": "_quote",
          "type": "address"
        },
        {
          "internalType": "address",
          "name": "_treasury",
          "type": "address"
        },
        {
          "internalType": "address",
          "name": "_team",
          "type": "address"
        },
        {
          "internalType": "address",
          "name": "_core",
          "type": "address"
        },
        {
          "internalType": "address",
          "name": "_rewarderFactory",
          "type": "address"
        },
        {
          "internalType": "uint256",
          "name": "_minInitPrice",
          "type": "uint256"
        },
        {
          "internalType": "bool",
          "name": "_isModerated",
          "type": "bool"
        }
      ],
      "stateMutability": "nonpayable",
      "type": "constructor"
    },
    {
      "inputs": [],
      "name": "ContentRig__AlreadyApproved",
      "type": "error"
    },
    {
      "inputs": [],
      "name": "ContentRig__EpochIdMismatch",
      "type": "error"
    },
    {
      "inputs": [],
      "name": "ContentRig__Expired",
      "type": "error"
    },
    {
      "inputs": [],
      "name": "ContentRig__InvalidCore",
      "type": "error"
    },
    {
      "inputs": [],
      "name": "ContentRig__InvalidQuote",
      "type": "error"
    },
    {
      "inputs": [],
      "name": "ContentRig__InvalidTreasury",
      "type": "error"
    },
    {
      "inputs": [],
      "name": "ContentRig__InvalidUnit",
      "type": "error"
    },
    {
      "inputs": [],
      "name": "ContentRig__MaxPriceExceeded",
      "type": "error"
    },
    {
      "inputs": [],
      "name": "ContentRig__NotApproved",
      "type": "error"
    },
    {
      "inputs": [],
      "name": "ContentRig__NotModerator",
      "type": "error"
    },
    {
      "inputs": [],
      "name": "ContentRig__NothingToClaim",
      "type": "error"
    },
    {
      "inputs": [],
      "name": "ContentRig__TransferDisabled",
      "type": "error"
    },
    {
      "inputs": [],
      "name": "ContentRig__ZeroLengthUri",
      "type": "error"
    },
    {
      "inputs": [],
      "name": "ContentRig__ZeroMinPrice",
      "type": "error"
    },
    {
      "inputs": [],
      "name": "ContentRig__ZeroTo",
      "type": "error"
    },
    {
      "anonymous": false,
      "inputs": [
        {
          "indexed": true,
          "internalType": "address",
          "name": "owner",
          "type": "address"
        },
        {
          "indexed": true,
          "internalType": "address",
          "name": "approved",
          "type": "address"
        },
        {
          "indexed": true,
          "internalType": "uint256",
          "name": "tokenId",
          "type": "uint256"
        }
      ],
      "name": "Approval",
      "type": "event"
    },
    {
      "anonymous": false,
      "inputs": [
        {
          "indexed": true,
          "internalType": "address",
          "name": "owner",
          "type": "address"
        },
        {
          "indexed": true,
          "internalType": "address",
          "name": "operator",
          "type": "address"
        },
        {
          "indexed": false,
          "internalType": "bool",
          "name": "approved",
          "type": "bool"
        }
      ],
      "name": "ApprovalForAll",
      "type": "event"
    },
    {
      "anonymous": false,
      "inputs": [
        {
          "indexed": false,
          "internalType": "uint256",
          "name": "_fromTokenId",
          "type": "uint256"
        },
        {
          "indexed": false,
          "internalType": "uint256",
          "name": "_toTokenId",
          "type": "uint256"
        }
      ],
      "name": "BatchMetadataUpdate",
      "type": "event"
    },
    {
      "anonymous": false,
      "inputs": [
        {
          "indexed": true,
          "internalType": "address",
          "name": "moderator",
          "type": "address"
        },
        {
          "indexed": true,
          "internalType": "uint256",
          "name": "tokenId",
          "type": "uint256"
        }
      ],
      "name": "ContentRig__Approved",
      "type": "event"
    },
    {
      "anonymous": false,
      "inputs": [
        {
          "indexed": true,
          "internalType": "address",
          "name": "who",
          "type": "address"
        },
        {
          "indexed": true,
          "internalType": "address",
          "name": "to",
          "type": "address"
        },
        {
          "indexed": true,
          "internalType": "uint256",
          "name": "tokenId",
          "type": "uint256"
        },
        {
          "indexed": false,
          "internalType": "uint256",
          "name": "epochId",
          "type": "uint256"
        },
        {
          "indexed": false,
          "internalType": "uint256",
          "name": "price",
          "type": "uint256"
        }
      ],
      "name": "ContentRig__Collected",
      "type": "event"
    },
    {
      "anonymous": false,
      "inputs": [
        {
          "indexed": true,
          "internalType": "address",
          "name": "account",
          "type": "address"
        },
        {
          "indexed": false,
          "internalType": "uint256",
          "name": "amount",
          "type": "uint256"
        }
      ],
      "name": "ContentRig__Claimed",
      "type": "event"
    },
    {
      "anonymous": false,
      "inputs": [
        {
          "indexed": true,
          "internalType": "address",
          "name": "who",
          "type": "address"
        },
        {
          "indexed": true,
          "internalType": "address",
          "name": "to",
          "type": "address"
        },
        {
          "indexed": true,
          "internalType": "uint256",
          "name": "tokenId",
          "type": "uint256"
        },
        {
          "indexed": false,
          "internalType": "string",
          "name": "uri",
          "type": "string"
        }
      ],
      "name": "ContentRig__Created",
      "type": "event"
    },
    {
      "anonymous": false,
      "inputs": [
        {
          "indexed": false,
          "internalType": "bool",
          "name": "isModerated",
          "type": "bool"
        }
      ],
      "name": "ContentRig__IsModeratedSet",
      "type": "event"
    },
    {
      "anonymous": false,
      "inputs": [
        {
          "indexed": true,
          "internalType": "address",
          "name": "account",
          "type": "address"
        },
        {
          "indexed": false,
          "internalType": "bool",
          "name": "isModerator",
          "type": "bool"
        }
      ],
      "name": "ContentRig__ModeratorsSet",
      "type": "event"
    },
    {
      "anonymous": false,
      "inputs": [
        {
          "indexed": true,
          "internalType": "address",
          "name": "rewardToken",
          "type": "address"
        }
      ],
      "name": "ContentRig__RewardAdded",
      "type": "event"
    },
    {
      "anonymous": false,
      "inputs": [
        {
          "indexed": true,
          "internalType": "address",
          "name": "team",
          "type": "address"
        }
      ],
      "name": "ContentRig__TeamSet",
      "type": "event"
    },
    {
      "anonymous": false,
      "inputs": [
        {
          "indexed": true,
          "internalType": "address",
          "name": "treasury",
          "type": "address"
        }
      ],
      "name": "ContentRig__TreasurySet",
      "type": "event"
    },
    {
      "anonymous": false,
      "inputs": [
        {
          "indexed": false,
          "internalType": "string",
          "name": "uri",
          "type": "string"
        }
      ],
      "name": "ContentRig__UriSet",
      "type": "event"
    },
    {
      "anonymous": false,
      "inputs": [
        {
          "indexed": false,
          "internalType": "uint256",
          "name": "_tokenId",
          "type": "uint256"
        }
      ],
      "name": "MetadataUpdate",
      "type": "event"
    },
    {
      "anonymous": false,
      "inputs": [
        {
          "indexed": true,
          "internalType": "address",
          "name": "previousOwner",
          "type": "address"
        },
        {
          "indexed": true,
          "internalType": "address",
          "name": "newOwner",
          "type": "address"
        }
      ],
      "name": "OwnershipTransferred",
      "type": "event"
    },
    {
      "anonymous": false,
      "inputs": [
        {
          "indexed": true,
          "internalType": "address",
          "name": "from",
          "type": "address"
        },
        {
          "indexed": true,
          "internalType": "address",
          "name": "to",
          "type": "address"
        },
        {
          "indexed": true,
          "internalType": "uint256",
          "name": "tokenId",
          "type": "uint256"
        }
      ],
      "name": "Transfer",
      "type": "event"
    },
    {
      "inputs": [],
      "name": "ABS_MAX_INIT_PRICE",
      "outputs": [
        {
          "internalType": "uint256",
          "name": "",
          "type": "uint256"
        }
      ],
      "stateMutability": "view",
      "type": "function"
    },
    {
      "inputs": [],
      "name": "CREATOR_FEE",
      "outputs": [
        {
          "internalType": "uint256",
          "name": "",
          "type": "uint256"
        }
      ],
      "stateMutability": "view",
      "type": "function"
    },
    {
      "inputs": [],
      "name": "DIVISOR",
      "outputs": [
        {
          "internalType": "uint256",
          "name": "",
          "type": "uint256"
        }
      ],
      "stateMutability": "view",
      "type": "function"
    },
    {
      "inputs": [],
      "name": "EPOCH_PERIOD",
      "outputs": [
        {
          "internalType": "uint256",
          "name": "",
          "type": "uint256"
        }
      ],
      "stateMutability": "view",
      "type": "function"
    },
    {
      "inputs": [],
      "name": "PRECISION",
      "outputs": [
        {
          "internalType": "uint256",
          "name": "",
          "type": "uint256"
        }
      ],
      "stateMutability": "view",
      "type": "function"
    },
    {
      "inputs": [],
      "name": "PREVIOUS_OWNER_FEE",
      "outputs": [
        {
          "internalType": "uint256",
          "name": "",
          "type": "uint256"
        }
      ],
      "stateMutability": "view",
      "type": "function"
    },
    {
      "inputs": [],
      "name": "PRICE_MULTIPLIER",
      "outputs": [
        {
          "internalType": "uint256",
          "name": "",
          "type": "uint256"
        }
      ],
      "stateMutability": "view",
      "type": "function"
    },
    {
      "inputs": [],
      "name": "PROTOCOL_FEE",
      "outputs": [
        {
          "internalType": "uint256",
          "name": "",
          "type": "uint256"
        }
      ],
      "stateMutability": "view",
      "type": "function"
    },
    {
      "inputs": [],
      "name": "TEAM_FEE",
      "outputs": [
        {
          "internalType": "uint256",
          "name": "",
          "type": "uint256"
        }
      ],
      "stateMutability": "view",
      "type": "function"
    },
    {
      "inputs": [
        {
          "internalType": "address",
          "name": "",
          "type": "address"
        }
      ],
      "name": "accountToIsModerator",
      "outputs": [
        {
          "internalType": "bool",
          "name": "",
          "type": "bool"
        }
      ],
      "stateMutability": "view",
      "type": "function"
    },
    {
      "inputs": [
        {
          "internalType": "address",
          "name": "rewardToken",
          "type": "address"
        }
      ],
      "name": "addReward",
      "outputs": [],
      "stateMutability": "nonpayable",
      "type": "function"
    },
    {
      "inputs": [
        {
          "internalType": "address",
          "name": "",
          "type": "address"
        },
        {
          "internalType": "uint256",
          "name": "",
          "type": "uint256"
        }
      ],
      "name": "approve",
      "outputs": [],
      "stateMutability": "nonpayable",
      "type": "function"
    },
    {
      "inputs": [
        {
          "internalType": "uint256[]",
          "name": "tokenIds",
          "type": "uint256[]"
        }
      ],
      "name": "approveContents",
      "outputs": [],
      "stateMutability": "nonpayable",
      "type": "function"
    },
    {
      "inputs": [
        {
          "internalType": "address",
          "name": "owner",
          "type": "address"
        }
      ],
      "name": "balanceOf",
      "outputs": [
        {
          "internalType": "uint256",
          "name": "",
          "type": "uint256"
        }
      ],
      "stateMutability": "view",
      "type": "function"
    },
    {
      "inputs": [
        {
          "internalType": "address",
          "name": "to",
          "type": "address"
        },
        {
          "internalType": "uint256",
          "name": "tokenId",
          "type": "uint256"
        },
        {
          "internalType": "uint256",
          "name": "epochId",
          "type": "uint256"
        },
        {
          "internalType": "uint256",
          "name": "deadline",
          "type": "uint256"
        },
        {
          "internalType": "uint256",
          "name": "maxPrice",
          "type": "uint256"
        }
      ],
      "name": "collect",
      "outputs": [
        {
          "internalType": "uint256",
          "name": "price",
          "type": "uint256"
        }
      ],
      "stateMutability": "nonpayable",
      "type": "function"
    },
    {
      "inputs": [],
      "name": "core",
      "outputs": [
        {
          "internalType": "address",
          "name": "",
          "type": "address"
        }
      ],
      "stateMutability": "view",
      "type": "function"
    },
    {
      "inputs": [
        {
          "internalType": "address",
          "name": "to",
          "type": "address"
        },
        {
          "internalType": "string",
          "name": "tokenUri",
          "type": "string"
        }
      ],
      "name": "create",
      "outputs": [
        {
          "internalType": "uint256",
          "name": "tokenId",
          "type": "uint256"
        }
      ],
      "stateMutability": "nonpayable",
      "type": "function"
    },
    {
      "inputs": [
        {
          "internalType": "uint256",
          "name": "tokenId",
          "type": "uint256"
        }
      ],
      "name": "getApproved",
      "outputs": [
        {
          "internalType": "address",
          "name": "",
          "type": "address"
        }
      ],
      "stateMutability": "view",
      "type": "function"
    },
    {
      "inputs": [
        {
          "internalType": "uint256",
          "name": "tokenId",
          "type": "uint256"
        }
      ],
      "name": "getPrice",
      "outputs": [
        {
          "internalType": "uint256",
          "name": "",
          "type": "uint256"
        }
      ],
      "stateMutability": "view",
      "type": "function"
    },
    {
      "inputs": [
        {
          "internalType": "address",
          "name": "owner",
          "type": "address"
        },
        {
          "internalType": "address",
          "name": "operator",
          "type": "address"
        }
      ],
      "name": "isApprovedForAll",
      "outputs": [
        {
          "internalType": "bool",
          "name": "",
          "type": "bool"
        }
      ],
      "stateMutability": "view",
      "type": "function"
    },
    {
      "inputs": [],
      "name": "isModerated",
      "outputs": [
        {
          "internalType": "bool",
          "name": "",
          "type": "bool"
        }
      ],
      "stateMutability": "view",
      "type": "function"
    },
    {
      "inputs": [],
      "name": "minInitPrice",
      "outputs": [
        {
          "internalType": "uint256",
          "name": "",
          "type": "uint256"
        }
      ],
      "stateMutability": "view",
      "type": "function"
    },
    {
      "inputs": [],
      "name": "name",
      "outputs": [
        {
          "internalType": "string",
          "name": "",
          "type": "string"
        }
      ],
      "stateMutability": "view",
      "type": "function"
    },
    {
      "inputs": [],
      "name": "nextTokenId",
      "outputs": [
        {
          "internalType": "uint256",
          "name": "",
          "type": "uint256"
        }
      ],
      "stateMutability": "view",
      "type": "function"
    },
    {
      "inputs": [],
      "name": "owner",
      "outputs": [
        {
          "internalType": "address",
          "name": "",
          "type": "address"
        }
      ],
      "stateMutability": "view",
      "type": "function"
    },
    {
      "inputs": [
        {
          "internalType": "uint256",
          "name": "tokenId",
          "type": "uint256"
        }
      ],
      "name": "ownerOf",
      "outputs": [
        {
          "internalType": "address",
          "name": "",
          "type": "address"
        }
      ],
      "stateMutability": "view",
      "type": "function"
    },
    {
      "inputs": [],
      "name": "quote",
      "outputs": [
        {
          "internalType": "address",
          "name": "",
          "type": "address"
        }
      ],
      "stateMutability": "view",
      "type": "function"
    },
    {
      "inputs": [],
      "name": "renounceOwnership",
      "outputs": [],
      "stateMutability": "nonpayable",
      "type": "function"
    },
    {
      "inputs": [],
      "name": "rewarder",
      "outputs": [
        {
          "internalType": "address",
          "name": "",
          "type": "address"
        }
      ],
      "stateMutability": "view",
      "type": "function"
    },
    {
      "inputs": [
        {
          "internalType": "address",
          "name": "",
          "type": "address"
        },
        {
          "internalType": "address",
          "name": "",
          "type": "address"
        },
        {
          "internalType": "uint256",
          "name": "",
          "type": "uint256"
        }
      ],
      "name": "safeTransferFrom",
      "outputs": [],
      "stateMutability": "nonpayable",
      "type": "function"
    },
    {
      "inputs": [
        {
          "internalType": "address",
          "name": "",
          "type": "address"
        },
        {
          "internalType": "address",
          "name": "",
          "type": "address"
        },
        {
          "internalType": "uint256",
          "name": "",
          "type": "uint256"
        },
        {
          "internalType": "bytes",
          "name": "",
          "type": "bytes"
        }
      ],
      "name": "safeTransferFrom",
      "outputs": [],
      "stateMutability": "nonpayable",
      "type": "function"
    },
    {
      "inputs": [
        {
          "internalType": "address",
          "name": "",
          "type": "address"
        },
        {
          "internalType": "bool",
          "name": "",
          "type": "bool"
        }
      ],
      "name": "setApprovalForAll",
      "outputs": [],
      "stateMutability": "nonpayable",
      "type": "function"
    },
    {
      "inputs": [
        {
          "internalType": "bool",
          "name": "_isModerated",
          "type": "bool"
        }
      ],
      "name": "setIsModerated",
      "outputs": [],
      "stateMutability": "nonpayable",
      "type": "function"
    },
    {
      "inputs": [
        {
          "internalType": "address[]",
          "name": "accounts",
          "type": "address[]"
        },
        {
          "internalType": "bool",
          "name": "isModerator",
          "type": "bool"
        }
      ],
      "name": "setModerators",
      "outputs": [],
      "stateMutability": "nonpayable",
      "type": "function"
    },
    {
      "inputs": [
        {
          "internalType": "address",
          "name": "_team",
          "type": "address"
        }
      ],
      "name": "setTeam",
      "outputs": [],
      "stateMutability": "nonpayable",
      "type": "function"
    },
    {
      "inputs": [
        {
          "internalType": "address",
          "name": "_treasury",
          "type": "address"
        }
      ],
      "name": "setTreasury",
      "outputs": [],
      "stateMutability": "nonpayable",
      "type": "function"
    },
    {
      "inputs": [
        {
          "internalType": "string",
          "name": "_uri",
          "type": "string"
        }
      ],
      "name": "setUri",
      "outputs": [],
      "stateMutability": "nonpayable",
      "type": "function"
    },
    {
      "inputs": [
        {
          "internalType": "bytes4",
          "name": "interfaceId",
          "type": "bytes4"
        }
      ],
      "name": "supportsInterface",
      "outputs": [
        {
          "internalType": "bool",
          "name": "",
          "type": "bool"
        }
      ],
      "stateMutability": "view",
      "type": "function"
    },
    {
      "inputs": [],
      "name": "symbol",
      "outputs": [
        {
          "internalType": "string",
          "name": "",
          "type": "string"
        }
      ],
      "stateMutability": "view",
      "type": "function"
    },
    {
      "inputs": [],
      "name": "team",
      "outputs": [
        {
          "internalType": "address",
          "name": "",
          "type": "address"
        }
      ],
      "stateMutability": "view",
      "type": "function"
    },
    {
      "inputs": [
        {
          "internalType": "uint256",
          "name": "index",
          "type": "uint256"
        }
      ],
      "name": "tokenByIndex",
      "outputs": [
        {
          "internalType": "uint256",
          "name": "",
          "type": "uint256"
        }
      ],
      "stateMutability": "view",
      "type": "function"
    },
    {
      "inputs": [
        {
          "internalType": "uint256",
          "name": "",
          "type": "uint256"
        }
      ],
      "name": "tokenIdToApproved",
      "outputs": [
        {
          "internalType": "bool",
          "name": "",
          "type": "bool"
        }
      ],
      "stateMutability": "view",
      "type": "function"
    },
    {
      "inputs": [
        {
          "internalType": "uint256",
          "name": "",
          "type": "uint256"
        }
      ],
      "name": "tokenIdToCreator",
      "outputs": [
        {
          "internalType": "address",
          "name": "",
          "type": "address"
        }
      ],
      "stateMutability": "view",
      "type": "function"
    },
    {
      "inputs": [
        {
          "internalType": "uint256",
          "name": "",
          "type": "uint256"
        }
      ],
      "name": "tokenIdToEpochId",
      "outputs": [
        {
          "internalType": "uint256",
          "name": "",
          "type": "uint256"
        }
      ],
      "stateMutability": "view",
      "type": "function"
    },
    {
      "inputs": [
        {
          "internalType": "uint256",
          "name": "",
          "type": "uint256"
        }
      ],
      "name": "tokenIdToInitPrice",
      "outputs": [
        {
          "internalType": "uint256",
          "name": "",
          "type": "uint256"
        }
      ],
      "stateMutability": "view",
      "type": "function"
    },
    {
      "inputs": [
        {
          "internalType": "uint256",
          "name": "",
          "type": "uint256"
        }
      ],
      "name": "tokenIdToStake",
      "outputs": [
        {
          "internalType": "uint256",
          "name": "",
          "type": "uint256"
        }
      ],
      "stateMutability": "view",
      "type": "function"
    },
    {
      "inputs": [
        {
          "internalType": "uint256",
          "name": "",
          "type": "uint256"
        }
      ],
      "name": "tokenIdToStartTime",
      "outputs": [
        {
          "internalType": "uint256",
          "name": "",
          "type": "uint256"
        }
      ],
      "stateMutability": "view",
      "type": "function"
    },
    {
      "inputs": [
        {
          "internalType": "address",
          "name": "owner",
          "type": "address"
        },
        {
          "internalType": "uint256",
          "name": "index",
          "type": "uint256"
        }
      ],
      "name": "tokenOfOwnerByIndex",
      "outputs": [
        {
          "internalType": "uint256",
          "name": "",
          "type": "uint256"
        }
      ],
      "stateMutability": "view",
      "type": "function"
    },
    {
      "inputs": [
        {
          "internalType": "uint256",
          "name": "tokenId",
          "type": "uint256"
        }
      ],
      "name": "tokenURI",
      "outputs": [
        {
          "internalType": "string",
          "name": "",
          "type": "string"
        }
      ],
      "stateMutability": "view",
      "type": "function"
    },
    {
      "inputs": [],
      "name": "totalSupply",
      "outputs": [
        {
          "internalType": "uint256",
          "name": "",
          "type": "uint256"
        }
      ],
      "stateMutability": "view",
      "type": "function"
    },
    {
      "inputs": [
        {
          "internalType": "address",
          "name": "",
          "type": "address"
        },
        {
          "internalType": "address",
          "name": "",
          "type": "address"
        },
        {
          "internalType": "uint256",
          "name": "",
          "type": "uint256"
        }
      ],
      "name": "transferFrom",
      "outputs": [],
      "stateMutability": "nonpayable",
      "type": "function"
    },
    {
      "inputs": [
        {
          "internalType": "address",
          "name": "newOwner",
          "type": "address"
        }
      ],
      "name": "transferOwnership",
      "outputs": [],
      "stateMutability": "nonpayable",
      "type": "function"
    },
    {
      "inputs": [],
      "name": "treasury",
      "outputs": [
        {
          "internalType": "address",
          "name": "",
          "type": "address"
        }
      ],
      "stateMutability": "view",
      "type": "function"
    },
    {
      "inputs": [],
      "name": "unit",
      "outputs": [
        {
          "internalType": "address",
          "name": "",
          "type": "address"
        }
      ],
      "stateMutability": "view",
      "type": "function"
    },
    {
      "inputs": [],
      "name": "uri",
      "outputs": [
        {
          "internalType": "string",
          "name": "",
          "type": "string"
        }
      ],
      "stateMutability": "view",
      "type": "function"
    }
  ],
  "bytecode": "0x610120806040523462000496576200348480380380916200002182856200083d565b8339810161016082820312620004965781516001600160401b0381116200049657816200005091840162000861565b60208301519092906001600160401b0381116200049657826200007591830162000861565b604082015190926001600160401b03821162000496576200009891830162000861565b620000a660608301620008d8565b93620000b560808401620008d8565b92620000c460a08201620008d8565b620000d260c08301620008d8565b94620000e160e08401620008d8565b94620000f16101008501620008d8565b9761014061012086015195015195861515870362000496578051906001600160401b038211620004745760005490600182811c9216801562000832575b6020831014620005ca5781601f849311620007d2575b50602090601f831160011462000756576000926200074a575b50508160011b916000199060031b1c1916176000555b8051906001600160401b038211620004745760015490600182811c921680156200073f575b6020831014620005ca5781601f849311620006de575b50602090601f8311600114620006605760009262000654575b50508160011b916000199060031b1c1916176001555b6001600b55600c8054336001600160a01b03198216811790925560405191906001600160a01b03167f8be0079c531659141344cd1fd0a4f28419497f9722a3daafe3b4186f6b6457e0600080a3841562000645575080511562000633576001600160a01b0389161562000621576001600160a01b038216156200060f576001600160a01b03831615620005fd576001600160a01b03861615620005eb578051906001600160401b0382116200047457600d54600181811c91168015620005e0575b6020821014620005ca57601f811162000564575b50602090601f8311600114620004e957918060009a9896949260209a9896948c92620004dd575b50508160011b918b199060031b1c191617600d555b60a08a815260c091909152600e80546001600160a01b0319166001600160a01b03938416179055600f805460e096909652610100939093526001600160a81b03199094169481169490941791151590921b60ff60a01b16179055604051634c96a38960e01b8152306004820152938492602492849291165af19081156200048a576000916200049b575b5060808190526001600160a01b031690813b156200049657604051639c9b2e2160e01b81526001600160a01b039091166004820152906000908290602490829084905af180156200048a576200045b575b604051612b569081620008ee82396080518181816106e301528181610cf301528181610fa601526117ea015260a05181611ba7015260c051818181610dcc01528181610f0101528181610f3001528181610f6e0152818161103a015281816110840152611a93015260e0518181816104920152610e0f0152610100518181816112aa015281816114050152611eb40152f35b6001600160401b038111620004745760405238620003c9565b634e487b7160e01b600052604160045260246000fd5b6040513d6000823e3d90fd5b600080fd5b90506020813d602011620004d4575b81620004b9602093836200083d565b810103126200049657620004cd90620008d8565b3862000378565b3d9150620004aa565b015190503880620002d9565b90600d60005260206000209160005b601f19851681106200054b57509260009a9896949260019260209b99979583601f1981161062000532575b505050811b01600d55620002ee565b01518c1960f88460031b161c1916905538808062000523565b91926020600181928685015181550194019201620004f8565b600d6000527fd7b6990105719101dabeb77144f2a3385c8033acd3af97e9423a695e81ad1eb5601f840160051c810160208510620005c2575b601f830160051c82018110620005b5575050620002b2565b600081556001016200059d565b50806200059d565b634e487b7160e01b600052602260045260246000fd5b90607f16906200029e565b60405163368089ab60e21b8152600490fd5b6040516339f10e2960e21b8152600490fd5b6040516307f971e960e41b8152600490fd5b60405163667381e560e11b8152600490fd5b6040516391ea746b60e01b8152600490fd5b6332fd3dd760e01b8152600490fd5b015190503880620001c7565b6001600090815293506000805160206200346483398151915291905b601f1984168510620006c2576001945083601f19811610620006a8575b505050811b01600155620001dd565b015160001960f88460031b161c1916905538808062000699565b818101518355602094850194600190930192909101906200067c565b600160005290915060008051602062003464833981519152601f840160051c81016020851062000737575b90849392915b601f830160051c8201811062000727575050620001ae565b600081558594506001016200070f565b508062000709565b91607f169162000198565b0151905038806200015d565b600080805293506000805160206200344483398151915291905b601f1984168510620007b6576001945083601f198116106200079c575b505050811b0160005562000173565b015160001960f88460031b161c191690553880806200078d565b8181015183556020948501946001909301929091019062000770565b6000805290915060008051602062003444833981519152601f840160051c8101602085106200082a575b90849392915b601f830160051c820181106200081a57505062000144565b6000815585945060010162000802565b5080620007fc565b91607f16916200012e565b601f909101601f19168101906001600160401b038211908210176200047457604052565b919080601f8401121562000496578251906001600160401b0382116200047457604051916020916200089d601f8301601f19168401856200083d565b818452828287010111620004965760005b818110620008c457508260009394955001015290565b8581018301518482018401528201620008ae565b51906001600160a01b0382168203620004965756fe608080604052600436101561001357600080fd5b600090813560e01c90816301ffc9a7146121d75750806306fdde0314612133578063081812fc146120de578063095cf5c614612076578063095ea7b31461205c5780630b4501fd14610712578063113990b81461203957806318160ddd1461201b5780631a7dfa9f14611ffe5780631d059bbb14611fcb57806323b872dd14611e975780632f745c5914611f1e5780633410fe6e14611f015780633557e6be14611ed75780633c92276e14611e9c57806342842e0e14611e975780634428d91814611e6d5780634f6ccce714611ddb578063539a1b8d14611dbe5780635bccc6e514611d9457806361d027b314611d6b5780636352211e14611d3a57806370a0823114611d16578063715018a614611cb957806375794a3c14611c9b5780637948e21114611c7557806381fbacb014611c4b57806385f2aef214611c2257806388f4b49e14611bff5780638da5cb5b14611bd6578063907af6c014611b9157806395d89b4114611ac2578063999b93af14611a7d5780639b642de1146118965780639c511ad4146118785780639c9b2e21146117bd578063a15ab08d1461135c578063a22cb46514611339578063a7b85c0414610a34578063aaf5eb6814610a11578063b88d4fde146109a9578063be1b8aac146108d8578063c87b56dd146107c9578063c96d145b14610756578063ca4a551c14610717578063ce1b81b414610712578063dcc3e06e146106cd578063e7572230146106a6578063e985e9c514610652578063eac989f81461056c578063eb5653d71461053d578063f0f44260146104c1578063f2f4eb261461047c578063f2fde38b146103b15763f565885c1461027e57600080fd5b346103ae576020806003193601126103aa5760043567ffffffffffffffff81116103a6576102b0903690600401612413565b600c549192916001600160a01b031633141580610390575b61037e57835b8181106102d9578480f35b6102e4818386612a92565b35855260129081845260ff60408720541661036c576103679161031161030b838689612a92565b35612599565b5061031d828588612a92565b358752845260408620805460ff1916600117905561033c818487612a92565b35337fa220dd2a4dc419700d4a55c66382a84893f308a8d8ed736b1bbde8d9fa8d65fc8880a3612609565b6102ce565b60405163aa841f0560e01b8152600490fd5b60405163270c2bff60e21b8152600490fd5b503384526010825260ff604085205416156102c8565b8280fd5b5080fd5b80fd5b50346103ae5760203660031901126103ae576103cb6122b8565b6103d361247e565b6001600160a01b0390811690811561042857600c54826bffffffffffffffffffffffff60a01b821617600c55167f8be0079c531659141344cd1fd0a4f28419497f9722a3daafe3b4186f6b6457e0600080a380f35b60405162461bcd60e51b815260206004820152602660248201527f4f776e61626c653a206e6577206f776e657220697320746865207a65726f206160448201526564647265737360d01b6064820152608490fd5b50346103ae57806003193601126103ae576040517f00000000000000000000000000000000000000000000000000000000000000006001600160a01b03168152602090f35b50346103ae5760203660031901126103ae576104db6122b8565b6104e361247e565b6001600160a01b0316801561052b57600e80546001600160a01b031916821790557fe0e492a6145798cdae373bda32c7a57edcb1d7dbf6b933fe45ba6dc1339c705c8280a280f35b6040516339f10e2960e21b8152600490fd5b50346103ae5760203660031901126103ae5760ff60406020926004358152601284522054166040519015158152f35b50346103ae57806003193601126103ae576040516000600d5461058e81612444565b8084529060019081811690811561062b57506001146105d0575b6105cc846105b881860382612371565b604051918291602083526020830190612278565b0390f35b600d600090815292507fd7b6990105719101dabeb77144f2a3385c8033acd3af97e9423a695e81ad1eb55b8284106106135750505081016020016105b8826105a8565b805460208587018101919091529093019281016105fb565b60ff191660208087019190915292151560051b850190920192506105b891508390506105a8565b50346103ae5760403660031901126103ae5761066c6122b8565b60406106766122ce565b9260018060a01b0380931681526005602052209116600052602052602060ff604060002054166040519015158152f35b50346103ae5760203660031901126103ae5760206106c5600435612ab6565b604051908152f35b50346103ae57806003193601126103ae576040517f00000000000000000000000000000000000000000000000000000000000000006001600160a01b03168152602090f35b6122e4565b50346103ae5760203660031901126103ae5760209060ff906040906001600160a01b036107426122b8565b168152601084522054166040519015158152f35b50346103ae5760203660031901126103ae576004358015158091036107c45760207fc7aeb362096fdee99caef1bf3b77f12b53e5cddfe6eef06173da71c21881f8fa916107a161247e565b600f805460ff60a01b191660a083901b60ff60a01b16179055604051908152a180f35b600080fd5b50346103ae57602090816003193601126103ae5750600435600081815260026020526040902054610809906001600160a01b0316151561254d565b61254d565b600052600a815260406000209060405191826000825461082881612444565b938484526001918683821691826000146108b6575050600114610877575b505061085492500383612371565b600060405161086281612355565b526105cc604051928284938452830190612278565b85925060005281600020906000915b85831061089e57505061085493508201013880610846565b80548389018501528794508693909201918101610886565b925093505061085494915060ff191682840152151560051b8201013880610846565b50346103ae5760403660031901126103ae5760043567ffffffffffffffff81116103aa5761090a903690600401612413565b610912612404565b61091a61247e565b15159060ff821690845b81811061092f578580f35b6109a4906001600160a01b038061094f61094a84878b612a92565b612aa2565b1688527f67c5d21d8ab3695e1a53225bd5190a16615cb86b6686e5abc11908d6ed365bb56020916010835260408a208760ff1982541617905561099661094a85888c612a92565b1691604051888152a2612609565b610924565b50346103ae5760803660031901126103ae576109c36122b8565b506109cc6122ce565b5060643567ffffffffffffffff81116103aa57366023820112156103aa576109fe9036906024816004013591016123af565b50604051635fbd2f1560e01b8152600490fd5b50346103ae57806003193601126103ae576020604051670de0b6b3a76400008152f35b50346103ae5760a03660031901126103ae57610a4e6122b8565b610a5661262e565b6001600160a01b03811615611327576024358252601260205260ff6040832054161561131557606435421161130357602435825260146020526040822054604435036112f157610aa7602435612ab6565b9060843582116112df57602435808452601360205260408420546001600160a01b031690610ad490612599565b9060243585526017602052604085205490671bc16d674ec800008581810204811486151715611292576001600160c01b0390670de0b6b3a764000090870204818111156112a657505b6024358752601460205260408720600181540190556015602052604087205560166020524260408720556017602052846040872055610b73610b60602435612599565b6001600160a01b0385811691161461299f565b6001600160a01b0383166111cf5760085460243587526009602052806040882055600160401b8110156111bb57610bb3816001610bcd93016008556125bc565b6024359082549060031b91821b91600019901b1916179055565b6001600160a01b038381169085160361117c575b610c026001600160a01b0384811690610bfb602435612599565b161461299f565b60243580875260046020908152604080892080546001600160a01b03199081169091556001600160a01b03878116808c5260038552838c208054600019019055908916808c52838c2080546001019055858c526002909452828b208054909216841790915590519291907fddf252ad1be2c89b69c2b068fc378daa952ba7f163c4a11628f55a4df523b3ef8a80a485610d83575b505080610cef575b60208484604051604435815282848201526024359160018060a01b0316907f6700088779240bf172b9e135be9e83b0ba6774a6efafb40f72a3aa405a5e708060403392a46001600b55604051908152f35b84907f00000000000000000000000000000000000000000000000000000000000000006001600160a01b0316803b156103a65760405163f3fef3a360e01b81526001600160a01b0394909416600485015260248401919091528290604490829084905af18015610d7857610d64575b80610c9e565b610d6e8491612341565b6103a65782610d5e565b6040513d86823e3d90fd5b6323b872dd60e01b6020820152336024820152306044820152856064820152606481528060a081011067ffffffffffffffff60a0830111176111665760a08101604052610df9907f00000000000000000000000000000000000000000000000000000000000000006001600160a01b0316612897565b60405163cce516b760e01b8152906020826004817f00000000000000000000000000000000000000000000000000000000000000006001600160a01b03165afa91821561115b578792611113575b50611f409086828102048214871517156110ff5761012c9087828102048214881517156110e457600f546001600160a01b0316156110f857876064810204606414881517156110e4576127106064890204925b888a6001600160a01b038716156110c357506064810204606414891517156110af57610f5d8493610f9393610f2e610efd8d95610ef8610ef89a61271060648a02049b8c935b610ef8612710809a8d0204998a928d0204809c612847565b612847565b948b7f00000000000000000000000000000000000000000000000000000000000000006001600160a01b0316612854565b7f00000000000000000000000000000000000000000000000000000000000000006001600160a01b0316612854565b600e546001600160a01b03908116907f000000000000000000000000000000000000000000000000000000000000000016612854565b8061106e575b5080611034575b508590507f00000000000000000000000000000000000000000000000000000000000000006001600160a01b0316803b156103aa576040516311f9fbc960e21b81526001600160a01b0386166004820152602481018790529082908290604490829084905af180156110295715610c965761101a90612341565b611025578438610c96565b8480fd5b6040513d84823e3d90fd5b611067917f00000000000000000000000000000000000000000000000000000000000000006001600160a01b0316612854565b3880610fa0565b600f546110a991906001600160a01b03908116907f000000000000000000000000000000000000000000000000000000000000000016612854565b38610f99565b634e487b7160e01b8a52601160045260248afd5b93610f9393610f2e610efd610f5d9495610ef88a610ef89b9a9b8c93610ee0565b634e487b7160e01b89526011600452602489fd5b8892610e9a565b634e487b7160e01b88526011600452602488fd5b9091506020813d602011611153575b8161112f60209383612371565b8101031261114f57516001600160a01b038116810361114f579038610e47565b8680fd5b3d9150611122565b6040513d89823e3d90fd5b634e487b7160e01b600052604160045260246000fd5b611185846124d6565b60018060a01b03851687526006602052604087208188526020526024356040882055602435875260076020526040872055610be1565b634e487b7160e01b87526041600452602487fd5b6001600160a01b0383811690851614610bcd576111eb836124d6565b8060001981011161129257602435875260076020526040872054600182820301611247575b5060243587526000604088205560018060a01b03841687526006602052604087209060001901875260205260006040872055610bcd565b6001600160a01b038516808952600660208181526040808c2060001987018d528252808c2054938c52918152818b20848c528152818b20839055918a52600790915288205538611210565b634e487b7160e01b87526011600452602487fd5b90507f00000000000000000000000000000000000000000000000000000000000000008082106112d7575b50610b1d565b9050386112d1565b60405163184b07f760e21b8152600490fd5b604051632dc9c01d60e11b8152600490fd5b6040516329cf489360e11b8152600490fd5b604051631264982360e11b8152600490fd5b60405163293ee9a560e01b8152600490fd5b50346103ae5760403660031901126103ae576113536122b8565b506109fe612404565b50346103ae5760403660031901126103ae576113766122b8565b67ffffffffffffffff906024358281116117b9576113989036906004016123e6565b906113a161262e565b6001600160a01b0381168015611327578251156117a7576113c3601154612609565b92836011558386526020956013875260408120936bffffffffffffffffffffffff60a01b94848682541617905560ff600f5460a01c161561178f575b601588527f00000000000000000000000000000000000000000000000000000000000000006040832055601688524260408320556040519061144082612355565b828252600087815260026020526040902054611468906001600160a01b031615155b156126d7565b6008549587845260098a52866040852055600160401b87101561177b57611557929188916114ba836114a160019b8c81016008556125bc565b90919082549060031b91821b91600019901b1916179055565b6114c3826124d6565b88875260068d52604087208188528d5283604088205583875260078d52604087205561150761146284600052600260205260018060a01b0360406000205416151590565b87865260038c526040862089815401905582865260028c528760408720918254161790558187867fddf252ad1be2c89b69c2b068fc378daa952ba7f163c4a11628f55a4df523b3ef8180a4612753565b1561175e576000858152600260205260409020546001600160a01b03161561170257848152600a8752604081209082519687116116ee576115988254612444565b601f81116116a7575b508790601f881160011461164757959694958795918261163c575b50600019600383901b1c191690861b1790555b7ff8e1a15aba9398e019f0b49df1a4fde98ee17ae345cb5f6b5e2c27f5033e8ce786604051858152a17f2793659e7b05896d214abba44e5123a4eb8281f78353240d3dfc22d441bc00a36040518781528061162e33948a830190612278565b0390a4600b55604051908152f35b9050830151386115bc565b90601f198816838352898320925b8a8282106116935750509188918899889998941061167a575b5050811b0190556115cf565b85015160001960f88460031b161c19169055388061166e565b868401518555938801939283019201611655565b828252888220601f890160051c8101918a8a106116e4575b601f0160051c019086905b8281106116d85750506115a1565b600081550186906116ca565b90915081906116bf565b634e487b7160e01b81526041600452602490fd5b60405162461bcd60e51b815260048101889052602e60248201527f45524337323155524953746f726167653a2055524920736574206f66206e6f6e60448201526d32bc34b9ba32b73a103a37b5b2b760911b6064820152608490fd5b60405162461bcd60e51b81528061177760048201612684565b0390fd5b634e487b7160e01b84526041600452602484fd5b6012885260408220805460ff191660011790556113ff565b6040516391ea746b60e01b8152600490fd5b8380fd5b50346103ae5760203660031901126103ae576117d76122b8565b906117e061247e565b6001600160a01b037f0000000000000000000000000000000000000000000000000000000000000000811692833b156103a6578291602483926040519485938492639c9b2e2160e01b845216978860048401525af1801561102957611869575b50907f27f0ed361744984f1d6538a1320d5a6237aadc625f15d0a31827b427ae2e466a8280a280f35b61187290612341565b38611840565b50346103ae57806003193601126103ae576020604051620151808152f35b50346103ae57602090816003193601126103ae5767ffffffffffffffff6004358181116103a6576118cb9036906004016123e6565b906118d461247e565b8151908111611a69576118e8600d54612444565b601f8111611a07575b5083601f82116001146119655790808495927f6512686e4c9295d4fb7de9c11baed9bd652c69e93469984dfd19da11514e6b80959161195a575b508160011b916000199060031b1c191617600d555b611954604051928284938452830190612278565b0390a180f35b90508301513861192b565b600d84527fd7b6990105719101dabeb77144f2a3385c8033acd3af97e9423a695e81ad1eb590601f198316855b8181106119f057509183917f6512686e4c9295d4fb7de9c11baed9bd652c69e93469984dfd19da11514e6b80969794600194106119d7575b5050811b01600d55611940565b85015160001960f88460031b161c1916905538806119ca565b919287600181928689015181550194019201611992565b600d84527fd7b6990105719101dabeb77144f2a3385c8033acd3af97e9423a695e81ad1eb5601f830160051c810191868410611a5f575b601f0160051c01905b818110611a5457506118f1565b848155600101611a47565b9091508190611a3e565b634e487b7160e01b83526041600452602483fd5b50346103ae57806003193601126103ae576040517f00000000000000000000000000000000000000000000000000000000000000006001600160a01b03168152602090f35b50346103ae57806003193601126103ae5760405190806001805491611ae683612444565b80865292828116908115611b675750600114611b0d575b6105cc856105b881870382612371565b92508083527fb10e2d527612073b26eecdfd717e6a320cf44b4afac2b0732d9fcbe2b7fa0cf65b828410611b4f5750505081016020016105b8826105cc611afd565b80546020858701810191909152909301928101611b34565b8695506105cc969350602092506105b894915060ff191682840152151560051b8201019293611afd565b50346103ae57806003193601126103ae576040517f00000000000000000000000000000000000000000000000000000000000000006001600160a01b03168152602090f35b50346103ae57806003193601126103ae57600c546040516001600160a01b039091168152602090f35b50346103ae57806003193601126103ae576040516001600160c01b038152602090f35b50346103ae57806003193601126103ae57600f546040516001600160a01b039091168152602090f35b50346103ae5760203660031901126103ae5760406020916004358152601683522054604051908152f35b50346103ae57806003193601126103ae57602060ff600f5460a01c166040519015158152f35b50346103ae57806003193601126103ae576020601154604051908152f35b50346103ae57806003193601126103ae57611cd261247e565b600c80546001600160a01b0319811690915581906001600160a01b03167f8be0079c531659141344cd1fd0a4f28419497f9722a3daafe3b4186f6b6457e08280a380f35b50346103ae5760203660031901126103ae5760206106c5611d356122b8565b6124d6565b50346103ae5760203660031901126103ae576020611d59600435612599565b6040516001600160a01b039091168152f35b50346103ae57806003193601126103ae57600e546040516001600160a01b039091168152602090f35b50346103ae5760203660031901126103ae5760406020916004358152601583522054604051908152f35b50346103ae57806003193601126103ae576020604051611f408152f35b50346103ae5760203660031901126103ae57600435600854811015611e1357611e056020916125bc565b90546040519160031b1c8152f35b60405162461bcd60e51b815260206004820152602c60248201527f455243373231456e756d657261626c653a20676c6f62616c20696e646578206f60448201526b7574206f6620626f756e647360a01b6064820152608490fd5b50346103ae5760203660031901126103ae5760406020916004358152601483522054604051908152f35b612300565b50346103ae57806003193601126103ae5760206040517f00000000000000000000000000000000000000000000000000000000000000008152f35b50346103ae5760203660031901126103ae5760406020916004358152601783522054604051908152f35b50346103ae57806003193601126103ae5760206040516127108152f35b50346103ae5760403660031901126103ae57611f386122b8565b60243591611f45826124d6565b831015611f725760209260409260018060a01b031682526006845282822090825283522054604051908152f35b60405162461bcd60e51b815260206004820152602b60248201527f455243373231456e756d657261626c653a206f776e657220696e646578206f7560448201526a74206f6620626f756e647360a81b6064820152608490fd5b50346103ae5760203660031901126103ae57602090600435815260138252604060018060a01b0391205416604051908152f35b50346103ae57806003193601126103ae57602060405161012c8152f35b50346103ae57806003193601126103ae576020600854604051908152f35b50346103ae57806003193601126103ae576020604051671bc16d674ec800008152f35b50346103ae5760403660031901126103ae576109fe6122b8565b50346103ae5760203660031901126103ae576120906122b8565b61209861247e565b600f80546001600160a01b0319166001600160a01b039290921691821790557f272d1b1b18886845daa83878c1a6f1e223fcc13134bcdee6fac0ab74025d00208280a280f35b50346103ae5760203660031901126103ae5760209060043561211861080482600052600260205260018060a01b0360406000205416151590565b815260048252604060018060a01b0391205416604051908152f35b50346103ae57806003193601126103ae576040519080805461215481612444565b80855291600191808316908115611b67575060011461217d576105cc856105b881870382612371565b80809450527f290decd9548b62a8d60345a988386fc84ba6bc95484008f6362f93160ef3e5635b8284106121bf5750505081016020016105b8826105cc611afd565b805460208587018101919091529093019281016121a4565b9050346103aa5760203660031901126103aa5760043563ffffffff60e01b81168091036103a65760209250632483248360e11b811490811561221b575b5015158152f35b63780e9d6360e01b811491508115612235575b5038612214565b6380ac58cd60e01b811491508115612267575b8115612256575b503861222e565b6301ffc9a760e01b1490503861224f565b635b5e139f60e01b81149150612248565b919082519283825260005b8481106122a4575050826000602080949584010152601f8019910116010190565b602081830181015184830182015201612283565b600435906001600160a01b03821682036107c457565b602435906001600160a01b03821682036107c457565b346107c45760003660031901126107c457602060405160648152f35b346107c45760603660031901126107c4576001600160a01b03600435818116036107c457602435908116036107c457604051635fbd2f1560e01b8152600490fd5b67ffffffffffffffff811161116657604052565b6020810190811067ffffffffffffffff82111761116657604052565b90601f8019910116810190811067ffffffffffffffff82111761116657604052565b67ffffffffffffffff811161116657601f01601f191660200190565b9291926123bb82612393565b916123c96040519384612371565b8294818452818301116107c4578281602093846000960137010152565b9080601f830112156107c457816020612401933591016123af565b90565b6024359081151582036107c457565b9181601f840112156107c45782359167ffffffffffffffff83116107c4576020808501948460051b0101116107c457565b90600182811c92168015612474575b602083101461245e57565b634e487b7160e01b600052602260045260246000fd5b91607f1691612453565b600c546001600160a01b0316330361249257565b606460405162461bcd60e51b815260206004820152602060248201527f4f776e61626c653a2063616c6c6572206973206e6f7420746865206f776e65726044820152fd5b6001600160a01b031680156124f657600052600360205260406000205490565b60405162461bcd60e51b815260206004820152602960248201527f4552433732313a2061646472657373207a65726f206973206e6f7420612076616044820152683634b21037bbb732b960b91b6064820152608490fd5b1561255457565b60405162461bcd60e51b815260206004820152601860248201527f4552433732313a20696e76616c696420746f6b656e20494400000000000000006044820152606490fd5b6000908152600260205260409020546001600160a01b031661240181151561254d565b6008548110156125f35760086000527ff3f7a9fe364faab93b216da50a3214154f22a0a2b415b23a84c8169e8b636ee30190600090565b634e487b7160e01b600052603260045260246000fd5b60001981146126185760010190565b634e487b7160e01b600052601160045260246000fd5b6002600b541461263f576002600b55565b60405162461bcd60e51b815260206004820152601f60248201527f5265656e7472616e637947756172643a207265656e7472616e742063616c6c006044820152606490fd5b60809060208152603260208201527f4552433732313a207472616e7366657220746f206e6f6e20455243373231526560408201527131b2b4bb32b91034b6b83632b6b2b73a32b960711b60608201520190565b156126de57565b60405162461bcd60e51b815260206004820152601c60248201527f4552433732313a20746f6b656e20616c7265616479206d696e746564000000006044820152606490fd5b3d1561274e573d9061273482612393565b916127426040519384612371565b82523d6000602084013e565b606090565b9091600091803b1561283e5761279e6020918493604051948580948193630a85bd0160e11b9a8b84523360048501528460248501526044840152608060648401526084830190612278565b03926001600160a01b03165af1908290826127f6575b50506127e8576127c2612723565b805190816127e35760405162461bcd60e51b81528061177760048201612684565b602001fd5b6001600160e01b0319161490565b909192506020813d8211612836575b8161281260209383612371565b810103126103aa5751906001600160e01b0319821682036103ae57509038806127b4565b3d9150612805565b50505050600190565b9190820391821161261857565b60405163a9059cbb60e01b60208201526001600160a01b0392909216602483015260448083019390935291815261289591612890606483612371565b612897565b565b60018060a01b031690604051604081019080821067ffffffffffffffff83111761116657612909916040526020938482527f5361666545524332303a206c6f772d6c6576656c2063616c6c206661696c6564858301526000808587829751910182855af1612903612723565b916129f9565b80519182159184831561297b575b5050509050156129245750565b6084906040519062461bcd60e51b82526004820152602a60248201527f5361666545524332303a204552433230206f7065726174696f6e20646964206e6044820152691bdd081cdd58d8d9595960b21b6064820152fd5b9193818094500103126103aa578201519081151582036103ae575080388084612917565b156129a657565b60405162461bcd60e51b815260206004820152602560248201527f4552433732313a207472616e736665722066726f6d20696e636f72726563742060448201526437bbb732b960d91b6064820152608490fd5b91929015612a5b5750815115612a0d575090565b3b15612a165790565b60405162461bcd60e51b815260206004820152601d60248201527f416464726573733a2063616c6c20746f206e6f6e2d636f6e74726163740000006044820152606490fd5b825190915015612a6e5750805190602001fd5b60405162461bcd60e51b815260206004820152908190611777906024830190612278565b91908110156125f35760051b0190565b356001600160a01b03811681036107c45790565b906000918083526016602052612ad0604084205442612847565b906201518090818311612b1b5784526015602052604084205491808302908382041483151715612b07576124019394500490612847565b634e487b7160e01b85526011600452602485fd5b50505056fea26469706673582212201d528f90aac2a296ffe0f51ee1c4225d882d40663c17eb4106ddd630d2ab7dd964736f6c63430008130033290decd9548b62a8d60345a988386fc84ba6bc95484008f6362f93160ef3e563b10e2d527612073b26eecdfd717e6a320cf44b4afac2b0732d9fcbe2b7fa0cf6",
  "linkReferences": {},
  "deployedLinkReferences": {}
}