{
  "_format": "hh-sol-artifact-1",
  "contractName": "FundRig",
  "sourceName": "contracts/rigs/fund/FundRig.sol",
  "abi": [
    {
      "inputs": [
        {
          "internalType": "address",
          "name": "_paymentToken",
          "type": "address"
        },
        {
          "internalType": "address",
          "name": "_unit",
          "type": "address"
        },
        {
          "internalType": "address",
          "name": "_treasury",
          "type": "address"
        },
        {
          "internalType": "address",
          "name": "_team",
          "type": "address"
        },
        {
          "internalType": "address",
          "name": "_core",
          "type": "address"
        },
        {
          "internalType": "uint256",
          "name": "_initialEmission",
          "type": "uint256"
        },
        {
          "internalType": "uint256",
          "name": "_minEmission",
          "type": "uint256"
        },
        {
          "internalType": "uint256",
          "name": "_minDonation",
          "type": "uint256"
        }
      ],
      "stateMutability": "nonpayable",
      "type": "constructor"
    },
    {
      "inputs": [],
      "name": "FundRig__AlreadyClaimed",
      "type": "error"
    },
    {
      "inputs": [],
      "name": "FundRig__BelowMinDonation",
      "type": "error"
    },
    {
      "inputs": [],
      "name": "FundRig__DayNotEnded",
      "type": "error"
    },
    {
      "inputs": [],
      "name": "FundRig__InvalidAddress",
      "type": "error"
    },
    {
      "inputs": [],
      "name": "FundRig__InvalidEmission",
      "type": "error"
    },
    {
      "inputs": [],
      "name": "FundRig__InvalidMinDonation",
      "type": "error"
    },
    {
      "inputs": [],
      "name": "FundRig__NoDonation",
      "type": "error"
    },
    {
      "inputs": [],
      "name": "FundRig__NotRecipient",
      "type": "error"
    },
    {
      "inputs": [],
      "name": "FundRig__ZeroAmount",
      "type": "error"
    },
    {
      "anonymous": false,
      "inputs": [
        {
          "indexed": true,
          "internalType": "address",
          "name": "account",
          "type": "address"
        },
        {
          "indexed": false,
          "internalType": "uint256",
          "name": "amount",
          "type": "uint256"
        },
        {
          "indexed": false,
          "internalType": "uint256",
          "name": "day",
          "type": "uint256"
        }
      ],
      "name": "FundRig__Claimed",
      "type": "event"
    },
    {
      "anonymous": false,
      "inputs": [
        {
          "indexed": true,
          "internalType": "address",
          "name": "account",
          "type": "address"
        },
        {
          "indexed": true,
          "internalType": "address",
          "name": "recipient",
          "type": "address"
        },
        {
          "indexed": false,
          "internalType": "uint256",
          "name": "amount",
          "type": "uint256"
        },
        {
          "indexed": false,
          "internalType": "uint256",
          "name": "day",
          "type": "uint256"
        }
      ],
      "name": "FundRig__Donated",
      "type": "event"
    },
    {
      "anonymous": false,
      "inputs": [
        {
          "indexed": true,
          "internalType": "address",
          "name": "protocol",
          "type": "address"
        },
        {
          "indexed": false,
          "internalType": "uint256",
          "name": "amount",
          "type": "uint256"
        },
        {
          "indexed": false,
          "internalType": "uint256",
          "name": "day",
          "type": "uint256"
        }
      ],
      "name": "FundRig__ProtocolFee",
      "type": "event"
    },
    {
      "anonymous": false,
      "inputs": [
        {
          "indexed": true,
          "internalType": "address",
          "name": "recipient",
          "type": "address"
        }
      ],
      "name": "FundRig__RecipientAdded",
      "type": "event"
    },
    {
      "anonymous": false,
      "inputs": [
        {
          "indexed": true,
          "internalType": "address",
          "name": "recipient",
          "type": "address"
        }
      ],
      "name": "FundRig__RecipientRemoved",
      "type": "event"
    },
    {
      "anonymous": false,
      "inputs": [
        {
          "indexed": true,
          "internalType": "address",
          "name": "team",
          "type": "address"
        }
      ],
      "name": "FundRig__TeamSet",
      "type": "event"
    },
    {
      "anonymous": false,
      "inputs": [
        {
          "indexed": true,
          "internalType": "address",
          "name": "treasury",
          "type": "address"
        }
      ],
      "name": "FundRig__TreasurySet",
      "type": "event"
    },
    {
      "anonymous": false,
      "inputs": [
        {
          "indexed": true,
          "internalType": "address",
          "name": "previousOwner",
          "type": "address"
        },
        {
          "indexed": true,
          "internalType": "address",
          "name": "newOwner",
          "type": "address"
        }
      ],
      "name": "OwnershipTransferred",
      "type": "event"
    },
    {
      "inputs": [],
      "name": "DAY_DURATION",
      "outputs": [
        {
          "internalType": "uint256",
          "name": "",
          "type": "uint256"
        }
      ],
      "stateMutability": "view",
      "type": "function"
    },
    {
      "inputs": [],
      "name": "DIVISOR",
      "outputs": [
        {
          "internalType": "uint256",
          "name": "",
          "type": "uint256"
        }
      ],
      "stateMutability": "view",
      "type": "function"
    },
    {
      "inputs": [],
      "name": "HALVING_PERIOD",
      "outputs": [
        {
          "internalType": "uint256",
          "name": "",
          "type": "uint256"
        }
      ],
      "stateMutability": "view",
      "type": "function"
    },
    {
      "inputs": [],
      "name": "PROTOCOL_BPS",
      "outputs": [
        {
          "internalType": "uint256",
          "name": "",
          "type": "uint256"
        }
      ],
      "stateMutability": "view",
      "type": "function"
    },
    {
      "inputs": [],
      "name": "RECIPIENT_BPS",
      "outputs": [
        {
          "internalType": "uint256",
          "name": "",
          "type": "uint256"
        }
      ],
      "stateMutability": "view",
      "type": "function"
    },
    {
      "inputs": [],
      "name": "TEAM_BPS",
      "outputs": [
        {
          "internalType": "uint256",
          "name": "",
          "type": "uint256"
        }
      ],
      "stateMutability": "view",
      "type": "function"
    },
    {
      "inputs": [
        {
          "internalType": "address",
          "name": "",
          "type": "address"
        }
      ],
      "name": "accountToIsRecipient",
      "outputs": [
        {
          "internalType": "bool",
          "name": "",
          "type": "bool"
        }
      ],
      "stateMutability": "view",
      "type": "function"
    },
    {
      "inputs": [
        {
          "internalType": "address",
          "name": "_recipient",
          "type": "address"
        }
      ],
      "name": "addRecipient",
      "outputs": [],
      "stateMutability": "nonpayable",
      "type": "function"
    },
    {
      "inputs": [
        {
          "internalType": "address",
          "name": "account",
          "type": "address"
        },
        {
          "internalType": "uint256",
          "name": "day",
          "type": "uint256"
        }
      ],
      "name": "claim",
      "outputs": [],
      "stateMutability": "nonpayable",
      "type": "function"
    },
    {
      "inputs": [],
      "name": "core",
      "outputs": [
        {
          "internalType": "address",
          "name": "",
          "type": "address"
        }
      ],
      "stateMutability": "view",
      "type": "function"
    },
    {
      "inputs": [],
      "name": "currentDay",
      "outputs": [
        {
          "internalType": "uint256",
          "name": "",
          "type": "uint256"
        }
      ],
      "stateMutability": "view",
      "type": "function"
    },
    {
      "inputs": [
        {
          "internalType": "uint256",
          "name": "",
          "type": "uint256"
        },
        {
          "internalType": "address",
          "name": "",
          "type": "address"
        }
      ],
      "name": "dayAccountToDonation",
      "outputs": [
        {
          "internalType": "uint256",
          "name": "",
          "type": "uint256"
        }
      ],
      "stateMutability": "view",
      "type": "function"
    },
    {
      "inputs": [
        {
          "internalType": "uint256",
          "name": "",
          "type": "uint256"
        },
        {
          "internalType": "address",
          "name": "",
          "type": "address"
        }
      ],
      "name": "dayAccountToHasClaimed",
      "outputs": [
        {
          "internalType": "bool",
          "name": "",
          "type": "bool"
        }
      ],
      "stateMutability": "view",
      "type": "function"
    },
    {
      "inputs": [
        {
          "internalType": "uint256",
          "name": "",
          "type": "uint256"
        }
      ],
      "name": "dayToTotalDonated",
      "outputs": [
        {
          "internalType": "uint256",
          "name": "",
          "type": "uint256"
        }
      ],
      "stateMutability": "view",
      "type": "function"
    },
    {
      "inputs": [
        {
          "internalType": "address",
          "name": "account",
          "type": "address"
        },
        {
          "internalType": "address",
          "name": "recipient",
          "type": "address"
        },
        {
          "internalType": "uint256",
          "name": "amount",
          "type": "uint256"
        }
      ],
      "name": "donate",
      "outputs": [],
      "stateMutability": "nonpayable",
      "type": "function"
    },
    {
      "inputs": [
        {
          "internalType": "uint256",
          "name": "day",
          "type": "uint256"
        }
      ],
      "name": "getDayEmission",
      "outputs": [
        {
          "internalType": "uint256",
          "name": "",
          "type": "uint256"
        }
      ],
      "stateMutability": "view",
      "type": "function"
    },
    {
      "inputs": [
        {
          "internalType": "uint256",
          "name": "day",
          "type": "uint256"
        }
      ],
      "name": "getDayTotal",
      "outputs": [
        {
          "internalType": "uint256",
          "name": "",
          "type": "uint256"
        }
      ],
      "stateMutability": "view",
      "type": "function"
    },
    {
      "inputs": [
        {
          "internalType": "uint256",
          "name": "day",
          "type": "uint256"
        },
        {
          "internalType": "address",
          "name": "account",
          "type": "address"
        }
      ],
      "name": "getPendingReward",
      "outputs": [
        {
          "internalType": "uint256",
          "name": "",
          "type": "uint256"
        }
      ],
      "stateMutability": "view",
      "type": "function"
    },
    {
      "inputs": [
        {
          "internalType": "uint256",
          "name": "day",
          "type": "uint256"
        },
        {
          "internalType": "address",
          "name": "account",
          "type": "address"
        }
      ],
      "name": "getUserDonation",
      "outputs": [
        {
          "internalType": "uint256",
          "name": "",
          "type": "uint256"
        }
      ],
      "stateMutability": "view",
      "type": "function"
    },
    {
      "inputs": [],
      "name": "initialEmission",
      "outputs": [
        {
          "internalType": "uint256",
          "name": "",
          "type": "uint256"
        }
      ],
      "stateMutability": "view",
      "type": "function"
    },
    {
      "inputs": [],
      "name": "minDonation",
      "outputs": [
        {
          "internalType": "uint256",
          "name": "",
          "type": "uint256"
        }
      ],
      "stateMutability": "view",
      "type": "function"
    },
    {
      "inputs": [],
      "name": "minEmission",
      "outputs": [
        {
          "internalType": "uint256",
          "name": "",
          "type": "uint256"
        }
      ],
      "stateMutability": "view",
      "type": "function"
    },
    {
      "inputs": [],
      "name": "owner",
      "outputs": [
        {
          "internalType": "address",
          "name": "",
          "type": "address"
        }
      ],
      "stateMutability": "view",
      "type": "function"
    },
    {
      "inputs": [],
      "name": "paymentToken",
      "outputs": [
        {
          "internalType": "address",
          "name": "",
          "type": "address"
        }
      ],
      "stateMutability": "view",
      "type": "function"
    },
    {
      "inputs": [
        {
          "internalType": "address",
          "name": "_recipient",
          "type": "address"
        }
      ],
      "name": "removeRecipient",
      "outputs": [],
      "stateMutability": "nonpayable",
      "type": "function"
    },
    {
      "inputs": [],
      "name": "renounceOwnership",
      "outputs": [],
      "stateMutability": "nonpayable",
      "type": "function"
    },
    {
      "inputs": [
        {
          "internalType": "address",
          "name": "_team",
          "type": "address"
        }
      ],
      "name": "setTeam",
      "outputs": [],
      "stateMutability": "nonpayable",
      "type": "function"
    },
    {
      "inputs": [
        {
          "internalType": "address",
          "name": "_treasury",
          "type": "address"
        }
      ],
      "name": "setTreasury",
      "outputs": [],
      "stateMutability": "nonpayable",
      "type": "function"
    },
    {
      "inputs": [],
      "name": "startTime",
      "outputs": [
        {
          "internalType": "uint256",
          "name": "",
          "type": "uint256"
        }
      ],
      "stateMutability": "view",
      "type": "function"
    },
    {
      "inputs": [],
      "name": "team",
      "outputs": [
        {
          "internalType": "address",
          "name": "",
          "type": "address"
        }
      ],
      "stateMutability": "view",
      "type": "function"
    },
    {
      "inputs": [
        {
          "internalType": "address",
          "name": "newOwner",
          "type": "address"
        }
      ],
      "name": "transferOwnership",
      "outputs": [],
      "stateMutability": "nonpayable",
      "type": "function"
    },
    {
      "inputs": [],
      "name": "treasury",
      "outputs": [
        {
          "internalType": "address",
          "name": "",
          "type": "address"
        }
      ],
      "stateMutability": "view",
      "type": "function"
    },
    {
      "inputs": [],
      "name": "unit",
      "outputs": [
        {
          "internalType": "address",
          "name": "",
          "type": "address"
        }
      ],
      "stateMutability": "view",
      "type": "function"
    }
  ],
  "bytecode": "0x610160346200023757620016b0601f38829003908101601f19168301906001600160401b038211848310176200023c5780849360409384528439610100938491810103126200023757620000538262000252565b90620000626020840162000252565b6200006f82850162000252565b906200007e6060860162000252565b916200008d6080870162000252565b9160a08701519360e060c08901519801519660016000556001549260018060a01b0319943386861617600155885160018060a01b0395863391167f8be0079c531659141344cd1fd0a4f28419497f9722a3daafe3b4186f6b6457e0600080a385841615620002295750848216156200021957841691821562000219578487161562000219578715620001fe578a1580156200020f575b620001fe5760648a10620001ed5760805260a0528360035416176003551690600454161760045560c05284526101209283526101409182524260e05251916114489384620002688539608051848181610a060152610d7b015260a05184818161054f01526106c4015260c0518481816102700152610a81015260e0518481816104a501528181610796015281816108ca015281816109dc015261137101525183818161075b015261131501525182818161090f01526113390152518181816109940152610e3f0152f35b88516307d0bd0960e11b8152600490fd5b8851631a5f691960e11b8152600490fd5b50878b1162000123565b8851629499cb60e31b8152600490fd5b629499cb60e31b8152600490fd5b600080fd5b634e487b7160e01b600052604160045260246000fd5b51906001600160a01b0382168203620002375756fe6040608081526004908136101561001557600080fd5b600091823560e01c8063095cf5c614610ec857806312a2919814610e625780631680b55f146107b95780631c0e022514610e275780631c3101d314610daa5780633013ce2914610d665780633410fe6e14610d49578063386bc05a146109505780633adde9c1146109325780633ff013ea146108f75780635c9302c9146108ac57806361d027b3146108835780636fa497ab1461083d578063715018a6146107e05780637417bd10146107b957806378e979251461077e5780637c817fd21461074357806385f2aef21461071c5780638da5cb5b146106f3578063907af6c0146106af5780639fc618351461066e578063aad3ec9614610460578063bd134ce414610443578063be93b8db14610425578063c1e7af3514610409578063c59b1f3c146103e1578063d5861d91146103c4578063d590da9a14610384578063dc9d1a391461035a578063e62364061461031c578063f0f44260146102a3578063f2f4eb261461025b5763f2fde38b1461018c57600080fd5b34610257576020366003190112610257576101a5610f30565b906101ae610f61565b6001600160a01b03918216928315610205575050600154826bffffffffffffffffffffffff60a01b821617600155167f8be0079c531659141344cd1fd0a4f28419497f9722a3daafe3b4186f6b6457e0600080a380f35b906020608492519162461bcd60e51b8352820152602660248201527f4f776e61626c653a206e6577206f776e657220697320746865207a65726f206160448201526564647265737360d01b6064820152fd5b8280fd5b50503461029f578160031936011261029f57517f00000000000000000000000000000000000000000000000000000000000000006001600160a01b03168152602090f35b5080fd5b5034610257576020366003190112610257576102bd610f30565b6102c5610f61565b6001600160a01b0316918215610310575050600380546001600160a01b031916821790557f733974f3e93d9740040671ca71cbb481b0c9a5451f1806cc3b4370707e3500f98280a280f35b51629499cb60e31b8152fd5b50503461029f57602036600319011261029f5760209160ff9082906001600160a01b03610347610f30565b1681526002855220541690519015158152f35b509134610381576020366003190112610381575061037a60209235611311565b9051908152f35b80fd5b5034610257578160031936011261025757816020936103a1610f4b565b9235815260068552209060018060a01b0316600052825280600020549051908152f35b50503461029f578160031936011261029f57602090516101908152f35b5091346103815781600319360112610381575061037a602092610402610f4b565b9035611368565b50503461029f578160031936011261029f576020905160648152f35b50503461029f578160031936011261029f5760209051620151808152f35b50503461029f578160031936011261029f57602090516113888152f35b5091903461029f578060031936011261029f5761047b610f30565b90602435610487611054565b6001600160a01b0383811693909190841561065f57620151806104ca7f00000000000000000000000000000000000000000000000000000000000000004261103a565b0482101561064f5781865260209060078252848720868852825260ff858820541661063f5782875260068252848720868852825284872054801561062f5761052f908489526005845261052a878a20549161052487611311565b90610ff1565b61101a565b838852600783528588208789528352858820805460ff19166001179055937f00000000000000000000000000000000000000000000000000000000000000001690813b1561062b5785516340c10f1960e01b81526001600160a01b03909116818a01908152602081018690529091889183919082908490829060400103925af18015610621576105f0575b507f06acf4e673fb0690197d247163b365c613c5626645da0abd423654d509978e57949596508351928352820152a26001815580f35b67ffffffffffffffff819792971161060e57845294955085386105ba565b634e487b7160e01b825260418852602482fd5b85513d89823e3d90fd5b8780fd5b85516301fcf3ab60e51b81528990fd5b8451636a85d37760e01b81528890fd5b8351636546891f60e01b81528790fd5b8351629499cb60e31b81528790fd5b5034610257578160031936011261025757602092829161068c610f4b565b90358252600685528282206001600160a01b039091168252845220549051908152f35b50503461029f578160031936011261029f57517f00000000000000000000000000000000000000000000000000000000000000006001600160a01b03168152602090f35b50503461029f578160031936011261029f5760015490516001600160a01b039091168152602090f35b50346102575782600319360112610257575490516001600160a01b03909116815260209150f35b50503461029f578160031936011261029f57602090517f00000000000000000000000000000000000000000000000000000000000000008152f35b50503461029f578160031936011261029f57602090517f00000000000000000000000000000000000000000000000000000000000000008152f35b50346102575760203660031901126102575760209282913581526005845220549051908152f35b83346103815780600319360112610381576107f9610f61565b600180546001600160a01b0319811690915581906001600160a01b03167f8be0079c531659141344cd1fd0a4f28419497f9722a3daafe3b4186f6b6457e08280a380f35b50346102575781600319360112610257578160209360ff9261085d610f4b565b90358252600786528282206001600160a01b039091168252855220549151911615158152f35b50503461029f578160031936011261029f5760035490516001600160a01b039091168152602090f35b50503461029f578160031936011261029f57602090620151806108ef7f00000000000000000000000000000000000000000000000000000000000000004261103a565b049051908152f35b50503461029f578160031936011261029f57602090517f00000000000000000000000000000000000000000000000000000000000000008152f35b50503461029f578160031936011261029f576020905162278d008152f35b5091903461029f57606036600319011261029f5761096c610f30565b610974610f4b565b91604435610980611054565b6001600160a01b03928316928315610d3a577f00000000000000000000000000000000000000000000000000000000000000008210610d2a57808516948587526020906002825260ff858920541615610d1a5762015180610a017f00000000000000000000000000000000000000000000000000000000000000004261103a565b0492807f0000000000000000000000000000000000000000000000000000000000000000169186516323b872dd60e01b858201523360248201523060448201528660648201526064815260a0810181811067ffffffffffffffff821117610d07578852610a6e90846110ed565b865163cce516b760e01b81529184838d817f000000000000000000000000000000000000000000000000000000000000000085165afa928315610cfd578b93610cc1575b506113889182880288159389820414841715610cad578d5461271090910494939291908d90831615610ca05750610190890289810461019014841715610c8b57906127108e97969594939204925b84831697508715610c425760648b02908b82046064141715610c2e57917fe2847f4798e8ac9b70008a584c4d300cc1b7578a8b704ce46eb3db62101b9c179c9d9e9f928492610b74888f9998978f610b68610b6d92610b68612710610b7f99049d8e9461103a565b61103a565b928b6110aa565b8260035416896110aa565b81610c1a575b50505081610bd9575b505050505081885260058152838820610ba8848254611047565b9055818852600681528388208689528152838820610bc7848254611047565b90558351928352820152a36001815580f35b81610c05917f23265cbc6cbc433f1db176a495066e11d20658741dc6d52f0e9a9f73fdfc92f4956110aa565b81519081528585820152a23880858180610b8e565b610c26925416866110aa565b388080610b85565b8f8f6011602492634e487b7160e01b835252fd5b50918d9e91610b7f7fe2847f4798e8ac9b70008a584c4d300cc1b7578a8b704ce46eb3db62101b9c179d9e9f94610b74888f9998978f610b6888610b68610b6d949d8e9461103a565b5050634e487b7160e01b8c5260118d5260248cfd5b9594939291908692610b00565b50634e487b7160e01b8c5260118d5260248cfd5b9092508481813d8311610cf6575b610cd98183610fb9565b81010312610cf257518281168103610cf2579138610ab2565b8a80fd5b503d610ccf565b88513d8d823e3d90fd5b634e487b7160e01b8c5260418d5260248cfd5b8451635ba0608760e01b81528990fd5b82516367c3520760e11b81528790fd5b8251629499cb60e31b81528790fd5b50503461029f578160031936011261029f57602090516127108152f35b50503461029f578160031936011261029f57517f00000000000000000000000000000000000000000000000000000000000000006001600160a01b03168152602090f35b50903461025757602036600319011261025757610dc5610f30565b610dcd610f61565b6001600160a01b0316918215610e1a575081835260026020528220805460ff191660011790557f39b63d791792c7f149407b85530679113ddb0029afe8067335b862500c0a95988280a280f35b9051629499cb60e31b8152fd5b50503461029f578160031936011261029f57602090517f00000000000000000000000000000000000000000000000000000000000000008152f35b50503461029f57602036600319011261029f57610e7d610f30565b610e85610f61565b6001600160a01b03168083526002602052908220805460ff191690557fb42395bec5780511e7c881e6df3e300737ca8fdc8fe16708cd9cd2943729af968280a280f35b83823461029f57602036600319011261029f57610ee3610f30565b610eeb610f61565b81546001600160a01b0319166001600160a01b03919091169081179091557fd0fb66531bb950a999ffd739248f0badcf9df003c7daeb593287f07bd864e8338280a280f35b600435906001600160a01b0382168203610f4657565b600080fd5b602435906001600160a01b0382168203610f4657565b6001546001600160a01b03163303610f7557565b606460405162461bcd60e51b815260206004820152602060248201527f4f776e61626c653a2063616c6c6572206973206e6f7420746865206f776e65726044820152fd5b90601f8019910116810190811067ffffffffffffffff821117610fdb57604052565b634e487b7160e01b600052604160045260246000fd5b8181029291811591840414171561100457565b634e487b7160e01b600052601160045260246000fd5b8115611024570490565b634e487b7160e01b600052601260045260246000fd5b9190820391821161100457565b9190820180921161100457565b600260005414611065576002600055565b60405162461bcd60e51b815260206004820152601f60248201527f5265656e7472616e637947756172643a207265656e7472616e742063616c6c006044820152606490fd5b60405163a9059cbb60e01b60208201526001600160a01b039290921660248301526044808301939093529181526110eb916110e6606483610fb9565b6110ed565b565b60018060a01b0316906040516040810167ffffffffffffffff9082811082821117610fdb576040526020938483527f5361666545524332303a206c6f772d6c6576656c2063616c6c206661696c6564858401526000808587829751910182855af1903d15611232573d92831161121e57906111889392916040519261117b88601f19601f8401160185610fb9565b83523d868885013e61123d565b8051918215918483156111fa575b5050509050156111a35750565b6084906040519062461bcd60e51b82526004820152602a60248201527f5361666545524332303a204552433230206f7065726174696f6e20646964206e6044820152691bdd081cdd58d8d9595960b21b6064820152fd5b91938180945001031261029f57820151908115158203610381575080388084611196565b634e487b7160e01b85526041600452602485fd5b906111889392506060915b9192901561129f5750815115611251575090565b3b1561125a5790565b60405162461bcd60e51b815260206004820152601d60248201527f416464726573733a2063616c6c20746f206e6f6e2d636f6e74726163740000006044820152606490fd5b8251909150156112b25750805190602001fd5b6040519062461bcd60e51b82528160208060048301528251908160248401526000935b8285106112f8575050604492506000838284010152601f80199101168101030190fd5b84810182015186860160440152938101938593506112d5565b601e7f000000000000000000000000000000000000000000000000000000000000000091041c7f0000000000000000000000000000000000000000000000000000000000000000808210611363575090565b905090565b620151806113967f00000000000000000000000000000000000000000000000000000000000000004261103a565b0481101561140b576000918183526007602052604083209060018060a01b03169081845260205260ff60408420541661140657818352600660205260408320908352602052604082205480156114065761052a906105246040858561140397526005602052205493611311565b90565b505090565b505060009056fea2646970667358221220ddd8a5de9c427ed687374c60bf22715566b8a00cd20aa8da28ae12f8fd27b72a64736f6c63430008130033",
  "linkReferences": {},
  "deployedLinkReferences": {}
}