{
  "_format": "hh-sol-artifact-1",
  "contractName": "FundRig",
  "sourceName": "contracts/rigs/fund/FundRig.sol",
  "abi": [
    {
      "inputs": [
        {
          "internalType": "address",
          "name": "_paymentToken",
          "type": "address"
        },
        {
          "internalType": "address",
          "name": "_unit",
          "type": "address"
        },
        {
          "internalType": "address",
          "name": "_recipient",
          "type": "address"
        },
        {
          "internalType": "address",
          "name": "_treasury",
          "type": "address"
        },
        {
          "internalType": "address",
          "name": "_team",
          "type": "address"
        },
        {
          "internalType": "address",
          "name": "_core",
          "type": "address"
        },
        {
          "internalType": "uint256",
          "name": "_initialEmission",
          "type": "uint256"
        },
        {
          "internalType": "uint256",
          "name": "_minEmission",
          "type": "uint256"
        },
        {
          "internalType": "uint256",
          "name": "_halvingPeriod",
          "type": "uint256"
        }
      ],
      "stateMutability": "nonpayable",
      "type": "constructor"
    },
    {
      "inputs": [],
      "name": "FundRig__AlreadyClaimed",
      "type": "error"
    },
    {
      "inputs": [],
      "name": "FundRig__BelowMinDonation",
      "type": "error"
    },
    {
      "inputs": [],
      "name": "FundRig__DayNotEnded",
      "type": "error"
    },
    {
      "inputs": [],
      "name": "FundRig__InvalidAddress",
      "type": "error"
    },
    {
      "inputs": [],
      "name": "FundRig__InvalidEmission",
      "type": "error"
    },
    {
      "inputs": [],
      "name": "FundRig__InvalidHalvingPeriod",
      "type": "error"
    },
    {
      "inputs": [],
      "name": "FundRig__NoDonation",
      "type": "error"
    },
    {
      "inputs": [],
      "name": "FundRig__RecipientNotSet",
      "type": "error"
    },
    {
      "inputs": [],
      "name": "FundRig__ZeroAmount",
      "type": "error"
    },
    {
      "anonymous": false,
      "inputs": [
        {
          "indexed": true,
          "internalType": "address",
          "name": "account",
          "type": "address"
        },
        {
          "indexed": false,
          "internalType": "uint256",
          "name": "amount",
          "type": "uint256"
        },
        {
          "indexed": false,
          "internalType": "uint256",
          "name": "day",
          "type": "uint256"
        }
      ],
      "name": "FundRig__Claimed",
      "type": "event"
    },
    {
      "anonymous": false,
      "inputs": [
        {
          "indexed": true,
          "internalType": "address",
          "name": "account",
          "type": "address"
        },
        {
          "indexed": false,
          "internalType": "uint256",
          "name": "amount",
          "type": "uint256"
        },
        {
          "indexed": false,
          "internalType": "uint256",
          "name": "day",
          "type": "uint256"
        }
      ],
      "name": "FundRig__Funded",
      "type": "event"
    },
    {
      "anonymous": false,
      "inputs": [
        {
          "indexed": true,
          "internalType": "address",
          "name": "protocol",
          "type": "address"
        },
        {
          "indexed": false,
          "internalType": "uint256",
          "name": "amount",
          "type": "uint256"
        },
        {
          "indexed": false,
          "internalType": "uint256",
          "name": "day",
          "type": "uint256"
        }
      ],
      "name": "FundRig__ProtocolFee",
      "type": "event"
    },
    {
      "anonymous": false,
      "inputs": [
        {
          "indexed": true,
          "internalType": "address",
          "name": "recipient",
          "type": "address"
        }
      ],
      "name": "FundRig__RecipientSet",
      "type": "event"
    },
    {
      "anonymous": false,
      "inputs": [
        {
          "indexed": true,
          "internalType": "address",
          "name": "team",
          "type": "address"
        }
      ],
      "name": "FundRig__TeamSet",
      "type": "event"
    },
    {
      "anonymous": false,
      "inputs": [
        {
          "indexed": true,
          "internalType": "address",
          "name": "treasury",
          "type": "address"
        }
      ],
      "name": "FundRig__TreasurySet",
      "type": "event"
    },
    {
      "anonymous": false,
      "inputs": [
        {
          "indexed": false,
          "internalType": "string",
          "name": "uri",
          "type": "string"
        }
      ],
      "name": "FundRig__UriSet",
      "type": "event"
    },
    {
      "anonymous": false,
      "inputs": [
        {
          "indexed": true,
          "internalType": "address",
          "name": "previousOwner",
          "type": "address"
        },
        {
          "indexed": true,
          "internalType": "address",
          "name": "newOwner",
          "type": "address"
        }
      ],
      "name": "OwnershipTransferred",
      "type": "event"
    },
    {
      "inputs": [],
      "name": "DAY_DURATION",
      "outputs": [
        {
          "internalType": "uint256",
          "name": "",
          "type": "uint256"
        }
      ],
      "stateMutability": "view",
      "type": "function"
    },
    {
      "inputs": [],
      "name": "DIVISOR",
      "outputs": [
        {
          "internalType": "uint256",
          "name": "",
          "type": "uint256"
        }
      ],
      "stateMutability": "view",
      "type": "function"
    },
    {
      "inputs": [],
      "name": "MAX_HALVING_PERIOD",
      "outputs": [
        {
          "internalType": "uint256",
          "name": "",
          "type": "uint256"
        }
      ],
      "stateMutability": "view",
      "type": "function"
    },
    {
      "inputs": [],
      "name": "MAX_INITIAL_EMISSION",
      "outputs": [
        {
          "internalType": "uint256",
          "name": "",
          "type": "uint256"
        }
      ],
      "stateMutability": "view",
      "type": "function"
    },
    {
      "inputs": [],
      "name": "MIN_DONATION",
      "outputs": [
        {
          "internalType": "uint256",
          "name": "",
          "type": "uint256"
        }
      ],
      "stateMutability": "view",
      "type": "function"
    },
    {
      "inputs": [],
      "name": "MIN_HALVING_PERIOD",
      "outputs": [
        {
          "internalType": "uint256",
          "name": "",
          "type": "uint256"
        }
      ],
      "stateMutability": "view",
      "type": "function"
    },
    {
      "inputs": [],
      "name": "MIN_INITIAL_EMISSION",
      "outputs": [
        {
          "internalType": "uint256",
          "name": "",
          "type": "uint256"
        }
      ],
      "stateMutability": "view",
      "type": "function"
    },
    {
      "inputs": [],
      "name": "PROTOCOL_BPS",
      "outputs": [
        {
          "internalType": "uint256",
          "name": "",
          "type": "uint256"
        }
      ],
      "stateMutability": "view",
      "type": "function"
    },
    {
      "inputs": [],
      "name": "RECIPIENT_BPS",
      "outputs": [
        {
          "internalType": "uint256",
          "name": "",
          "type": "uint256"
        }
      ],
      "stateMutability": "view",
      "type": "function"
    },
    {
      "inputs": [],
      "name": "TEAM_BPS",
      "outputs": [
        {
          "internalType": "uint256",
          "name": "",
          "type": "uint256"
        }
      ],
      "stateMutability": "view",
      "type": "function"
    },
    {
      "inputs": [
        {
          "internalType": "address",
          "name": "account",
          "type": "address"
        },
        {
          "internalType": "uint256",
          "name": "day",
          "type": "uint256"
        }
      ],
      "name": "claim",
      "outputs": [],
      "stateMutability": "nonpayable",
      "type": "function"
    },
    {
      "inputs": [],
      "name": "core",
      "outputs": [
        {
          "internalType": "address",
          "name": "",
          "type": "address"
        }
      ],
      "stateMutability": "view",
      "type": "function"
    },
    {
      "inputs": [],
      "name": "currentDay",
      "outputs": [
        {
          "internalType": "uint256",
          "name": "",
          "type": "uint256"
        }
      ],
      "stateMutability": "view",
      "type": "function"
    },
    {
      "inputs": [
        {
          "internalType": "uint256",
          "name": "",
          "type": "uint256"
        },
        {
          "internalType": "address",
          "name": "",
          "type": "address"
        }
      ],
      "name": "dayAccountToDonation",
      "outputs": [
        {
          "internalType": "uint256",
          "name": "",
          "type": "uint256"
        }
      ],
      "stateMutability": "view",
      "type": "function"
    },
    {
      "inputs": [
        {
          "internalType": "uint256",
          "name": "",
          "type": "uint256"
        },
        {
          "internalType": "address",
          "name": "",
          "type": "address"
        }
      ],
      "name": "dayAccountToHasClaimed",
      "outputs": [
        {
          "internalType": "bool",
          "name": "",
          "type": "bool"
        }
      ],
      "stateMutability": "view",
      "type": "function"
    },
    {
      "inputs": [
        {
          "internalType": "uint256",
          "name": "",
          "type": "uint256"
        }
      ],
      "name": "dayToTotalDonated",
      "outputs": [
        {
          "internalType": "uint256",
          "name": "",
          "type": "uint256"
        }
      ],
      "stateMutability": "view",
      "type": "function"
    },
    {
      "inputs": [
        {
          "internalType": "address",
          "name": "account",
          "type": "address"
        },
        {
          "internalType": "uint256",
          "name": "amount",
          "type": "uint256"
        }
      ],
      "name": "fund",
      "outputs": [],
      "stateMutability": "nonpayable",
      "type": "function"
    },
    {
      "inputs": [
        {
          "internalType": "uint256",
          "name": "day",
          "type": "uint256"
        }
      ],
      "name": "getDayEmission",
      "outputs": [
        {
          "internalType": "uint256",
          "name": "",
          "type": "uint256"
        }
      ],
      "stateMutability": "view",
      "type": "function"
    },
    {
      "inputs": [
        {
          "internalType": "uint256",
          "name": "day",
          "type": "uint256"
        }
      ],
      "name": "getDayTotal",
      "outputs": [
        {
          "internalType": "uint256",
          "name": "",
          "type": "uint256"
        }
      ],
      "stateMutability": "view",
      "type": "function"
    },
    {
      "inputs": [
        {
          "internalType": "uint256",
          "name": "day",
          "type": "uint256"
        },
        {
          "internalType": "address",
          "name": "account",
          "type": "address"
        }
      ],
      "name": "getPendingReward",
      "outputs": [
        {
          "internalType": "uint256",
          "name": "",
          "type": "uint256"
        }
      ],
      "stateMutability": "view",
      "type": "function"
    },
    {
      "inputs": [
        {
          "internalType": "uint256",
          "name": "day",
          "type": "uint256"
        },
        {
          "internalType": "address",
          "name": "account",
          "type": "address"
        }
      ],
      "name": "getUserDonation",
      "outputs": [
        {
          "internalType": "uint256",
          "name": "",
          "type": "uint256"
        }
      ],
      "stateMutability": "view",
      "type": "function"
    },
    {
      "inputs": [],
      "name": "halvingPeriod",
      "outputs": [
        {
          "internalType": "uint256",
          "name": "",
          "type": "uint256"
        }
      ],
      "stateMutability": "view",
      "type": "function"
    },
    {
      "inputs": [],
      "name": "initialEmission",
      "outputs": [
        {
          "internalType": "uint256",
          "name": "",
          "type": "uint256"
        }
      ],
      "stateMutability": "view",
      "type": "function"
    },
    {
      "inputs": [],
      "name": "minEmission",
      "outputs": [
        {
          "internalType": "uint256",
          "name": "",
          "type": "uint256"
        }
      ],
      "stateMutability": "view",
      "type": "function"
    },
    {
      "inputs": [],
      "name": "owner",
      "outputs": [
        {
          "internalType": "address",
          "name": "",
          "type": "address"
        }
      ],
      "stateMutability": "view",
      "type": "function"
    },
    {
      "inputs": [],
      "name": "paymentToken",
      "outputs": [
        {
          "internalType": "address",
          "name": "",
          "type": "address"
        }
      ],
      "stateMutability": "view",
      "type": "function"
    },
    {
      "inputs": [],
      "name": "recipient",
      "outputs": [
        {
          "internalType": "address",
          "name": "",
          "type": "address"
        }
      ],
      "stateMutability": "view",
      "type": "function"
    },
    {
      "inputs": [],
      "name": "renounceOwnership",
      "outputs": [],
      "stateMutability": "nonpayable",
      "type": "function"
    },
    {
      "inputs": [
        {
          "internalType": "address",
          "name": "_recipient",
          "type": "address"
        }
      ],
      "name": "setRecipient",
      "outputs": [],
      "stateMutability": "nonpayable",
      "type": "function"
    },
    {
      "inputs": [
        {
          "internalType": "address",
          "name": "_team",
          "type": "address"
        }
      ],
      "name": "setTeam",
      "outputs": [],
      "stateMutability": "nonpayable",
      "type": "function"
    },
    {
      "inputs": [
        {
          "internalType": "address",
          "name": "_treasury",
          "type": "address"
        }
      ],
      "name": "setTreasury",
      "outputs": [],
      "stateMutability": "nonpayable",
      "type": "function"
    },
    {
      "inputs": [
        {
          "internalType": "string",
          "name": "_uri",
          "type": "string"
        }
      ],
      "name": "setUri",
      "outputs": [],
      "stateMutability": "nonpayable",
      "type": "function"
    },
    {
      "inputs": [],
      "name": "startTime",
      "outputs": [
        {
          "internalType": "uint256",
          "name": "",
          "type": "uint256"
        }
      ],
      "stateMutability": "view",
      "type": "function"
    },
    {
      "inputs": [],
      "name": "team",
      "outputs": [
        {
          "internalType": "address",
          "name": "",
          "type": "address"
        }
      ],
      "stateMutability": "view",
      "type": "function"
    },
    {
      "inputs": [
        {
          "internalType": "address",
          "name": "newOwner",
          "type": "address"
        }
      ],
      "name": "transferOwnership",
      "outputs": [],
      "stateMutability": "nonpayable",
      "type": "function"
    },
    {
      "inputs": [],
      "name": "treasury",
      "outputs": [
        {
          "internalType": "address",
          "name": "",
          "type": "address"
        }
      ],
      "stateMutability": "view",
      "type": "function"
    },
    {
      "inputs": [],
      "name": "unit",
      "outputs": [
        {
          "internalType": "address",
          "name": "",
          "type": "address"
        }
      ],
      "stateMutability": "view",
      "type": "function"
    },
    {
      "inputs": [],
      "name": "uri",
      "outputs": [
        {
          "internalType": "string",
          "name": "",
          "type": "string"
        }
      ],
      "stateMutability": "view",
      "type": "function"
    }
  ],
  "bytecode": "0x61016034620002945762001a28601f38829003908101601f19168301906001600160401b038211848310176200029957808493604093845284396101209283918101031262000294576200005383620002af565b906200006260208501620002af565b9162000070828601620002af565b6200007e60608701620002af565b936200008d60808801620002af565b916200009c60a08901620002af565b9160c08901519360e08a015195610100809b01519860016000556001549360018060a01b03199533878716176001558a5160018060a01b0396873391167f8be0079c531659141344cd1fd0a4f28419497f9722a3daafe3b4186f6b6457e0600080a3868516156200028657508582161562000276578516918215620002765785169283156200027657858816156200027657670de0b6b3a7640000891080156200025f575b62000244578915801562000255575b620002445760078c10801562000238575b620002275760805260a0528460025416176002558360035416176003551690600454161760045560c052855283526101409182524260e05251916117639384620002c58539608051848181610b0201526110e7015260a05184818161064b01526109c4015260c0518481816102a80152610b80015260e0518481816105a101528181610ad801528181610e4201528181610fc2015261168c015251838181610a5b01526116310152518281816110420152611654015251818181611007015261160a0152f35b8a5163d5fbe06160e01b8152600490fd5b5061016d8c1162000161565b8a51631a5f691960e11b8152600490fd5b50888a1162000150565b506c0c9f2c9cd04674edea40000000891162000141565b8a51629499cb60e31b8152600490fd5b629499cb60e31b8152600490fd5b600080fd5b634e487b7160e01b600052604160045260246000fd5b51906001600160a01b0382168203620002945756fe6080604081815260048036101561001557600080fd5b600092833560e01c908162f973c61461119b57508063095cf5c6146111335780631680b55f14610e8857806317f4f0ab146111165780633013ce29146110d25780633410fe6e1461047b5780633bbed4a0146110655780633ff013ea1461102a5780635a3e251f14610fef5780635c9302c914610fa457806361d027b314610f7b57806366d003ac14610f525780636fa497ab14610f0c578063715018a614610eaf5780637417bd1014610e8857806375bb7e4914610e6557806378e9792514610e2a5780637b1837de14610a7e5780637c817fd214610a4357806385f2aef214610a1c5780638da5cb5b146109f3578063907af6c0146109af5780639b642de1146107ab5780639fc618351461076a578063aad3ec961461055c578063bd134ce41461053f578063be93b8db14610521578063c1e7af3514610505578063c59b1f3c146104dd578063d5861d91146104c0578063d590da9a14610480578063db45810e1461047b578063dc9d1a3914610451578063dd481bf214610435578063eac989f814610354578063f0f44260146102db578063f2f4eb26146102935763f2fde38b146101c457600080fd5b3461028f57602036600319011261028f576101dd6111c2565b906101e66112cb565b6001600160a01b0391821692831561023d575050600154826bffffffffffffffffffffffff60a01b821617600155167f8be0079c531659141344cd1fd0a4f28419497f9722a3daafe3b4186f6b6457e0600080a380f35b906020608492519162461bcd60e51b8352820152602660248201527f4f776e61626c653a206e6577206f776e657220697320746865207a65726f206160448201526564647265737360d01b6064820152fd5b8280fd5b5050346102d757816003193601126102d757517f00000000000000000000000000000000000000000000000000000000000000006001600160a01b03168152602090f35b5080fd5b503461028f57602036600319011261028f576102f56111c2565b6102fd6112cb565b6001600160a01b0316918215610348575050600380546001600160a01b031916821790557f733974f3e93d9740040671ca71cbb481b0c9a5451f1806cc3b4370707e3500f98280a280f35b51629499cb60e31b8152fd5b5050346102d757816003193601126102d7578051908260085461037681611210565b8085529160019180831690811561040d57506001146103b0575b5050506103a2826103ac94038361124a565b5191829182611282565b0390f35b9450600885527ff3f7a9fe364faab93b216da50a3214154f22a0a2b415b23a84c8169e8b636ee35b8286106103f5575050506103a28260206103ac9582010194610390565b805460208787018101919091529095019481016103d8565b6103ac9750869350602092506103a294915060ff191682840152151560051b82010194610390565b5050346102d757816003193601126102d7576020905160078152f35b509134610478576020366003190112610478575061047160209235611604565b9051908152f35b80fd5b6111f3565b503461028f578160031936011261028f578160209361049d6111dd565b9235815260068552209060018060a01b0316600052825280600020549051908152f35b5050346102d757816003193601126102d757602090516101908152f35b509134610478578160031936011261047857506104716020926104fe6111dd565b9035611683565b5050346102d757816003193601126102d7576020905160648152f35b5050346102d757816003193601126102d75760209051620151808152f35b5050346102d757816003193601126102d757602090516113888152f35b509190346102d757806003193601126102d7576105776111c2565b90602435610583611386565b6001600160a01b0383811693909190841561075b57620151806105c67f00000000000000000000000000000000000000000000000000000000000000004261136c565b0482101561074b5781865260209060078252848720868852825260ff858820541661073b5782875260068252848720868852825284872054801561072b5761062b9084895260058452610626878a20549161062087611604565b90611323565b61134c565b838852600783528588208789528352858820805460ff19166001179055937f00000000000000000000000000000000000000000000000000000000000000001690813b156107275785516340c10f1960e01b81526001600160a01b03909116818a01908152602081018690529091889183919082908490829060400103925af1801561071d576106ec575b507f06acf4e673fb0690197d247163b365c613c5626645da0abd423654d509978e57949596508351928352820152a26001815580f35b67ffffffffffffffff819792971161070a57845294955085386106b6565b634e487b7160e01b825260418852602482fd5b85513d89823e3d90fd5b8780fd5b85516301fcf3ab60e51b81528990fd5b8451636a85d37760e01b81528890fd5b8351636546891f60e01b81528790fd5b8351629499cb60e31b81528790fd5b503461028f578160031936011261028f5760209282916107886111dd565b90358252600685528282206001600160a01b039091168252845220549051908152f35b508290346102d7576020928360031936011261028f5781359367ffffffffffffffff928386116109a757366023870112156109a7578501359283116109ab576024368185880101116109a7576107ff6112cb565b61080a600854611210565b601f8111610945575b5084601f851160011461089b5781869786809481947feef7e3f902ebc1e4fc32c5d0f5ff4bed181b32518904a37d9a46c75aa73b9ace9a9261088e575b50508360011b906000198560031b1c1916176008555b855196858896875286015201848401378181018301869052601f01601f19168101030190a180f35b830101359050828b610850565b60088652957ff3f7a9fe364faab93b216da50a3214154f22a0a2b415b23a84c8169e8b636ee3601f198616875b81811061092c5750918693917feef7e3f902ebc1e4fc32c5d0f5ff4bed181b32518904a37d9a46c75aa73b9ace989985809510610910575b5050600183811b01600855610866565b8201830135600019600386901b60f8161c191690558980610900565b838a0185013583559885019860019092019185016108c8565b600886527ff3f7a9fe364faab93b216da50a3214154f22a0a2b415b23a84c8169e8b636ee3601f860160051c81019184871061099d575b601f0160051c01905b8181106109925750610813565b868155600101610985565b909150819061097c565b8480fd5b8380fd5b5050346102d757816003193601126102d757517f00000000000000000000000000000000000000000000000000000000000000006001600160a01b03168152602090f35b5050346102d757816003193601126102d75760015490516001600160a01b039091168152602090f35b503461028f578260031936011261028f575490516001600160a01b03909116815260209150f35b5050346102d757816003193601126102d757602090517f00000000000000000000000000000000000000000000000000000000000000008152f35b509190346102d757806003193601126102d757610a996111c2565b90602491823590610aa8611386565b6001600160a01b0390811693841561075b5761271096878410610e1c57826002541615610e0e5762015180610afd7f00000000000000000000000000000000000000000000000000000000000000004261136c565b0492807f000000000000000000000000000000000000000000000000000000000000000016918651936020946323b872dd60e01b8682015233828201523060448201528760648201526064815260a0810181811067ffffffffffffffff821117610dfc578952610b6d908561141f565b875163cce516b760e01b815292858484817f000000000000000000000000000000000000000000000000000000000000000085165afa938415610df2578b94610db6575b506113889b8c89028915809e8b8304141715610da4578190049c8c838654161515600014610d965750610190808b02908b820414821715610d845790828e9897969594939204935b86841698508815610d3a5760648c02918c83046064141715610d29575091610c7a7fd90c09bb5f402d7388b86e73efc30f1276e5c657b97d452519cc743aa8ac09429d9e9f610c6f610c638f9997958f9087610c5e610c5e92879d9b049c8d9461136c565b61136c565b9184600254168b6113dc565b8260035416896113dc565b81610d15575b50505081610cd4575b505050505081875260058152838720610ca3848254611379565b9055818752600681528387208688528152838720610cc2848254611379565b90558351928352820152a26001815580f35b81610d00917f23265cbc6cbc433f1db176a495066e11d20658741dc6d52f0e9a9f73fdfc92f4956113dc565b81519081528585820152a23880858180610c89565b610d21925416866113dc565b388080610c80565b634e487b7160e01b8f52601186528efd5b50505091818d93610c7a8e9f7fd90c09bb5f402d7388b86e73efc30f1276e5c657b97d452519cc743aa8ac09429e9f610c638f99978f90610c5e90610c5e610c6f959c8d9461136c565b634e487b7160e01b8e5260118652848efd5b969594939291908793610bf9565b634e487b7160e01b8d5260118552838dfd5b9093508581813d8311610deb575b610dce818361124a565b81010312610de757518381168103610de7579238610bb1565b8a80fd5b503d610dc4565b89513d8d823e3d90fd5b634e487b7160e01b8c5260418452828cfd5b8451630e4a171360e01b8152fd5b84516367c3520760e11b8152fd5b5050346102d757816003193601126102d757602090517f00000000000000000000000000000000000000000000000000000000000000008152f35b5050346102d757816003193601126102d75760209051670de0b6b3a76400008152f35b503461028f57602036600319011261028f5760209282913581526005845220549051908152f35b8334610478578060031936011261047857610ec86112cb565b600180546001600160a01b0319811690915581906001600160a01b03167f8be0079c531659141344cd1fd0a4f28419497f9722a3daafe3b4186f6b6457e08280a380f35b503461028f578160031936011261028f578160209360ff92610f2c6111dd565b90358252600786528282206001600160a01b039091168252855220549151911615158152f35b5050346102d757816003193601126102d75760025490516001600160a01b039091168152602090f35b5050346102d757816003193601126102d75760035490516001600160a01b039091168152602090f35b5050346102d757816003193601126102d75760209062015180610fe77f00000000000000000000000000000000000000000000000000000000000000004261136c565b049051908152f35b5050346102d757816003193601126102d757602090517f00000000000000000000000000000000000000000000000000000000000000008152f35b5050346102d757816003193601126102d757602090517f00000000000000000000000000000000000000000000000000000000000000008152f35b503461028f57602036600319011261028f5761107f6111c2565b6110876112cb565b6001600160a01b0316918215610348575050600280546001600160a01b031916821790557fccf3fbe1cfbaf4340049a747fa960e401ea6eb5bdf8af07f8cae29baeacaa0ef8280a280f35b5050346102d757816003193601126102d757517f00000000000000000000000000000000000000000000000000000000000000006001600160a01b03168152602090f35b5050346102d757816003193601126102d7576020905161016d8152f35b8382346102d75760203660031901126102d75761114e6111c2565b6111566112cb565b81546001600160a01b0319166001600160a01b03919091169081179091557fd0fb66531bb950a999ffd739248f0badcf9df003c7daeb593287f07bd864e8338280a280f35b8490346102d757816003193601126102d757806c0c9f2c9cd04674edea4000000060209252f35b600435906001600160a01b03821682036111d857565b600080fd5b602435906001600160a01b03821682036111d857565b346111d85760003660031901126111d85760206040516127108152f35b90600182811c92168015611240575b602083101461122a57565b634e487b7160e01b600052602260045260246000fd5b91607f169161121f565b90601f8019910116810190811067ffffffffffffffff82111761126c57604052565b634e487b7160e01b600052604160045260246000fd5b6020808252825181830181905290939260005b8281106112b757505060409293506000838284010152601f8019910116010190565b818101860151848201604001528501611295565b6001546001600160a01b031633036112df57565b606460405162461bcd60e51b815260206004820152602060248201527f4f776e61626c653a2063616c6c6572206973206e6f7420746865206f776e65726044820152fd5b8181029291811591840414171561133657565b634e487b7160e01b600052601160045260246000fd5b8115611356570490565b634e487b7160e01b600052601260045260246000fd5b9190820391821161133657565b9190820180921161133657565b600260005414611397576002600055565b60405162461bcd60e51b815260206004820152601f60248201527f5265656e7472616e637947756172643a207265656e7472616e742063616c6c006044820152606490fd5b60405163a9059cbb60e01b60208201526001600160a01b0392909216602483015260448083019390935291815261141d9161141860648361124a565b61141f565b565b60018060a01b0316906040516040810167ffffffffffffffff908281108282111761126c576040526020938483527f5361666545524332303a206c6f772d6c6576656c2063616c6c206661696c6564858401526000808587829751910182855af1903d15611564573d92831161155057906114ba939291604051926114ad88601f19601f840116018561124a565b83523d868885013e61156f565b80519182159184831561152c575b5050509050156114d55750565b6084906040519062461bcd60e51b82526004820152602a60248201527f5361666545524332303a204552433230206f7065726174696f6e20646964206e6044820152691bdd081cdd58d8d9595960b21b6064820152fd5b9193818094500103126102d7578201519081151582036104785750803880846114c8565b634e487b7160e01b85526041600452602485fd5b906114ba9392506060915b919290156115d15750815115611583575090565b3b1561158c5790565b60405162461bcd60e51b815260206004820152601d60248201527f416464726573733a2063616c6c20746f206e6f6e2d636f6e74726163740000006044820152606490fd5b8251909150156115e45750805190602001fd5b60405162461bcd60e51b81529081906116009060048301611282565b0390fd5b61162f907f00000000000000000000000000000000000000000000000000000000000000009061134c565b7f0000000000000000000000000000000000000000000000000000000000000000901c7f000000000000000000000000000000000000000000000000000000000000000080821061167e575090565b905090565b620151806116b17f00000000000000000000000000000000000000000000000000000000000000004261136c565b04811015611726576000918183526007602052604083209060018060a01b03169081845260205260ff604084205416611721578183526006602052604083209083526020526040822054801561172157610626906106206040858561171e97526005602052205493611604565b90565b505090565b505060009056fea2646970667358221220b93dec0a9c9430f0747edc8cb2cb19a7dde46a7b69d822d6749308b3c3e8a7f164736f6c63430008130033",
  "linkReferences": {},
  "deployedLinkReferences": {}
}