{
  "_format": "hh-sol-artifact-1",
  "contractName": "FundCore",
  "sourceName": "contracts/rigs/fund/FundCore.sol",
  "abi": [
    {
      "inputs": [
        {
          "internalType": "address",
          "name": "_registry",
          "type": "address"
        },
        {
          "internalType": "address",
          "name": "_usdcToken",
          "type": "address"
        },
        {
          "internalType": "address",
          "name": "_uniswapV2Factory",
          "type": "address"
        },
        {
          "internalType": "address",
          "name": "_uniswapV2Router",
          "type": "address"
        },
        {
          "internalType": "address",
          "name": "_unitFactory",
          "type": "address"
        },
        {
          "internalType": "address",
          "name": "_fundRigFactory",
          "type": "address"
        },
        {
          "internalType": "address",
          "name": "_auctionFactory",
          "type": "address"
        },
        {
          "internalType": "address",
          "name": "_protocolFeeAddress",
          "type": "address"
        },
        {
          "internalType": "uint256",
          "name": "_minUsdcForLaunch",
          "type": "uint256"
        }
      ],
      "stateMutability": "nonpayable",
      "type": "constructor"
    },
    {
      "inputs": [],
      "name": "FundCore__EmptyTokenName",
      "type": "error"
    },
    {
      "inputs": [],
      "name": "FundCore__EmptyTokenSymbol",
      "type": "error"
    },
    {
      "inputs": [],
      "name": "FundCore__EmptyUri",
      "type": "error"
    },
    {
      "inputs": [],
      "name": "FundCore__InsufficientUsdc",
      "type": "error"
    },
    {
      "inputs": [],
      "name": "FundCore__ZeroAddress",
      "type": "error"
    },
    {
      "inputs": [],
      "name": "FundCore__ZeroLauncher",
      "type": "error"
    },
    {
      "inputs": [],
      "name": "FundCore__ZeroQuoteToken",
      "type": "error"
    },
    {
      "inputs": [],
      "name": "FundCore__ZeroRecipient",
      "type": "error"
    },
    {
      "inputs": [],
      "name": "FundCore__ZeroUnitAmount",
      "type": "error"
    },
    {
      "anonymous": false,
      "inputs": [
        {
          "indexed": true,
          "internalType": "address",
          "name": "launcher",
          "type": "address"
        },
        {
          "indexed": true,
          "internalType": "address",
          "name": "rig",
          "type": "address"
        },
        {
          "indexed": true,
          "internalType": "address",
          "name": "unit",
          "type": "address"
        },
        {
          "indexed": false,
          "internalType": "address",
          "name": "recipient",
          "type": "address"
        },
        {
          "indexed": false,
          "internalType": "address",
          "name": "auction",
          "type": "address"
        },
        {
          "indexed": false,
          "internalType": "address",
          "name": "lpToken",
          "type": "address"
        },
        {
          "indexed": false,
          "internalType": "address",
          "name": "quoteToken",
          "type": "address"
        },
        {
          "indexed": false,
          "internalType": "string",
          "name": "tokenName",
          "type": "string"
        },
        {
          "indexed": false,
          "internalType": "string",
          "name": "tokenSymbol",
          "type": "string"
        },
        {
          "indexed": false,
          "internalType": "string",
          "name": "uri",
          "type": "string"
        },
        {
          "indexed": false,
          "internalType": "uint256",
          "name": "usdcAmount",
          "type": "uint256"
        },
        {
          "indexed": false,
          "internalType": "uint256",
          "name": "unitAmount",
          "type": "uint256"
        },
        {
          "indexed": false,
          "internalType": "uint256",
          "name": "initialEmission",
          "type": "uint256"
        },
        {
          "indexed": false,
          "internalType": "uint256",
          "name": "minEmission",
          "type": "uint256"
        },
        {
          "indexed": false,
          "internalType": "uint256",
          "name": "halvingPeriod",
          "type": "uint256"
        },
        {
          "indexed": false,
          "internalType": "uint256",
          "name": "auctionInitPrice",
          "type": "uint256"
        },
        {
          "indexed": false,
          "internalType": "uint256",
          "name": "auctionEpochPeriod",
          "type": "uint256"
        },
        {
          "indexed": false,
          "internalType": "uint256",
          "name": "auctionPriceMultiplier",
          "type": "uint256"
        },
        {
          "indexed": false,
          "internalType": "uint256",
          "name": "auctionMinInitPrice",
          "type": "uint256"
        }
      ],
      "name": "FundCore__Launched",
      "type": "event"
    },
    {
      "anonymous": false,
      "inputs": [
        {
          "indexed": false,
          "internalType": "uint256",
          "name": "minUsdcForLaunch",
          "type": "uint256"
        }
      ],
      "name": "FundCore__MinUsdcForLaunchSet",
      "type": "event"
    },
    {
      "anonymous": false,
      "inputs": [
        {
          "indexed": false,
          "internalType": "address",
          "name": "protocolFeeAddress",
          "type": "address"
        }
      ],
      "name": "FundCore__ProtocolFeeAddressSet",
      "type": "event"
    },
    {
      "anonymous": false,
      "inputs": [
        {
          "indexed": true,
          "internalType": "address",
          "name": "previousOwner",
          "type": "address"
        },
        {
          "indexed": true,
          "internalType": "address",
          "name": "newOwner",
          "type": "address"
        }
      ],
      "name": "OwnershipTransferred",
      "type": "event"
    },
    {
      "inputs": [],
      "name": "DEAD_ADDRESS",
      "outputs": [
        {
          "internalType": "address",
          "name": "",
          "type": "address"
        }
      ],
      "stateMutability": "view",
      "type": "function"
    },
    {
      "inputs": [],
      "name": "RIG_TYPE",
      "outputs": [
        {
          "internalType": "string",
          "name": "",
          "type": "string"
        }
      ],
      "stateMutability": "view",
      "type": "function"
    },
    {
      "inputs": [],
      "name": "auctionFactory",
      "outputs": [
        {
          "internalType": "address",
          "name": "",
          "type": "address"
        }
      ],
      "stateMutability": "view",
      "type": "function"
    },
    {
      "inputs": [],
      "name": "fundRigFactory",
      "outputs": [
        {
          "internalType": "address",
          "name": "",
          "type": "address"
        }
      ],
      "stateMutability": "view",
      "type": "function"
    },
    {
      "inputs": [
        {
          "components": [
            {
              "internalType": "address",
              "name": "launcher",
              "type": "address"
            },
            {
              "internalType": "address",
              "name": "quoteToken",
              "type": "address"
            },
            {
              "internalType": "address",
              "name": "recipient",
              "type": "address"
            },
            {
              "internalType": "string",
              "name": "tokenName",
              "type": "string"
            },
            {
              "internalType": "string",
              "name": "tokenSymbol",
              "type": "string"
            },
            {
              "internalType": "string",
              "name": "uri",
              "type": "string"
            },
            {
              "internalType": "uint256",
              "name": "usdcAmount",
              "type": "uint256"
            },
            {
              "internalType": "uint256",
              "name": "unitAmount",
              "type": "uint256"
            },
            {
              "internalType": "uint256",
              "name": "initialEmission",
              "type": "uint256"
            },
            {
              "internalType": "uint256",
              "name": "minEmission",
              "type": "uint256"
            },
            {
              "internalType": "uint256",
              "name": "halvingPeriod",
              "type": "uint256"
            },
            {
              "internalType": "uint256",
              "name": "auctionInitPrice",
              "type": "uint256"
            },
            {
              "internalType": "uint256",
              "name": "auctionEpochPeriod",
              "type": "uint256"
            },
            {
              "internalType": "uint256",
              "name": "auctionPriceMultiplier",
              "type": "uint256"
            },
            {
              "internalType": "uint256",
              "name": "auctionMinInitPrice",
              "type": "uint256"
            }
          ],
          "internalType": "struct FundCore.LaunchParams",
          "name": "params",
          "type": "tuple"
        }
      ],
      "name": "launch",
      "outputs": [
        {
          "internalType": "address",
          "name": "unit",
          "type": "address"
        },
        {
          "internalType": "address",
          "name": "rig",
          "type": "address"
        },
        {
          "internalType": "address",
          "name": "auction",
          "type": "address"
        },
        {
          "internalType": "address",
          "name": "lpToken",
          "type": "address"
        }
      ],
      "stateMutability": "nonpayable",
      "type": "function"
    },
    {
      "inputs": [],
      "name": "minUsdcForLaunch",
      "outputs": [
        {
          "internalType": "uint256",
          "name": "",
          "type": "uint256"
        }
      ],
      "stateMutability": "view",
      "type": "function"
    },
    {
      "inputs": [],
      "name": "owner",
      "outputs": [
        {
          "internalType": "address",
          "name": "",
          "type": "address"
        }
      ],
      "stateMutability": "view",
      "type": "function"
    },
    {
      "inputs": [],
      "name": "protocolFeeAddress",
      "outputs": [
        {
          "internalType": "address",
          "name": "",
          "type": "address"
        }
      ],
      "stateMutability": "view",
      "type": "function"
    },
    {
      "inputs": [],
      "name": "registry",
      "outputs": [
        {
          "internalType": "address",
          "name": "",
          "type": "address"
        }
      ],
      "stateMutability": "view",
      "type": "function"
    },
    {
      "inputs": [],
      "name": "renounceOwnership",
      "outputs": [],
      "stateMutability": "nonpayable",
      "type": "function"
    },
    {
      "inputs": [
        {
          "internalType": "address",
          "name": "",
          "type": "address"
        }
      ],
      "name": "rigToAuction",
      "outputs": [
        {
          "internalType": "address",
          "name": "",
          "type": "address"
        }
      ],
      "stateMutability": "view",
      "type": "function"
    },
    {
      "inputs": [
        {
          "internalType": "address",
          "name": "",
          "type": "address"
        }
      ],
      "name": "rigToIndex",
      "outputs": [
        {
          "internalType": "uint256",
          "name": "",
          "type": "uint256"
        }
      ],
      "stateMutability": "view",
      "type": "function"
    },
    {
      "inputs": [
        {
          "internalType": "address",
          "name": "",
          "type": "address"
        }
      ],
      "name": "rigToIsRig",
      "outputs": [
        {
          "internalType": "bool",
          "name": "",
          "type": "bool"
        }
      ],
      "stateMutability": "view",
      "type": "function"
    },
    {
      "inputs": [
        {
          "internalType": "address",
          "name": "",
          "type": "address"
        }
      ],
      "name": "rigToLP",
      "outputs": [
        {
          "internalType": "address",
          "name": "",
          "type": "address"
        }
      ],
      "stateMutability": "view",
      "type": "function"
    },
    {
      "inputs": [
        {
          "internalType": "uint256",
          "name": "",
          "type": "uint256"
        }
      ],
      "name": "rigs",
      "outputs": [
        {
          "internalType": "address",
          "name": "",
          "type": "address"
        }
      ],
      "stateMutability": "view",
      "type": "function"
    },
    {
      "inputs": [],
      "name": "rigsLength",
      "outputs": [
        {
          "internalType": "uint256",
          "name": "",
          "type": "uint256"
        }
      ],
      "stateMutability": "view",
      "type": "function"
    },
    {
      "inputs": [
        {
          "internalType": "uint256",
          "name": "_minUsdcForLaunch",
          "type": "uint256"
        }
      ],
      "name": "setMinUsdcForLaunch",
      "outputs": [],
      "stateMutability": "nonpayable",
      "type": "function"
    },
    {
      "inputs": [
        {
          "internalType": "address",
          "name": "_protocolFeeAddress",
          "type": "address"
        }
      ],
      "name": "setProtocolFeeAddress",
      "outputs": [],
      "stateMutability": "nonpayable",
      "type": "function"
    },
    {
      "inputs": [
        {
          "internalType": "address",
          "name": "newOwner",
          "type": "address"
        }
      ],
      "name": "transferOwnership",
      "outputs": [],
      "stateMutability": "nonpayable",
      "type": "function"
    },
    {
      "inputs": [],
      "name": "uniswapV2Factory",
      "outputs": [
        {
          "internalType": "address",
          "name": "",
          "type": "address"
        }
      ],
      "stateMutability": "view",
      "type": "function"
    },
    {
      "inputs": [],
      "name": "uniswapV2Router",
      "outputs": [
        {
          "internalType": "address",
          "name": "",
          "type": "address"
        }
      ],
      "stateMutability": "view",
      "type": "function"
    },
    {
      "inputs": [],
      "name": "unitFactory",
      "outputs": [
        {
          "internalType": "address",
          "name": "",
          "type": "address"
        }
      ],
      "stateMutability": "view",
      "type": "function"
    },
    {
      "inputs": [],
      "name": "usdcToken",
      "outputs": [
        {
          "internalType": "address",
          "name": "",
          "type": "address"
        }
      ],
      "stateMutability": "view",
      "type": "function"
    }
  ],
  "bytecode": "0x61016034620002755762001c6e38819003601f8101601f191683016001600160401b038111848210176200027a57839282916040528339610120918291810103126200027557620000508262000290565b6200005e6020840162000290565b906200006d6040850162000290565b906200007c6060860162000290565b926200008b6080870162000290565b936200009a60a0880162000290565b620000a860c0890162000290565b95620000b760e08a0162000290565b92610100809a0151966000549560018060a01b031997338989161760005560405160018060a01b0398893391167f8be0079c531659141344cd1fd0a4f28419497f9722a3daafe3b4186f6b6457e0600080a3600180558882161580156200026a575b80156200025f575b801562000254575b801562000249575b80156200023e575b801562000233575b62000224575060805260a05260c05260e0528852865261014094855216906002541617600255600355604051916119c89384620002a6853960805184818161045401528181610e1c0152610e85015260a051848181610725015281816108d50152818161092f0152818161098901528181610a450152611389015260c0518481816105620152610a77015260e05184818161084701528181610881015281816108b40152818161090e015281816109f5015261134401525183818161029801526107b90152518281816103220152610c240152518181816102dd0152610b510152f35b63052ee5e160e11b8152600490fd5b50888c161562000141565b508887161562000139565b508886161562000131565b508885161562000129565b508884161562000121565b508883161562000119565b600080fd5b634e487b7160e01b600052604160045260246000fd5b51906001600160a01b0382168203620002755756fe6080604052600436101561001257600080fd5b6000803560e01c806305244d77146113f75780630524c46a146113b857806311eac855146113735780631694505e1461132e57806332d1338e146112f15780633fcd72c4146105cc578063446418cf146105ae5780634e6fd6c41461059157806359d0f7131461054c5780636b7b9112146104dd578063715018a6146104835780637b1039991461043e578063832c0e5f146103fd57806383e9d76b146103be5780638da5cb5b146103975780639827ba6314610351578063a11f22cc1461030c578063abf4fde4146102c7578063bbba90e214610282578063cce516b714610259578063cf52d1431461023b578063d9efb589146101ed5763f2fde38b1461011a57600080fd5b346101ea5760203660031901126101ea576004356001600160a01b03818116918290036101e657610149611555565b811561019257600054826bffffffffffffffffffffffff60a01b821617600055167f8be0079c531659141344cd1fd0a4f28419497f9722a3daafe3b4186f6b6457e0600080a380f35b60405162461bcd60e51b815260206004820152602660248201527f4f776e61626c653a206e6577206f776e657220697320746865207a65726f206160448201526564647265737360d01b6064820152608490fd5b8280fd5b80fd5b50346101ea5760203660031901126101ea577faca3fee89b793c37d8df4bee055e3fb743b3647cefbb5c08047a8131dc21c6fb602060043561022d611555565b80600355604051908152a180f35b50346101ea57806003193601126101ea576020600454604051908152f35b50346101ea57806003193601126101ea576002546040516001600160a01b039091168152602090f35b50346101ea57806003193601126101ea576040517f00000000000000000000000000000000000000000000000000000000000000006001600160a01b03168152602090f35b50346101ea57806003193601126101ea576040517f00000000000000000000000000000000000000000000000000000000000000006001600160a01b03168152602090f35b50346101ea57806003193601126101ea576040517f00000000000000000000000000000000000000000000000000000000000000006001600160a01b03168152602090f35b50346101ea5760203660031901126101ea576004356001600160a01b038116908190036103935760408260ff9260209452600584522054166040519015158152f35b5080fd5b50346101ea57806003193601126101ea57546040516001600160a01b039091168152602090f35b50346101ea5760203660031901126101ea576001600160a01b03600435818116908190036101e657826040916020945260088452205416604051908152f35b50346101ea57806003193601126101ea5761043a60405161041d816114b2565b6004815263199d5b9960e21b60208201526040519182918261150c565b0390f35b50346101ea57806003193601126101ea576040517f00000000000000000000000000000000000000000000000000000000000000006001600160a01b03168152602090f35b50346101ea57806003193601126101ea5761049c611555565b600080546001600160a01b0319811682556001600160a01b03167f8be0079c531659141344cd1fd0a4f28419497f9722a3daafe3b4186f6b6457e08280a380f35b50346101ea5760203660031901126101ea576004356001600160a01b038116908190036103935760207fb83f5a562e0680b568d7194814953b452c737c9ef7d4f8ee26b87d34ab9a1bc891610530611555565b600280546001600160a01b03191682179055604051908152a180f35b50346101ea57806003193601126101ea576040517f00000000000000000000000000000000000000000000000000000000000000006001600160a01b03168152602090f35b50346101ea57806003193601126101ea57602060405161dead8152f35b50346101ea57806003193601126101ea576020600354604051908152f35b50346101ea5760203660031901126101ea5767ffffffffffffffff600435116101ea576101e0600435360360031901126101ea576002600154146112ac5760026001556001600160a01b036106246004803501611625565b161561129a576001600160a01b03610640600435602401611625565b1615611288576001600160a01b0361065c600435604401611625565b16156112765760035460c4600435013510611264576106856064600435016004356004016115ad565b905015611252576106a06084600435016004356004016115ad565b905015611240576106bb60a4600435016004356004016115ad565b90501561122e5760e460043501351561121c57604051906323b872dd60e01b602083015233602483015230604483015260c460043501356064830152606482528160a081011067ffffffffffffffff60a0840111176112085760a082016040526107a291610752907f00000000000000000000000000000000000000000000000000000000000000006001600160a01b03166117b9565b60206107686064600435016004356004016115ad565b6107b461077f6084600435016004356004016115ad565b604051978895869563b548848760e01b8752604060048801526044870191611604565b84810360031901602486015291611604565b0381847f00000000000000000000000000000000000000000000000000000000000000006001600160a01b03165af19182156111fb5781926111da575b506001600160a01b0382163b156101ea576040516340c10f1960e01b8152306004808301919091523560e4013560248201528181604481836001600160a01b0388165af180156110bb576111cb575b50906108757f00000000000000000000000000000000000000000000000000000000000000006001600160a01b038316611639565b6108af60043560e401357f00000000000000000000000000000000000000000000000000000000000000006001600160a01b03841661167b565b6109027f00000000000000000000000000000000000000000000000000000000000000007f00000000000000000000000000000000000000000000000000000000000000006001600160a01b0316611639565b61095c60043560c401357f00000000000000000000000000000000000000000000000000000000000000007f00000000000000000000000000000000000000000000000000000000000000006001600160a01b031661167b565b6104b0420142116111b75760405162e8e33760e81b81526001600160a01b038281166004808401919091527f00000000000000000000000000000000000000000000000000000000000000008216602484015260e49035818101356044850181905260c49182013560648601819052608486019190915260a485015230908401526104b0420190830152606090829061010490829087907f0000000000000000000000000000000000000000000000000000000000000000165af19081156111ac578391611177575b5060405163e6a4390560e01b81526001600160a01b0380841660048301527f000000000000000000000000000000000000000000000000000000000000000016602482015290602082806044810103817f00000000000000000000000000000000000000000000000000000000000000006001600160a01b03165afa918215611147578492611152575b50610aee906040519063a9059cbb60e01b602083015261dead6024830152604482015260448152610adf816114ce565b6001600160a01b0383166117b9565b60405163423b7f1960e01b81526001600160a01b0382811660048084019190915261dead602484015235610164810135604484015261018481013560648401526101a481013560848401526101c4013560a4830152602090829060c490829088907f0000000000000000000000000000000000000000000000000000000000000000165af1908115611147578491611128575b50610b90602460043501611625565b610b9e600435600401611625565b610bac604460043501611625565b604051633b6e6e5360e01b81526001600160a01b0387811660048084019190915294811660248301523060448301528581166064830152928316608482015290821660a482015291356101048181013560c48501526101248083013560e48601526101449092013590840152602091839190829089907f0000000000000000000000000000000000000000000000000000000000000000165af190811561111d5785916110ee575b506001600160a01b0384163b156110805760405163588d95c960e11b81526001600160a01b03828116600483015286919082908290602490829084908b165af180156110bb576110da575b50610cb460a4600435016004356004016115ad565b6001600160a01b0384163b156101e657604051639b642de160e01b81526020600482015291839183918291610cee91602484019190611604565b0381836001600160a01b0388165af180156110bb576110c6575b50610d17600435600401611625565b6001600160a01b0383163b156103935760405163f2fde38b60e01b81526001600160a01b03918216600482015290829082906024908290849088165af180156110bb576110a7575b50506001600160a01b0381168552600560209081526040808720805460ff19166001179055600454600690925286208190556801000000000000000081101561109357806001610db2920160045561143b565b81546001600160a01b0360039290921b82811b199091168483169182901b1790925590865260086020908152604080882080546001600160a01b031990811688861617909155600790925287208054909116918416919091179055610e1a6004803501611625565b7f00000000000000000000000000000000000000000000000000000000000000006001600160a01b03163b1561108f57604051633cc8050960e21b81526001600160a01b038381166004830152868116602483015291821660448201529086908290606490829084907f0000000000000000000000000000000000000000000000000000000000000000165af180156110845761106c575b506080945081610ec6600435600401611625565b610f95610ed7604460043501611625565b86610f87610ee9602460043501611625565b610f79610f006064600435016004356004016115ad565b9190610f166084600435016004356004016115ad565b939094610f2d60a4600435016004356004016115ad565b98909960206040519e8f9260018060a01b0316835260018060a01b031691015260018060a01b031660408d015260018060a01b031660608c0152610200608081908d01528b0191611604565b9188830360a08a0152611604565b9185830360c0870152611604565b60043560c481013560e085015260e48101356101008501526101048101356101208501526101248101356101408501526101448101356101608501526101648101356101808501526101848101356101a08501526101a48101356101c08501526101c401356101e08401526001600160a01b038781169385821693909116917f655e0d5a2ccc362dca9b947a47f6dd1692c9027e418bd2d179e06e2988904fa2919081900390a460018055604080516001600160a01b03958616815291851660208301529184169181019190915291166060820152f35b6110768691611488565b6110805784610eb2565b8480fd5b6040513d88823e3d90fd5b8580fd5b634e487b7160e01b86526041600452602486fd5b6110b090611488565b611080578438610d5f565b6040513d84823e3d90fd5b6110cf90611488565b611080578438610d08565b6110e390611488565b611080578438610c9f565b611110915060203d602011611116575b61110881836114ea565b8101906115e5565b38610c54565b503d6110fe565b6040513d87823e3d90fd5b611141915060203d6020116111165761110881836114ea565b38610b81565b6040513d86823e3d90fd5b610aee9192506111709060203d6020116111165761110881836114ea565b9190610aaf565b90506060813d6060116111a4575b81611192606093836114ea565b810103126101e6576040015138610a25565b3d9150611185565b6040513d85823e3d90fd5b634e487b7160e01b82526011600452602482fd5b6111d490611488565b38610840565b6111f491925060203d6020116111165761110881836114ea565b90386107f1565b50604051903d90823e3d90fd5b634e487b7160e01b81526041600452602490fd5b6040516324664fdf60e01b8152600490fd5b60405163281fd79d60e21b8152600490fd5b6040516343a5467b60e11b8152600490fd5b604051630ee0a31960e01b8152600490fd5b60405163bdbe4afd60e01b8152600490fd5b60405163aefce65760e01b8152600490fd5b6040516388bfa10960e01b8152600490fd5b604051638f2cb49160e01b8152600490fd5b60405162461bcd60e51b815260206004820152601f60248201527f5265656e7472616e637947756172643a207265656e7472616e742063616c6c006044820152606490fd5b50346101ea5760203660031901126101ea576004356001600160a01b03811690819003610393578160409160209352600683522054604051908152f35b50346101ea57806003193601126101ea576040517f00000000000000000000000000000000000000000000000000000000000000006001600160a01b03168152602090f35b50346101ea57806003193601126101ea576040517f00000000000000000000000000000000000000000000000000000000000000006001600160a01b03168152602090f35b50346101ea5760203660031901126101ea576001600160a01b03600435818116908190036101e657826040916020945260078452205416604051908152f35b50346101ea5760203660031901126101ea57600435906004548210156101ea5760206114228361143b565b905460405160039290921b1c6001600160a01b03168152f35b6004548110156114725760046000527f8a35acfbc15ff81a39ae7d344fd709f28e8600b4aa8c65c6b64bfe7fe36bd19b0190600090565b634e487b7160e01b600052603260045260246000fd5b67ffffffffffffffff811161149c57604052565b634e487b7160e01b600052604160045260246000fd5b6040810190811067ffffffffffffffff82111761149c57604052565b6080810190811067ffffffffffffffff82111761149c57604052565b90601f8019910116810190811067ffffffffffffffff82111761149c57604052565b6020808252825181830181905290939260005b82811061154157505060409293506000838284010152601f8019910116010190565b81810186015184820160400152850161151f565b6000546001600160a01b0316330361156957565b606460405162461bcd60e51b815260206004820152602060248201527f4f776e61626c653a2063616c6c6572206973206e6f7420746865206f776e65726044820152fd5b903590601e19813603018212156115e0570180359067ffffffffffffffff82116115e0576020019181360383136115e057565b600080fd5b908160209103126115e057516001600160a01b03811681036115e05790565b908060209392818452848401376000828201840152601f01601f1916010190565b356001600160a01b03811681036115e05790565b60405163095ea7b360e01b60208201526001600160a01b039092166024830152600060448084019190915282526116799190611674826114ce565b6117b9565b565b9190918115801561172d575b156116c95760405163095ea7b360e01b60208201526001600160a01b0393909316602484015260448084019290925290825261167991906116746064836114ea565b60405162461bcd60e51b815260206004820152603660248201527f5361666545524332303a20617070726f76652066726f6d206e6f6e2d7a65726f60448201527520746f206e6f6e2d7a65726f20616c6c6f77616e636560501b6064820152608490fd5b50604051636eb1769f60e11b81523060048201526001600160a01b0384166024820152602081806044810103816001600160a01b0386165afa9081156117ad5760009161177c575b5015611687565b906020823d82116117a5575b81611795602093836114ea565b810103126101ea57505138611775565b3d9150611788565b6040513d6000823e3d90fd5b60018060a01b0316906040516117ce816114b2565b6020928382527f5361666545524332303a206c6f772d6c6576656c2063616c6c206661696c6564848301526000808486829651910182855af13d156118f3573d9167ffffffffffffffff83116118df57906118499392916040519261183c88601f19601f84011601856114ea565b83523d868885013e6118fd565b8051918215918483156118bb575b5050509050156118645750565b6084906040519062461bcd60e51b82526004820152602a60248201527f5361666545524332303a204552433230206f7065726174696f6e20646964206e6044820152691bdd081cdd58d8d9595960b21b6064820152fd5b919381809450010312610393578201519081151582036101ea575080388084611857565b634e487b7160e01b85526041600452602485fd5b9061184992916060915b9192901561195f5750815115611911575090565b3b1561191a5790565b60405162461bcd60e51b815260206004820152601d60248201527f416464726573733a2063616c6c20746f206e6f6e2d636f6e74726163740000006044820152606490fd5b8251909150156119725750805190602001fd5b60405162461bcd60e51b815290819061198e906004830161150c565b0390fdfea264697066735822122063629c82a8cd17bae03a67a98f646c6722fb26b6ab74a2b815668dac868871b564736f6c63430008130033",
  "linkReferences": {},
  "deployedLinkReferences": {}
}