{
  "_format": "hh-sol-artifact-1",
  "contractName": "FundCore",
  "sourceName": "contracts/rigs/fund/FundCore.sol",
  "abi": [
    {
      "inputs": [
        {
          "internalType": "address",
          "name": "_registry",
          "type": "address"
        },
        {
          "internalType": "address",
          "name": "_usdcToken",
          "type": "address"
        },
        {
          "internalType": "address",
          "name": "_uniswapV2Factory",
          "type": "address"
        },
        {
          "internalType": "address",
          "name": "_uniswapV2Router",
          "type": "address"
        },
        {
          "internalType": "address",
          "name": "_unitFactory",
          "type": "address"
        },
        {
          "internalType": "address",
          "name": "_fundRigFactory",
          "type": "address"
        },
        {
          "internalType": "address",
          "name": "_auctionFactory",
          "type": "address"
        },
        {
          "internalType": "address",
          "name": "_protocolFeeAddress",
          "type": "address"
        },
        {
          "internalType": "uint256",
          "name": "_minUsdcForLaunch",
          "type": "uint256"
        }
      ],
      "stateMutability": "nonpayable",
      "type": "constructor"
    },
    {
      "inputs": [],
      "name": "FundCore__EmptyTokenName",
      "type": "error"
    },
    {
      "inputs": [],
      "name": "FundCore__EmptyTokenSymbol",
      "type": "error"
    },
    {
      "inputs": [],
      "name": "FundCore__EmptyUri",
      "type": "error"
    },
    {
      "inputs": [],
      "name": "FundCore__InsufficientUsdc",
      "type": "error"
    },
    {
      "inputs": [],
      "name": "FundCore__ZeroAddress",
      "type": "error"
    },
    {
      "inputs": [],
      "name": "FundCore__ZeroLauncher",
      "type": "error"
    },
    {
      "inputs": [],
      "name": "FundCore__ZeroQuoteToken",
      "type": "error"
    },
    {
      "inputs": [],
      "name": "FundCore__ZeroRecipient",
      "type": "error"
    },
    {
      "inputs": [],
      "name": "FundCore__ZeroUnitAmount",
      "type": "error"
    },
    {
      "anonymous": false,
      "inputs": [
        {
          "indexed": true,
          "internalType": "address",
          "name": "launcher",
          "type": "address"
        },
        {
          "indexed": true,
          "internalType": "address",
          "name": "rig",
          "type": "address"
        },
        {
          "indexed": true,
          "internalType": "address",
          "name": "unit",
          "type": "address"
        },
        {
          "indexed": false,
          "internalType": "address",
          "name": "recipient",
          "type": "address"
        },
        {
          "indexed": false,
          "internalType": "address",
          "name": "auction",
          "type": "address"
        },
        {
          "indexed": false,
          "internalType": "address",
          "name": "lpToken",
          "type": "address"
        },
        {
          "indexed": false,
          "internalType": "address",
          "name": "quoteToken",
          "type": "address"
        },
        {
          "indexed": false,
          "internalType": "string",
          "name": "tokenName",
          "type": "string"
        },
        {
          "indexed": false,
          "internalType": "string",
          "name": "tokenSymbol",
          "type": "string"
        },
        {
          "indexed": false,
          "internalType": "string",
          "name": "uri",
          "type": "string"
        },
        {
          "indexed": false,
          "internalType": "uint256",
          "name": "usdcAmount",
          "type": "uint256"
        },
        {
          "indexed": false,
          "internalType": "uint256",
          "name": "unitAmount",
          "type": "uint256"
        },
        {
          "indexed": false,
          "internalType": "uint256",
          "name": "initialEmission",
          "type": "uint256"
        },
        {
          "indexed": false,
          "internalType": "uint256",
          "name": "minEmission",
          "type": "uint256"
        },
        {
          "indexed": false,
          "internalType": "uint256",
          "name": "halvingPeriod",
          "type": "uint256"
        },
        {
          "indexed": false,
          "internalType": "uint256",
          "name": "auctionInitPrice",
          "type": "uint256"
        },
        {
          "indexed": false,
          "internalType": "uint256",
          "name": "auctionEpochPeriod",
          "type": "uint256"
        },
        {
          "indexed": false,
          "internalType": "uint256",
          "name": "auctionPriceMultiplier",
          "type": "uint256"
        },
        {
          "indexed": false,
          "internalType": "uint256",
          "name": "auctionMinInitPrice",
          "type": "uint256"
        }
      ],
      "name": "FundCore__Launched",
      "type": "event"
    },
    {
      "anonymous": false,
      "inputs": [
        {
          "indexed": false,
          "internalType": "uint256",
          "name": "minUsdcForLaunch",
          "type": "uint256"
        }
      ],
      "name": "FundCore__MinUsdcForLaunchSet",
      "type": "event"
    },
    {
      "anonymous": false,
      "inputs": [
        {
          "indexed": false,
          "internalType": "address",
          "name": "protocolFeeAddress",
          "type": "address"
        }
      ],
      "name": "FundCore__ProtocolFeeAddressSet",
      "type": "event"
    },
    {
      "anonymous": false,
      "inputs": [
        {
          "indexed": true,
          "internalType": "address",
          "name": "previousOwner",
          "type": "address"
        },
        {
          "indexed": true,
          "internalType": "address",
          "name": "newOwner",
          "type": "address"
        }
      ],
      "name": "OwnershipTransferred",
      "type": "event"
    },
    {
      "inputs": [],
      "name": "DEAD_ADDRESS",
      "outputs": [
        {
          "internalType": "address",
          "name": "",
          "type": "address"
        }
      ],
      "stateMutability": "view",
      "type": "function"
    },
    {
      "inputs": [],
      "name": "RIG_TYPE",
      "outputs": [
        {
          "internalType": "string",
          "name": "",
          "type": "string"
        }
      ],
      "stateMutability": "view",
      "type": "function"
    },
    {
      "inputs": [],
      "name": "auctionFactory",
      "outputs": [
        {
          "internalType": "address",
          "name": "",
          "type": "address"
        }
      ],
      "stateMutability": "view",
      "type": "function"
    },
    {
      "inputs": [],
      "name": "fundRigFactory",
      "outputs": [
        {
          "internalType": "address",
          "name": "",
          "type": "address"
        }
      ],
      "stateMutability": "view",
      "type": "function"
    },
    {
      "inputs": [
        {
          "components": [
            {
              "internalType": "address",
              "name": "launcher",
              "type": "address"
            },
            {
              "internalType": "address",
              "name": "quoteToken",
              "type": "address"
            },
            {
              "internalType": "address",
              "name": "recipient",
              "type": "address"
            },
            {
              "internalType": "string",
              "name": "tokenName",
              "type": "string"
            },
            {
              "internalType": "string",
              "name": "tokenSymbol",
              "type": "string"
            },
            {
              "internalType": "string",
              "name": "uri",
              "type": "string"
            },
            {
              "internalType": "uint256",
              "name": "usdcAmount",
              "type": "uint256"
            },
            {
              "internalType": "uint256",
              "name": "unitAmount",
              "type": "uint256"
            },
            {
              "internalType": "uint256",
              "name": "initialEmission",
              "type": "uint256"
            },
            {
              "internalType": "uint256",
              "name": "minEmission",
              "type": "uint256"
            },
            {
              "internalType": "uint256",
              "name": "halvingPeriod",
              "type": "uint256"
            },
            {
              "internalType": "uint256",
              "name": "auctionInitPrice",
              "type": "uint256"
            },
            {
              "internalType": "uint256",
              "name": "auctionEpochPeriod",
              "type": "uint256"
            },
            {
              "internalType": "uint256",
              "name": "auctionPriceMultiplier",
              "type": "uint256"
            },
            {
              "internalType": "uint256",
              "name": "auctionMinInitPrice",
              "type": "uint256"
            }
          ],
          "internalType": "struct FundCore.LaunchParams",
          "name": "params",
          "type": "tuple"
        }
      ],
      "name": "launch",
      "outputs": [
        {
          "internalType": "address",
          "name": "unit",
          "type": "address"
        },
        {
          "internalType": "address",
          "name": "rig",
          "type": "address"
        },
        {
          "internalType": "address",
          "name": "auction",
          "type": "address"
        },
        {
          "internalType": "address",
          "name": "lpToken",
          "type": "address"
        }
      ],
      "stateMutability": "nonpayable",
      "type": "function"
    },
    {
      "inputs": [],
      "name": "minUsdcForLaunch",
      "outputs": [
        {
          "internalType": "uint256",
          "name": "",
          "type": "uint256"
        }
      ],
      "stateMutability": "view",
      "type": "function"
    },
    {
      "inputs": [],
      "name": "owner",
      "outputs": [
        {
          "internalType": "address",
          "name": "",
          "type": "address"
        }
      ],
      "stateMutability": "view",
      "type": "function"
    },
    {
      "inputs": [],
      "name": "protocolFeeAddress",
      "outputs": [
        {
          "internalType": "address",
          "name": "",
          "type": "address"
        }
      ],
      "stateMutability": "view",
      "type": "function"
    },
    {
      "inputs": [],
      "name": "registry",
      "outputs": [
        {
          "internalType": "address",
          "name": "",
          "type": "address"
        }
      ],
      "stateMutability": "view",
      "type": "function"
    },
    {
      "inputs": [],
      "name": "renounceOwnership",
      "outputs": [],
      "stateMutability": "nonpayable",
      "type": "function"
    },
    {
      "inputs": [
        {
          "internalType": "address",
          "name": "",
          "type": "address"
        }
      ],
      "name": "rigToAuction",
      "outputs": [
        {
          "internalType": "address",
          "name": "",
          "type": "address"
        }
      ],
      "stateMutability": "view",
      "type": "function"
    },
    {
      "inputs": [
        {
          "internalType": "address",
          "name": "",
          "type": "address"
        }
      ],
      "name": "rigToIndex",
      "outputs": [
        {
          "internalType": "uint256",
          "name": "",
          "type": "uint256"
        }
      ],
      "stateMutability": "view",
      "type": "function"
    },
    {
      "inputs": [
        {
          "internalType": "address",
          "name": "",
          "type": "address"
        }
      ],
      "name": "rigToIsRig",
      "outputs": [
        {
          "internalType": "bool",
          "name": "",
          "type": "bool"
        }
      ],
      "stateMutability": "view",
      "type": "function"
    },
    {
      "inputs": [
        {
          "internalType": "address",
          "name": "",
          "type": "address"
        }
      ],
      "name": "rigToLP",
      "outputs": [
        {
          "internalType": "address",
          "name": "",
          "type": "address"
        }
      ],
      "stateMutability": "view",
      "type": "function"
    },
    {
      "inputs": [
        {
          "internalType": "uint256",
          "name": "",
          "type": "uint256"
        }
      ],
      "name": "rigs",
      "outputs": [
        {
          "internalType": "address",
          "name": "",
          "type": "address"
        }
      ],
      "stateMutability": "view",
      "type": "function"
    },
    {
      "inputs": [],
      "name": "rigsLength",
      "outputs": [
        {
          "internalType": "uint256",
          "name": "",
          "type": "uint256"
        }
      ],
      "stateMutability": "view",
      "type": "function"
    },
    {
      "inputs": [
        {
          "internalType": "uint256",
          "name": "_minUsdcForLaunch",
          "type": "uint256"
        }
      ],
      "name": "setMinUsdcForLaunch",
      "outputs": [],
      "stateMutability": "nonpayable",
      "type": "function"
    },
    {
      "inputs": [
        {
          "internalType": "address",
          "name": "_protocolFeeAddress",
          "type": "address"
        }
      ],
      "name": "setProtocolFeeAddress",
      "outputs": [],
      "stateMutability": "nonpayable",
      "type": "function"
    },
    {
      "inputs": [
        {
          "internalType": "address",
          "name": "newOwner",
          "type": "address"
        }
      ],
      "name": "transferOwnership",
      "outputs": [],
      "stateMutability": "nonpayable",
      "type": "function"
    },
    {
      "inputs": [],
      "name": "uniswapV2Factory",
      "outputs": [
        {
          "internalType": "address",
          "name": "",
          "type": "address"
        }
      ],
      "stateMutability": "view",
      "type": "function"
    },
    {
      "inputs": [],
      "name": "uniswapV2Router",
      "outputs": [
        {
          "internalType": "address",
          "name": "",
          "type": "address"
        }
      ],
      "stateMutability": "view",
      "type": "function"
    },
    {
      "inputs": [],
      "name": "unitFactory",
      "outputs": [
        {
          "internalType": "address",
          "name": "",
          "type": "address"
        }
      ],
      "stateMutability": "view",
      "type": "function"
    },
    {
      "inputs": [],
      "name": "usdcToken",
      "outputs": [
        {
          "internalType": "address",
          "name": "",
          "type": "address"
        }
      ],
      "stateMutability": "view",
      "type": "function"
    }
  ],
  "bytecode": "0x61016034620002755762001ca838819003601f8101601f191683016001600160401b038111848210176200027a57839282916040528339610120918291810103126200027557620000508262000290565b6200005e6020840162000290565b906200006d6040850162000290565b906200007c6060860162000290565b926200008b6080870162000290565b936200009a60a0880162000290565b620000a860c0890162000290565b95620000b760e08a0162000290565b92610100809a0151966000549560018060a01b031997338989161760005560405160018060a01b0398893391167f8be0079c531659141344cd1fd0a4f28419497f9722a3daafe3b4186f6b6457e0600080a3600180558882161580156200026a575b80156200025f575b801562000254575b801562000249575b80156200023e575b801562000233575b62000224575060805260a05260c05260e052885286526101409485521690600254161760025560035560405191611a029384620002a6853960805184818161044701528181610e1c0152610ea4015260a051848181610718015281816108c8015281816109220152818161097c01528181610a3801526113a4015260c0518481816105550152610a6a015260e05184818161083a01528181610874015281816108a701528181610901015281816109e8015261135f01525183818161029801526107ac0152518281816103220152610c190152518181816102dd0152610b450152f35b63052ee5e160e11b8152600490fd5b50888c161562000141565b508887161562000139565b508886161562000131565b508885161562000129565b508884161562000121565b508883161562000119565b600080fd5b634e487b7160e01b600052604160045260246000fd5b51906001600160a01b0382168203620002755756fe6080604052600436101561001257600080fd5b6000803560e01c806305244d77146114125780630524c46a146113d357806311eac8551461138e5780631694505e1461134957806332d1338e1461130c5780633fcd72c4146105bf578063446418cf146105a15780634e6fd6c41461058457806359d0f7131461053f5780636b7b9112146104d0578063715018a6146104765780637b10399914610431578063832c0e5f146103fd57806383e9d76b146103be5780638da5cb5b146103975780639827ba6314610351578063a11f22cc1461030c578063abf4fde4146102c7578063bbba90e214610282578063cce516b714610259578063cf52d1431461023b578063d9efb589146101ed5763f2fde38b1461011a57600080fd5b346101ea5760203660031901126101ea576004356001600160a01b03818116918290036101e657610149611587565b811561019257600054826bffffffffffffffffffffffff60a01b821617600055167f8be0079c531659141344cd1fd0a4f28419497f9722a3daafe3b4186f6b6457e0600080a380f35b60405162461bcd60e51b815260206004820152602660248201527f4f776e61626c653a206e6577206f776e657220697320746865207a65726f206160448201526564647265737360d01b6064820152608490fd5b8280fd5b80fd5b50346101ea5760203660031901126101ea577faca3fee89b793c37d8df4bee055e3fb743b3647cefbb5c08047a8131dc21c6fb602060043561022d611587565b80600355604051908152a180f35b50346101ea57806003193601126101ea576020600454604051908152f35b50346101ea57806003193601126101ea576002546040516001600160a01b039091168152602090f35b50346101ea57806003193601126101ea576040517f00000000000000000000000000000000000000000000000000000000000000006001600160a01b03168152602090f35b50346101ea57806003193601126101ea576040517f00000000000000000000000000000000000000000000000000000000000000006001600160a01b03168152602090f35b50346101ea57806003193601126101ea576040517f00000000000000000000000000000000000000000000000000000000000000006001600160a01b03168152602090f35b50346101ea5760203660031901126101ea576004356001600160a01b038116908190036103935760408260ff9260209452600584522054166040519015158152f35b5080fd5b50346101ea57806003193601126101ea57546040516001600160a01b039091168152602090f35b50346101ea5760203660031901126101ea576001600160a01b03600435818116908190036101e657826040916020945260088452205416604051908152f35b50346101ea57806003193601126101ea5761042d610419611527565b604051918291602083526020830190611547565b0390f35b50346101ea57806003193601126101ea576040517f00000000000000000000000000000000000000000000000000000000000000006001600160a01b03168152602090f35b50346101ea57806003193601126101ea5761048f611587565b600080546001600160a01b0319811682556001600160a01b03167f8be0079c531659141344cd1fd0a4f28419497f9722a3daafe3b4186f6b6457e08280a380f35b50346101ea5760203660031901126101ea576004356001600160a01b038116908190036103935760207fb83f5a562e0680b568d7194814953b452c737c9ef7d4f8ee26b87d34ab9a1bc891610523611587565b600280546001600160a01b03191682179055604051908152a180f35b50346101ea57806003193601126101ea576040517f00000000000000000000000000000000000000000000000000000000000000006001600160a01b03168152602090f35b50346101ea57806003193601126101ea57602060405161dead8152f35b50346101ea57806003193601126101ea576020600354604051908152f35b50346101ea5760203660031901126101ea5767ffffffffffffffff600435116101ea576101e0600435360360031901126101ea576002600154146112c75760026001556001600160a01b036106176004803501611657565b16156112b5576001600160a01b03610633600435602401611657565b16156112a3576001600160a01b0361064f600435604401611657565b16156112915760035460c460043501351061127f576106786064600435016004356004016115df565b90501561126d576106936084600435016004356004016115df565b90501561125b576106ae60a4600435016004356004016115df565b9050156112495760e460043501351561123757604051906323b872dd60e01b602083015233602483015230604483015260c460043501356064830152606482528160a081011067ffffffffffffffff60a0840111176112235760a0820160405261079591610745907f00000000000000000000000000000000000000000000000000000000000000006001600160a01b03166117eb565b602061075b6064600435016004356004016115df565b6107a76107726084600435016004356004016115df565b604051978895869563b548848760e01b8752604060048801526044870191611636565b84810360031901602486015291611636565b0381847f00000000000000000000000000000000000000000000000000000000000000006001600160a01b03165af19182156112165781926111f5575b506001600160a01b0382163b156101ea576040516340c10f1960e01b8152306004808301919091523560e4013560248201528181604481836001600160a01b0388165af180156110d6576111e6575b50906108687f00000000000000000000000000000000000000000000000000000000000000006001600160a01b03831661166b565b6108a260043560e401357f00000000000000000000000000000000000000000000000000000000000000006001600160a01b0384166116ad565b6108f57f00000000000000000000000000000000000000000000000000000000000000007f00000000000000000000000000000000000000000000000000000000000000006001600160a01b031661166b565b61094f60043560c401357f00000000000000000000000000000000000000000000000000000000000000007f00000000000000000000000000000000000000000000000000000000000000006001600160a01b03166116ad565b6104b0420142116111d25760405162e8e33760e81b81526001600160a01b038281166004808401919091527f00000000000000000000000000000000000000000000000000000000000000008216602484015260e49035818101356044850181905260c49182013560648601819052608486019190915260a485015230908401526104b0420190830152606090829061010490829087907f0000000000000000000000000000000000000000000000000000000000000000165af19081156111c7578391611192575b5060405163e6a4390560e01b81526001600160a01b0380841660048301527f000000000000000000000000000000000000000000000000000000000000000016602482015290602082806044810103817f00000000000000000000000000000000000000000000000000000000000000006001600160a01b03165afa91821561116257849261116d575b50610ae1906040519063a9059cbb60e01b602083015261dead6024830152604482015260448152610ad2816114e9565b6001600160a01b0383166117eb565b604051633e25ba8f60e21b81526101646004803591820135908301526001600160a01b03838116602484015261dead604484015261018482013560648401526101a482013560848401526101c49091013560a4830152602090829060c490829088907f0000000000000000000000000000000000000000000000000000000000000000165af1908115611162578491611143575b50610b84602460043501611657565b610b92604460043501611657565b610ba0600435600401611657565b604051633b6e6e5360e01b81526001600160a01b0393841660048083019190915287851660248301529284166044820152848416606482015290831660848201523060a482015290356101048181013560c48401526101248083013560e4850152610144909201359083015290916020918391829089907f0000000000000000000000000000000000000000000000000000000000000000165af1908115611138578591611109575b506001600160a01b0384163b1561109f5760405163588d95c960e11b81526001600160a01b03828116600483015286919082908290602490829084908b165af180156110d6576110f5575b50610ca960a4600435016004356004016115df565b6001600160a01b0384163b156101e657604051639b642de160e01b81526020600482015291839183918291610ce391602484019190611636565b0381836001600160a01b0388165af180156110d6576110e1575b50610d0c600435600401611657565b6001600160a01b0383163b156103935760405163f2fde38b60e01b81526001600160a01b03918216600482015290829082906024908290849088165af180156110d6576110c2575b50506001600160a01b0381168552600560209081526040808720805460ff1916600117905560045460069092528620819055680100000000000000008110156110ae57806001610da79201600455611456565b81546001600160a01b0360039290921b82811b199091168483169182901b1790925590865260086020908152604080882080546001600160a01b031990811688861617909155600790925287208054909116918416919091179055610e0a611527565b85610e19600435600401611657565b917f00000000000000000000000000000000000000000000000000000000000000006001600160a01b03163b1561039357604051631d3317b360e31b81526001600160a01b038516600482015260806024820152928391829190610e81906084840190611547565b6001600160a01b038a8116604485015291821660648401529190910390829084907f0000000000000000000000000000000000000000000000000000000000000000165af180156110a35761108b575b506080945081610ee5600435600401611657565b610fb4610ef6604460043501611657565b86610fa6610f08602460043501611657565b610f98610f1f6064600435016004356004016115df565b9190610f356084600435016004356004016115df565b939094610f4c60a4600435016004356004016115df565b98909960206040519e8f9260018060a01b0316835260018060a01b031691015260018060a01b031660408d015260018060a01b031660608c0152610200608081908d01528b0191611636565b9188830360a08a0152611636565b9185830360c0870152611636565b60043560c481013560e085015260e48101356101008501526101048101356101208501526101248101356101408501526101448101356101608501526101648101356101808501526101848101356101a08501526101a48101356101c08501526101c401356101e08401526001600160a01b038781169385821693909116917f655e0d5a2ccc362dca9b947a47f6dd1692c9027e418bd2d179e06e2988904fa2919081900390a460018055604080516001600160a01b03958616815291851660208301529184169181019190915291166060820152f35b61109586916114a3565b61109f5784610ed1565b8480fd5b6040513d88823e3d90fd5b634e487b7160e01b86526041600452602486fd5b6110cb906114a3565b61109f578438610d54565b6040513d84823e3d90fd5b6110ea906114a3565b61109f578438610cfd565b6110fe906114a3565b61109f578438610c94565b61112b915060203d602011611131575b6111238183611505565b810190611617565b38610c49565b503d611119565b6040513d87823e3d90fd5b61115c915060203d602011611131576111238183611505565b38610b75565b6040513d86823e3d90fd5b610ae191925061118b9060203d602011611131576111238183611505565b9190610aa2565b90506060813d6060116111bf575b816111ad60609383611505565b810103126101e6576040015138610a18565b3d91506111a0565b6040513d85823e3d90fd5b634e487b7160e01b82526011600452602482fd5b6111ef906114a3565b38610833565b61120f91925060203d602011611131576111238183611505565b90386107e4565b50604051903d90823e3d90fd5b634e487b7160e01b81526041600452602490fd5b6040516324664fdf60e01b8152600490fd5b60405163281fd79d60e21b8152600490fd5b6040516343a5467b60e11b8152600490fd5b604051630ee0a31960e01b8152600490fd5b60405163bdbe4afd60e01b8152600490fd5b60405163aefce65760e01b8152600490fd5b6040516388bfa10960e01b8152600490fd5b604051638f2cb49160e01b8152600490fd5b60405162461bcd60e51b815260206004820152601f60248201527f5265656e7472616e637947756172643a207265656e7472616e742063616c6c006044820152606490fd5b50346101ea5760203660031901126101ea576004356001600160a01b03811690819003610393578160409160209352600683522054604051908152f35b50346101ea57806003193601126101ea576040517f00000000000000000000000000000000000000000000000000000000000000006001600160a01b03168152602090f35b50346101ea57806003193601126101ea576040517f00000000000000000000000000000000000000000000000000000000000000006001600160a01b03168152602090f35b50346101ea5760203660031901126101ea576001600160a01b03600435818116908190036101e657826040916020945260078452205416604051908152f35b50346101ea5760203660031901126101ea57600435906004548210156101ea57602061143d83611456565b905460405160039290921b1c6001600160a01b03168152f35b60045481101561148d5760046000527f8a35acfbc15ff81a39ae7d344fd709f28e8600b4aa8c65c6b64bfe7fe36bd19b0190600090565b634e487b7160e01b600052603260045260246000fd5b67ffffffffffffffff81116114b757604052565b634e487b7160e01b600052604160045260246000fd5b6040810190811067ffffffffffffffff8211176114b757604052565b6080810190811067ffffffffffffffff8211176114b757604052565b90601f8019910116810190811067ffffffffffffffff8211176114b757604052565b60405190611534826114cd565b6004825263199d5b9960e21b6020830152565b919082519283825260005b848110611573575050826000602080949584010152601f8019910116010190565b602081830181015184830182015201611552565b6000546001600160a01b0316330361159b57565b606460405162461bcd60e51b815260206004820152602060248201527f4f776e61626c653a2063616c6c6572206973206e6f7420746865206f776e65726044820152fd5b903590601e1981360301821215611612570180359067ffffffffffffffff82116116125760200191813603831361161257565b600080fd5b9081602091031261161257516001600160a01b03811681036116125790565b908060209392818452848401376000828201840152601f01601f1916010190565b356001600160a01b03811681036116125790565b60405163095ea7b360e01b60208201526001600160a01b039092166024830152600060448084019190915282526116ab91906116a6826114e9565b6117eb565b565b9190918115801561175f575b156116fb5760405163095ea7b360e01b60208201526001600160a01b039390931660248401526044808401929092529082526116ab91906116a6606483611505565b60405162461bcd60e51b815260206004820152603660248201527f5361666545524332303a20617070726f76652066726f6d206e6f6e2d7a65726f60448201527520746f206e6f6e2d7a65726f20616c6c6f77616e636560501b6064820152608490fd5b50604051636eb1769f60e11b81523060048201526001600160a01b0384166024820152602081806044810103816001600160a01b0386165afa9081156117df576000916117ae575b50156116b9565b906020823d82116117d7575b816117c760209383611505565b810103126101ea575051386117a7565b3d91506117ba565b6040513d6000823e3d90fd5b60018060a01b031690604051611800816114cd565b6020928382527f5361666545524332303a206c6f772d6c6576656c2063616c6c206661696c6564848301526000808486829651910182855af13d15611925573d9167ffffffffffffffff8311611911579061187b9392916040519261186e88601f19601f8401160185611505565b83523d868885013e61192f565b8051918215918483156118ed575b5050509050156118965750565b6084906040519062461bcd60e51b82526004820152602a60248201527f5361666545524332303a204552433230206f7065726174696f6e20646964206e6044820152691bdd081cdd58d8d9595960b21b6064820152fd5b919381809450010312610393578201519081151582036101ea575080388084611889565b634e487b7160e01b85526041600452602485fd5b9061187b92916060915b919290156119915750815115611943575090565b3b1561194c5790565b60405162461bcd60e51b815260206004820152601d60248201527f416464726573733a2063616c6c20746f206e6f6e2d636f6e74726163740000006044820152606490fd5b8251909150156119a45750805190602001fd5b60405162461bcd60e51b8152602060048201529081906119c8906024830190611547565b0390fdfea26469706673582212206b982e34d5fed57b9d6eabe506aef71eeb54161d9da73a46c2d04d8dda9f220164736f6c63430008130033",
  "linkReferences": {},
  "deployedLinkReferences": {}
}