{
  "_format": "hh-sol-artifact-1",
  "contractName": "FundRig",
  "sourceName": "contracts/rigs/fund/FundRig.sol",
  "abi": [
    {
      "inputs": [
        {
          "internalType": "address",
          "name": "_unit",
          "type": "address"
        },
        {
          "internalType": "address",
          "name": "_quote",
          "type": "address"
        },
        {
          "internalType": "address",
          "name": "_core",
          "type": "address"
        },
        {
          "internalType": "address",
          "name": "_treasury",
          "type": "address"
        },
        {
          "internalType": "address",
          "name": "_team",
          "type": "address"
        },
        {
          "internalType": "address",
          "name": "_recipient",
          "type": "address"
        },
        {
          "components": [
            {
              "internalType": "uint256",
              "name": "initialEmission",
              "type": "uint256"
            },
            {
              "internalType": "uint256",
              "name": "minEmission",
              "type": "uint256"
            },
            {
              "internalType": "uint256",
              "name": "halvingPeriod",
              "type": "uint256"
            }
          ],
          "internalType": "struct FundRig.Config",
          "name": "_config",
          "type": "tuple"
        }
      ],
      "stateMutability": "nonpayable",
      "type": "constructor"
    },
    {
      "inputs": [],
      "name": "FundRig__AlreadyClaimed",
      "type": "error"
    },
    {
      "inputs": [],
      "name": "FundRig__BelowMinDonation",
      "type": "error"
    },
    {
      "inputs": [],
      "name": "FundRig__DayNotEnded",
      "type": "error"
    },
    {
      "inputs": [],
      "name": "FundRig__EmissionOutOfRange",
      "type": "error"
    },
    {
      "inputs": [],
      "name": "FundRig__HalvingPeriodOutOfRange",
      "type": "error"
    },
    {
      "inputs": [],
      "name": "FundRig__NoDonation",
      "type": "error"
    },
    {
      "inputs": [],
      "name": "FundRig__RecipientNotSet",
      "type": "error"
    },
    {
      "inputs": [],
      "name": "FundRig__ZeroAddress",
      "type": "error"
    },
    {
      "inputs": [],
      "name": "FundRig__ZeroAmount",
      "type": "error"
    },
    {
      "anonymous": false,
      "inputs": [
        {
          "indexed": true,
          "internalType": "address",
          "name": "account",
          "type": "address"
        },
        {
          "indexed": false,
          "internalType": "uint256",
          "name": "amount",
          "type": "uint256"
        },
        {
          "indexed": false,
          "internalType": "uint256",
          "name": "day",
          "type": "uint256"
        }
      ],
      "name": "FundRig__Claimed",
      "type": "event"
    },
    {
      "anonymous": false,
      "inputs": [
        {
          "indexed": false,
          "internalType": "address",
          "name": "sender",
          "type": "address"
        },
        {
          "indexed": true,
          "internalType": "address",
          "name": "funder",
          "type": "address"
        },
        {
          "indexed": false,
          "internalType": "uint256",
          "name": "amount",
          "type": "uint256"
        },
        {
          "indexed": false,
          "internalType": "uint256",
          "name": "day",
          "type": "uint256"
        },
        {
          "indexed": false,
          "internalType": "string",
          "name": "uri",
          "type": "string"
        }
      ],
      "name": "FundRig__Funded",
      "type": "event"
    },
    {
      "anonymous": false,
      "inputs": [
        {
          "indexed": true,
          "internalType": "address",
          "name": "protocol",
          "type": "address"
        },
        {
          "indexed": false,
          "internalType": "uint256",
          "name": "amount",
          "type": "uint256"
        },
        {
          "indexed": false,
          "internalType": "uint256",
          "name": "day",
          "type": "uint256"
        }
      ],
      "name": "FundRig__ProtocolFee",
      "type": "event"
    },
    {
      "anonymous": false,
      "inputs": [
        {
          "indexed": true,
          "internalType": "address",
          "name": "recipient",
          "type": "address"
        }
      ],
      "name": "FundRig__RecipientSet",
      "type": "event"
    },
    {
      "anonymous": false,
      "inputs": [
        {
          "indexed": true,
          "internalType": "address",
          "name": "team",
          "type": "address"
        },
        {
          "indexed": false,
          "internalType": "uint256",
          "name": "amount",
          "type": "uint256"
        },
        {
          "indexed": false,
          "internalType": "uint256",
          "name": "day",
          "type": "uint256"
        }
      ],
      "name": "FundRig__TeamFee",
      "type": "event"
    },
    {
      "anonymous": false,
      "inputs": [
        {
          "indexed": true,
          "internalType": "address",
          "name": "team",
          "type": "address"
        }
      ],
      "name": "FundRig__TeamSet",
      "type": "event"
    },
    {
      "anonymous": false,
      "inputs": [
        {
          "indexed": true,
          "internalType": "address",
          "name": "treasury",
          "type": "address"
        },
        {
          "indexed": false,
          "internalType": "uint256",
          "name": "amount",
          "type": "uint256"
        },
        {
          "indexed": false,
          "internalType": "uint256",
          "name": "day",
          "type": "uint256"
        }
      ],
      "name": "FundRig__TreasuryFee",
      "type": "event"
    },
    {
      "anonymous": false,
      "inputs": [
        {
          "indexed": true,
          "internalType": "address",
          "name": "treasury",
          "type": "address"
        }
      ],
      "name": "FundRig__TreasurySet",
      "type": "event"
    },
    {
      "anonymous": false,
      "inputs": [
        {
          "indexed": false,
          "internalType": "string",
          "name": "uri",
          "type": "string"
        }
      ],
      "name": "FundRig__UriSet",
      "type": "event"
    },
    {
      "anonymous": false,
      "inputs": [
        {
          "indexed": true,
          "internalType": "address",
          "name": "previousOwner",
          "type": "address"
        },
        {
          "indexed": true,
          "internalType": "address",
          "name": "newOwner",
          "type": "address"
        }
      ],
      "name": "OwnershipTransferred",
      "type": "event"
    },
    {
      "inputs": [],
      "name": "DAY_DURATION",
      "outputs": [
        {
          "internalType": "uint256",
          "name": "",
          "type": "uint256"
        }
      ],
      "stateMutability": "view",
      "type": "function"
    },
    {
      "inputs": [],
      "name": "DIVISOR",
      "outputs": [
        {
          "internalType": "uint256",
          "name": "",
          "type": "uint256"
        }
      ],
      "stateMutability": "view",
      "type": "function"
    },
    {
      "inputs": [],
      "name": "MAX_HALVING_PERIOD",
      "outputs": [
        {
          "internalType": "uint256",
          "name": "",
          "type": "uint256"
        }
      ],
      "stateMutability": "view",
      "type": "function"
    },
    {
      "inputs": [],
      "name": "MAX_INITIAL_EMISSION",
      "outputs": [
        {
          "internalType": "uint256",
          "name": "",
          "type": "uint256"
        }
      ],
      "stateMutability": "view",
      "type": "function"
    },
    {
      "inputs": [],
      "name": "MIN_DONATION",
      "outputs": [
        {
          "internalType": "uint256",
          "name": "",
          "type": "uint256"
        }
      ],
      "stateMutability": "view",
      "type": "function"
    },
    {
      "inputs": [],
      "name": "MIN_HALVING_PERIOD",
      "outputs": [
        {
          "internalType": "uint256",
          "name": "",
          "type": "uint256"
        }
      ],
      "stateMutability": "view",
      "type": "function"
    },
    {
      "inputs": [],
      "name": "MIN_INITIAL_EMISSION",
      "outputs": [
        {
          "internalType": "uint256",
          "name": "",
          "type": "uint256"
        }
      ],
      "stateMutability": "view",
      "type": "function"
    },
    {
      "inputs": [],
      "name": "PROTOCOL_BPS",
      "outputs": [
        {
          "internalType": "uint256",
          "name": "",
          "type": "uint256"
        }
      ],
      "stateMutability": "view",
      "type": "function"
    },
    {
      "inputs": [],
      "name": "RECIPIENT_BPS",
      "outputs": [
        {
          "internalType": "uint256",
          "name": "",
          "type": "uint256"
        }
      ],
      "stateMutability": "view",
      "type": "function"
    },
    {
      "inputs": [],
      "name": "TEAM_BPS",
      "outputs": [
        {
          "internalType": "uint256",
          "name": "",
          "type": "uint256"
        }
      ],
      "stateMutability": "view",
      "type": "function"
    },
    {
      "inputs": [
        {
          "internalType": "address",
          "name": "account",
          "type": "address"
        },
        {
          "internalType": "uint256",
          "name": "day",
          "type": "uint256"
        }
      ],
      "name": "claim",
      "outputs": [],
      "stateMutability": "nonpayable",
      "type": "function"
    },
    {
      "inputs": [],
      "name": "core",
      "outputs": [
        {
          "internalType": "address",
          "name": "",
          "type": "address"
        }
      ],
      "stateMutability": "view",
      "type": "function"
    },
    {
      "inputs": [],
      "name": "currentDay",
      "outputs": [
        {
          "internalType": "uint256",
          "name": "",
          "type": "uint256"
        }
      ],
      "stateMutability": "view",
      "type": "function"
    },
    {
      "inputs": [
        {
          "internalType": "uint256",
          "name": "",
          "type": "uint256"
        },
        {
          "internalType": "address",
          "name": "",
          "type": "address"
        }
      ],
      "name": "dayAccountToDonation",
      "outputs": [
        {
          "internalType": "uint256",
          "name": "",
          "type": "uint256"
        }
      ],
      "stateMutability": "view",
      "type": "function"
    },
    {
      "inputs": [
        {
          "internalType": "uint256",
          "name": "",
          "type": "uint256"
        },
        {
          "internalType": "address",
          "name": "",
          "type": "address"
        }
      ],
      "name": "dayAccountToHasClaimed",
      "outputs": [
        {
          "internalType": "bool",
          "name": "",
          "type": "bool"
        }
      ],
      "stateMutability": "view",
      "type": "function"
    },
    {
      "inputs": [
        {
          "internalType": "uint256",
          "name": "",
          "type": "uint256"
        }
      ],
      "name": "dayToTotalDonated",
      "outputs": [
        {
          "internalType": "uint256",
          "name": "",
          "type": "uint256"
        }
      ],
      "stateMutability": "view",
      "type": "function"
    },
    {
      "inputs": [
        {
          "internalType": "address",
          "name": "account",
          "type": "address"
        },
        {
          "internalType": "uint256",
          "name": "amount",
          "type": "uint256"
        },
        {
          "internalType": "string",
          "name": "_uri",
          "type": "string"
        }
      ],
      "name": "fund",
      "outputs": [],
      "stateMutability": "nonpayable",
      "type": "function"
    },
    {
      "inputs": [
        {
          "internalType": "uint256",
          "name": "day",
          "type": "uint256"
        }
      ],
      "name": "getDayEmission",
      "outputs": [
        {
          "internalType": "uint256",
          "name": "",
          "type": "uint256"
        }
      ],
      "stateMutability": "view",
      "type": "function"
    },
    {
      "inputs": [
        {
          "internalType": "uint256",
          "name": "day",
          "type": "uint256"
        },
        {
          "internalType": "address",
          "name": "account",
          "type": "address"
        }
      ],
      "name": "getPendingReward",
      "outputs": [
        {
          "internalType": "uint256",
          "name": "",
          "type": "uint256"
        }
      ],
      "stateMutability": "view",
      "type": "function"
    },
    {
      "inputs": [],
      "name": "halvingPeriod",
      "outputs": [
        {
          "internalType": "uint256",
          "name": "",
          "type": "uint256"
        }
      ],
      "stateMutability": "view",
      "type": "function"
    },
    {
      "inputs": [],
      "name": "initialEmission",
      "outputs": [
        {
          "internalType": "uint256",
          "name": "",
          "type": "uint256"
        }
      ],
      "stateMutability": "view",
      "type": "function"
    },
    {
      "inputs": [],
      "name": "minEmission",
      "outputs": [
        {
          "internalType": "uint256",
          "name": "",
          "type": "uint256"
        }
      ],
      "stateMutability": "view",
      "type": "function"
    },
    {
      "inputs": [],
      "name": "owner",
      "outputs": [
        {
          "internalType": "address",
          "name": "",
          "type": "address"
        }
      ],
      "stateMutability": "view",
      "type": "function"
    },
    {
      "inputs": [],
      "name": "quote",
      "outputs": [
        {
          "internalType": "address",
          "name": "",
          "type": "address"
        }
      ],
      "stateMutability": "view",
      "type": "function"
    },
    {
      "inputs": [],
      "name": "recipient",
      "outputs": [
        {
          "internalType": "address",
          "name": "",
          "type": "address"
        }
      ],
      "stateMutability": "view",
      "type": "function"
    },
    {
      "inputs": [],
      "name": "renounceOwnership",
      "outputs": [],
      "stateMutability": "nonpayable",
      "type": "function"
    },
    {
      "inputs": [
        {
          "internalType": "address",
          "name": "_recipient",
          "type": "address"
        }
      ],
      "name": "setRecipient",
      "outputs": [],
      "stateMutability": "nonpayable",
      "type": "function"
    },
    {
      "inputs": [
        {
          "internalType": "address",
          "name": "_team",
          "type": "address"
        }
      ],
      "name": "setTeam",
      "outputs": [],
      "stateMutability": "nonpayable",
      "type": "function"
    },
    {
      "inputs": [
        {
          "internalType": "address",
          "name": "_treasury",
          "type": "address"
        }
      ],
      "name": "setTreasury",
      "outputs": [],
      "stateMutability": "nonpayable",
      "type": "function"
    },
    {
      "inputs": [
        {
          "internalType": "string",
          "name": "_uri",
          "type": "string"
        }
      ],
      "name": "setUri",
      "outputs": [],
      "stateMutability": "nonpayable",
      "type": "function"
    },
    {
      "inputs": [],
      "name": "startTime",
      "outputs": [
        {
          "internalType": "uint256",
          "name": "",
          "type": "uint256"
        }
      ],
      "stateMutability": "view",
      "type": "function"
    },
    {
      "inputs": [],
      "name": "team",
      "outputs": [
        {
          "internalType": "address",
          "name": "",
          "type": "address"
        }
      ],
      "stateMutability": "view",
      "type": "function"
    },
    {
      "inputs": [
        {
          "internalType": "address",
          "name": "newOwner",
          "type": "address"
        }
      ],
      "name": "transferOwnership",
      "outputs": [],
      "stateMutability": "nonpayable",
      "type": "function"
    },
    {
      "inputs": [],
      "name": "treasury",
      "outputs": [
        {
          "internalType": "address",
          "name": "",
          "type": "address"
        }
      ],
      "stateMutability": "view",
      "type": "function"
    },
    {
      "inputs": [],
      "name": "unit",
      "outputs": [
        {
          "internalType": "address",
          "name": "",
          "type": "address"
        }
      ],
      "stateMutability": "view",
      "type": "function"
    },
    {
      "inputs": [],
      "name": "uri",
      "outputs": [
        {
          "internalType": "string",
          "name": "",
          "type": "string"
        }
      ],
      "stateMutability": "view",
      "type": "function"
    }
  ],
  "bytecode": "0x61016034620002f0576001600160401b03601f62001b2c38819003918201601f191684019183831185841017620002da57808592604094855283398101039161012092838112620002f0576200005585620002f5565b916200006460208701620002f5565b9262000072858801620002f5565b936200008160608901620002f5565b906200009060808a01620002f5565b6060620000a060a08c01620002f5565b9660bf190112620002f0578751946060860190811186821017620002da57885260c08a0151855260e08a01519560208601968752610100809b01519789870198895260016000556001549360018060a01b03199533878716176001558b5160018060a01b0396873391167f8be0079c531659141344cd1fd0a4f28419497f9722a3daafe3b4186f6b6457e0600080a386891615620002cb575085821615620002ba5785831615620002ba578516928315620002ba578516968715620002ba578851670de0b6b3a76400008110908115620002a2575b5062000285578951801590811562000296575b5062000285578a516007811090811562000278575b50620002675760805260a05260c05283600354161760035516816004541617600455600254161760025551855251835251906101409182524260e052519161182193846200030b85396080518481816105f601526109a3015260a05184818161095f0152610d03015260c0518481816102920152610d7a015260e05184818161054c01528181610a7501528181610bf501528181610cd9015261174a015251838181610a3a01526116ef0152518281816110f50152611712015251818181610c3a01526116c80152f35b8b516352b81c6760e11b8152600490fd5b61016d915011386200019d565b8b51632cd1610b60e11b8152600490fd5b90508951103862000188565b6c0c9f2c9cd04674edea400000009150113862000175565b8b51630ba70fd360e41b8152600490fd5b630ba70fd360e41b8152600490fd5b634e487b7160e01b600052604160045260246000fd5b600080fd5b51906001600160a01b0382168203620002f05756fe6080604081815260048036101561001557600080fd5b600092833560e01c908162f973c61461120a57508063095cf5c6146111a257806317f4f0ab146111855780633410fe6e146104665780633bbed4a0146111185780633ff013ea146110dd578063480836c514610c5d5780635a3e251f14610c225780635c9302c914610bd757806361d027b314610bae57806366d003ac14610b855780636fa497ab14610b3f578063715018a614610ae25780637417bd1014610abb57806375bb7e4914610a9857806378e9792514610a5d5780637c817fd214610a2257806385f2aef2146109fb5780638da5cb5b146109d2578063907af6c01461098e578063999b93af1461094a5780639b642de1146107575780639fc6183514610716578063aad3ec9614610507578063bd134ce4146104ea578063be93b8db146104cc578063c1e7af35146104b0578063c59b1f3c14610488578063d5861d911461046b578063db45810e14610466578063dc9d1a391461043c578063dd481bf214610420578063eac989f81461033f578063f0f44260146102c5578063f2f4eb261461027d5763f2fde38b146101ae57600080fd5b34610279576020366003190112610279576101c7611231565b906101d0611368565b6001600160a01b03918216928315610227575050600154826bffffffffffffffffffffffff60a01b821617600155167f8be0079c531659141344cd1fd0a4f28419497f9722a3daafe3b4186f6b6457e0600080a380f35b906020608492519162461bcd60e51b8352820152602660248201527f4f776e61626c653a206e6577206f776e657220697320746865207a65726f206160448201526564647265737360d01b6064820152fd5b8280fd5b5050346102c157816003193601126102c157517f00000000000000000000000000000000000000000000000000000000000000006001600160a01b03168152602090f35b5080fd5b5034610279576020366003190112610279576102df611231565b6102e7611368565b6001600160a01b0316918215610332575050600380546001600160a01b031916821790557f733974f3e93d9740040671ca71cbb481b0c9a5451f1806cc3b4370707e3500f98280a280f35b51630ba70fd360e41b8152fd5b5050346102c157816003193601126102c15780519082600854610361816112ad565b808552916001918083169081156103f8575060011461039b575b50505061038d826103979403836112e7565b519182918261131f565b0390f35b9450600885527ff3f7a9fe364faab93b216da50a3214154f22a0a2b415b23a84c8169e8b636ee35b8286106103e05750505061038d826020610397958201019461037b565b805460208787018101919091529095019481016103c3565b61039797508693506020925061038d94915060ff191682840152151560051b8201019461037b565b5050346102c157816003193601126102c1576020905160078152f35b509134610463576020366003190112610463575061045c602092356116c2565b9051908152f35b80fd5b611262565b5050346102c157816003193601126102c157602090516101908152f35b5091346104635781600319360112610463575061045c6020926104a961124c565b9035611741565b5050346102c157816003193601126102c1576020905160648152f35b5050346102c157816003193601126102c15760209051620151808152f35b5050346102c157816003193601126102c157602090516113888152f35b509190346102c157806003193601126102c157610522611231565b9060243561052e611444565b6001600160a01b0383811693909190841561070657620151806105717f000000000000000000000000000000000000000000000000000000000000000042611409565b048210156106f65781865260209060078252848720868852825260ff85882054166106e6578287526006825284872086885282528487205480156106d6576105d690848952600584526105d1878a2054916105cb876116c2565b906113c0565b6113e9565b838852600783528588208789528352858820805460ff19166001179055937f00000000000000000000000000000000000000000000000000000000000000001690813b156106d25785516340c10f1960e01b81526001600160a01b03909116818a01908152602081018690529091889183919082908490829060400103925af180156106c857610697575b507f06acf4e673fb0690197d247163b365c613c5626645da0abd423654d509978e57949596508351928352820152a26001815580f35b67ffffffffffffffff81979297116106b55784529495508538610661565b634e487b7160e01b825260418852602482fd5b85513d89823e3d90fd5b8780fd5b85516301fcf3ab60e51b81528990fd5b8451636a85d37760e01b81528890fd5b8351636546891f60e01b81528790fd5b8351630ba70fd360e41b81528790fd5b5034610279578160031936011261027957602092829161073461124c565b90358252600685528282206001600160a01b039091168252845220549051908152f35b50903461027957602090816003193601126109465767ffffffffffffffff9083358281116109425761078c903690860161127f565b949092610797611368565b851161092f57506107a96008546112ad565b601f81116108cd575b5084601f8511600114610825579161081491857feef7e3f902ebc1e4fc32c5d0f5ff4bed181b32518904a37d9a46c75aa73b9ace969594889161081a575b508560011b906000198760031b1c1916176008555b51938385948552840191611423565b0390a180f35b9050820135386107f0565b600886527ff3f7a9fe364faab93b216da50a3214154f22a0a2b415b23a84c8169e8b636ee390601f198616875b8181106108b65750916108149391877feef7e3f902ebc1e4fc32c5d0f5ff4bed181b32518904a37d9a46c75aa73b9ace989796941061089c575b5050600185811b01600855610805565b830135600019600388901b60f8161c19169055388061088c565b919286600181928689013581550194019201610852565b600886527ff3f7a9fe364faab93b216da50a3214154f22a0a2b415b23a84c8169e8b636ee3601f860160051c810191858710610925575b601f0160051c01905b81811061091a57506107b2565b86815560010161090d565b9091508190610904565b634e487b7160e01b865260419052602485fd5b8580fd5b8380fd5b5050346102c157816003193601126102c157517f00000000000000000000000000000000000000000000000000000000000000006001600160a01b03168152602090f35b5050346102c157816003193601126102c157517f00000000000000000000000000000000000000000000000000000000000000006001600160a01b03168152602090f35b5050346102c157816003193601126102c15760015490516001600160a01b039091168152602090f35b50346102795782600319360112610279575490516001600160a01b03909116815260209150f35b5050346102c157816003193601126102c157602090517f00000000000000000000000000000000000000000000000000000000000000008152f35b5050346102c157816003193601126102c157602090517f00000000000000000000000000000000000000000000000000000000000000008152f35b5050346102c157816003193601126102c15760209051670de0b6b3a76400008152f35b50346102795760203660031901126102795760209282913581526005845220549051908152f35b8334610463578060031936011261046357610afb611368565b600180546001600160a01b0319811690915581906001600160a01b03167f8be0079c531659141344cd1fd0a4f28419497f9722a3daafe3b4186f6b6457e08280a380f35b50346102795781600319360112610279578160209360ff92610b5f61124c565b90358252600786528282206001600160a01b039091168252855220549151911615158152f35b5050346102c157816003193601126102c15760025490516001600160a01b039091168152602090f35b5050346102c157816003193601126102c15760035490516001600160a01b039091168152602090f35b5050346102c157816003193601126102c15760209062015180610c1a7f000000000000000000000000000000000000000000000000000000000000000042611409565b049051908152f35b5050346102c157816003193601126102c157602090517f00000000000000000000000000000000000000000000000000000000000000008152f35b50903461027957606036600319011261027957610c78611231565b916024359167ffffffffffffffff916044358381116110d957610c9e903690830161127f565b919092610ca9611444565b6001600160a01b039687169687156110cb57612710908188106110bc578060025416156110ad5762015180610cfe7f000000000000000000000000000000000000000000000000000000000000000042611409565b0493817f0000000000000000000000000000000000000000000000000000000000000000169284516020996323b872dd60e01b8b8301523360248301523060448301528b60648301526064825260a08201908282109082111761109a578652610d6790856114dd565b845163cce516b760e01b815292898484817f000000000000000000000000000000000000000000000000000000000000000085165afa938415611090578d94611054575b5061138891828c028c15938d820414841715611041578454908290049594939291908f9083161561103357508c6101908082029182041484171561101f57908f97969594939291819004925b858316988915610fcd57508e90606482029182046064141715610fb85793897f2420081da1aecd55f4422861dfc5455fa4a372abb25d2fcb0d795112fd3276cd9f9e9d9b9997948f8f9495610f269f9d9b9996610e78610e6c8f94610e6787610e678a9f968f97049e8f94611409565b611409565b9183600254168d61149a565b610e878183600354168d61149a565b7f17cb68cea5e25b170bee80566b04df746ed5b3f5f94ddd8a7635a086b93aa78b858360035416928151908152858a820152a282610f71575b50505050505081610f30575b5050505050818a5260058652808a20610ee6888254611416565b9055818a5260068652808a20898b528652808a20610f05888254611416565b90558051968796338852870152850152608060608501526080840191611423565b0390a26001815580f35b81610f5c917f23265cbc6cbc433f1db176a495066e11d20658741dc6d52f0e9a9f73fdfc92f49561149a565b8151908152858a820152a23880828180610ecc565b84610fa184837feb2e3ae39592489cb74a02e4342b314950c23208f6a8a1d01e17ec7fbe3c22859854168d61149a565b5416948351928352820152a28a3884818a81610ec0565b5050634e487b7160e01b8f526011835260248ffd5b7f2420081da1aecd55f4422861dfc5455fa4a372abb25d2fcb0d795112fd3276cd9f9e9d9b9997948f8f94508c9a9895610f269f9d98945087610e78610e6c8f94610e6787610e678f9a9e8f94611409565b50634e487b7160e01b8f526011845260248ffd5b969594939291908792610df7565b634e487b7160e01b8f526011855260248ffd5b9093508981813d8311611089575b61106c81836112e7565b8101031261108557518381168103611085579238610dab565b8c80fd5b503d611062565b86513d8f823e3d90fd5b634e487b7160e01b8e526041845260248efd5b505051630e4a171360e01b8152fd5b5050516367c3520760e11b8152fd5b5051630ba70fd360e41b8152fd5b8680fd5b5050346102c157816003193601126102c157602090517f00000000000000000000000000000000000000000000000000000000000000008152f35b503461027957602036600319011261027957611132611231565b61113a611368565b6001600160a01b0316918215610332575050600280546001600160a01b031916821790557fccf3fbe1cfbaf4340049a747fa960e401ea6eb5bdf8af07f8cae29baeacaa0ef8280a280f35b5050346102c157816003193601126102c1576020905161016d8152f35b8382346102c15760203660031901126102c1576111bd611231565b6111c5611368565b81546001600160a01b0319166001600160a01b03919091169081179091557fd0fb66531bb950a999ffd739248f0badcf9df003c7daeb593287f07bd864e8338280a280f35b8490346102c157816003193601126102c157806c0c9f2c9cd04674edea4000000060209252f35b600435906001600160a01b038216820361124757565b600080fd5b602435906001600160a01b038216820361124757565b346112475760003660031901126112475760206040516127108152f35b9181601f840112156112475782359167ffffffffffffffff8311611247576020838186019501011161124757565b90600182811c921680156112dd575b60208310146112c757565b634e487b7160e01b600052602260045260246000fd5b91607f16916112bc565b90601f8019910116810190811067ffffffffffffffff82111761130957604052565b634e487b7160e01b600052604160045260246000fd5b6020808252825181830181905290939260005b82811061135457505060409293506000838284010152601f8019910116010190565b818101860151848201604001528501611332565b6001546001600160a01b0316330361137c57565b606460405162461bcd60e51b815260206004820152602060248201527f4f776e61626c653a2063616c6c6572206973206e6f7420746865206f776e65726044820152fd5b818102929181159184041417156113d357565b634e487b7160e01b600052601160045260246000fd5b81156113f3570490565b634e487b7160e01b600052601260045260246000fd5b919082039182116113d357565b919082018092116113d357565b908060209392818452848401376000828201840152601f01601f1916010190565b600260005414611455576002600055565b60405162461bcd60e51b815260206004820152601f60248201527f5265656e7472616e637947756172643a207265656e7472616e742063616c6c006044820152606490fd5b60405163a9059cbb60e01b60208201526001600160a01b039290921660248301526044808301939093529181526114db916114d66064836112e7565b6114dd565b565b60018060a01b0316906040516040810167ffffffffffffffff9082811082821117611309576040526020938483527f5361666545524332303a206c6f772d6c6576656c2063616c6c206661696c6564858401526000808587829751910182855af1903d15611622573d92831161160e57906115789392916040519261156b88601f19601f84011601856112e7565b83523d868885013e61162d565b8051918215918483156115ea575b5050509050156115935750565b6084906040519062461bcd60e51b82526004820152602a60248201527f5361666545524332303a204552433230206f7065726174696f6e20646964206e6044820152691bdd081cdd58d8d9595960b21b6064820152fd5b9193818094500103126102c157820151908115158203610463575080388084611586565b634e487b7160e01b85526041600452602485fd5b906115789392506060915b9192901561168f5750815115611641575090565b3b1561164a5790565b60405162461bcd60e51b815260206004820152601d60248201527f416464726573733a2063616c6c20746f206e6f6e2d636f6e74726163740000006044820152606490fd5b8251909150156116a25750805190602001fd5b60405162461bcd60e51b81529081906116be906004830161131f565b0390fd5b6116ed907f0000000000000000000000000000000000000000000000000000000000000000906113e9565b7f0000000000000000000000000000000000000000000000000000000000000000901c7f000000000000000000000000000000000000000000000000000000000000000080821061173c575090565b905090565b6201518061176f7f000000000000000000000000000000000000000000000000000000000000000042611409565b048110156117e4576000918183526007602052604083209060018060a01b03169081845260205260ff6040842054166117df57818352600660205260408320908352602052604082205480156117df576105d1906105cb604085856117dc975260056020522054936116c2565b90565b505090565b505060009056fea2646970667358221220c0a7dd108b1f34ac54dcd8eef855df902567d6fa09b4a772b13d2210c3dc1b3264736f6c63430008130033",
  "linkReferences": {},
  "deployedLinkReferences": {}
}