{
  "_format": "hh-sol-artifact-1",
  "contractName": "FundRig",
  "sourceName": "contracts/rigs/fund/FundRig.sol",
  "abi": [
    {
      "inputs": [
        {
          "internalType": "address",
          "name": "_paymentToken",
          "type": "address"
        },
        {
          "internalType": "address",
          "name": "_unit",
          "type": "address"
        },
        {
          "internalType": "address",
          "name": "_recipient",
          "type": "address"
        },
        {
          "internalType": "address",
          "name": "_treasury",
          "type": "address"
        },
        {
          "internalType": "address",
          "name": "_team",
          "type": "address"
        },
        {
          "internalType": "address",
          "name": "_core",
          "type": "address"
        },
        {
          "internalType": "uint256",
          "name": "_initialEmission",
          "type": "uint256"
        },
        {
          "internalType": "uint256",
          "name": "_minEmission",
          "type": "uint256"
        },
        {
          "internalType": "uint256",
          "name": "_halvingPeriod",
          "type": "uint256"
        }
      ],
      "stateMutability": "nonpayable",
      "type": "constructor"
    },
    {
      "inputs": [],
      "name": "FundRig__AlreadyClaimed",
      "type": "error"
    },
    {
      "inputs": [],
      "name": "FundRig__BelowMinDonation",
      "type": "error"
    },
    {
      "inputs": [],
      "name": "FundRig__DayNotEnded",
      "type": "error"
    },
    {
      "inputs": [],
      "name": "FundRig__InvalidAddress",
      "type": "error"
    },
    {
      "inputs": [],
      "name": "FundRig__InvalidEmission",
      "type": "error"
    },
    {
      "inputs": [],
      "name": "FundRig__InvalidHalvingPeriod",
      "type": "error"
    },
    {
      "inputs": [],
      "name": "FundRig__NoDonation",
      "type": "error"
    },
    {
      "inputs": [],
      "name": "FundRig__RecipientNotSet",
      "type": "error"
    },
    {
      "inputs": [],
      "name": "FundRig__ZeroAmount",
      "type": "error"
    },
    {
      "anonymous": false,
      "inputs": [
        {
          "indexed": true,
          "internalType": "address",
          "name": "account",
          "type": "address"
        },
        {
          "indexed": false,
          "internalType": "uint256",
          "name": "amount",
          "type": "uint256"
        },
        {
          "indexed": false,
          "internalType": "uint256",
          "name": "day",
          "type": "uint256"
        }
      ],
      "name": "FundRig__Claimed",
      "type": "event"
    },
    {
      "anonymous": false,
      "inputs": [
        {
          "indexed": true,
          "internalType": "address",
          "name": "account",
          "type": "address"
        },
        {
          "indexed": false,
          "internalType": "uint256",
          "name": "amount",
          "type": "uint256"
        },
        {
          "indexed": false,
          "internalType": "uint256",
          "name": "day",
          "type": "uint256"
        },
        {
          "indexed": false,
          "internalType": "string",
          "name": "uri",
          "type": "string"
        }
      ],
      "name": "FundRig__Funded",
      "type": "event"
    },
    {
      "anonymous": false,
      "inputs": [
        {
          "indexed": true,
          "internalType": "address",
          "name": "protocol",
          "type": "address"
        },
        {
          "indexed": false,
          "internalType": "uint256",
          "name": "amount",
          "type": "uint256"
        },
        {
          "indexed": false,
          "internalType": "uint256",
          "name": "day",
          "type": "uint256"
        }
      ],
      "name": "FundRig__ProtocolFee",
      "type": "event"
    },
    {
      "anonymous": false,
      "inputs": [
        {
          "indexed": true,
          "internalType": "address",
          "name": "recipient",
          "type": "address"
        }
      ],
      "name": "FundRig__RecipientSet",
      "type": "event"
    },
    {
      "anonymous": false,
      "inputs": [
        {
          "indexed": true,
          "internalType": "address",
          "name": "team",
          "type": "address"
        }
      ],
      "name": "FundRig__TeamSet",
      "type": "event"
    },
    {
      "anonymous": false,
      "inputs": [
        {
          "indexed": true,
          "internalType": "address",
          "name": "treasury",
          "type": "address"
        }
      ],
      "name": "FundRig__TreasurySet",
      "type": "event"
    },
    {
      "anonymous": false,
      "inputs": [
        {
          "indexed": false,
          "internalType": "string",
          "name": "uri",
          "type": "string"
        }
      ],
      "name": "FundRig__UriSet",
      "type": "event"
    },
    {
      "anonymous": false,
      "inputs": [
        {
          "indexed": true,
          "internalType": "address",
          "name": "previousOwner",
          "type": "address"
        },
        {
          "indexed": true,
          "internalType": "address",
          "name": "newOwner",
          "type": "address"
        }
      ],
      "name": "OwnershipTransferred",
      "type": "event"
    },
    {
      "inputs": [],
      "name": "DAY_DURATION",
      "outputs": [
        {
          "internalType": "uint256",
          "name": "",
          "type": "uint256"
        }
      ],
      "stateMutability": "view",
      "type": "function"
    },
    {
      "inputs": [],
      "name": "DIVISOR",
      "outputs": [
        {
          "internalType": "uint256",
          "name": "",
          "type": "uint256"
        }
      ],
      "stateMutability": "view",
      "type": "function"
    },
    {
      "inputs": [],
      "name": "MAX_HALVING_PERIOD",
      "outputs": [
        {
          "internalType": "uint256",
          "name": "",
          "type": "uint256"
        }
      ],
      "stateMutability": "view",
      "type": "function"
    },
    {
      "inputs": [],
      "name": "MAX_INITIAL_EMISSION",
      "outputs": [
        {
          "internalType": "uint256",
          "name": "",
          "type": "uint256"
        }
      ],
      "stateMutability": "view",
      "type": "function"
    },
    {
      "inputs": [],
      "name": "MIN_DONATION",
      "outputs": [
        {
          "internalType": "uint256",
          "name": "",
          "type": "uint256"
        }
      ],
      "stateMutability": "view",
      "type": "function"
    },
    {
      "inputs": [],
      "name": "MIN_HALVING_PERIOD",
      "outputs": [
        {
          "internalType": "uint256",
          "name": "",
          "type": "uint256"
        }
      ],
      "stateMutability": "view",
      "type": "function"
    },
    {
      "inputs": [],
      "name": "MIN_INITIAL_EMISSION",
      "outputs": [
        {
          "internalType": "uint256",
          "name": "",
          "type": "uint256"
        }
      ],
      "stateMutability": "view",
      "type": "function"
    },
    {
      "inputs": [],
      "name": "PROTOCOL_BPS",
      "outputs": [
        {
          "internalType": "uint256",
          "name": "",
          "type": "uint256"
        }
      ],
      "stateMutability": "view",
      "type": "function"
    },
    {
      "inputs": [],
      "name": "RECIPIENT_BPS",
      "outputs": [
        {
          "internalType": "uint256",
          "name": "",
          "type": "uint256"
        }
      ],
      "stateMutability": "view",
      "type": "function"
    },
    {
      "inputs": [],
      "name": "TEAM_BPS",
      "outputs": [
        {
          "internalType": "uint256",
          "name": "",
          "type": "uint256"
        }
      ],
      "stateMutability": "view",
      "type": "function"
    },
    {
      "inputs": [
        {
          "internalType": "address",
          "name": "account",
          "type": "address"
        },
        {
          "internalType": "uint256",
          "name": "day",
          "type": "uint256"
        }
      ],
      "name": "claim",
      "outputs": [],
      "stateMutability": "nonpayable",
      "type": "function"
    },
    {
      "inputs": [],
      "name": "core",
      "outputs": [
        {
          "internalType": "address",
          "name": "",
          "type": "address"
        }
      ],
      "stateMutability": "view",
      "type": "function"
    },
    {
      "inputs": [],
      "name": "currentDay",
      "outputs": [
        {
          "internalType": "uint256",
          "name": "",
          "type": "uint256"
        }
      ],
      "stateMutability": "view",
      "type": "function"
    },
    {
      "inputs": [
        {
          "internalType": "uint256",
          "name": "",
          "type": "uint256"
        },
        {
          "internalType": "address",
          "name": "",
          "type": "address"
        }
      ],
      "name": "dayAccountToDonation",
      "outputs": [
        {
          "internalType": "uint256",
          "name": "",
          "type": "uint256"
        }
      ],
      "stateMutability": "view",
      "type": "function"
    },
    {
      "inputs": [
        {
          "internalType": "uint256",
          "name": "",
          "type": "uint256"
        },
        {
          "internalType": "address",
          "name": "",
          "type": "address"
        }
      ],
      "name": "dayAccountToHasClaimed",
      "outputs": [
        {
          "internalType": "bool",
          "name": "",
          "type": "bool"
        }
      ],
      "stateMutability": "view",
      "type": "function"
    },
    {
      "inputs": [
        {
          "internalType": "uint256",
          "name": "",
          "type": "uint256"
        }
      ],
      "name": "dayToTotalDonated",
      "outputs": [
        {
          "internalType": "uint256",
          "name": "",
          "type": "uint256"
        }
      ],
      "stateMutability": "view",
      "type": "function"
    },
    {
      "inputs": [
        {
          "internalType": "address",
          "name": "account",
          "type": "address"
        },
        {
          "internalType": "uint256",
          "name": "amount",
          "type": "uint256"
        },
        {
          "internalType": "string",
          "name": "_uri",
          "type": "string"
        }
      ],
      "name": "fund",
      "outputs": [],
      "stateMutability": "nonpayable",
      "type": "function"
    },
    {
      "inputs": [
        {
          "internalType": "uint256",
          "name": "day",
          "type": "uint256"
        }
      ],
      "name": "getDayEmission",
      "outputs": [
        {
          "internalType": "uint256",
          "name": "",
          "type": "uint256"
        }
      ],
      "stateMutability": "view",
      "type": "function"
    },
    {
      "inputs": [
        {
          "internalType": "uint256",
          "name": "day",
          "type": "uint256"
        }
      ],
      "name": "getDayTotal",
      "outputs": [
        {
          "internalType": "uint256",
          "name": "",
          "type": "uint256"
        }
      ],
      "stateMutability": "view",
      "type": "function"
    },
    {
      "inputs": [
        {
          "internalType": "uint256",
          "name": "day",
          "type": "uint256"
        },
        {
          "internalType": "address",
          "name": "account",
          "type": "address"
        }
      ],
      "name": "getPendingReward",
      "outputs": [
        {
          "internalType": "uint256",
          "name": "",
          "type": "uint256"
        }
      ],
      "stateMutability": "view",
      "type": "function"
    },
    {
      "inputs": [
        {
          "internalType": "uint256",
          "name": "day",
          "type": "uint256"
        },
        {
          "internalType": "address",
          "name": "account",
          "type": "address"
        }
      ],
      "name": "getUserDonation",
      "outputs": [
        {
          "internalType": "uint256",
          "name": "",
          "type": "uint256"
        }
      ],
      "stateMutability": "view",
      "type": "function"
    },
    {
      "inputs": [],
      "name": "halvingPeriod",
      "outputs": [
        {
          "internalType": "uint256",
          "name": "",
          "type": "uint256"
        }
      ],
      "stateMutability": "view",
      "type": "function"
    },
    {
      "inputs": [],
      "name": "initialEmission",
      "outputs": [
        {
          "internalType": "uint256",
          "name": "",
          "type": "uint256"
        }
      ],
      "stateMutability": "view",
      "type": "function"
    },
    {
      "inputs": [],
      "name": "minEmission",
      "outputs": [
        {
          "internalType": "uint256",
          "name": "",
          "type": "uint256"
        }
      ],
      "stateMutability": "view",
      "type": "function"
    },
    {
      "inputs": [],
      "name": "owner",
      "outputs": [
        {
          "internalType": "address",
          "name": "",
          "type": "address"
        }
      ],
      "stateMutability": "view",
      "type": "function"
    },
    {
      "inputs": [],
      "name": "paymentToken",
      "outputs": [
        {
          "internalType": "address",
          "name": "",
          "type": "address"
        }
      ],
      "stateMutability": "view",
      "type": "function"
    },
    {
      "inputs": [],
      "name": "recipient",
      "outputs": [
        {
          "internalType": "address",
          "name": "",
          "type": "address"
        }
      ],
      "stateMutability": "view",
      "type": "function"
    },
    {
      "inputs": [],
      "name": "renounceOwnership",
      "outputs": [],
      "stateMutability": "nonpayable",
      "type": "function"
    },
    {
      "inputs": [
        {
          "internalType": "address",
          "name": "_recipient",
          "type": "address"
        }
      ],
      "name": "setRecipient",
      "outputs": [],
      "stateMutability": "nonpayable",
      "type": "function"
    },
    {
      "inputs": [
        {
          "internalType": "address",
          "name": "_team",
          "type": "address"
        }
      ],
      "name": "setTeam",
      "outputs": [],
      "stateMutability": "nonpayable",
      "type": "function"
    },
    {
      "inputs": [
        {
          "internalType": "address",
          "name": "_treasury",
          "type": "address"
        }
      ],
      "name": "setTreasury",
      "outputs": [],
      "stateMutability": "nonpayable",
      "type": "function"
    },
    {
      "inputs": [
        {
          "internalType": "string",
          "name": "_uri",
          "type": "string"
        }
      ],
      "name": "setUri",
      "outputs": [],
      "stateMutability": "nonpayable",
      "type": "function"
    },
    {
      "inputs": [],
      "name": "startTime",
      "outputs": [
        {
          "internalType": "uint256",
          "name": "",
          "type": "uint256"
        }
      ],
      "stateMutability": "view",
      "type": "function"
    },
    {
      "inputs": [],
      "name": "team",
      "outputs": [
        {
          "internalType": "address",
          "name": "",
          "type": "address"
        }
      ],
      "stateMutability": "view",
      "type": "function"
    },
    {
      "inputs": [
        {
          "internalType": "address",
          "name": "newOwner",
          "type": "address"
        }
      ],
      "name": "transferOwnership",
      "outputs": [],
      "stateMutability": "nonpayable",
      "type": "function"
    },
    {
      "inputs": [],
      "name": "treasury",
      "outputs": [
        {
          "internalType": "address",
          "name": "",
          "type": "address"
        }
      ],
      "stateMutability": "view",
      "type": "function"
    },
    {
      "inputs": [],
      "name": "unit",
      "outputs": [
        {
          "internalType": "address",
          "name": "",
          "type": "address"
        }
      ],
      "stateMutability": "view",
      "type": "function"
    },
    {
      "inputs": [],
      "name": "uri",
      "outputs": [
        {
          "internalType": "string",
          "name": "",
          "type": "string"
        }
      ],
      "stateMutability": "view",
      "type": "function"
    }
  ],
  "bytecode": "0x61016034620002b05762001b94601f38829003908101601f19168301906001600160401b03821184831017620002b5578084936040938452843961012092839181010312620002b0576200005383620002cb565b906200006260208501620002cb565b9162000070828601620002cb565b6200007e60608701620002cb565b936200008d60808801620002cb565b916200009c60a08901620002cb565b9160c08901519360e08a015195610100809b01519860016000556001549360018060a01b03199533878716176001558a5160018060a01b0396873391167f8be0079c531659141344cd1fd0a4f28419497f9722a3daafe3b4186f6b6457e0600080a386851615620002a257508582161562000292578516918215620002925785169283156200029257858816156200029257670de0b6b3a7640000891080156200027b575b62000260578915801562000271575b620002605760078c10801562000254575b620002435760805260a0528460025416176002558360035416176003551690600454161760045560c052855283526101409182524260e05251916118b39384620002e18539608051848181610d4f01528181610ea301528181610ed901528181610fa601528181610ffd01526111e8015260a05184818161064e01526109a9015260c0518481816102a50152610d91015260e05184818161059d01528181610a7d01528181610c0101528181610ce601526117dc015251838181610a42015261178101525182818161114501526117a4015251818181610c47015261175a0152f35b8a5163d5fbe06160e01b8152600490fd5b5061016d8c1162000161565b8a51631a5f691960e11b8152600490fd5b50888a1162000150565b506c0c9f2c9cd04674edea40000000891162000141565b8a51629499cb60e31b8152600490fd5b629499cb60e31b8152600490fd5b600080fd5b634e487b7160e01b600052604160045260246000fd5b51906001600160a01b0382168203620002b05756fe608080604052600436101561001357600080fd5b600090813560e01c908162f973c61461129c57508063095cf5c6146112345780631680b55f14610ac357806317f4f0ab146112175780633013ce29146111d25780633410fe6e146104735780633bbed4a0146111685780633ff013ea1461112d578063480836c514610c6a5780635a3e251f14610c2f5780635c9302c914610be557806361d027b314610bbc57806366d003ac14610b935780636fa497ab14610b4a578063715018a614610aed5780637417bd1014610ac357806375bb7e4914610aa057806378e9792514610a655780637c817fd214610a2a57806385f2aef214610a015780638da5cb5b146109d8578063907af6c0146109935780639b642de1146107a55780639fc6183514610761578063aad3ec961461055a578063bd134ce41461053d578063be93b8db1461051f578063c1e7af3514610503578063c59b1f3c146104dc578063d5861d91146104bf578063d590da9a14610478578063db45810e14610473578063dc9d1a391461044c578063dd481bf214610430578063eac989f81461034f578063f0f44260146102d4578063f2f4eb261461028f5763f2fde38b146101c257600080fd5b3461028c57602036600319011261028c576101db6112c3565b6101e36113fa565b6001600160a01b0390811690811561023857600154826bffffffffffffffffffffffff60a01b821617600155167f8be0079c531659141344cd1fd0a4f28419497f9722a3daafe3b4186f6b6457e0600080a380f35b60405162461bcd60e51b815260206004820152602660248201527f4f776e61626c653a206e6577206f776e657220697320746865207a65726f206160448201526564647265737360d01b6064820152608490fd5b80fd5b503461028c578060031936011261028c576040517f00000000000000000000000000000000000000000000000000000000000000006001600160a01b03168152602090f35b503461028c57602036600319011261028c576102ee6112c3565b6102f66113fa565b6001600160a01b0316801561033e57600380546001600160a01b031916821790557f733974f3e93d9740040671ca71cbb481b0c9a5451f1806cc3b4370707e3500f98280a280f35b604051629499cb60e31b8152600490fd5b503461028c578060031936011261028c5760405190806008546103718161133f565b8085529160019180831690811561040657506001146103ab575b6103a78561039b81870382611379565b604051918291826113b1565b0390f35b9250600883527ff3f7a9fe364faab93b216da50a3214154f22a0a2b415b23a84c8169e8b636ee35b8284106103ee57505050810160200161039b826103a761038b565b805460208587018101919091529093019281016103d3565b8695506103a79693506020925061039b94915060ff191682840152151560051b820101929361038b565b503461028c578060031936011261028c57602060405160078152f35b503461028c57602036600319011261028c57602061046b600435611754565b604051908152f35b6112f4565b503461028c57604036600319011261028c5760406104946112de565b9160043581526006602052209060018060a01b03166000526020526020604060002054604051908152f35b503461028c578060031936011261028c5760206040516101908152f35b503461028c57604036600319011261028c57602061046b6104fb6112de565b6004356117d3565b503461028c578060031936011261028c57602060405160648152f35b503461028c578060031936011261028c576020604051620151808152f35b503461028c578060031936011261028c5760206040516113888152f35b503461028c57604036600319011261028c576105746112c3565b60243561057f6114d6565b6001600160a01b0382811692909190831561033e57620151806105c27f00000000000000000000000000000000000000000000000000000000000000004261149b565b0482101561074f578185526020906007825260408620858752825260ff60408720541661073d57828652600682526040862085875282526040862054801561072b5761062d87918583526005855261062860408420549161062288611754565b90611452565b61147b565b84825260078452604080832088845285528220805460ff19166001179055947f00000000000000000000000000000000000000000000000000000000000000001691823b15610727576040516340c10f1960e01b81526001600160a01b0391909116600482015260248101869052918290604490829084905af1801561071c576106e9575b50916040917f06acf4e673fb0690197d247163b365c613c5626645da0abd423654d509978e57938351928352820152a26001815580f35b67ffffffffffffffff81969296116107085760409081529094906106b2565b634e487b7160e01b82526041600452602482fd5b6040513d88823e3d90fd5b5080fd5b6040516301fcf3ab60e51b8152600490fd5b604051636a85d37760e01b8152600490fd5b604051636546891f60e01b8152600490fd5b503461028c57604036600319011261028c5760406020916107806112de565b6004358252600684528282206001600160a01b03909116825283522054604051908152f35b503461028c576020908160031936011261028c5767ffffffffffffffff9160043583811161098f576107db903690600401611311565b9190936107e66113fa565b821161097b576107f760085461133f565b601f8111610919575b508293601f831160011461087457610863908385967feef7e3f902ebc1e4fc32c5d0f5ff4bed181b32518904a37d9a46c75aa73b9ace9691610869575b508460011b906000198660031b1c1916176008555b6040519383859485528401916114b5565b0390a180f35b90508101353861083d565b600884527ff3f7a9fe364faab93b216da50a3214154f22a0a2b415b23a84c8169e8b636ee3601f198416855b8181106109025750907feef7e3f902ebc1e4fc32c5d0f5ff4bed181b32518904a37d9a46c75aa73b9ace9596856108639493106108e8575b5050600184811b01600855610852565b820135600019600387901b60f8161c1916905538806108d8565b8388013583559684019660019092019184016108a0565b600884527ff3f7a9fe364faab93b216da50a3214154f22a0a2b415b23a84c8169e8b636ee3601f840160051c810191838510610971575b601f0160051c01905b8181106109665750610800565b848155600101610959565b9091508190610950565b634e487b7160e01b83526041600452602483fd5b8280fd5b503461028c578060031936011261028c576040517f00000000000000000000000000000000000000000000000000000000000000006001600160a01b03168152602090f35b503461028c578060031936011261028c576001546040516001600160a01b039091168152602090f35b503461028c578060031936011261028c576004546040516001600160a01b039091168152602090f35b503461028c578060031936011261028c5760206040517f00000000000000000000000000000000000000000000000000000000000000008152f35b503461028c578060031936011261028c5760206040517f00000000000000000000000000000000000000000000000000000000000000008152f35b503461028c578060031936011261028c576020604051670de0b6b3a76400008152f35b503461028c57602036600319011261028c5760406020916004358152600583522054604051908152f35b503461028c578060031936011261028c57610b066113fa565b600180546001600160a01b0319811690915581906001600160a01b03167f8be0079c531659141344cd1fd0a4f28419497f9722a3daafe3b4186f6b6457e08280a380f35b503461028c57604036600319011261028c5760ff6040602092610b6b6112de565b6004358252600785528282206001600160a01b03909116825284522054604051911615158152f35b503461028c578060031936011261028c576002546040516001600160a01b039091168152602090f35b503461028c578060031936011261028c576003546040516001600160a01b039091168152602090f35b503461028c578060031936011261028c57602062015180610c267f00000000000000000000000000000000000000000000000000000000000000004261149b565b04604051908152f35b503461028c578060031936011261028c5760206040517f00000000000000000000000000000000000000000000000000000000000000008152f35b503461028c57606036600319011261028c57610c846112c3565b67ffffffffffffffff60443581811161112957610ca5903690600401611311565b919092610cb06114d6565b6001600160a01b031692831561033e576127108060243510611117576002546001600160a01b0316156111055762015180610d0b7f00000000000000000000000000000000000000000000000000000000000000004261149b565b0492604051906323b872dd60e01b602083015233602483015230604483015260243560648301526064825260a0820190828210908211176110f157604052610d7c907f00000000000000000000000000000000000000000000000000000000000000006001600160a01b031661156f565b60405163cce516b760e01b81526020816004817f00000000000000000000000000000000000000000000000000000000000000006001600160a01b03165afa9081156110e65787916110a0575b5061138880602435029060243582041460243515171561108c576004549083900491906001600160a01b03161561108657610190806024350290602435820414602435151715611072578390045b6001600160a01b03821693841561103c5760646024350260243581046064146024351517156110285791610efe610f6f9694927fa367d7ce01856485d00b9b320d07aab494148e30a71fe81c10a1f1869801b9239a9998969404935b610ec8610e8f86610e8a86610e8a8660243561149b565b61149b565b6002549092906001600160a01b03908116907f00000000000000000000000000000000000000000000000000000000000000001661152c565b6003546001600160a01b03908116907f00000000000000000000000000000000000000000000000000000000000000001661152c565b80610fe7575b5081610f79575b505050828752600560205260408720610f2760243582546114a8565b905582875260066020526040872086885260205260408720610f4c60243582546114a8565b9055604051938493602435855260208501526060604085015260608401916114b5565b0390a26001815580f35b7f23265cbc6cbc433f1db176a495066e11d20658741dc6d52f0e9a9f73fdfc92f491604091610fd39082907f00000000000000000000000000000000000000000000000000000000000000006001600160a01b031661152c565b8151908152866020820152a2388080610f0b565b60045461102291906001600160a01b03908116907f00000000000000000000000000000000000000000000000000000000000000001661152c565b38610f04565b634e487b7160e01b8b52601160045260248bfd5b5091610f6f93917fa367d7ce01856485d00b9b320d07aab494148e30a71fe81c10a1f1869801b92397969593610efe8b93610e73565b634e487b7160e01b89526011600452602489fd5b87610e17565b634e487b7160e01b88526011600452602488fd5b90506020813d6020116110de575b816110bb60209383611379565b810103126110da57516001600160a01b03811681036110da5738610dc9565b8680fd5b3d91506110ae565b6040513d89823e3d90fd5b634e487b7160e01b88526041600452602488fd5b604051630e4a171360e01b8152600490fd5b6040516367c3520760e11b8152600490fd5b8380fd5b503461028c578060031936011261028c5760206040517f00000000000000000000000000000000000000000000000000000000000000008152f35b503461028c57602036600319011261028c576111826112c3565b61118a6113fa565b6001600160a01b0316801561033e57600280546001600160a01b031916821790557fccf3fbe1cfbaf4340049a747fa960e401ea6eb5bdf8af07f8cae29baeacaa0ef8280a280f35b503461028c578060031936011261028c576040517f00000000000000000000000000000000000000000000000000000000000000006001600160a01b03168152602090f35b503461028c578060031936011261028c57602060405161016d8152f35b503461028c57602036600319011261028c5761124e6112c3565b6112566113fa565b600480546001600160a01b0319166001600160a01b039290921691821790557fd0fb66531bb950a999ffd739248f0badcf9df003c7daeb593287f07bd864e8338280a280f35b905034610727578160031936011261072757806c0c9f2c9cd04674edea4000000060209252f35b600435906001600160a01b03821682036112d957565b600080fd5b602435906001600160a01b03821682036112d957565b346112d95760003660031901126112d95760206040516127108152f35b9181601f840112156112d95782359167ffffffffffffffff83116112d957602083818601950101116112d957565b90600182811c9216801561136f575b602083101461135957565b634e487b7160e01b600052602260045260246000fd5b91607f169161134e565b90601f8019910116810190811067ffffffffffffffff82111761139b57604052565b634e487b7160e01b600052604160045260246000fd5b6020808252825181830181905290939260005b8281106113e657505060409293506000838284010152601f8019910116010190565b8181018601518482016040015285016113c4565b6001546001600160a01b0316330361140e57565b606460405162461bcd60e51b815260206004820152602060248201527f4f776e61626c653a2063616c6c6572206973206e6f7420746865206f776e65726044820152fd5b8181029291811591840414171561146557565b634e487b7160e01b600052601160045260246000fd5b8115611485570490565b634e487b7160e01b600052601260045260246000fd5b9190820391821161146557565b9190820180921161146557565b908060209392818452848401376000828201840152601f01601f1916010190565b6002600054146114e7576002600055565b60405162461bcd60e51b815260206004820152601f60248201527f5265656e7472616e637947756172643a207265656e7472616e742063616c6c006044820152606490fd5b60405163a9059cbb60e01b60208201526001600160a01b0392909216602483015260448083019390935291815261156d91611568606483611379565b61156f565b565b60018060a01b0316906040516040810167ffffffffffffffff908281108282111761139b576040526020938483527f5361666545524332303a206c6f772d6c6576656c2063616c6c206661696c6564858401526000808587829751910182855af1903d156116b4573d9283116116a0579061160a939291604051926115fd88601f19601f8401160185611379565b83523d868885013e6116bf565b80519182159184831561167c575b5050509050156116255750565b6084906040519062461bcd60e51b82526004820152602a60248201527f5361666545524332303a204552433230206f7065726174696f6e20646964206e6044820152691bdd081cdd58d8d9595960b21b6064820152fd5b9193818094500103126107275782015190811515820361028c575080388084611618565b634e487b7160e01b85526041600452602485fd5b9061160a9392506060915b9192901561172157508151156116d3575090565b3b156116dc5790565b60405162461bcd60e51b815260206004820152601d60248201527f416464726573733a2063616c6c20746f206e6f6e2d636f6e74726163740000006044820152606490fd5b8251909150156117345750805190602001fd5b60405162461bcd60e51b815290819061175090600483016113b1565b0390fd5b61177f907f00000000000000000000000000000000000000000000000000000000000000009061147b565b7f0000000000000000000000000000000000000000000000000000000000000000901c7f00000000000000000000000000000000000000000000000000000000000000008082106117ce575090565b905090565b620151806118017f00000000000000000000000000000000000000000000000000000000000000004261149b565b04811015611876576000918183526007602052604083209060018060a01b03169081845260205260ff604084205416611871578183526006602052604083209083526020526040822054801561187157610628906106226040858561186e97526005602052205493611754565b90565b505090565b505060009056fea264697066735822122079e9b8422060cebe25423fda92f1fdd30779bbe11bab465d2b96ea6625a243a264736f6c63430008130033",
  "linkReferences": {},
  "deployedLinkReferences": {}
}