{
  "_format": "hh-sol-artifact-1",
  "contractName": "FundCore",
  "sourceName": "contracts/rigs/fund/FundCore.sol",
  "abi": [
    {
      "inputs": [
        {
          "internalType": "address",
          "name": "_registry",
          "type": "address"
        },
        {
          "internalType": "address",
          "name": "_donutToken",
          "type": "address"
        },
        {
          "internalType": "address",
          "name": "_uniswapV2Factory",
          "type": "address"
        },
        {
          "internalType": "address",
          "name": "_uniswapV2Router",
          "type": "address"
        },
        {
          "internalType": "address",
          "name": "_unitFactory",
          "type": "address"
        },
        {
          "internalType": "address",
          "name": "_fundRigFactory",
          "type": "address"
        },
        {
          "internalType": "address",
          "name": "_auctionFactory",
          "type": "address"
        },
        {
          "internalType": "address",
          "name": "_protocolFeeAddress",
          "type": "address"
        },
        {
          "internalType": "uint256",
          "name": "_minDonutForLaunch",
          "type": "uint256"
        }
      ],
      "stateMutability": "nonpayable",
      "type": "constructor"
    },
    {
      "inputs": [],
      "name": "FundCore__AuctionEpochPeriodOutOfRange",
      "type": "error"
    },
    {
      "inputs": [],
      "name": "FundCore__AuctionInitPriceOutOfRange",
      "type": "error"
    },
    {
      "inputs": [],
      "name": "FundCore__AuctionMinInitPriceOutOfRange",
      "type": "error"
    },
    {
      "inputs": [],
      "name": "FundCore__AuctionPriceMultiplierOutOfRange",
      "type": "error"
    },
    {
      "inputs": [],
      "name": "FundCore__EmptyTokenName",
      "type": "error"
    },
    {
      "inputs": [],
      "name": "FundCore__EmptyTokenSymbol",
      "type": "error"
    },
    {
      "inputs": [],
      "name": "FundCore__InitialEmissionOutOfRange",
      "type": "error"
    },
    {
      "inputs": [],
      "name": "FundCore__InsufficientDonut",
      "type": "error"
    },
    {
      "inputs": [],
      "name": "FundCore__MinEmissionOutOfRange",
      "type": "error"
    },
    {
      "inputs": [],
      "name": "FundCore__ZeroAddress",
      "type": "error"
    },
    {
      "inputs": [],
      "name": "FundCore__ZeroLauncher",
      "type": "error"
    },
    {
      "inputs": [],
      "name": "FundCore__ZeroQuoteToken",
      "type": "error"
    },
    {
      "inputs": [],
      "name": "FundCore__ZeroUnitAmount",
      "type": "error"
    },
    {
      "anonymous": false,
      "inputs": [
        {
          "indexed": true,
          "internalType": "address",
          "name": "launcher",
          "type": "address"
        },
        {
          "indexed": true,
          "internalType": "address",
          "name": "rig",
          "type": "address"
        },
        {
          "indexed": true,
          "internalType": "address",
          "name": "unit",
          "type": "address"
        },
        {
          "indexed": false,
          "internalType": "address",
          "name": "auction",
          "type": "address"
        },
        {
          "indexed": false,
          "internalType": "address",
          "name": "lpToken",
          "type": "address"
        },
        {
          "indexed": false,
          "internalType": "address",
          "name": "quoteToken",
          "type": "address"
        },
        {
          "indexed": false,
          "internalType": "string",
          "name": "tokenName",
          "type": "string"
        },
        {
          "indexed": false,
          "internalType": "string",
          "name": "tokenSymbol",
          "type": "string"
        },
        {
          "indexed": false,
          "internalType": "uint256",
          "name": "donutAmount",
          "type": "uint256"
        },
        {
          "indexed": false,
          "internalType": "uint256",
          "name": "unitAmount",
          "type": "uint256"
        },
        {
          "indexed": false,
          "internalType": "uint256",
          "name": "initialEmission",
          "type": "uint256"
        },
        {
          "indexed": false,
          "internalType": "uint256",
          "name": "minEmission",
          "type": "uint256"
        },
        {
          "indexed": false,
          "internalType": "uint256",
          "name": "minDonation",
          "type": "uint256"
        },
        {
          "indexed": false,
          "internalType": "uint256",
          "name": "auctionInitPrice",
          "type": "uint256"
        },
        {
          "indexed": false,
          "internalType": "uint256",
          "name": "auctionEpochPeriod",
          "type": "uint256"
        },
        {
          "indexed": false,
          "internalType": "uint256",
          "name": "auctionPriceMultiplier",
          "type": "uint256"
        },
        {
          "indexed": false,
          "internalType": "uint256",
          "name": "auctionMinInitPrice",
          "type": "uint256"
        }
      ],
      "name": "FundCore__Launched",
      "type": "event"
    },
    {
      "anonymous": false,
      "inputs": [
        {
          "indexed": false,
          "internalType": "uint256",
          "name": "minDonutForLaunch",
          "type": "uint256"
        }
      ],
      "name": "FundCore__MinDonutForLaunchSet",
      "type": "event"
    },
    {
      "anonymous": false,
      "inputs": [
        {
          "indexed": false,
          "internalType": "address",
          "name": "protocolFeeAddress",
          "type": "address"
        }
      ],
      "name": "FundCore__ProtocolFeeAddressSet",
      "type": "event"
    },
    {
      "anonymous": false,
      "inputs": [
        {
          "indexed": true,
          "internalType": "address",
          "name": "previousOwner",
          "type": "address"
        },
        {
          "indexed": true,
          "internalType": "address",
          "name": "newOwner",
          "type": "address"
        }
      ],
      "name": "OwnershipTransferred",
      "type": "event"
    },
    {
      "inputs": [],
      "name": "AUCTION_ABS_MAX_INIT_PRICE",
      "outputs": [
        {
          "internalType": "uint256",
          "name": "",
          "type": "uint256"
        }
      ],
      "stateMutability": "view",
      "type": "function"
    },
    {
      "inputs": [],
      "name": "AUCTION_ABS_MIN_INIT_PRICE",
      "outputs": [
        {
          "internalType": "uint256",
          "name": "",
          "type": "uint256"
        }
      ],
      "stateMutability": "view",
      "type": "function"
    },
    {
      "inputs": [],
      "name": "AUCTION_MAX_EPOCH_PERIOD",
      "outputs": [
        {
          "internalType": "uint256",
          "name": "",
          "type": "uint256"
        }
      ],
      "stateMutability": "view",
      "type": "function"
    },
    {
      "inputs": [],
      "name": "AUCTION_MAX_PRICE_MULTIPLIER",
      "outputs": [
        {
          "internalType": "uint256",
          "name": "",
          "type": "uint256"
        }
      ],
      "stateMutability": "view",
      "type": "function"
    },
    {
      "inputs": [],
      "name": "AUCTION_MIN_EPOCH_PERIOD",
      "outputs": [
        {
          "internalType": "uint256",
          "name": "",
          "type": "uint256"
        }
      ],
      "stateMutability": "view",
      "type": "function"
    },
    {
      "inputs": [],
      "name": "AUCTION_MIN_PRICE_MULTIPLIER",
      "outputs": [
        {
          "internalType": "uint256",
          "name": "",
          "type": "uint256"
        }
      ],
      "stateMutability": "view",
      "type": "function"
    },
    {
      "inputs": [],
      "name": "DEAD_ADDRESS",
      "outputs": [
        {
          "internalType": "address",
          "name": "",
          "type": "address"
        }
      ],
      "stateMutability": "view",
      "type": "function"
    },
    {
      "inputs": [],
      "name": "MAX_INITIAL_EMISSION",
      "outputs": [
        {
          "internalType": "uint256",
          "name": "",
          "type": "uint256"
        }
      ],
      "stateMutability": "view",
      "type": "function"
    },
    {
      "inputs": [],
      "name": "MIN_INITIAL_EMISSION",
      "outputs": [
        {
          "internalType": "uint256",
          "name": "",
          "type": "uint256"
        }
      ],
      "stateMutability": "view",
      "type": "function"
    },
    {
      "inputs": [],
      "name": "RIG_TYPE",
      "outputs": [
        {
          "internalType": "string",
          "name": "",
          "type": "string"
        }
      ],
      "stateMutability": "view",
      "type": "function"
    },
    {
      "inputs": [],
      "name": "auctionFactory",
      "outputs": [
        {
          "internalType": "address",
          "name": "",
          "type": "address"
        }
      ],
      "stateMutability": "view",
      "type": "function"
    },
    {
      "inputs": [
        {
          "internalType": "uint256",
          "name": "",
          "type": "uint256"
        }
      ],
      "name": "deployedRigs",
      "outputs": [
        {
          "internalType": "address",
          "name": "",
          "type": "address"
        }
      ],
      "stateMutability": "view",
      "type": "function"
    },
    {
      "inputs": [],
      "name": "deployedRigsLength",
      "outputs": [
        {
          "internalType": "uint256",
          "name": "",
          "type": "uint256"
        }
      ],
      "stateMutability": "view",
      "type": "function"
    },
    {
      "inputs": [],
      "name": "donutToken",
      "outputs": [
        {
          "internalType": "address",
          "name": "",
          "type": "address"
        }
      ],
      "stateMutability": "view",
      "type": "function"
    },
    {
      "inputs": [],
      "name": "fundRigFactory",
      "outputs": [
        {
          "internalType": "address",
          "name": "",
          "type": "address"
        }
      ],
      "stateMutability": "view",
      "type": "function"
    },
    {
      "inputs": [
        {
          "internalType": "address",
          "name": "",
          "type": "address"
        }
      ],
      "name": "isDeployedRig",
      "outputs": [
        {
          "internalType": "bool",
          "name": "",
          "type": "bool"
        }
      ],
      "stateMutability": "view",
      "type": "function"
    },
    {
      "inputs": [
        {
          "components": [
            {
              "internalType": "address",
              "name": "launcher",
              "type": "address"
            },
            {
              "internalType": "address",
              "name": "quoteToken",
              "type": "address"
            },
            {
              "internalType": "string",
              "name": "tokenName",
              "type": "string"
            },
            {
              "internalType": "string",
              "name": "tokenSymbol",
              "type": "string"
            },
            {
              "internalType": "uint256",
              "name": "donutAmount",
              "type": "uint256"
            },
            {
              "internalType": "uint256",
              "name": "unitAmount",
              "type": "uint256"
            },
            {
              "internalType": "uint256",
              "name": "initialEmission",
              "type": "uint256"
            },
            {
              "internalType": "uint256",
              "name": "minEmission",
              "type": "uint256"
            },
            {
              "internalType": "uint256",
              "name": "minDonation",
              "type": "uint256"
            },
            {
              "internalType": "uint256",
              "name": "auctionInitPrice",
              "type": "uint256"
            },
            {
              "internalType": "uint256",
              "name": "auctionEpochPeriod",
              "type": "uint256"
            },
            {
              "internalType": "uint256",
              "name": "auctionPriceMultiplier",
              "type": "uint256"
            },
            {
              "internalType": "uint256",
              "name": "auctionMinInitPrice",
              "type": "uint256"
            }
          ],
          "internalType": "struct FundCore.LaunchParams",
          "name": "params",
          "type": "tuple"
        }
      ],
      "name": "launch",
      "outputs": [
        {
          "internalType": "address",
          "name": "unit",
          "type": "address"
        },
        {
          "internalType": "address",
          "name": "rig",
          "type": "address"
        },
        {
          "internalType": "address",
          "name": "auction",
          "type": "address"
        },
        {
          "internalType": "address",
          "name": "lpToken",
          "type": "address"
        }
      ],
      "stateMutability": "nonpayable",
      "type": "function"
    },
    {
      "inputs": [],
      "name": "minDonutForLaunch",
      "outputs": [
        {
          "internalType": "uint256",
          "name": "",
          "type": "uint256"
        }
      ],
      "stateMutability": "view",
      "type": "function"
    },
    {
      "inputs": [],
      "name": "owner",
      "outputs": [
        {
          "internalType": "address",
          "name": "",
          "type": "address"
        }
      ],
      "stateMutability": "view",
      "type": "function"
    },
    {
      "inputs": [],
      "name": "protocolFeeAddress",
      "outputs": [
        {
          "internalType": "address",
          "name": "",
          "type": "address"
        }
      ],
      "stateMutability": "view",
      "type": "function"
    },
    {
      "inputs": [],
      "name": "registry",
      "outputs": [
        {
          "internalType": "address",
          "name": "",
          "type": "address"
        }
      ],
      "stateMutability": "view",
      "type": "function"
    },
    {
      "inputs": [],
      "name": "renounceOwnership",
      "outputs": [],
      "stateMutability": "nonpayable",
      "type": "function"
    },
    {
      "inputs": [
        {
          "internalType": "address",
          "name": "",
          "type": "address"
        }
      ],
      "name": "rigToAuction",
      "outputs": [
        {
          "internalType": "address",
          "name": "",
          "type": "address"
        }
      ],
      "stateMutability": "view",
      "type": "function"
    },
    {
      "inputs": [
        {
          "internalType": "address",
          "name": "",
          "type": "address"
        }
      ],
      "name": "rigToLP",
      "outputs": [
        {
          "internalType": "address",
          "name": "",
          "type": "address"
        }
      ],
      "stateMutability": "view",
      "type": "function"
    },
    {
      "inputs": [
        {
          "internalType": "address",
          "name": "",
          "type": "address"
        }
      ],
      "name": "rigToLauncher",
      "outputs": [
        {
          "internalType": "address",
          "name": "",
          "type": "address"
        }
      ],
      "stateMutability": "view",
      "type": "function"
    },
    {
      "inputs": [
        {
          "internalType": "address",
          "name": "",
          "type": "address"
        }
      ],
      "name": "rigToQuote",
      "outputs": [
        {
          "internalType": "address",
          "name": "",
          "type": "address"
        }
      ],
      "stateMutability": "view",
      "type": "function"
    },
    {
      "inputs": [
        {
          "internalType": "address",
          "name": "",
          "type": "address"
        }
      ],
      "name": "rigToUnit",
      "outputs": [
        {
          "internalType": "address",
          "name": "",
          "type": "address"
        }
      ],
      "stateMutability": "view",
      "type": "function"
    },
    {
      "inputs": [
        {
          "internalType": "uint256",
          "name": "_minDonutForLaunch",
          "type": "uint256"
        }
      ],
      "name": "setMinDonutForLaunch",
      "outputs": [],
      "stateMutability": "nonpayable",
      "type": "function"
    },
    {
      "inputs": [
        {
          "internalType": "address",
          "name": "_protocolFeeAddress",
          "type": "address"
        }
      ],
      "name": "setProtocolFeeAddress",
      "outputs": [],
      "stateMutability": "nonpayable",
      "type": "function"
    },
    {
      "inputs": [
        {
          "internalType": "address",
          "name": "newOwner",
          "type": "address"
        }
      ],
      "name": "transferOwnership",
      "outputs": [],
      "stateMutability": "nonpayable",
      "type": "function"
    },
    {
      "inputs": [],
      "name": "uniswapV2Factory",
      "outputs": [
        {
          "internalType": "address",
          "name": "",
          "type": "address"
        }
      ],
      "stateMutability": "view",
      "type": "function"
    },
    {
      "inputs": [],
      "name": "uniswapV2Router",
      "outputs": [
        {
          "internalType": "address",
          "name": "",
          "type": "address"
        }
      ],
      "stateMutability": "view",
      "type": "function"
    },
    {
      "inputs": [],
      "name": "unitFactory",
      "outputs": [
        {
          "internalType": "address",
          "name": "",
          "type": "address"
        }
      ],
      "stateMutability": "view",
      "type": "function"
    }
  ],
  "bytecode": "0x61016034620002755762001f3538819003601f8101601f191683016001600160401b038111848210176200027a57839282916040528339610120918291810103126200027557620000508262000290565b6200005e6020840162000290565b906200006d6040850162000290565b906200007c6060860162000290565b926200008b6080870162000290565b936200009a60a0880162000290565b620000a860c0890162000290565b95620000b760e08a0162000290565b92610100809a0151966000549560018060a01b031997338989161760005560405160018060a01b0398893391167f8be0079c531659141344cd1fd0a4f28419497f9722a3daafe3b4186f6b6457e0600080a3600180558882161580156200026a575b80156200025f575b801562000254575b801562000249575b80156200023e575b801562000233575b62000224575060805260a05260c05260e052885286526101409485521690600254161760025560035560405191611c8f9384620002a68539608051848181610d9001528181610e180152611376015260a0518481816106ca0152818161087a015281816108d40152818161092e015281816109e501526115c8015260c051848181610a170152611509015260e0518481816107ec0152818161082601528181610859015281816108b301528181610995015261162b0152518381816103b4015261075e0152518281816104bb0152610bb001525181818161043b0152610af20152f35b63052ee5e160e11b8152600490fd5b50888c161562000141565b508887161562000139565b508886161562000131565b508885161562000129565b508884161562000121565b508883161562000119565b600080fd5b634e487b7160e01b600052604160045260246000fd5b51906001600160a01b0382168203620002755756fe608080604052600436101561001357600080fd5b600090813560e01c908162f973c6146116bc575080630524c46a1461167d5780630986e40f1461165a5780631694505e1461161557806332359f6d146115f757806332a8ad99146115b257806335239f94146115735780633635bdfd146115555780634e6fd6c41461153857806359d0f713146114f3578063699b22b1146114d05780636b7b911214611461578063715018a61461140757806375bb7e49146113e45780637975e2a1146113a55780637b10399914611360578063832c0e5f1461132c57806383e9d76b146112ed57806389951e3a146105115780638da5cb5b146104ea578063a11f22cc146104a5578063a3fcb57a14610488578063a8c493c31461046a578063abf4fde414610425578063ad3857fb14610406578063ba0d1a5e146103e3578063bbba90e21461039e578063cce516b714610375578063d21bde931461032f578063d7a8c475146102eb578063eb081747146102ac578063f2fde38b146101db5763f9e6e6e71461018b57600080fd5b346101d85760203660031901126101d8577f6caa74bbbfe1deedcfabd0702d1b5b5abcb72f85793ef57f9c5d9728abf2d30460206004356101ca611814565b80600355604051908152a180f35b80fd5b50346101d85760203660031901126101d8576004356001600160a01b03818116918290036102a85761020b611814565b811561025457600054826bffffffffffffffffffffffff60a01b821617600055167f8be0079c531659141344cd1fd0a4f28419497f9722a3daafe3b4186f6b6457e0600080a380f35b60405162461bcd60e51b815260206004820152602660248201527f4f776e61626c653a206e6577206f776e657220697320746865207a65726f206160448201526564647265737360d01b6064820152608490fd5b8280fd5b50346101d85760203660031901126101d8576001600160a01b03600435818116908190036102a857826040916020945260068452205416604051908152f35b50346101d85760203660031901126101d857600435906004548210156101d8576020610316836117c7565b905460405160039290921b1c6001600160a01b03168152f35b50346101d85760203660031901126101d8576004356001600160a01b038116908190036103715760408260ff9260209452600584522054166040519015158152f35b5080fd5b50346101d857806003193601126101d8576002546040516001600160a01b039091168152602090f35b50346101d857806003193601126101d8576040517f00000000000000000000000000000000000000000000000000000000000000006001600160a01b03168152602090f35b50346101d857806003193601126101d8576020604051670f43fc2c04ee00008152f35b50346101d857806003193601126101d85760206040516301e133808152f35b50346101d857806003193601126101d8576040517f00000000000000000000000000000000000000000000000000000000000000006001600160a01b03168152602090f35b50346101d857806003193601126101d8576020600354604051908152f35b50346101d857806003193601126101d8576020604051610e108152f35b50346101d857806003193601126101d8576040517f00000000000000000000000000000000000000000000000000000000000000006001600160a01b03168152602090f35b50346101d857806003193601126101d857546040516001600160a01b039091168152602090f35b50346101d85760203660031901126101d85767ffffffffffffffff600435116101d8576101a0600435360360031901126101d8576002600154146112a85760026001556001600160a01b0361056960048035016118e4565b1615611296576001600160a01b036105856004356024016118e4565b1615611284576003546084600435013510611272576105ae60446004350160043560040161186c565b905015611260576105c960646004350160043560040161186c565b90501561124e5760a460043501351561123c57670de0b6b3a764000060c46004350135108015611220575b61120e5760e460043501351580156111f9575b6111e757610e1061014460043501351080156111d3575b6111c157670f43fc2c04ee000061016460043501351080156111a9575b61119757620f42406101846004350135108015611180575b61116e5761018460043501356101246004350135108015611157575b61114557604051906323b872dd60e01b6020830152336024830152306044830152608460043501356064830152606482528160a081011067ffffffffffffffff60a0840111176111315760a08201604052610747916106f7907f00000000000000000000000000000000000000000000000000000000000000006001600160a01b0316611a78565b602061070d60446004350160043560040161186c565b61075961072460646004350160043560040161186c565b604051978895869563b548848760e01b87526040600488015260448701916118c3565b848103600319016024860152916118c3565b0381847f00000000000000000000000000000000000000000000000000000000000000006001600160a01b03165af1918215611124578192611103575b506001600160a01b0382163b156101d8576040516340c10f1960e01b8152306004808301919091523560a4013560248201528181604481836001600160a01b0388165af18015610ff8576110f4575b509061081a7f00000000000000000000000000000000000000000000000000000000000000006001600160a01b0383166118f8565b61085460043560a401357f00000000000000000000000000000000000000000000000000000000000000006001600160a01b03841661193a565b6108a77f00000000000000000000000000000000000000000000000000000000000000007f00000000000000000000000000000000000000000000000000000000000000006001600160a01b03166118f8565b610901600435608401357f00000000000000000000000000000000000000000000000000000000000000007f00000000000000000000000000000000000000000000000000000000000000006001600160a01b031661193a565b6104b0420142116110e05760405162e8e33760e81b81526001600160a01b038281166004808401919091527f0000000000000000000000000000000000000000000000000000000000000000821660248401523560a4818101356044850181905260849283013560648601819052928501528301523060c4830152426104b00160e4830152606090829061010490829087907f0000000000000000000000000000000000000000000000000000000000000000165af19081156110d55783916110a0575b5060405163e6a4390560e01b81526001600160a01b0380841660048301527f000000000000000000000000000000000000000000000000000000000000000016602482015290602082806044810103817f00000000000000000000000000000000000000000000000000000000000000006001600160a01b03165afa91821561107057849261107b575b50610a8e906040519063a9059cbb60e01b602083015261dead6024830152604482015260448152610a7f81611729565b6001600160a01b038316611a78565b604051633e25ba8f60e21b81526101246004803591820135908301526001600160a01b03838116602484015261dead6044840152610144820135606484015261016482013560848401526101849091013560a4830152602090829060c490829088907f0000000000000000000000000000000000000000000000000000000000000000165af1908115611070578491611051575b50610b316024600435016118e4565b610b3f6004356004016118e4565b6040516304325fbb60e51b81526001600160a01b03928316600480830191909152868416602483015284841660448301529183166064820152306084820152903560c48181013560a484015260e48083013591840191909152610104918201359083015290916020918391829089907f0000000000000000000000000000000000000000000000000000000000000000165af1908115611046578591611017575b506001600160a01b0384163b15610fc15760405163588d95c960e11b81526001600160a01b03828116600483015286919082908290602490829084908b165af18015610ff857611003575b50610c3a6004356004016118e4565b6001600160a01b0383163b156103715760405163f2fde38b60e01b81526001600160a01b03918216600482015290829082906024908290849088165af18015610ff857610fe4575b505060045468010000000000000000811015610fd057806001610ca892016004556117c7565b81546001600160a01b0384811660039390931b83811b91901b19909116179091558552600560205260408520805460ff19166001179055610cec60048035016118e4565b60066020908152604080882080546001600160a01b03199081166001600160a01b039586161790915560078352818920805482168986161790556008835281892080548216878616179055600990925287208054821692861692909217909155610d5a6004356024016118e4565b600a6020526040872080549092166001600160a01b03909116179055610d7e611767565b85610d8d6004356004016118e4565b917f00000000000000000000000000000000000000000000000000000000000000006001600160a01b03163b1561037157604051631d3317b360e31b81526001600160a01b038516600482015260806024820152928391829190610df5906084840190611787565b6001600160a01b038a8116604485015291821660648401529190910390829084907f0000000000000000000000000000000000000000000000000000000000000000165af18015610fc557610fad575b5060809450610e586004356004016118e4565b610e666024600435016118e4565b90610eda610e7e60446004350160043560040161186c565b90610ecd610e9660646004350160043560040161186c565b604080516001600160a01b038c811682528d81166020830152909916908901526101c06060890181905291949093918801916118c3565b918583038b8701526118c3565b600435608481013560a085015260a481013560c085015260c481013560e085015260e481013561010085015261010481013561012085015261012481013561014085015261014481013561016085015261016481013561018085015261018401356101a08401526001600160a01b038781169385821693909116917fc03d673ec3f0ab27b5fa3bc4ce45e100ef6e22721cbdcdcbe5b6ff73a5b0f65e919081900390a460018055604080516001600160a01b03958616815291851660208301529184169181019190915291166060820152f35b610fb786916116e3565b610fc15784610e45565b8480fd5b6040513d88823e3d90fd5b634e487b7160e01b86526041600452602486fd5b610fed906116e3565b610fc1578438610c82565b6040513d84823e3d90fd5b61100c906116e3565b610fc1578438610c2b565b611039915060203d60201161103f575b6110318183611745565b8101906118a4565b38610be0565b503d611027565b6040513d87823e3d90fd5b61106a915060203d60201161103f576110318183611745565b38610b22565b6040513d86823e3d90fd5b610a8e9192506110999060203d60201161103f576110318183611745565b9190610a4f565b90506060813d6060116110cd575b816110bb60609383611745565b810103126102a85760400151386109c5565b3d91506110ae565b6040513d85823e3d90fd5b634e487b7160e01b82526011600452602482fd5b6110fd906116e3565b386107e5565b61111d91925060203d60201161103f576110318183611745565b9038610796565b50604051903d90823e3d90fd5b634e487b7160e01b81526041600452602490fd5b60405163c4252ad960e01b8152600490fd5b506001600160c01b0360043561012401351161066f565b604051634178de5360e01b8152600490fd5b506001600160c01b03600435610184013511610653565b6040516322c357c560e01b8152600490fd5b506729a2241af62c000061016460043501351161063b565b60405163b2cfb89160e01b8152600490fd5b506301e1338061014460043501351161061e565b6040516302b90cf360e41b8152600490fd5b5060c4600435013560e4600435013511610607565b60405163bc2bb1cd60e01b8152600490fd5b506c0c9f2c9cd04674edea4000000060c46004350135116105f4565b6040516324664fdf60e01b8152600490fd5b6040516343a5467b60e11b8152600490fd5b604051630ee0a31960e01b8152600490fd5b604051635e98850360e11b8152600490fd5b6040516388bfa10960e01b8152600490fd5b604051638f2cb49160e01b8152600490fd5b60405162461bcd60e51b815260206004820152601f60248201527f5265656e7472616e637947756172643a207265656e7472616e742063616c6c006044820152606490fd5b50346101d85760203660031901126101d8576001600160a01b03600435818116908190036102a857826040916020945260098452205416604051908152f35b50346101d857806003193601126101d85761135c611348611767565b604051918291602083526020830190611787565b0390f35b50346101d857806003193601126101d8576040517f00000000000000000000000000000000000000000000000000000000000000006001600160a01b03168152602090f35b50346101d85760203660031901126101d8576001600160a01b03600435818116908190036102a857826040916020945260078452205416604051908152f35b50346101d857806003193601126101d8576020604051670de0b6b3a76400008152f35b50346101d857806003193601126101d857611420611814565b80546001600160a01b03198116825581906001600160a01b03167f8be0079c531659141344cd1fd0a4f28419497f9722a3daafe3b4186f6b6457e08280a380f35b50346101d85760203660031901126101d8576004356001600160a01b038116908190036103715760207fb83f5a562e0680b568d7194814953b452c737c9ef7d4f8ee26b87d34ab9a1bc8916114b4611814565b600280546001600160a01b03191682179055604051908152a180f35b50346101d857806003193601126101d85760206040516729a2241af62c00008152f35b50346101d857806003193601126101d8576040517f00000000000000000000000000000000000000000000000000000000000000006001600160a01b03168152602090f35b50346101d857806003193601126101d857602060405161dead8152f35b50346101d857806003193601126101d8576020604051620f42408152f35b50346101d85760203660031901126101d8576001600160a01b03600435818116908190036102a8578260409160209452600a8452205416604051908152f35b50346101d857806003193601126101d8576040517f00000000000000000000000000000000000000000000000000000000000000006001600160a01b03168152602090f35b50346101d857806003193601126101d8576020600454604051908152f35b50346101d857806003193601126101d8576040517f00000000000000000000000000000000000000000000000000000000000000006001600160a01b03168152602090f35b50346101d857806003193601126101d8576040516001600160c01b038152602090f35b50346101d85760203660031901126101d8576001600160a01b03600435818116908190036102a857826040916020945260088452205416604051908152f35b905034610371578160031936011261037157806c0c9f2c9cd04674edea4000000060209252f35b67ffffffffffffffff81116116f757604052565b634e487b7160e01b600052604160045260246000fd5b6040810190811067ffffffffffffffff8211176116f757604052565b6080810190811067ffffffffffffffff8211176116f757604052565b90601f8019910116810190811067ffffffffffffffff8211176116f757604052565b604051906117748261170d565b6004825263199d5b9960e21b6020830152565b919082519283825260005b8481106117b3575050826000602080949584010152601f8019910116010190565b602081830181015184830182015201611792565b6004548110156117fe5760046000527f8a35acfbc15ff81a39ae7d344fd709f28e8600b4aa8c65c6b64bfe7fe36bd19b0190600090565b634e487b7160e01b600052603260045260246000fd5b6000546001600160a01b0316330361182857565b606460405162461bcd60e51b815260206004820152602060248201527f4f776e61626c653a2063616c6c6572206973206e6f7420746865206f776e65726044820152fd5b903590601e198136030182121561189f570180359067ffffffffffffffff821161189f5760200191813603831361189f57565b600080fd5b9081602091031261189f57516001600160a01b038116810361189f5790565b908060209392818452848401376000828201840152601f01601f1916010190565b356001600160a01b038116810361189f5790565b60405163095ea7b360e01b60208201526001600160a01b03909216602483015260006044808401919091528252611938919061193382611729565b611a78565b565b919091811580156119ec575b156119885760405163095ea7b360e01b60208201526001600160a01b039390931660248401526044808401929092529082526119389190611933606483611745565b60405162461bcd60e51b815260206004820152603660248201527f5361666545524332303a20617070726f76652066726f6d206e6f6e2d7a65726f60448201527520746f206e6f6e2d7a65726f20616c6c6f77616e636560501b6064820152608490fd5b50604051636eb1769f60e11b81523060048201526001600160a01b0384166024820152602081806044810103816001600160a01b0386165afa908115611a6c57600091611a3b575b5015611946565b906020823d8211611a64575b81611a5460209383611745565b810103126101d857505138611a34565b3d9150611a47565b6040513d6000823e3d90fd5b60018060a01b031690604051611a8d8161170d565b6020928382527f5361666545524332303a206c6f772d6c6576656c2063616c6c206661696c6564848301526000808486829651910182855af13d15611bb2573d9167ffffffffffffffff8311611b9e5790611b0893929160405192611afb88601f19601f8401160185611745565b83523d868885013e611bbc565b805191821591848315611b7a575b505050905015611b235750565b6084906040519062461bcd60e51b82526004820152602a60248201527f5361666545524332303a204552433230206f7065726174696f6e20646964206e6044820152691bdd081cdd58d8d9595960b21b6064820152fd5b919381809450010312610371578201519081151582036101d8575080388084611b16565b634e487b7160e01b85526041600452602485fd5b90611b0892916060915b91929015611c1e5750815115611bd0575090565b3b15611bd95790565b60405162461bcd60e51b815260206004820152601d60248201527f416464726573733a2063616c6c20746f206e6f6e2d636f6e74726163740000006044820152606490fd5b825190915015611c315750805190602001fd5b60405162461bcd60e51b815260206004820152908190611c55906024830190611787565b0390fdfea264697066735822122016118cd50c9240097acf5638ac30593dccd35222997e10c058141750fa45b58064736f6c63430008130033",
  "linkReferences": {},
  "deployedLinkReferences": {}
}