{
  "_format": "hh-sol-artifact-1",
  "contractName": "MineRig",
  "sourceName": "contracts/rigs/mine/MineRig.sol",
  "abi": [
    {
      "inputs": [
        {
          "internalType": "address",
          "name": "_unit",
          "type": "address"
        },
        {
          "internalType": "address",
          "name": "_quote",
          "type": "address"
        },
        {
          "internalType": "address",
          "name": "_core",
          "type": "address"
        },
        {
          "internalType": "address",
          "name": "_treasury",
          "type": "address"
        },
        {
          "internalType": "address",
          "name": "_team",
          "type": "address"
        },
        {
          "internalType": "address",
          "name": "_entropy",
          "type": "address"
        },
        {
          "components": [
            {
              "internalType": "uint256",
              "name": "epochPeriod",
              "type": "uint256"
            },
            {
              "internalType": "uint256",
              "name": "priceMultiplier",
              "type": "uint256"
            },
            {
              "internalType": "uint256",
              "name": "minInitPrice",
              "type": "uint256"
            },
            {
              "internalType": "uint256",
              "name": "initialUps",
              "type": "uint256"
            },
            {
              "internalType": "uint256",
              "name": "halvingAmount",
              "type": "uint256"
            },
            {
              "internalType": "uint256",
              "name": "tailUps",
              "type": "uint256"
            },
            {
              "internalType": "uint256[]",
              "name": "upsMultipliers",
              "type": "uint256[]"
            },
            {
              "internalType": "uint256",
              "name": "upsMultiplierDuration",
              "type": "uint256"
            }
          ],
          "internalType": "struct MineRig.Config",
          "name": "_config",
          "type": "tuple"
        }
      ],
      "stateMutability": "nonpayable",
      "type": "constructor"
    },
    {
      "inputs": [],
      "name": "MineRig__CapacityBelowCurrent",
      "type": "error"
    },
    {
      "inputs": [],
      "name": "MineRig__CapacityExceedsMax",
      "type": "error"
    },
    {
      "inputs": [],
      "name": "MineRig__DeadlinePassed",
      "type": "error"
    },
    {
      "inputs": [],
      "name": "MineRig__EpochIdMismatch",
      "type": "error"
    },
    {
      "inputs": [],
      "name": "MineRig__EpochPeriodOutOfRange",
      "type": "error"
    },
    {
      "inputs": [],
      "name": "MineRig__HalvingAmountOutOfRange",
      "type": "error"
    },
    {
      "inputs": [],
      "name": "MineRig__IndexOutOfBounds",
      "type": "error"
    },
    {
      "inputs": [],
      "name": "MineRig__InitialUpsOutOfRange",
      "type": "error"
    },
    {
      "inputs": [],
      "name": "MineRig__InsufficientFee",
      "type": "error"
    },
    {
      "inputs": [],
      "name": "MineRig__MaxPriceExceeded",
      "type": "error"
    },
    {
      "inputs": [],
      "name": "MineRig__MinInitPriceOutOfRange",
      "type": "error"
    },
    {
      "inputs": [],
      "name": "MineRig__NoEntropyRequired",
      "type": "error"
    },
    {
      "inputs": [],
      "name": "MineRig__NothingToClaim",
      "type": "error"
    },
    {
      "inputs": [],
      "name": "MineRig__PriceMultiplierOutOfRange",
      "type": "error"
    },
    {
      "inputs": [],
      "name": "MineRig__TailUpsOutOfRange",
      "type": "error"
    },
    {
      "inputs": [],
      "name": "MineRig__UpsMultiplierDurationOutOfRange",
      "type": "error"
    },
    {
      "inputs": [],
      "name": "MineRig__UpsMultiplierOutOfRange",
      "type": "error"
    },
    {
      "inputs": [],
      "name": "MineRig__UpsMultipliersEmpty",
      "type": "error"
    },
    {
      "inputs": [],
      "name": "MineRig__ZeroAddress",
      "type": "error"
    },
    {
      "inputs": [],
      "name": "MineRig__ZeroMiner",
      "type": "error"
    },
    {
      "anonymous": false,
      "inputs": [
        {
          "indexed": false,
          "internalType": "uint256",
          "name": "capacity",
          "type": "uint256"
        }
      ],
      "name": "MineRig__CapacitySet",
      "type": "event"
    },
    {
      "anonymous": false,
      "inputs": [
        {
          "indexed": true,
          "internalType": "address",
          "name": "account",
          "type": "address"
        },
        {
          "indexed": false,
          "internalType": "uint256",
          "name": "amount",
          "type": "uint256"
        }
      ],
      "name": "MineRig__Claimed",
      "type": "event"
    },
    {
      "anonymous": false,
      "inputs": [
        {
          "indexed": false,
          "internalType": "bool",
          "name": "enabled",
          "type": "bool"
        }
      ],
      "name": "MineRig__EntropyEnabledSet",
      "type": "event"
    },
    {
      "anonymous": false,
      "inputs": [
        {
          "indexed": true,
          "internalType": "uint256",
          "name": "index",
          "type": "uint256"
        },
        {
          "indexed": true,
          "internalType": "uint256",
          "name": "epochId",
          "type": "uint256"
        }
      ],
      "name": "MineRig__EntropyIgnored",
      "type": "event"
    },
    {
      "anonymous": false,
      "inputs": [
        {
          "indexed": true,
          "internalType": "uint256",
          "name": "index",
          "type": "uint256"
        },
        {
          "indexed": true,
          "internalType": "uint256",
          "name": "epochId",
          "type": "uint256"
        },
        {
          "indexed": true,
          "internalType": "uint64",
          "name": "sequenceNumber",
          "type": "uint64"
        }
      ],
      "name": "MineRig__EntropyRequested",
      "type": "event"
    },
    {
      "anonymous": false,
      "inputs": [
        {
          "indexed": false,
          "internalType": "address",
          "name": "sender",
          "type": "address"
        },
        {
          "indexed": true,
          "internalType": "address",
          "name": "miner",
          "type": "address"
        },
        {
          "indexed": true,
          "internalType": "uint256",
          "name": "index",
          "type": "uint256"
        },
        {
          "indexed": true,
          "internalType": "uint256",
          "name": "epochId",
          "type": "uint256"
        },
        {
          "indexed": false,
          "internalType": "uint256",
          "name": "price",
          "type": "uint256"
        },
        {
          "indexed": false,
          "internalType": "string",
          "name": "uri",
          "type": "string"
        }
      ],
      "name": "MineRig__Mine",
      "type": "event"
    },
    {
      "anonymous": false,
      "inputs": [
        {
          "indexed": true,
          "internalType": "address",
          "name": "miner",
          "type": "address"
        },
        {
          "indexed": true,
          "internalType": "uint256",
          "name": "index",
          "type": "uint256"
        },
        {
          "indexed": true,
          "internalType": "uint256",
          "name": "epochId",
          "type": "uint256"
        },
        {
          "indexed": false,
          "internalType": "uint256",
          "name": "amount",
          "type": "uint256"
        }
      ],
      "name": "MineRig__MinerFee",
      "type": "event"
    },
    {
      "anonymous": false,
      "inputs": [
        {
          "indexed": true,
          "internalType": "address",
          "name": "miner",
          "type": "address"
        },
        {
          "indexed": true,
          "internalType": "uint256",
          "name": "index",
          "type": "uint256"
        },
        {
          "indexed": true,
          "internalType": "uint256",
          "name": "epochId",
          "type": "uint256"
        },
        {
          "indexed": false,
          "internalType": "uint256",
          "name": "amount",
          "type": "uint256"
        }
      ],
      "name": "MineRig__Mint",
      "type": "event"
    },
    {
      "anonymous": false,
      "inputs": [
        {
          "indexed": true,
          "internalType": "address",
          "name": "protocol",
          "type": "address"
        },
        {
          "indexed": true,
          "internalType": "uint256",
          "name": "index",
          "type": "uint256"
        },
        {
          "indexed": true,
          "internalType": "uint256",
          "name": "epochId",
          "type": "uint256"
        },
        {
          "indexed": false,
          "internalType": "uint256",
          "name": "amount",
          "type": "uint256"
        }
      ],
      "name": "MineRig__ProtocolFee",
      "type": "event"
    },
    {
      "anonymous": false,
      "inputs": [
        {
          "indexed": true,
          "internalType": "address",
          "name": "team",
          "type": "address"
        },
        {
          "indexed": true,
          "internalType": "uint256",
          "name": "index",
          "type": "uint256"
        },
        {
          "indexed": true,
          "internalType": "uint256",
          "name": "epochId",
          "type": "uint256"
        },
        {
          "indexed": false,
          "internalType": "uint256",
          "name": "amount",
          "type": "uint256"
        }
      ],
      "name": "MineRig__TeamFee",
      "type": "event"
    },
    {
      "anonymous": false,
      "inputs": [
        {
          "indexed": true,
          "internalType": "address",
          "name": "team",
          "type": "address"
        }
      ],
      "name": "MineRig__TeamSet",
      "type": "event"
    },
    {
      "anonymous": false,
      "inputs": [
        {
          "indexed": true,
          "internalType": "address",
          "name": "treasury",
          "type": "address"
        },
        {
          "indexed": true,
          "internalType": "uint256",
          "name": "index",
          "type": "uint256"
        },
        {
          "indexed": true,
          "internalType": "uint256",
          "name": "epochId",
          "type": "uint256"
        },
        {
          "indexed": false,
          "internalType": "uint256",
          "name": "amount",
          "type": "uint256"
        }
      ],
      "name": "MineRig__TreasuryFee",
      "type": "event"
    },
    {
      "anonymous": false,
      "inputs": [
        {
          "indexed": true,
          "internalType": "address",
          "name": "treasury",
          "type": "address"
        }
      ],
      "name": "MineRig__TreasurySet",
      "type": "event"
    },
    {
      "anonymous": false,
      "inputs": [
        {
          "indexed": true,
          "internalType": "uint256",
          "name": "index",
          "type": "uint256"
        },
        {
          "indexed": true,
          "internalType": "uint256",
          "name": "epochId",
          "type": "uint256"
        },
        {
          "indexed": false,
          "internalType": "uint256",
          "name": "upsMultiplier",
          "type": "uint256"
        }
      ],
      "name": "MineRig__UpsMultiplierSet",
      "type": "event"
    },
    {
      "anonymous": false,
      "inputs": [
        {
          "indexed": false,
          "internalType": "string",
          "name": "uri",
          "type": "string"
        }
      ],
      "name": "MineRig__UriSet",
      "type": "event"
    },
    {
      "anonymous": false,
      "inputs": [
        {
          "indexed": true,
          "internalType": "address",
          "name": "previousOwner",
          "type": "address"
        },
        {
          "indexed": true,
          "internalType": "address",
          "name": "newOwner",
          "type": "address"
        }
      ],
      "name": "OwnershipTransferred",
      "type": "event"
    },
    {
      "inputs": [],
      "name": "ABS_MAX_INIT_PRICE",
      "outputs": [
        {
          "internalType": "uint256",
          "name": "",
          "type": "uint256"
        }
      ],
      "stateMutability": "view",
      "type": "function"
    },
    {
      "inputs": [],
      "name": "ABS_MIN_INIT_PRICE",
      "outputs": [
        {
          "internalType": "uint256",
          "name": "",
          "type": "uint256"
        }
      ],
      "stateMutability": "view",
      "type": "function"
    },
    {
      "inputs": [],
      "name": "DEFAULT_UPS_MULTIPLIER",
      "outputs": [
        {
          "internalType": "uint256",
          "name": "",
          "type": "uint256"
        }
      ],
      "stateMutability": "view",
      "type": "function"
    },
    {
      "inputs": [],
      "name": "DIVISOR",
      "outputs": [
        {
          "internalType": "uint256",
          "name": "",
          "type": "uint256"
        }
      ],
      "stateMutability": "view",
      "type": "function"
    },
    {
      "inputs": [],
      "name": "MAX_CAPACITY",
      "outputs": [
        {
          "internalType": "uint256",
          "name": "",
          "type": "uint256"
        }
      ],
      "stateMutability": "view",
      "type": "function"
    },
    {
      "inputs": [],
      "name": "MAX_EPOCH_PERIOD",
      "outputs": [
        {
          "internalType": "uint256",
          "name": "",
          "type": "uint256"
        }
      ],
      "stateMutability": "view",
      "type": "function"
    },
    {
      "inputs": [],
      "name": "MAX_INITIAL_UPS",
      "outputs": [
        {
          "internalType": "uint256",
          "name": "",
          "type": "uint256"
        }
      ],
      "stateMutability": "view",
      "type": "function"
    },
    {
      "inputs": [],
      "name": "MAX_PRICE_MULTIPLIER",
      "outputs": [
        {
          "internalType": "uint256",
          "name": "",
          "type": "uint256"
        }
      ],
      "stateMutability": "view",
      "type": "function"
    },
    {
      "inputs": [],
      "name": "MAX_UPS_MULTIPLIER",
      "outputs": [
        {
          "internalType": "uint256",
          "name": "",
          "type": "uint256"
        }
      ],
      "stateMutability": "view",
      "type": "function"
    },
    {
      "inputs": [],
      "name": "MAX_UPS_MULTIPLIER_DURATION",
      "outputs": [
        {
          "internalType": "uint256",
          "name": "",
          "type": "uint256"
        }
      ],
      "stateMutability": "view",
      "type": "function"
    },
    {
      "inputs": [],
      "name": "MIN_EPOCH_PERIOD",
      "outputs": [
        {
          "internalType": "uint256",
          "name": "",
          "type": "uint256"
        }
      ],
      "stateMutability": "view",
      "type": "function"
    },
    {
      "inputs": [],
      "name": "MIN_HALVING_AMOUNT",
      "outputs": [
        {
          "internalType": "uint256",
          "name": "",
          "type": "uint256"
        }
      ],
      "stateMutability": "view",
      "type": "function"
    },
    {
      "inputs": [],
      "name": "MIN_PRICE_MULTIPLIER",
      "outputs": [
        {
          "internalType": "uint256",
          "name": "",
          "type": "uint256"
        }
      ],
      "stateMutability": "view",
      "type": "function"
    },
    {
      "inputs": [],
      "name": "MIN_UPS_MULTIPLIER",
      "outputs": [
        {
          "internalType": "uint256",
          "name": "",
          "type": "uint256"
        }
      ],
      "stateMutability": "view",
      "type": "function"
    },
    {
      "inputs": [],
      "name": "MIN_UPS_MULTIPLIER_DURATION",
      "outputs": [
        {
          "internalType": "uint256",
          "name": "",
          "type": "uint256"
        }
      ],
      "stateMutability": "view",
      "type": "function"
    },
    {
      "inputs": [],
      "name": "PRECISION",
      "outputs": [
        {
          "internalType": "uint256",
          "name": "",
          "type": "uint256"
        }
      ],
      "stateMutability": "view",
      "type": "function"
    },
    {
      "inputs": [],
      "name": "PROTOCOL_BPS",
      "outputs": [
        {
          "internalType": "uint256",
          "name": "",
          "type": "uint256"
        }
      ],
      "stateMutability": "view",
      "type": "function"
    },
    {
      "inputs": [],
      "name": "TEAM_BPS",
      "outputs": [
        {
          "internalType": "uint256",
          "name": "",
          "type": "uint256"
        }
      ],
      "stateMutability": "view",
      "type": "function"
    },
    {
      "inputs": [],
      "name": "TOTAL_BPS",
      "outputs": [
        {
          "internalType": "uint256",
          "name": "",
          "type": "uint256"
        }
      ],
      "stateMutability": "view",
      "type": "function"
    },
    {
      "inputs": [
        {
          "internalType": "uint64",
          "name": "sequence",
          "type": "uint64"
        },
        {
          "internalType": "address",
          "name": "provider",
          "type": "address"
        },
        {
          "internalType": "bytes32",
          "name": "randomNumber",
          "type": "bytes32"
        }
      ],
      "name": "_entropyCallback",
      "outputs": [],
      "stateMutability": "nonpayable",
      "type": "function"
    },
    {
      "inputs": [
        {
          "internalType": "address",
          "name": "",
          "type": "address"
        }
      ],
      "name": "accountToClaimable",
      "outputs": [
        {
          "internalType": "uint256",
          "name": "",
          "type": "uint256"
        }
      ],
      "stateMutability": "view",
      "type": "function"
    },
    {
      "inputs": [],
      "name": "capacity",
      "outputs": [
        {
          "internalType": "uint256",
          "name": "",
          "type": "uint256"
        }
      ],
      "stateMutability": "view",
      "type": "function"
    },
    {
      "inputs": [
        {
          "internalType": "address",
          "name": "account",
          "type": "address"
        }
      ],
      "name": "claim",
      "outputs": [],
      "stateMutability": "nonpayable",
      "type": "function"
    },
    {
      "inputs": [],
      "name": "core",
      "outputs": [
        {
          "internalType": "address",
          "name": "",
          "type": "address"
        }
      ],
      "stateMutability": "view",
      "type": "function"
    },
    {
      "inputs": [],
      "name": "entropy",
      "outputs": [
        {
          "internalType": "address",
          "name": "",
          "type": "address"
        }
      ],
      "stateMutability": "view",
      "type": "function"
    },
    {
      "inputs": [],
      "name": "entropyEnabled",
      "outputs": [
        {
          "internalType": "bool",
          "name": "",
          "type": "bool"
        }
      ],
      "stateMutability": "view",
      "type": "function"
    },
    {
      "inputs": [],
      "name": "epochPeriod",
      "outputs": [
        {
          "internalType": "uint256",
          "name": "",
          "type": "uint256"
        }
      ],
      "stateMutability": "view",
      "type": "function"
    },
    {
      "inputs": [],
      "name": "getEntropyFee",
      "outputs": [
        {
          "internalType": "uint256",
          "name": "",
          "type": "uint256"
        }
      ],
      "stateMutability": "view",
      "type": "function"
    },
    {
      "inputs": [
        {
          "internalType": "uint256",
          "name": "index",
          "type": "uint256"
        }
      ],
      "name": "getPrice",
      "outputs": [
        {
          "internalType": "uint256",
          "name": "",
          "type": "uint256"
        }
      ],
      "stateMutability": "view",
      "type": "function"
    },
    {
      "inputs": [
        {
          "internalType": "uint256",
          "name": "index",
          "type": "uint256"
        }
      ],
      "name": "getSlot",
      "outputs": [
        {
          "components": [
            {
              "internalType": "uint256",
              "name": "epochId",
              "type": "uint256"
            },
            {
              "internalType": "uint256",
              "name": "initPrice",
              "type": "uint256"
            },
            {
              "internalType": "uint256",
              "name": "startTime",
              "type": "uint256"
            },
            {
              "internalType": "uint256",
              "name": "ups",
              "type": "uint256"
            },
            {
              "internalType": "uint256",
              "name": "upsMultiplier",
              "type": "uint256"
            },
            {
              "internalType": "uint256",
              "name": "lastUpsMultiplierTime",
              "type": "uint256"
            },
            {
              "internalType": "address",
              "name": "miner",
              "type": "address"
            },
            {
              "internalType": "string",
              "name": "uri",
              "type": "string"
            }
          ],
          "internalType": "struct MineRig.Slot",
          "name": "",
          "type": "tuple"
        }
      ],
      "stateMutability": "view",
      "type": "function"
    },
    {
      "inputs": [],
      "name": "getUps",
      "outputs": [
        {
          "internalType": "uint256",
          "name": "",
          "type": "uint256"
        }
      ],
      "stateMutability": "view",
      "type": "function"
    },
    {
      "inputs": [],
      "name": "getUpsMultipliers",
      "outputs": [
        {
          "internalType": "uint256[]",
          "name": "",
          "type": "uint256[]"
        }
      ],
      "stateMutability": "view",
      "type": "function"
    },
    {
      "inputs": [],
      "name": "getUpsMultipliersLength",
      "outputs": [
        {
          "internalType": "uint256",
          "name": "",
          "type": "uint256"
        }
      ],
      "stateMutability": "view",
      "type": "function"
    },
    {
      "inputs": [],
      "name": "halvingAmount",
      "outputs": [
        {
          "internalType": "uint256",
          "name": "",
          "type": "uint256"
        }
      ],
      "stateMutability": "view",
      "type": "function"
    },
    {
      "inputs": [
        {
          "internalType": "uint256",
          "name": "",
          "type": "uint256"
        }
      ],
      "name": "indexToSlot",
      "outputs": [
        {
          "internalType": "uint256",
          "name": "epochId",
          "type": "uint256"
        },
        {
          "internalType": "uint256",
          "name": "initPrice",
          "type": "uint256"
        },
        {
          "internalType": "uint256",
          "name": "startTime",
          "type": "uint256"
        },
        {
          "internalType": "uint256",
          "name": "ups",
          "type": "uint256"
        },
        {
          "internalType": "uint256",
          "name": "upsMultiplier",
          "type": "uint256"
        },
        {
          "internalType": "uint256",
          "name": "lastUpsMultiplierTime",
          "type": "uint256"
        },
        {
          "internalType": "address",
          "name": "miner",
          "type": "address"
        },
        {
          "internalType": "string",
          "name": "uri",
          "type": "string"
        }
      ],
      "stateMutability": "view",
      "type": "function"
    },
    {
      "inputs": [],
      "name": "initialUps",
      "outputs": [
        {
          "internalType": "uint256",
          "name": "",
          "type": "uint256"
        }
      ],
      "stateMutability": "view",
      "type": "function"
    },
    {
      "inputs": [],
      "name": "minInitPrice",
      "outputs": [
        {
          "internalType": "uint256",
          "name": "",
          "type": "uint256"
        }
      ],
      "stateMutability": "view",
      "type": "function"
    },
    {
      "inputs": [
        {
          "internalType": "address",
          "name": "miner",
          "type": "address"
        },
        {
          "internalType": "uint256",
          "name": "index",
          "type": "uint256"
        },
        {
          "internalType": "uint256",
          "name": "epochId",
          "type": "uint256"
        },
        {
          "internalType": "uint256",
          "name": "deadline",
          "type": "uint256"
        },
        {
          "internalType": "uint256",
          "name": "maxPrice",
          "type": "uint256"
        },
        {
          "internalType": "string",
          "name": "_uri",
          "type": "string"
        }
      ],
      "name": "mine",
      "outputs": [
        {
          "internalType": "uint256",
          "name": "price",
          "type": "uint256"
        }
      ],
      "stateMutability": "payable",
      "type": "function"
    },
    {
      "inputs": [],
      "name": "owner",
      "outputs": [
        {
          "internalType": "address",
          "name": "",
          "type": "address"
        }
      ],
      "stateMutability": "view",
      "type": "function"
    },
    {
      "inputs": [],
      "name": "priceMultiplier",
      "outputs": [
        {
          "internalType": "uint256",
          "name": "",
          "type": "uint256"
        }
      ],
      "stateMutability": "view",
      "type": "function"
    },
    {
      "inputs": [],
      "name": "quote",
      "outputs": [
        {
          "internalType": "address",
          "name": "",
          "type": "address"
        }
      ],
      "stateMutability": "view",
      "type": "function"
    },
    {
      "inputs": [],
      "name": "renounceOwnership",
      "outputs": [],
      "stateMutability": "nonpayable",
      "type": "function"
    },
    {
      "inputs": [
        {
          "internalType": "uint64",
          "name": "",
          "type": "uint64"
        }
      ],
      "name": "sequenceToEpoch",
      "outputs": [
        {
          "internalType": "uint256",
          "name": "",
          "type": "uint256"
        }
      ],
      "stateMutability": "view",
      "type": "function"
    },
    {
      "inputs": [
        {
          "internalType": "uint64",
          "name": "",
          "type": "uint64"
        }
      ],
      "name": "sequenceToIndex",
      "outputs": [
        {
          "internalType": "uint256",
          "name": "",
          "type": "uint256"
        }
      ],
      "stateMutability": "view",
      "type": "function"
    },
    {
      "inputs": [
        {
          "internalType": "uint256",
          "name": "_capacity",
          "type": "uint256"
        }
      ],
      "name": "setCapacity",
      "outputs": [],
      "stateMutability": "nonpayable",
      "type": "function"
    },
    {
      "inputs": [
        {
          "internalType": "bool",
          "name": "_enabled",
          "type": "bool"
        }
      ],
      "name": "setEntropyEnabled",
      "outputs": [],
      "stateMutability": "nonpayable",
      "type": "function"
    },
    {
      "inputs": [
        {
          "internalType": "address",
          "name": "_team",
          "type": "address"
        }
      ],
      "name": "setTeam",
      "outputs": [],
      "stateMutability": "nonpayable",
      "type": "function"
    },
    {
      "inputs": [
        {
          "internalType": "address",
          "name": "_treasury",
          "type": "address"
        }
      ],
      "name": "setTreasury",
      "outputs": [],
      "stateMutability": "nonpayable",
      "type": "function"
    },
    {
      "inputs": [
        {
          "internalType": "string",
          "name": "_uri",
          "type": "string"
        }
      ],
      "name": "setUri",
      "outputs": [],
      "stateMutability": "nonpayable",
      "type": "function"
    },
    {
      "inputs": [],
      "name": "startTime",
      "outputs": [
        {
          "internalType": "uint256",
          "name": "",
          "type": "uint256"
        }
      ],
      "stateMutability": "view",
      "type": "function"
    },
    {
      "inputs": [],
      "name": "tailUps",
      "outputs": [
        {
          "internalType": "uint256",
          "name": "",
          "type": "uint256"
        }
      ],
      "stateMutability": "view",
      "type": "function"
    },
    {
      "inputs": [],
      "name": "team",
      "outputs": [
        {
          "internalType": "address",
          "name": "",
          "type": "address"
        }
      ],
      "stateMutability": "view",
      "type": "function"
    },
    {
      "inputs": [],
      "name": "totalMinted",
      "outputs": [
        {
          "internalType": "uint256",
          "name": "",
          "type": "uint256"
        }
      ],
      "stateMutability": "view",
      "type": "function"
    },
    {
      "inputs": [
        {
          "internalType": "address",
          "name": "newOwner",
          "type": "address"
        }
      ],
      "name": "transferOwnership",
      "outputs": [],
      "stateMutability": "nonpayable",
      "type": "function"
    },
    {
      "inputs": [],
      "name": "treasury",
      "outputs": [
        {
          "internalType": "address",
          "name": "",
          "type": "address"
        }
      ],
      "stateMutability": "view",
      "type": "function"
    },
    {
      "inputs": [],
      "name": "unit",
      "outputs": [
        {
          "internalType": "address",
          "name": "",
          "type": "address"
        }
      ],
      "stateMutability": "view",
      "type": "function"
    },
    {
      "inputs": [],
      "name": "upsMultiplierDuration",
      "outputs": [
        {
          "internalType": "uint256",
          "name": "",
          "type": "uint256"
        }
      ],
      "stateMutability": "view",
      "type": "function"
    },
    {
      "inputs": [
        {
          "internalType": "uint256",
          "name": "",
          "type": "uint256"
        }
      ],
      "name": "upsMultipliers",
      "outputs": [
        {
          "internalType": "uint256",
          "name": "",
          "type": "uint256"
        }
      ],
      "stateMutability": "view",
      "type": "function"
    },
    {
      "inputs": [],
      "name": "uri",
      "outputs": [
        {
          "internalType": "string",
          "name": "",
          "type": "string"
        }
      ],
      "stateMutability": "view",
      "type": "function"
    }
  ],
  "bytecode": "0x6102006040523462000a08576200350d803803806200001e8162000a2e565b92833960e082828101031262000a0857620000398262000a54565b620000476020840162000a54565b92620000566040820162000a54565b90620000656060820162000a54565b90620000746080820162000a54565b926200008360a0830162000a54565b60c083015190926001600160401b03821162000a0857610100828201898301031262000a0857620000b362000a0d565b818301805182526020808201519083015260408082015190830152606080820151908301526080808201519083015260a0808201519083015260c001519098906001600160401b03811162000a0857818301601f828686010101121562000a0857828401810151916001600160401b038311620008a9578260051b60206200013d81830162000a2e565b8095815201918501602082858989010101011162000a08576020838787010101915b602082858989010101018310620009f7575050505060c089015260e0910181015190870152600160008181558154336001600160a01b03198216811790935560405192916001600160a01b03909116907f8be0079c531659141344cd1fd0a4f28419497f9722a3daafe3b4186f6b6457e09080a3600160048190556006805460ff191690911790556001600160a01b03861615620009e857506001600160a01b03871615620009d6576001600160a01b03811615620009d6576001600160a01b03831615620009d6576001600160a01b03821615620009d65785516102588110908115620009c7575b50620009b5576020860151670f43fc2c04ee00008110908115620009a2575b5062000990576040860151620f424081109081156200097e575b506200096c576060860151156200095a5769d3c21bcecceda10000006060870151116200095a5760a086015180159081156200094b575b5062000939576080860151156200092757683635c9adc5dea00000608087015110620009275760e0860151610e10811090811562000919575b50620009075760c08601515115620008f55760005b60c0870151805182101562000376576200032a82670de0b6b3a76400009262000a69565b5110801562000354575b620003425760010162000306565b604051639253789d60e01b8152600490fd5b50678ac7230489e800006200036e8260c08a015162000a69565b511162000334565b5050608094855260a087815260e091825260c09283524261010052865161012052602087015161014052604087015161016052606087015161018052948601516101a052938501516101c052928401516101e052600280546001600160a01b03199081166001600160a01b03938416179091556003805490911691831691909117905590820151805183916001600160401b038211620008a957680100000000000000008211620008a95760209060075483600755808410620008d4575b50016007600052602060002060005b838110620008bf578585606060408201519101516200046162000a0d565b916001835260208301524260408301526060820152670de0b6b3a764000060808201524260a082015260018060a01b03821660c082015260405180602081011060018060401b03602083011117620008a95760208181016040908152600080845260e0850193845280526009825283517fec8156718a8372b1db44bb411437d0870f3e3790d4a08526d024ce1b0b668f6b908155918401517fec8156718a8372b1db44bb411437d0870f3e3790d4a08526d024ce1b0b668f6c558301517fec8156718a8372b1db44bb411437d0870f3e3790d4a08526d024ce1b0b668f6d5560608301517fec8156718a8372b1db44bb411437d0870f3e3790d4a08526d024ce1b0b668f6e5560808301517fec8156718a8372b1db44bb411437d0870f3e3790d4a08526d024ce1b0b668f6f5560a08301517fec8156718a8372b1db44bb411437d0870f3e3790d4a08526d024ce1b0b668f705560c0909201517fec8156718a8372b1db44bb411437d0870f3e3790d4a08526d024ce1b0b668f7180546001600160a01b0319166001600160a01b0392909216919091179055518051906001600160401b038211620008a9576007830154600181811c911680156200089e575b60208210146200088857601f811162000843575b50602090601f8311600114620007c95782600095938695936007938792620007bd575b50508160011b9186199060031b1c1916179101555b604080516001600160a01b03909216808352602083018490526060918301829052908201839052907f94874eb2bf14528a95e5c6208687c5fca7f169fe2341dc382044db518a65079490608090a4604051612a5f908162000aae8239608051818181610be601526112ab015260a051818181610b1d0152818161141f015281816115a801528181611639015281816116ac0152611ee0015260c051818181610fec01528181611b3801528181611c5b0152611d93015260e0518181816103a60152611473015261010051816119c801526101205181818161082a01526129030152610140518181816107060152610d8201526101605181818161139f0152611cdb01526101805181818161086401526129cd01526101a051818181611f3c015261295b01526101c051818181611ca101526129f001526101e051818181610e8801528181611186015261198e0152f35b01519050878062000658565b906007840160005260206000209160005b601f19851681106200082a5750836000969493600793600193899896601f1981161062000811575b505050811b019101556200066d565b0151871960f88460031b161c1916905587808062000802565b91926020600181928685015181550194019201620007da565b6200087690600785016000526020600020601f850160051c810191602086106200087d575b601f0160051c019062000a94565b8462000635565b909150819062000868565b634e487b7160e01b600052602260045260246000fd5b90607f169062000621565b634e487b7160e01b600052604160045260246000fd5b60019060208451940193818401550162000443565b620008ee9060076000528484600020918201910162000a94565b8562000434565b60405163f845523b60e01b8152600490fd5b604051633575414360e01b8152600490fd5b62093a8091501138620002f1565b6040516359def2e360e01b8152600490fd5b60405163cd85413b60e01b8152600490fd5b905060608701511038620002b8565b60405163039392af60e11b8152600490fd5b60405163f7ef89f360e01b8152600490fd5b6001600160c01b031090503862000281565b6040516350e7ef8560e01b8152600490fd5b6729a2241af62c00009150113862000267565b60405163aba612cb60e01b8152600490fd5b6301e133809150113862000248565b604051630349d87560e61b8152600490fd5b630349d87560e61b8152600490fd5b82518152602092830192016200015f565b600080fd5b6040519061010082016001600160401b03811183821017620008a957604052565b6040519190601f01601f191682016001600160401b03811183821017620008a957604052565b51906001600160a01b038216820362000a0857565b805182101562000a7e5760209160051b010190565b634e487b7160e01b600052603260045260246000fd5b81811062000aa0575050565b6000815560010162000a9456fe6080604052600436101561001257600080fd5b6000803560e01c908163095cf5c614611fc25781630963054e14611f5f5781631b2cd65e14611f255781631e83409a14611e615781632693b82314611e2957816326a6fd7814611e075781632d971e6314611d6e5781633410fe6e14611d52578163354eacbf14611d1a5781633a5ddf3014611cfe5781633c92276e14611cc457816342b14a7914611c8a57816347ce07cc14611c465781634aebdf2314611c2c5781634df199e014611c0a57816352a5f1f814611b0a5781635889486e14611ae85781635a327ad7146102a85781635cfc1a5114611acb57816361d027b314611aa3578163636c0c5e14611a86578163675b588f14611a69578163715018a614611a0d578163750d48b8146119eb57816378e97925146119b15781637d581b23146119775781637eba7ba61461186057816385f2aef214611838578163875d704b14610c7d57816388f4b49e14610c5b5781638da5cb5b14610c335781638fc59c5214610c15578163907af6c014610bd157816391915ef814610b4c578163999b93af14610b085781639b642de11461091a5781639d429b3f146108e3578163a2309ff8146108c6578163a40a4179146108a3578163a734894514610887578163aaf5eb68146102a8578163abf0caa41461084d578163b5b7a18414610813578163c1e7af35146107f8578163cd809adc14610745578163d3cd52bc14610729578163d50cb88b146106ef578163d5861d91146106d3578163d922336314610642578163d927c8791461061e578163e44d78d0146105e7578163e757223014610552578163eac989f81461046d578163efd3315614610450578163f0f44260146103d5578163f2f4eb2614610391578163f2fde38b146102cc578163f6cb1a49146102ad575063fec3c42a146102a857600080fd5b6120a7565b346102c957806003193601126102c95760206040516102588152f35b80fd5b346102c95760203660031901126102c9576102e5612029565b6102ed61226a565b6001600160a01b0390811690811561033d57600154826001600160601b0360a01b821617600155167f8be0079c531659141344cd1fd0a4f28419497f9722a3daafe3b4186f6b6457e0600080a380f35b60405162461bcd60e51b815260206004820152602660248201527f4f776e61626c653a206e6577206f776e657220697320746865207a65726f206160448201526564647265737360d01b6064820152608490fd5b346102c957806003193601126102c9576040517f00000000000000000000000000000000000000000000000000000000000000006001600160a01b03168152602090f35b346102c95760203660031901126102c9576103ee612029565b6103f661226a565b6001600160a01b0316801561043e57600280546001600160a01b031916821790557f535aa6f78bf17649b8bd9e38e7f335eb0b9c69dccc753936ed5208d0f7a1b2008280a280f35b604051630349d87560e61b8152600490fd5b346102c957806003193601126102c9576020604051620f42408152f35b346102c957806003193601126102c957604051600060085461048e81612137565b8084529060019081811690811561052b57506001146104d0575b6104cc846104b8818603826121a3565b6040519182916020835260208301906120ca565b0390f35b6008600090815292507ff3f7a9fe364faab93b216da50a3214154f22a0a2b415b23a84c8169e8b636ee35b8284106105135750505081016020016104b8826104a8565b805460208587018101919091529093019281016104fb565b60ff191660208087019190915292151560051b850190920192506104b891508390506104a8565b346102c95760203660031901126102c9576105df6040602092600435815260098452206105d560076040519261058784612171565b80548452600181015486850152600281015460408501526003810154606085015260048101546080850152600581015460a085015260068101546001600160a01b031660c0850152016121c4565b60e08201526128f3565b604051908152f35b346102c95760203660031901126102c95760406020916001600160401b0361060d612091565b168152600b83522054604051908152f35b346102c957806003193601126102c957602060405169d3c21bcecceda10000008152f35b346102c95760203660031901126102c957604090600435815260096020522080546104cc6001830154926002810154906003810154600482015460058301549161069b600760018060a01b0360068701541695016121c4565b946040519889988952602089015260408801526060870152608086015260a085015260c08401526101008060e08501528301906120ca565b346102c957806003193601126102c95760206040516101908152f35b346102c957806003193601126102c95760206040517f00000000000000000000000000000000000000000000000000000000000000008152f35b346102c957806003193601126102c95760206040516107d08152f35b346102c957806003193601126102c95760405180916007549081835260208093018092600783527fa66cc928b5edb82af9bd49922954155ab7b0942694bea4ce44661d9a8736c68890835b8181106107e457505050846107a69103856121a3565b60405193838594850191818652518092526040850193925b8281106107cd57505050500390f35b8351855286955093810193928101926001016107be565b825484529286019260019283019201610790565b346102c957806003193601126102c957602060405160648152f35b346102c957806003193601126102c95760206040517f00000000000000000000000000000000000000000000000000000000000000008152f35b346102c957806003193601126102c95760206040517f00000000000000000000000000000000000000000000000000000000000000008152f35b346102c957806003193601126102c9576020604051610e108152f35b346102c957806003193601126102c9576020604051683635c9adc5dea000008152f35b346102c957806003193601126102c9576020600554604051908152f35b346102c95760203660031901126102c95760406020916001600160401b03610909612091565b168152600a83522054604051908152f35b346102c957602090816003193601126102c9576001600160401b0391600435838111610b045761094e90369060040161210a565b91909361095961226a565b8211610af05761096a600854612137565b601f8111610a8c575b508293601f83116001146109e7576109d6908385967fecef73475ef665a2a5fbf2017000371a02e3d6b4c40655e6c381c1b7e04a442896916109dc575b508460011b906000198660031b1c1916176008555b604051938385948552840191612394565b0390a180f35b9050810135876109b0565b600884527ff3f7a9fe364faab93b216da50a3214154f22a0a2b415b23a84c8169e8b636ee3601f198416855b818110610a755750907fecef73475ef665a2a5fbf2017000371a02e3d6b4c40655e6c381c1b7e04a44289596856109d6949310610a5b575b5050600184811b016008556109c5565b820135600019600387901b60f8161c191690558680610a4b565b838801358355968401966001909201918401610a13565b60086000527ff3f7a9fe364faab93b216da50a3214154f22a0a2b415b23a84c8169e8b636ee3601f840160051c810191838510610ae6575b601f0160051c01905b818110610ada5750610973565b60008155600101610acd565b9091508190610ac4565b634e487b7160e01b83526041600452602483fd5b8280fd5b346102c957806003193601126102c9576040517f00000000000000000000000000000000000000000000000000000000000000006001600160a01b03168152602090f35b346102c95760203660031901126102c957600435610b6861226a565b600454811115610bbf576101008111610bad576020817fe71c298396820a2c5ceb679a39b7f754375acb8af8502ce8c83d5c0a190dd09192600455604051908152a180f35b604051630959213360e11b8152600490fd5b6040516369f062a160e01b8152600490fd5b346102c957806003193601126102c9576040517f00000000000000000000000000000000000000000000000000000000000000006001600160a01b03168152602090f35b346102c957806003193601126102c95760206040516301e133808152f35b346102c957806003193601126102c9576001546040516001600160a01b039091168152602090f35b346102c957806003193601126102c9576040516001600160c01b038152602090f35b60c03660031901126102c957610c91612029565b60a4356001600160401b038111610b0457610cb090369060040161210a565b610cb86123d4565b6001600160a01b0383161561182657606435421161181457600454602435101561180357602435845260096020526040842091610d4c600760405194610cfd86612171565b8054865260018101546020870152600281015460408701526003810154606087015260048101546080870152600581015460a087015260068101546001600160a01b031660c0870152016121c4565b60e08401528251604435036117f157610d64836128f3565b9360843585116117df57846113d4575b670de0b6b3a7640000610da77f0000000000000000000000000000000000000000000000000000000000000000876122e5565b6001600160c01b039190048181111561139b57505b670de0b6b3a7640000610def610de4610dd96040890151426122c2565b6060890151906122e5565b6080880151906122e5565b60c0870151919004906001600160a01b031661128d575b508451600101855260208501524260408501526001600160a01b03811660c0850152610e3c610e33612956565b600454906122f8565b6060850152610e4a83612325565b610e5760405191826121a3565b83815236848401116112895783836020830137866020858301015260e0850152610e8560a0850151426122c2565b927f00000000000000000000000000000000000000000000000000000000000000008411611238575b6024358752600960205260408720855181556020860151600182015560408601516002820155606086015160038201556080860151600482015560a086015160058201556006810160018060a01b0360c0880151166001600160601b0360a01b82541617905560e08601518051906001600160401b03821161122457610f4482610f3b6007860154612137565b60078601612340565b602090601f83116001146111b757600792918b91836111ac575b50508160011b916000199060031b1c1916179101555b7f94874eb2bf14528a95e5c6208687c5fca7f169fe2341dc382044db518a6507946040513381528760208201526060604082015280610fc7604435966024359660018060a01b0316956060840191612394565b0390a460ff600654169081611182575b5015611160576040516341025b3d60e11b81527f00000000000000000000000000000000000000000000000000000000000000006001600160a01b031690602081600481855afa8015611155576001600160801b03918691611126575b50169081341061111457602090600460405180948193637b43155d60e01b83525af19081156111095784916110c2575b50926001916001600160401b036020951690818352600a865260243560408420558051600b87526040842055516024357fe1f406b52b3ddecc30a0dc470740ab0621778ffab562ace1e95aa8ec97b99c578480a45b55604051908152f35b90506020813d602011611101575b816110dd602093836121a3565b810103126110fd57516001600160401b03811681036110fd576001611064565b8380fd5b3d91506110d0565b6040513d86823e3d90fd5b6040516326f160cd60e21b8152600490fd5b611148915060203d60201161114e575b61114081836121a3565b8101906123b5565b86611034565b503d611136565b6040513d87823e3d90fd5b50346111705760016020926110b9565b60405163c357108f60e01b8152600490fd5b90507f00000000000000000000000000000000000000000000000000000000000000001084610fd7565b015190508b80610f5e565b90600784018b5260208b20918b5b601f198516811061120c5750918391600193600795601f198116106111f3575b505050811b01910155610f74565b015160001960f88460031b161c191690558b80806111e5565b919260206001819286850151815501940192016111c5565b634e487b7160e01b8a52604160045260248afd5b670de0b6b3a764000060808601524260a08601528451604051670de0b6b3a764000081527f664435c9c876d3fd006cc5c607a521154d7ea038dfd3002909e63d171c79832a602060243592a3610eae565b8680fd5b61129981600554612318565b60055560c08601516001600160a01b037f00000000000000000000000000000000000000000000000000000000000000008116918a9116823b15611397576040516340c10f1960e01b81526001600160a01b0391909116600482015260248101849052918290604490829084905af1801561138c5761135d575b5060c086015160405191825260443591602435916001600160a01b0316907ff92d1bb6b0331d2c69228fb19078ffafc68327c12d89104959df91a68d6e549990602090a487610e06565b6001600160401b038199929911611378576040529688611313565b634e487b7160e01b82526041600452602482fd5b6040513d8b823e3d90fd5b5080fd5b90507f00000000000000000000000000000000000000000000000000000000000000008082106113cc575b50610dbc565b9050876113c6565b6040516323b872dd60e01b6020820152336024820152306044820152856064820152606481528060a08101106001600160401b0360a0830111176117cb5760a0810160405261144c907f00000000000000000000000000000000000000000000000000000000000000006001600160a01b0316612466565b611f4085818102048114861517156117b75760405163cce516b760e01b81526020816004817f00000000000000000000000000000000000000000000000000000000000000006001600160a01b03165afa9081156117ac578891611766575b506001600160a01b0381161561175f578660648102046064148715171561174b576127106064880204915b60035488908a906001600160a01b031615611732575050610190888181020481148915171561171e5761152884939261152361271096611523888e968702049889945b87020480966122c2565b6122c2565b9060018060a01b0360c08a0151168b52600c60205260408b2061154c828254612318565b905560c089015160405191825260443591602435916001600160a01b0316907f3d56c0f9c0bda433d3bb726810c7af85dd51d9bb0ac294209190981af0b6b1d490602090a46002546115cd9082906001600160a01b03908116907f00000000000000000000000000000000000000000000000000000000000000001661242a565b60025460405191825260443591602435916001600160a01b0316907f2d773c8297e22771a6f82e5c7df628835b0922498b9d410cee5ff3b52840506290602090a4816116a5575b505080611622575b50610d74565b60035461165e9082906001600160a01b03908116907f00000000000000000000000000000000000000000000000000000000000000001661242a565b60035460405191825260443591602435916001600160a01b0316907f8a3906fe72b11528104866a9490a983aca66b613b5b9a5152ebc0e14d098c0e490602090a48661161c565b6116d982827f00000000000000000000000000000000000000000000000000000000000000006001600160a01b031661242a565b60405191825260443591602435916001600160a01b0316907fa2b86913a64c4ccbfab1d82b4097e869df04e0cb627fb523b34483f8baff0a5490602090a48780611614565b634e487b7160e01b8a52601160045260248afd5b8493926115236127109661152361152894988994611519565b634e487b7160e01b88526011600452602488fd5b87916114d6565b90506020813d6020116117a4575b81611781602093836121a3565b810103126117a057516001600160a01b03811681036117a057886114ab565b8780fd5b3d9150611774565b6040513d8a823e3d90fd5b634e487b7160e01b87526011600452602487fd5b634e487b7160e01b87526041600452602487fd5b60405163071bc59b60e31b8152600490fd5b60405163a8c92fbb60e01b8152600490fd5b60405162116d0960e51b8152600490fd5b604051636f356ff160e01b8152600490fd5b604051637ac3de3960e11b8152600490fd5b346102c957806003193601126102c9576003546040516001600160a01b039091168152602090f35b346102c957602090816003193601126102c957604090606060e0835161188581612171565b8381528386820152838582015283838201528360808201528360a08201528360c08201520152600435815260098352206104cc604051916118c583612171565b805483526001810154908484019182526002810154906040850191825260038101546060860190815260048201546080870190815260058301549160a0880192835260018060a01b03946119296007876006880154169660c08c01978852016121c4565b9660e08a019788526040519a8b9a818c5251908b01525160408a01525160608901525160808801525160a08701525160c0860152511660e084015251610100808401526101208301906120ca565b346102c957806003193601126102c95760206040517f00000000000000000000000000000000000000000000000000000000000000008152f35b346102c957806003193601126102c95760206040517f00000000000000000000000000000000000000000000000000000000000000008152f35b346102c957806003193601126102c9576020604051670f43fc2c04ee00008152f35b346102c957806003193601126102c957611a2561226a565b600180546001600160a01b0319811690915581906001600160a01b03167f8be0079c531659141344cd1fd0a4f28419497f9722a3daafe3b4186f6b6457e08280a380f35b346102c957806003193601126102c957602060405162093a808152f35b346102c957806003193601126102c9576020600754604051908152f35b346102c957806003193601126102c9576002546040516001600160a01b039091168152602090f35b346102c957806003193601126102c9576020600454604051908152f35b346102c957806003193601126102c95760206040516729a2241af62c00008152f35b346102c95760603660031901126102c957611b23612091565b6001600160a01b0360243581811603610b04577f0000000000000000000000000000000000000000000000000000000000000000168015611bc5573303611b7457611b71906044359061262c565b80f35b60405162461bcd60e51b815260206004820152602360248201527f4f6e6c7920456e74726f70792063616e2063616c6c20746869732066756e637460448201526234b7b760e91b6064820152608490fd5b60405162461bcd60e51b815260206004820152601760248201527f456e74726f70792061646472657373206e6f74207365740000000000000000006044820152606490fd5b346102c957806003193601126102c9576020604051678ac7230489e800008152f35b346102c957806003193601126102c95760206105df612956565b346102c957806003193601126102c9576040517f00000000000000000000000000000000000000000000000000000000000000006001600160a01b03168152602090f35b346102c957806003193601126102c95760206040517f00000000000000000000000000000000000000000000000000000000000000008152f35b346102c957806003193601126102c95760206040517f00000000000000000000000000000000000000000000000000000000000000008152f35b346102c957806003193601126102c95760206040516101008152f35b346102c95760203660031901126102c9576020906040906001600160a01b03611d41612029565b168152600c83522054604051908152f35b346102c957806003193601126102c95760206040516127108152f35b346102c957806003193601126102c9576040516341025b3d60e11b81526020816004817f00000000000000000000000000000000000000000000000000000000000000006001600160a01b03165afa908115611dfc5760209291611ddf575b506001600160801b0360405191168152f35b611df69150823d811161114e5761114081836121a3565b82611dcd565b6040513d84823e3d90fd5b346102c957806003193601126102c957602060ff600654166040519015158152f35b346102c95760203660031901126102c957600435906007548210156102c9576020611e5383612044565b90546040519160031b1c8152f35b346102c95760203660031901126102c957611e7a612029565b611e826123d4565b6001600160a01b038181169190821561043e57828452600c60205260408420548015611f1357611f05817f207f943d8947b3e96fbdf0c94ca580be9f0e3f568c13403218f35da4aa419abd94602094878952600c86528860408120557f00000000000000000000000000000000000000000000000000000000000000001661242a565b604051908152a26001815580f35b604051636e71d70760e01b8152600490fd5b346102c957806003193601126102c95760206040517f00000000000000000000000000000000000000000000000000000000000000008152f35b346102c95760203660031901126102c9576004358015158091036113975760207f4bd59842a0908baa92de7682bf34866a605dbc46af4d0d5d6c9fbcaa05f681ba91611fa961226a565b60ff196006541660ff821617600655604051908152a180f35b346102c95760203660031901126102c957611fdb612029565b611fe361226a565b600380546001600160a01b0319166001600160a01b039290921691821790557fa45098bb23478a32ce5b15fa7d3d23ba4b8453a9cd2239566b44839e726f7d9f8280a280f35b600435906001600160a01b038216820361203f57565b600080fd5b60075481101561207b5760076000527fa66cc928b5edb82af9bd49922954155ab7b0942694bea4ce44661d9a8736c6880190600090565b634e487b7160e01b600052603260045260246000fd5b600435906001600160401b038216820361203f57565b3461203f57600036600319011261203f576020604051670de0b6b3a76400008152f35b919082519283825260005b8481106120f6575050826000602080949584010152601f8019910116010190565b6020818301810151848301820152016120d5565b9181601f8401121561203f578235916001600160401b03831161203f576020838186019501011161203f57565b90600182811c92168015612167575b602083101461215157565b634e487b7160e01b600052602260045260246000fd5b91607f1691612146565b61010081019081106001600160401b0382111761218d57604052565b634e487b7160e01b600052604160045260246000fd5b90601f801991011681019081106001600160401b0382111761218d57604052565b90604051918260008254926121d884612137565b9081845260019485811690816000146122475750600114612204575b5050612202925003836121a3565b565b9093915060005260209081600020936000915b81831061222f575050612202935082010138806121f4565b85548884018501529485019487945091830191612217565b91505061220294506020925060ff191682840152151560051b82010138806121f4565b6001546001600160a01b0316330361227e57565b606460405162461bcd60e51b815260206004820152602060248201527f4f776e61626c653a2063616c6c6572206973206e6f7420746865206f776e65726044820152fd5b919082039182116122cf57565b634e487b7160e01b600052601160045260246000fd5b818102929181159184041417156122cf57565b8115612302570490565b634e487b7160e01b600052601260045260246000fd5b919082018092116122cf57565b6001600160401b03811161218d57601f01601f191660200190565b90601f811161234e57505050565b600091825260208220906020601f850160051c8301941061238a575b601f0160051c01915b82811061237f57505050565b818155600101612373565b909250829061236a565b908060209392818452848401376000828201840152601f01601f1916010190565b9081602091031261203f57516001600160801b038116810361203f5790565b6002600054146123e5576002600055565b60405162461bcd60e51b815260206004820152601f60248201527f5265656e7472616e637947756172643a207265656e7472616e742063616c6c006044820152606490fd5b60405163a9059cbb60e01b60208201526001600160a01b03929092166024830152604480830193909352918152612202916124666064836121a3565b60018060a01b03169060405160408101908082106001600160401b0383111761218d576124f5916040526020938482527f5361666545524332303a206c6f772d6c6576656c2063616c6c206661696c6564858301526000808587829751910182855af13d1561258b573d916124da83612325565b926124e860405194856121a3565b83523d868885013e61258f565b805191821591848315612567575b5050509050156125105750565b6084906040519062461bcd60e51b82526004820152602a60248201527f5361666545524332303a204552433230206f7065726174696f6e20646964206e6044820152691bdd081cdd58d8d9595960b21b6064820152fd5b919381809450010312611397578201519081151582036102c9575080388084612503565b6060915b919290156125f157508151156125a3575090565b3b156125ac5790565b60405162461bcd60e51b815260206004820152601d60248201527f416464726573733a2063616c6c20746f206e6f6e2d636f6e74726163740000006044820152606490fd5b8251909150156126045750805190602001fd5b60405162461bcd60e51b8152602060048201529081906126289060248301906120ca565b0390fd5b6001600160401b0316600052600a602052604060002054600b60205260406000205491600a60205260006040812055600b6020526000604081205581600052600960205260406000206040519061268282612171565b8054825260018101549260208301938452600282015493604084019485526126de60076003850154946060870195865260048101546080880152600581015460a088015260018060a01b0360068201541660c0880152016121c4565b60e0850152868451148015906128b3575b6128875760e0926127016007936128c8565b958660808701524260a0870152876000526009602052604060002092865184555160018401555160028301555160038201556080840151600482015560a084015160058201556006810160018060a01b0360c0860151166001600160601b0360a01b825416179055019101518051906001600160401b03821161218d576127928261278c8554612137565b85612340565b602090601f83116001146127fa579180602094927f664435c9c876d3fd006cc5c607a521154d7ea038dfd3002909e63d171c79832a96946000926127ef575b50508160011b916000199060031b1c19161790555b604051908152a3565b0151905038806127d1565b90601f198316918460005260206000209260005b81811061286f57509260019285927f664435c9c876d3fd006cc5c607a521154d7ea038dfd3002909e63d171c79832a98966020989610612856575b505050811b0190556127e6565b015160001960f88460031b161c19169055388080612849565b9293602060018192878601518155019501930161280e565b50505050507fe3cc78540857473e811af86237f2ec82d22540c2abbcf0c557a05515bd4c3f7d600080a3565b5060c08401516001600160a01b0316156126ef565b60075480156128e5576128db9106612044565b90549060031b1c90565b5050670de0b6b3a764000090565b6129016040820151426122c2565b7f00000000000000000000000000000000000000000000000000000000000000009182821161294e5761294b92612940602061294593015193846122e5565b6122f8565b906122c2565b90565b505050600090565b6005547f0000000000000000000000000000000000000000000000000000000000000000918290600090815b8585101580612a1f575b156129c55760001981146129b15760016129ab91019584871c90612318565b94612982565b634e487b7160e01b83526011600452602483fd5b9350935050507f0000000000000000000000000000000000000000000000000000000000000000901c7f0000000000000000000000000000000000000000000000000000000000000000808210612a1a575090565b905090565b506040811061298c56fea264697066735822122082724e4f2d6bb761b70a8b09fb57d9df16092819dc3f9758201521ba56bc262464736f6c63430008130033",
  "linkReferences": {},
  "deployedLinkReferences": {}
}