{
  "_format": "hh-sol-artifact-1",
  "contractName": "MineCore",
  "sourceName": "contracts/rigs/mine/MineCore.sol",
  "abi": [
    {
      "inputs": [
        {
          "internalType": "address",
          "name": "_registry",
          "type": "address"
        },
        {
          "internalType": "address",
          "name": "_usdcToken",
          "type": "address"
        },
        {
          "internalType": "address",
          "name": "_uniswapV2Factory",
          "type": "address"
        },
        {
          "internalType": "address",
          "name": "_uniswapV2Router",
          "type": "address"
        },
        {
          "internalType": "address",
          "name": "_unitFactory",
          "type": "address"
        },
        {
          "internalType": "address",
          "name": "_rigFactory",
          "type": "address"
        },
        {
          "internalType": "address",
          "name": "_auctionFactory",
          "type": "address"
        },
        {
          "internalType": "address",
          "name": "_entropy",
          "type": "address"
        },
        {
          "internalType": "address",
          "name": "_protocolFeeAddress",
          "type": "address"
        },
        {
          "internalType": "uint256",
          "name": "_minUsdcForLaunch",
          "type": "uint256"
        }
      ],
      "stateMutability": "nonpayable",
      "type": "constructor"
    },
    {
      "inputs": [],
      "name": "Core__EmptyTokenName",
      "type": "error"
    },
    {
      "inputs": [],
      "name": "Core__EmptyTokenSymbol",
      "type": "error"
    },
    {
      "inputs": [],
      "name": "Core__EmptyUri",
      "type": "error"
    },
    {
      "inputs": [],
      "name": "Core__InsufficientUsdc",
      "type": "error"
    },
    {
      "inputs": [],
      "name": "Core__ZeroAddress",
      "type": "error"
    },
    {
      "inputs": [],
      "name": "Core__ZeroLauncher",
      "type": "error"
    },
    {
      "inputs": [],
      "name": "Core__ZeroQuoteToken",
      "type": "error"
    },
    {
      "inputs": [],
      "name": "Core__ZeroUnitAmount",
      "type": "error"
    },
    {
      "anonymous": false,
      "inputs": [
        {
          "indexed": false,
          "internalType": "address",
          "name": "launcher",
          "type": "address"
        },
        {
          "indexed": false,
          "internalType": "address",
          "name": "quoteToken",
          "type": "address"
        },
        {
          "indexed": false,
          "internalType": "address",
          "name": "unit",
          "type": "address"
        },
        {
          "indexed": false,
          "internalType": "address",
          "name": "rig",
          "type": "address"
        },
        {
          "indexed": false,
          "internalType": "address",
          "name": "auction",
          "type": "address"
        },
        {
          "indexed": false,
          "internalType": "address",
          "name": "lpToken",
          "type": "address"
        },
        {
          "indexed": false,
          "internalType": "string",
          "name": "tokenName",
          "type": "string"
        },
        {
          "indexed": false,
          "internalType": "string",
          "name": "tokenSymbol",
          "type": "string"
        },
        {
          "indexed": false,
          "internalType": "string",
          "name": "uri",
          "type": "string"
        },
        {
          "indexed": false,
          "internalType": "uint256",
          "name": "usdcAmount",
          "type": "uint256"
        },
        {
          "indexed": false,
          "internalType": "uint256",
          "name": "unitAmount",
          "type": "uint256"
        },
        {
          "indexed": false,
          "internalType": "uint256",
          "name": "initialUps",
          "type": "uint256"
        },
        {
          "indexed": false,
          "internalType": "uint256",
          "name": "tailUps",
          "type": "uint256"
        },
        {
          "indexed": false,
          "internalType": "uint256",
          "name": "halvingAmount",
          "type": "uint256"
        },
        {
          "indexed": false,
          "internalType": "uint256",
          "name": "rigEpochPeriod",
          "type": "uint256"
        },
        {
          "indexed": false,
          "internalType": "uint256",
          "name": "rigPriceMultiplier",
          "type": "uint256"
        },
        {
          "indexed": false,
          "internalType": "uint256",
          "name": "rigMinInitPrice",
          "type": "uint256"
        },
        {
          "indexed": false,
          "internalType": "uint256",
          "name": "auctionInitPrice",
          "type": "uint256"
        },
        {
          "indexed": false,
          "internalType": "uint256",
          "name": "auctionEpochPeriod",
          "type": "uint256"
        },
        {
          "indexed": false,
          "internalType": "uint256",
          "name": "auctionPriceMultiplier",
          "type": "uint256"
        },
        {
          "indexed": false,
          "internalType": "uint256",
          "name": "auctionMinInitPrice",
          "type": "uint256"
        }
      ],
      "name": "MineCore__Launched",
      "type": "event"
    },
    {
      "anonymous": false,
      "inputs": [
        {
          "indexed": false,
          "internalType": "uint256",
          "name": "minUsdcForLaunch",
          "type": "uint256"
        }
      ],
      "name": "MineCore__MinUsdcForLaunchSet",
      "type": "event"
    },
    {
      "anonymous": false,
      "inputs": [
        {
          "indexed": false,
          "internalType": "address",
          "name": "protocolFeeAddress",
          "type": "address"
        }
      ],
      "name": "MineCore__ProtocolFeeAddressSet",
      "type": "event"
    },
    {
      "anonymous": false,
      "inputs": [
        {
          "indexed": true,
          "internalType": "address",
          "name": "previousOwner",
          "type": "address"
        },
        {
          "indexed": true,
          "internalType": "address",
          "name": "newOwner",
          "type": "address"
        }
      ],
      "name": "OwnershipTransferred",
      "type": "event"
    },
    {
      "inputs": [],
      "name": "DEAD_ADDRESS",
      "outputs": [
        {
          "internalType": "address",
          "name": "",
          "type": "address"
        }
      ],
      "stateMutability": "view",
      "type": "function"
    },
    {
      "inputs": [],
      "name": "RIG_TYPE",
      "outputs": [
        {
          "internalType": "string",
          "name": "",
          "type": "string"
        }
      ],
      "stateMutability": "view",
      "type": "function"
    },
    {
      "inputs": [],
      "name": "auctionFactory",
      "outputs": [
        {
          "internalType": "address",
          "name": "",
          "type": "address"
        }
      ],
      "stateMutability": "view",
      "type": "function"
    },
    {
      "inputs": [],
      "name": "entropy",
      "outputs": [
        {
          "internalType": "address",
          "name": "",
          "type": "address"
        }
      ],
      "stateMutability": "view",
      "type": "function"
    },
    {
      "inputs": [
        {
          "components": [
            {
              "internalType": "address",
              "name": "launcher",
              "type": "address"
            },
            {
              "internalType": "address",
              "name": "quoteToken",
              "type": "address"
            },
            {
              "internalType": "string",
              "name": "tokenName",
              "type": "string"
            },
            {
              "internalType": "string",
              "name": "tokenSymbol",
              "type": "string"
            },
            {
              "internalType": "string",
              "name": "uri",
              "type": "string"
            },
            {
              "internalType": "uint256",
              "name": "usdcAmount",
              "type": "uint256"
            },
            {
              "internalType": "uint256",
              "name": "unitAmount",
              "type": "uint256"
            },
            {
              "internalType": "uint256",
              "name": "initialUps",
              "type": "uint256"
            },
            {
              "internalType": "uint256",
              "name": "tailUps",
              "type": "uint256"
            },
            {
              "internalType": "uint256",
              "name": "halvingAmount",
              "type": "uint256"
            },
            {
              "internalType": "uint256",
              "name": "rigEpochPeriod",
              "type": "uint256"
            },
            {
              "internalType": "uint256",
              "name": "rigPriceMultiplier",
              "type": "uint256"
            },
            {
              "internalType": "uint256",
              "name": "rigMinInitPrice",
              "type": "uint256"
            },
            {
              "internalType": "uint256[]",
              "name": "upsMultipliers",
              "type": "uint256[]"
            },
            {
              "internalType": "uint256",
              "name": "upsMultiplierDuration",
              "type": "uint256"
            },
            {
              "internalType": "uint256",
              "name": "auctionInitPrice",
              "type": "uint256"
            },
            {
              "internalType": "uint256",
              "name": "auctionEpochPeriod",
              "type": "uint256"
            },
            {
              "internalType": "uint256",
              "name": "auctionPriceMultiplier",
              "type": "uint256"
            },
            {
              "internalType": "uint256",
              "name": "auctionMinInitPrice",
              "type": "uint256"
            }
          ],
          "internalType": "struct MineCore.LaunchParams",
          "name": "params",
          "type": "tuple"
        }
      ],
      "name": "launch",
      "outputs": [
        {
          "internalType": "address",
          "name": "unit",
          "type": "address"
        },
        {
          "internalType": "address",
          "name": "rig",
          "type": "address"
        },
        {
          "internalType": "address",
          "name": "auction",
          "type": "address"
        },
        {
          "internalType": "address",
          "name": "lpToken",
          "type": "address"
        }
      ],
      "stateMutability": "nonpayable",
      "type": "function"
    },
    {
      "inputs": [],
      "name": "minUsdcForLaunch",
      "outputs": [
        {
          "internalType": "uint256",
          "name": "",
          "type": "uint256"
        }
      ],
      "stateMutability": "view",
      "type": "function"
    },
    {
      "inputs": [],
      "name": "owner",
      "outputs": [
        {
          "internalType": "address",
          "name": "",
          "type": "address"
        }
      ],
      "stateMutability": "view",
      "type": "function"
    },
    {
      "inputs": [],
      "name": "protocolFeeAddress",
      "outputs": [
        {
          "internalType": "address",
          "name": "",
          "type": "address"
        }
      ],
      "stateMutability": "view",
      "type": "function"
    },
    {
      "inputs": [],
      "name": "registry",
      "outputs": [
        {
          "internalType": "address",
          "name": "",
          "type": "address"
        }
      ],
      "stateMutability": "view",
      "type": "function"
    },
    {
      "inputs": [],
      "name": "renounceOwnership",
      "outputs": [],
      "stateMutability": "nonpayable",
      "type": "function"
    },
    {
      "inputs": [],
      "name": "rigFactory",
      "outputs": [
        {
          "internalType": "address",
          "name": "",
          "type": "address"
        }
      ],
      "stateMutability": "view",
      "type": "function"
    },
    {
      "inputs": [
        {
          "internalType": "address",
          "name": "",
          "type": "address"
        }
      ],
      "name": "rigToAuction",
      "outputs": [
        {
          "internalType": "address",
          "name": "",
          "type": "address"
        }
      ],
      "stateMutability": "view",
      "type": "function"
    },
    {
      "inputs": [
        {
          "internalType": "address",
          "name": "",
          "type": "address"
        }
      ],
      "name": "rigToIndex",
      "outputs": [
        {
          "internalType": "uint256",
          "name": "",
          "type": "uint256"
        }
      ],
      "stateMutability": "view",
      "type": "function"
    },
    {
      "inputs": [
        {
          "internalType": "address",
          "name": "",
          "type": "address"
        }
      ],
      "name": "rigToIsRig",
      "outputs": [
        {
          "internalType": "bool",
          "name": "",
          "type": "bool"
        }
      ],
      "stateMutability": "view",
      "type": "function"
    },
    {
      "inputs": [
        {
          "internalType": "address",
          "name": "",
          "type": "address"
        }
      ],
      "name": "rigToLP",
      "outputs": [
        {
          "internalType": "address",
          "name": "",
          "type": "address"
        }
      ],
      "stateMutability": "view",
      "type": "function"
    },
    {
      "inputs": [
        {
          "internalType": "uint256",
          "name": "",
          "type": "uint256"
        }
      ],
      "name": "rigs",
      "outputs": [
        {
          "internalType": "address",
          "name": "",
          "type": "address"
        }
      ],
      "stateMutability": "view",
      "type": "function"
    },
    {
      "inputs": [],
      "name": "rigsLength",
      "outputs": [
        {
          "internalType": "uint256",
          "name": "",
          "type": "uint256"
        }
      ],
      "stateMutability": "view",
      "type": "function"
    },
    {
      "inputs": [
        {
          "internalType": "uint256",
          "name": "_minUsdcForLaunch",
          "type": "uint256"
        }
      ],
      "name": "setMinUsdcForLaunch",
      "outputs": [],
      "stateMutability": "nonpayable",
      "type": "function"
    },
    {
      "inputs": [
        {
          "internalType": "address",
          "name": "_protocolFeeAddress",
          "type": "address"
        }
      ],
      "name": "setProtocolFeeAddress",
      "outputs": [],
      "stateMutability": "nonpayable",
      "type": "function"
    },
    {
      "inputs": [
        {
          "internalType": "address",
          "name": "newOwner",
          "type": "address"
        }
      ],
      "name": "transferOwnership",
      "outputs": [],
      "stateMutability": "nonpayable",
      "type": "function"
    },
    {
      "inputs": [],
      "name": "uniswapV2Factory",
      "outputs": [
        {
          "internalType": "address",
          "name": "",
          "type": "address"
        }
      ],
      "stateMutability": "view",
      "type": "function"
    },
    {
      "inputs": [],
      "name": "uniswapV2Router",
      "outputs": [
        {
          "internalType": "address",
          "name": "",
          "type": "address"
        }
      ],
      "stateMutability": "view",
      "type": "function"
    },
    {
      "inputs": [],
      "name": "unitFactory",
      "outputs": [
        {
          "internalType": "address",
          "name": "",
          "type": "address"
        }
      ],
      "stateMutability": "view",
      "type": "function"
    },
    {
      "inputs": [],
      "name": "usdcToken",
      "outputs": [
        {
          "internalType": "address",
          "name": "",
          "type": "address"
        }
      ],
      "stateMutability": "view",
      "type": "function"
    }
  ],
  "bytecode": "0x61018034620002b45762001e5638819003601f8101601f191683016001600160401b03811184821017620002b95783928291604052833961014092839181010312620002b4576200005081620002cf565b6200005e60208301620002cf565b926200006d60408401620002cf565b6200007b60608501620002cf565b926200008a60808601620002cf565b956200009960a08701620002cf565b94620000a860c08801620002cf565b620000b660e08901620002cf565b9661010099620000c88b8b01620002cf565b93610120809b0151976000549660018060a01b031998338a8a161760005560405160018060a01b03998a3391167f8be0079c531659141344cd1fd0a4f28419497f9722a3daafe3b4186f6b6457e0600080a360018055818a16158a8f8215620002a8575b82156200029c575b821562000290575b821562000284575b821562000278575b82156200026c575b821562000260575b505062000251575060805260a05260c05260e0528a52885285526101609586521690600254161760025560035560405192611b719485620002e5863960805185818161040d01528181610fee0152611077015260a0518581816107890152818161093801528181610992015281816109ec01528181610aab0152611513015260c05185818161051b0152610add015260e0518581816108aa015281816108e4015281816109170152818161097101528181610a5b01526114ce0152518481816102a3015261081d0152518381816105e00152610d890152518281816102e80152610bbc01525181818161057d0152610c850152f35b63aac405c960e01b8152600490fd5b161590508a8f6200015c565b8a821615925062000154565b8982161592506200014c565b88821615925062000144565b8782161592506200013c565b86821615925062000134565b8582161592506200012c565b600080fd5b634e487b7160e01b600052604160045260246000fd5b51906001600160a01b0382168203620002b45756fe6080604052600436101561001257600080fd5b6000803560e01c806305244d77146115815780630524c46a1461154257806311eac855146114fd5780631694505e146114b8578063320d52e31461064c57806332d1338e1461060f5780633fec79a2146105ca578063446418cf146105ac57806347ce07cc146105675780634e6fd6c41461054a57806359d0f713146105055780636b7b911214610496578063715018a61461043c5780637b103999146103f7578063832c0e5f146103c357806383e9d76b146103845780638da5cb5b1461035d5780639827ba6314610317578063abf4fde4146102d2578063bbba90e21461028d578063cce516b714610264578063cf52d14314610246578063d9efb589146101f85763f2fde38b1461012557600080fd5b346101f55760203660031901126101f5576004356001600160a01b03818116918290036101f1576101546116f6565b811561019d57600054826bffffffffffffffffffffffff60a01b821617600055167f8be0079c531659141344cd1fd0a4f28419497f9722a3daafe3b4186f6b6457e0600080a380f35b60405162461bcd60e51b815260206004820152602660248201527f4f776e61626c653a206e6577206f776e657220697320746865207a65726f206160448201526564647265737360d01b6064820152608490fd5b8280fd5b80fd5b50346101f55760203660031901126101f5577fa35bc3479ce25737a91fd75c1b0b12d2fd1c60fd05e8f8eb1ce6a71f1824d52460206004356102386116f6565b80600355604051908152a180f35b50346101f557806003193601126101f5576020600454604051908152f35b50346101f557806003193601126101f5576002546040516001600160a01b039091168152602090f35b50346101f557806003193601126101f5576040517f00000000000000000000000000000000000000000000000000000000000000006001600160a01b03168152602090f35b50346101f557806003193601126101f5576040517f00000000000000000000000000000000000000000000000000000000000000006001600160a01b03168152602090f35b50346101f55760203660031901126101f5576004356001600160a01b038116908190036103595760408260ff9260209452600584522054166040519015158152f35b5080fd5b50346101f557806003193601126101f557546040516001600160a01b039091168152602090f35b50346101f55760203660031901126101f5576001600160a01b03600435818116908190036101f157826040916020945260088452205416604051908152f35b50346101f557806003193601126101f5576103f36103df611696565b6040519182916020835260208301906116b6565b0390f35b50346101f557806003193601126101f5576040517f00000000000000000000000000000000000000000000000000000000000000006001600160a01b03168152602090f35b50346101f557806003193601126101f5576104556116f6565b600080546001600160a01b0319811682556001600160a01b03167f8be0079c531659141344cd1fd0a4f28419497f9722a3daafe3b4186f6b6457e08280a380f35b50346101f55760203660031901126101f5576004356001600160a01b038116908190036103595760207ff1dd51feb18cad48c5cce3fbb5734e2a409fe651db6ce1a42e226157e54e1c06916104e96116f6565b600280546001600160a01b03191682179055604051908152a180f35b50346101f557806003193601126101f5576040517f00000000000000000000000000000000000000000000000000000000000000006001600160a01b03168152602090f35b50346101f557806003193601126101f557602060405161dead8152f35b50346101f557806003193601126101f5576040517f00000000000000000000000000000000000000000000000000000000000000006001600160a01b03168152602090f35b50346101f557806003193601126101f5576020600354604051908152f35b50346101f557806003193601126101f5576040517f00000000000000000000000000000000000000000000000000000000000000006001600160a01b03168152602090f35b50346101f55760203660031901126101f5576004356001600160a01b03811690819003610359578160409160209352600683522054604051908152f35b50346101f55760203660031901126101f55767ffffffffffffffff600435116101f557610260600435360360031901126101f5576002600154146114735760026001556001600160a01b036106a460048035016117c6565b1615611461576001600160a01b036106c06004356024016117c6565b161561144f5760035460a460043501351061143d576106e960446004350160043560040161174e565b90501561142b5761070460646004350160043560040161174e565b9050156114195761071f60846004350160043560040161174e565b9050156114075760c46004350135156113f557604051906323b872dd60e01b602083015233602483015230604483015260a460043501356064830152606482528160a081011067ffffffffffffffff60a0840111176113e15760a08201604052610806916107b6907f00000000000000000000000000000000000000000000000000000000000000006001600160a01b031661195a565b60206107cc60446004350160043560040161174e565b6108186107e360646004350160043560040161174e565b604051978895869563b548848760e01b87526040600488015260448701916117a5565b848103600319016024860152916117a5565b0381847f00000000000000000000000000000000000000000000000000000000000000006001600160a01b03165af19182156113135781926113c0575b506001600160a01b0382163b156101f5576040516340c10f1960e01b8152306004808301919091523560c4013560248201528181604481836001600160a01b0388165af18015611273576113b1575b506108d87f00000000000000000000000000000000000000000000000000000000000000006001600160a01b0384166117da565b61091260043560c401357f00000000000000000000000000000000000000000000000000000000000000006001600160a01b03851661181c565b6109657f00000000000000000000000000000000000000000000000000000000000000007f00000000000000000000000000000000000000000000000000000000000000006001600160a01b03166117da565b6109bf60043560a401357f00000000000000000000000000000000000000000000000000000000000000007f00000000000000000000000000000000000000000000000000000000000000006001600160a01b031661181c565b6104b04201421161139d5760405162e8e33760e81b81526001600160a01b038381166004808401919091527f00000000000000000000000000000000000000000000000000000000000000008216602484015260c49035818101356044850181905260a4918201356064860181905260848601919091529084015230908301526104b0420160e4830152909190606090839061010490829085907f0000000000000000000000000000000000000000000000000000000000000000165af1918215611313578192611366575b5060405163e6a4390560e01b81526001600160a01b0380851660048301527f000000000000000000000000000000000000000000000000000000000000000016602482015291602083806044810103817f00000000000000000000000000000000000000000000000000000000000000006001600160a01b03165afa928315611273578293611341575b50610b54906040519063a9059cbb60e01b602083015261dead6024830152604482015260448152610b4581611658565b6001600160a01b03841661195a565b60405190633e25ba8f60e21b82526101e46004350135600483015260018060a01b038316602483015261dead60448301526102046004350135606483015261022460043501356084830152610244600435013560a483015260208260c4818460018060a01b037f0000000000000000000000000000000000000000000000000000000000000000165af1918215611313578192611320575b50610bfb6024600435016117c6565b906022196004353603016101a4600435013512156101f55767ffffffffffffffff600480356101a4810135010135116101f557600480356101a4810135019081013560051b36036024909101136101f557610c5a6004356004016117c6565b60405163bd68a09560e01b81526001600160a01b0387811660048084019190915294811660248301527f0000000000000000000000000000000000000000000000000000000000000000811660448301523060648301528516608482015283356101448181013560a48401526101648083013560c485015261018483013560e480860191909152830135610104808601919091526101248085013590860152830135918401919091526101c0908301526101a481013501909301356101c484018190526001600160fb1b031061035957600480356101a4810135019081013560051b906024016101e48501376101c4600435013561018484015260018060a01b03166101a48301526020826101e48160046101a481350135813501013560051b81010301818460018060a01b037f0000000000000000000000000000000000000000000000000000000000000000165af19182156113135781926112e2575b506001600160a01b0385163b156101f55760405163588d95c960e11b81526001600160a01b03838116600483015282908290602490829084908b165af18015611273579082916112ce575b5050610e146004356004016117c6565b6001600160a01b0383163b15610359576040516304ae7ae360e11b81526001600160a01b03918216600482015290829082906024908290849088165af18015611273579082916112ba575b5050610e7560846004350160043560040161174e565b6001600160a01b0384163b156101f157604051639b642de160e01b81526020600482015291839183918291610eaf916024840191906117a5565b0381836001600160a01b0388165af18015611273579082916112a6575b5050610edc6004356004016117c6565b6001600160a01b0383163b156103595760405163f2fde38b60e01b81526001600160a01b03918216600482015290829082906024908290849088165af1801561127357908291611292575b50506001600160a01b0382168152600560209081526040808320805460ff19166001179055600454600690925282208190556801000000000000000081101561127e57806001610f7a92016004556115c5565b81546001600160a01b0360039290921b82811b199091168583169182901b1790925590825260086020908152604080842080546001600160a01b031990811689861617909155600790925283208054909116918516919091179055610fdd611696565b610feb6004356004016117c6565b907f00000000000000000000000000000000000000000000000000000000000000006001600160a01b03163b156101f157604051631d3317b360e31b81526001600160a01b038516600482015260806024820152918391839182916110549060848401906116b6565b6001600160a01b038b8116604485015291821660648401529190910390829084907f0000000000000000000000000000000000000000000000000000000000000000165af180156112735761125f575b50506004356004016110b5906117c6565b6110c36024600435016117c6565b906110d66004803560448101910161174e565b906110e96004803560648101910161174e565b6110fb6004803560848101910161174e565b604080516001600160a01b03988916815298881660208a01528c88169089015288871660608901528987166080890152958a1660a08801526102a060c088018190528796919591946111519291880191906117a5565b9085820360e0870152611163926117a5565b90838203610100850152611176926117a5565b60043560a481013561012084015260c481013561014084015260e48101356101608401526101048101356101808401526101248101356101a08401526101448101356101c08401526101648101356101e08401526101848101356102008401526101e481013561022084015261020481013561024084015261022481013561026084015261024401356102808301527f33ec311c7155972fe4976367932aeac3050a9c9b6df40f12de4300e44ab09ecd9291900390a160018055604080516001600160a01b03958616815291851660208301529184169181019190915291166060820152608090f35b6112698291611612565b6101f557806110a4565b6040513d84823e3d90fd5b634e487b7160e01b82526041600452602482fd5b61129b90611612565b6101f5578038610f27565b6112af90611612565b6101f5578038610ecc565b6112c390611612565b6101f5578038610e5f565b6112d790611612565b6101f5578038610e04565b61130591925060203d60201161130c575b6112fd8183611674565b810190611786565b9038610db9565b503d6112f3565b50604051903d90823e3d90fd5b61133a91925060203d60201161130c576112fd8183611674565b9038610bec565b610b5491935061135f9060203d60201161130c576112fd8183611674565b9290610b15565b9091506060813d606011611395575b8161138260609383611674565b8101031261035957604001519038610a8b565b3d9150611375565b634e487b7160e01b81526011600452602490fd5b6113ba90611612565b386108a4565b6113da91925060203d60201161130c576112fd8183611674565b9038610855565b634e487b7160e01b81526041600452602490fd5b6040516398cfc80b60e01b8152600490fd5b6040516316894abf60e11b8152600490fd5b604051639ad049f560e01b8152600490fd5b604051631417600960e21b8152600490fd5b604051630a8898e760e41b8152600490fd5b604051634e7c9a5960e01b8152600490fd5b604051637aebc2b760e01b8152600490fd5b60405162461bcd60e51b815260206004820152601f60248201527f5265656e7472616e637947756172643a207265656e7472616e742063616c6c006044820152606490fd5b50346101f557806003193601126101f5576040517f00000000000000000000000000000000000000000000000000000000000000006001600160a01b03168152602090f35b50346101f557806003193601126101f5576040517f00000000000000000000000000000000000000000000000000000000000000006001600160a01b03168152602090f35b50346101f55760203660031901126101f5576001600160a01b03600435818116908190036101f157826040916020945260078452205416604051908152f35b50346101f55760203660031901126101f557600435906004548210156101f55760206115ac836115c5565b905460405160039290921b1c6001600160a01b03168152f35b6004548110156115fc5760046000527f8a35acfbc15ff81a39ae7d344fd709f28e8600b4aa8c65c6b64bfe7fe36bd19b0190600090565b634e487b7160e01b600052603260045260246000fd5b67ffffffffffffffff811161162657604052565b634e487b7160e01b600052604160045260246000fd5b6040810190811067ffffffffffffffff82111761162657604052565b6080810190811067ffffffffffffffff82111761162657604052565b90601f8019910116810190811067ffffffffffffffff82111761162657604052565b604051906116a38261163c565b60048252636d696e6560e01b6020830152565b919082519283825260005b8481106116e2575050826000602080949584010152601f8019910116010190565b6020818301810151848301820152016116c1565b6000546001600160a01b0316330361170a57565b606460405162461bcd60e51b815260206004820152602060248201527f4f776e61626c653a2063616c6c6572206973206e6f7420746865206f776e65726044820152fd5b903590601e1981360301821215611781570180359067ffffffffffffffff82116117815760200191813603831361178157565b600080fd5b9081602091031261178157516001600160a01b03811681036117815790565b908060209392818452848401376000828201840152601f01601f1916010190565b356001600160a01b03811681036117815790565b60405163095ea7b360e01b60208201526001600160a01b0390921660248301526000604480840191909152825261181a919061181582611658565b61195a565b565b919091811580156118ce575b1561186a5760405163095ea7b360e01b60208201526001600160a01b0393909316602484015260448084019290925290825261181a9190611815606483611674565b60405162461bcd60e51b815260206004820152603660248201527f5361666545524332303a20617070726f76652066726f6d206e6f6e2d7a65726f60448201527520746f206e6f6e2d7a65726f20616c6c6f77616e636560501b6064820152608490fd5b50604051636eb1769f60e11b81523060048201526001600160a01b0384166024820152602081806044810103816001600160a01b0386165afa90811561194e5760009161191d575b5015611828565b906020823d8211611946575b8161193660209383611674565b810103126101f557505138611916565b3d9150611929565b6040513d6000823e3d90fd5b60018060a01b03169060405161196f8161163c565b6020928382527f5361666545524332303a206c6f772d6c6576656c2063616c6c206661696c6564848301526000808486829651910182855af13d15611a94573d9167ffffffffffffffff8311611a8057906119ea939291604051926119dd88601f19601f8401160185611674565b83523d868885013e611a9e565b805191821591848315611a5c575b505050905015611a055750565b6084906040519062461bcd60e51b82526004820152602a60248201527f5361666545524332303a204552433230206f7065726174696f6e20646964206e6044820152691bdd081cdd58d8d9595960b21b6064820152fd5b919381809450010312610359578201519081151582036101f55750803880846119f8565b634e487b7160e01b85526041600452602485fd5b906119ea92916060915b91929015611b005750815115611ab2575090565b3b15611abb5790565b60405162461bcd60e51b815260206004820152601d60248201527f416464726573733a2063616c6c20746f206e6f6e2d636f6e74726163740000006044820152606490fd5b825190915015611b135750805190602001fd5b60405162461bcd60e51b815260206004820152908190611b379060248301906116b6565b0390fdfea2646970667358221220c77daa94233fbc05a26ea4797ed42d6cf3f767686dc36f317333531dd93cc66f64736f6c63430008130033",
  "linkReferences": {},
  "deployedLinkReferences": {}
}