{
  "_format": "hh-sol-artifact-1",
  "contractName": "MineCore",
  "sourceName": "contracts/rigs/mine/MineCore.sol",
  "abi": [
    {
      "inputs": [
        {
          "internalType": "address",
          "name": "_registry",
          "type": "address"
        },
        {
          "internalType": "address",
          "name": "_donutToken",
          "type": "address"
        },
        {
          "internalType": "address",
          "name": "_uniswapV2Factory",
          "type": "address"
        },
        {
          "internalType": "address",
          "name": "_uniswapV2Router",
          "type": "address"
        },
        {
          "internalType": "address",
          "name": "_unitFactory",
          "type": "address"
        },
        {
          "internalType": "address",
          "name": "_rigFactory",
          "type": "address"
        },
        {
          "internalType": "address",
          "name": "_auctionFactory",
          "type": "address"
        },
        {
          "internalType": "address",
          "name": "_entropy",
          "type": "address"
        },
        {
          "internalType": "address",
          "name": "_protocolFeeAddress",
          "type": "address"
        },
        {
          "internalType": "uint256",
          "name": "_minDonutForLaunch",
          "type": "uint256"
        }
      ],
      "stateMutability": "nonpayable",
      "type": "constructor"
    },
    {
      "inputs": [],
      "name": "Core__AuctionEpochPeriodOutOfRange",
      "type": "error"
    },
    {
      "inputs": [],
      "name": "Core__AuctionInitPriceOutOfRange",
      "type": "error"
    },
    {
      "inputs": [],
      "name": "Core__AuctionMinInitPriceOutOfRange",
      "type": "error"
    },
    {
      "inputs": [],
      "name": "Core__AuctionPriceMultiplierOutOfRange",
      "type": "error"
    },
    {
      "inputs": [],
      "name": "Core__EmptyTokenName",
      "type": "error"
    },
    {
      "inputs": [],
      "name": "Core__EmptyTokenSymbol",
      "type": "error"
    },
    {
      "inputs": [],
      "name": "Core__InsufficientDonut",
      "type": "error"
    },
    {
      "inputs": [],
      "name": "Core__RigEpochPeriodOutOfRange",
      "type": "error"
    },
    {
      "inputs": [],
      "name": "Core__RigHalvingAmountOutOfRange",
      "type": "error"
    },
    {
      "inputs": [],
      "name": "Core__RigInitialUpsOutOfRange",
      "type": "error"
    },
    {
      "inputs": [],
      "name": "Core__RigMinInitPriceOutOfRange",
      "type": "error"
    },
    {
      "inputs": [],
      "name": "Core__RigPriceMultiplierOutOfRange",
      "type": "error"
    },
    {
      "inputs": [],
      "name": "Core__RigTailUpsOutOfRange",
      "type": "error"
    },
    {
      "inputs": [],
      "name": "Core__ZeroAddress",
      "type": "error"
    },
    {
      "inputs": [],
      "name": "Core__ZeroLauncher",
      "type": "error"
    },
    {
      "inputs": [],
      "name": "Core__ZeroQuoteToken",
      "type": "error"
    },
    {
      "inputs": [],
      "name": "Core__ZeroUnitAmount",
      "type": "error"
    },
    {
      "anonymous": false,
      "inputs": [
        {
          "indexed": false,
          "internalType": "address",
          "name": "launcher",
          "type": "address"
        },
        {
          "indexed": false,
          "internalType": "address",
          "name": "quoteToken",
          "type": "address"
        },
        {
          "indexed": false,
          "internalType": "address",
          "name": "unit",
          "type": "address"
        },
        {
          "indexed": false,
          "internalType": "address",
          "name": "rig",
          "type": "address"
        },
        {
          "indexed": false,
          "internalType": "address",
          "name": "auction",
          "type": "address"
        },
        {
          "indexed": false,
          "internalType": "address",
          "name": "lpToken",
          "type": "address"
        },
        {
          "indexed": false,
          "internalType": "string",
          "name": "tokenName",
          "type": "string"
        },
        {
          "indexed": false,
          "internalType": "string",
          "name": "tokenSymbol",
          "type": "string"
        },
        {
          "indexed": false,
          "internalType": "string",
          "name": "uri",
          "type": "string"
        },
        {
          "indexed": false,
          "internalType": "uint256",
          "name": "donutAmount",
          "type": "uint256"
        },
        {
          "indexed": false,
          "internalType": "uint256",
          "name": "unitAmount",
          "type": "uint256"
        },
        {
          "indexed": false,
          "internalType": "uint256",
          "name": "initialUps",
          "type": "uint256"
        },
        {
          "indexed": false,
          "internalType": "uint256",
          "name": "tailUps",
          "type": "uint256"
        },
        {
          "indexed": false,
          "internalType": "uint256",
          "name": "halvingAmount",
          "type": "uint256"
        },
        {
          "indexed": false,
          "internalType": "uint256",
          "name": "rigEpochPeriod",
          "type": "uint256"
        },
        {
          "indexed": false,
          "internalType": "uint256",
          "name": "rigPriceMultiplier",
          "type": "uint256"
        },
        {
          "indexed": false,
          "internalType": "uint256",
          "name": "rigMinInitPrice",
          "type": "uint256"
        },
        {
          "indexed": false,
          "internalType": "uint256",
          "name": "auctionInitPrice",
          "type": "uint256"
        },
        {
          "indexed": false,
          "internalType": "uint256",
          "name": "auctionEpochPeriod",
          "type": "uint256"
        },
        {
          "indexed": false,
          "internalType": "uint256",
          "name": "auctionPriceMultiplier",
          "type": "uint256"
        },
        {
          "indexed": false,
          "internalType": "uint256",
          "name": "auctionMinInitPrice",
          "type": "uint256"
        }
      ],
      "name": "Core__Launched",
      "type": "event"
    },
    {
      "anonymous": false,
      "inputs": [
        {
          "indexed": false,
          "internalType": "uint256",
          "name": "minDonutForLaunch",
          "type": "uint256"
        }
      ],
      "name": "Core__MinDonutForLaunchSet",
      "type": "event"
    },
    {
      "anonymous": false,
      "inputs": [
        {
          "indexed": false,
          "internalType": "address",
          "name": "protocolFeeAddress",
          "type": "address"
        }
      ],
      "name": "Core__ProtocolFeeAddressSet",
      "type": "event"
    },
    {
      "anonymous": false,
      "inputs": [
        {
          "indexed": true,
          "internalType": "address",
          "name": "previousOwner",
          "type": "address"
        },
        {
          "indexed": true,
          "internalType": "address",
          "name": "newOwner",
          "type": "address"
        }
      ],
      "name": "OwnershipTransferred",
      "type": "event"
    },
    {
      "inputs": [],
      "name": "AUCTION_ABS_MAX_INIT_PRICE",
      "outputs": [
        {
          "internalType": "uint256",
          "name": "",
          "type": "uint256"
        }
      ],
      "stateMutability": "view",
      "type": "function"
    },
    {
      "inputs": [],
      "name": "AUCTION_ABS_MIN_INIT_PRICE",
      "outputs": [
        {
          "internalType": "uint256",
          "name": "",
          "type": "uint256"
        }
      ],
      "stateMutability": "view",
      "type": "function"
    },
    {
      "inputs": [],
      "name": "AUCTION_MAX_EPOCH_PERIOD",
      "outputs": [
        {
          "internalType": "uint256",
          "name": "",
          "type": "uint256"
        }
      ],
      "stateMutability": "view",
      "type": "function"
    },
    {
      "inputs": [],
      "name": "AUCTION_MAX_PRICE_MULTIPLIER",
      "outputs": [
        {
          "internalType": "uint256",
          "name": "",
          "type": "uint256"
        }
      ],
      "stateMutability": "view",
      "type": "function"
    },
    {
      "inputs": [],
      "name": "AUCTION_MIN_EPOCH_PERIOD",
      "outputs": [
        {
          "internalType": "uint256",
          "name": "",
          "type": "uint256"
        }
      ],
      "stateMutability": "view",
      "type": "function"
    },
    {
      "inputs": [],
      "name": "AUCTION_MIN_PRICE_MULTIPLIER",
      "outputs": [
        {
          "internalType": "uint256",
          "name": "",
          "type": "uint256"
        }
      ],
      "stateMutability": "view",
      "type": "function"
    },
    {
      "inputs": [],
      "name": "DEAD_ADDRESS",
      "outputs": [
        {
          "internalType": "address",
          "name": "",
          "type": "address"
        }
      ],
      "stateMutability": "view",
      "type": "function"
    },
    {
      "inputs": [],
      "name": "RIG_ABS_MAX_INIT_PRICE",
      "outputs": [
        {
          "internalType": "uint256",
          "name": "",
          "type": "uint256"
        }
      ],
      "stateMutability": "view",
      "type": "function"
    },
    {
      "inputs": [],
      "name": "RIG_ABS_MIN_INIT_PRICE",
      "outputs": [
        {
          "internalType": "uint256",
          "name": "",
          "type": "uint256"
        }
      ],
      "stateMutability": "view",
      "type": "function"
    },
    {
      "inputs": [],
      "name": "RIG_MAX_EPOCH_PERIOD",
      "outputs": [
        {
          "internalType": "uint256",
          "name": "",
          "type": "uint256"
        }
      ],
      "stateMutability": "view",
      "type": "function"
    },
    {
      "inputs": [],
      "name": "RIG_MAX_INITIAL_UPS",
      "outputs": [
        {
          "internalType": "uint256",
          "name": "",
          "type": "uint256"
        }
      ],
      "stateMutability": "view",
      "type": "function"
    },
    {
      "inputs": [],
      "name": "RIG_MAX_PRICE_MULTIPLIER",
      "outputs": [
        {
          "internalType": "uint256",
          "name": "",
          "type": "uint256"
        }
      ],
      "stateMutability": "view",
      "type": "function"
    },
    {
      "inputs": [],
      "name": "RIG_MIN_EPOCH_PERIOD",
      "outputs": [
        {
          "internalType": "uint256",
          "name": "",
          "type": "uint256"
        }
      ],
      "stateMutability": "view",
      "type": "function"
    },
    {
      "inputs": [],
      "name": "RIG_MIN_HALVING_AMOUNT",
      "outputs": [
        {
          "internalType": "uint256",
          "name": "",
          "type": "uint256"
        }
      ],
      "stateMutability": "view",
      "type": "function"
    },
    {
      "inputs": [],
      "name": "RIG_MIN_PRICE_MULTIPLIER",
      "outputs": [
        {
          "internalType": "uint256",
          "name": "",
          "type": "uint256"
        }
      ],
      "stateMutability": "view",
      "type": "function"
    },
    {
      "inputs": [],
      "name": "RIG_TYPE",
      "outputs": [
        {
          "internalType": "string",
          "name": "",
          "type": "string"
        }
      ],
      "stateMutability": "view",
      "type": "function"
    },
    {
      "inputs": [],
      "name": "auctionFactory",
      "outputs": [
        {
          "internalType": "address",
          "name": "",
          "type": "address"
        }
      ],
      "stateMutability": "view",
      "type": "function"
    },
    {
      "inputs": [
        {
          "internalType": "uint256",
          "name": "",
          "type": "uint256"
        }
      ],
      "name": "deployedRigs",
      "outputs": [
        {
          "internalType": "address",
          "name": "",
          "type": "address"
        }
      ],
      "stateMutability": "view",
      "type": "function"
    },
    {
      "inputs": [],
      "name": "deployedRigsLength",
      "outputs": [
        {
          "internalType": "uint256",
          "name": "",
          "type": "uint256"
        }
      ],
      "stateMutability": "view",
      "type": "function"
    },
    {
      "inputs": [],
      "name": "donutToken",
      "outputs": [
        {
          "internalType": "address",
          "name": "",
          "type": "address"
        }
      ],
      "stateMutability": "view",
      "type": "function"
    },
    {
      "inputs": [],
      "name": "entropy",
      "outputs": [
        {
          "internalType": "address",
          "name": "",
          "type": "address"
        }
      ],
      "stateMutability": "view",
      "type": "function"
    },
    {
      "inputs": [
        {
          "internalType": "address",
          "name": "",
          "type": "address"
        }
      ],
      "name": "isDeployedRig",
      "outputs": [
        {
          "internalType": "bool",
          "name": "",
          "type": "bool"
        }
      ],
      "stateMutability": "view",
      "type": "function"
    },
    {
      "inputs": [
        {
          "components": [
            {
              "internalType": "address",
              "name": "launcher",
              "type": "address"
            },
            {
              "internalType": "address",
              "name": "quoteToken",
              "type": "address"
            },
            {
              "internalType": "string",
              "name": "tokenName",
              "type": "string"
            },
            {
              "internalType": "string",
              "name": "tokenSymbol",
              "type": "string"
            },
            {
              "internalType": "string",
              "name": "uri",
              "type": "string"
            },
            {
              "internalType": "uint256",
              "name": "donutAmount",
              "type": "uint256"
            },
            {
              "internalType": "uint256",
              "name": "unitAmount",
              "type": "uint256"
            },
            {
              "internalType": "uint256",
              "name": "initialUps",
              "type": "uint256"
            },
            {
              "internalType": "uint256",
              "name": "tailUps",
              "type": "uint256"
            },
            {
              "internalType": "uint256",
              "name": "halvingAmount",
              "type": "uint256"
            },
            {
              "internalType": "uint256",
              "name": "rigEpochPeriod",
              "type": "uint256"
            },
            {
              "internalType": "uint256",
              "name": "rigPriceMultiplier",
              "type": "uint256"
            },
            {
              "internalType": "uint256",
              "name": "rigMinInitPrice",
              "type": "uint256"
            },
            {
              "internalType": "uint256",
              "name": "auctionInitPrice",
              "type": "uint256"
            },
            {
              "internalType": "uint256",
              "name": "auctionEpochPeriod",
              "type": "uint256"
            },
            {
              "internalType": "uint256",
              "name": "auctionPriceMultiplier",
              "type": "uint256"
            },
            {
              "internalType": "uint256",
              "name": "auctionMinInitPrice",
              "type": "uint256"
            }
          ],
          "internalType": "struct MineCore.LaunchParams",
          "name": "params",
          "type": "tuple"
        }
      ],
      "name": "launch",
      "outputs": [
        {
          "internalType": "address",
          "name": "unit",
          "type": "address"
        },
        {
          "internalType": "address",
          "name": "rig",
          "type": "address"
        },
        {
          "internalType": "address",
          "name": "auction",
          "type": "address"
        },
        {
          "internalType": "address",
          "name": "lpToken",
          "type": "address"
        }
      ],
      "stateMutability": "nonpayable",
      "type": "function"
    },
    {
      "inputs": [],
      "name": "minDonutForLaunch",
      "outputs": [
        {
          "internalType": "uint256",
          "name": "",
          "type": "uint256"
        }
      ],
      "stateMutability": "view",
      "type": "function"
    },
    {
      "inputs": [],
      "name": "owner",
      "outputs": [
        {
          "internalType": "address",
          "name": "",
          "type": "address"
        }
      ],
      "stateMutability": "view",
      "type": "function"
    },
    {
      "inputs": [],
      "name": "protocolFeeAddress",
      "outputs": [
        {
          "internalType": "address",
          "name": "",
          "type": "address"
        }
      ],
      "stateMutability": "view",
      "type": "function"
    },
    {
      "inputs": [],
      "name": "registry",
      "outputs": [
        {
          "internalType": "address",
          "name": "",
          "type": "address"
        }
      ],
      "stateMutability": "view",
      "type": "function"
    },
    {
      "inputs": [],
      "name": "renounceOwnership",
      "outputs": [],
      "stateMutability": "nonpayable",
      "type": "function"
    },
    {
      "inputs": [],
      "name": "rigFactory",
      "outputs": [
        {
          "internalType": "address",
          "name": "",
          "type": "address"
        }
      ],
      "stateMutability": "view",
      "type": "function"
    },
    {
      "inputs": [
        {
          "internalType": "address",
          "name": "",
          "type": "address"
        }
      ],
      "name": "rigToAuction",
      "outputs": [
        {
          "internalType": "address",
          "name": "",
          "type": "address"
        }
      ],
      "stateMutability": "view",
      "type": "function"
    },
    {
      "inputs": [
        {
          "internalType": "address",
          "name": "",
          "type": "address"
        }
      ],
      "name": "rigToLP",
      "outputs": [
        {
          "internalType": "address",
          "name": "",
          "type": "address"
        }
      ],
      "stateMutability": "view",
      "type": "function"
    },
    {
      "inputs": [
        {
          "internalType": "address",
          "name": "",
          "type": "address"
        }
      ],
      "name": "rigToLauncher",
      "outputs": [
        {
          "internalType": "address",
          "name": "",
          "type": "address"
        }
      ],
      "stateMutability": "view",
      "type": "function"
    },
    {
      "inputs": [
        {
          "internalType": "address",
          "name": "",
          "type": "address"
        }
      ],
      "name": "rigToQuote",
      "outputs": [
        {
          "internalType": "address",
          "name": "",
          "type": "address"
        }
      ],
      "stateMutability": "view",
      "type": "function"
    },
    {
      "inputs": [
        {
          "internalType": "address",
          "name": "",
          "type": "address"
        }
      ],
      "name": "rigToUnit",
      "outputs": [
        {
          "internalType": "address",
          "name": "",
          "type": "address"
        }
      ],
      "stateMutability": "view",
      "type": "function"
    },
    {
      "inputs": [
        {
          "internalType": "uint256",
          "name": "_minDonutForLaunch",
          "type": "uint256"
        }
      ],
      "name": "setMinDonutForLaunch",
      "outputs": [],
      "stateMutability": "nonpayable",
      "type": "function"
    },
    {
      "inputs": [
        {
          "internalType": "address",
          "name": "_protocolFeeAddress",
          "type": "address"
        }
      ],
      "name": "setProtocolFeeAddress",
      "outputs": [],
      "stateMutability": "nonpayable",
      "type": "function"
    },
    {
      "inputs": [
        {
          "internalType": "address",
          "name": "newOwner",
          "type": "address"
        }
      ],
      "name": "transferOwnership",
      "outputs": [],
      "stateMutability": "nonpayable",
      "type": "function"
    },
    {
      "inputs": [],
      "name": "uniswapV2Factory",
      "outputs": [
        {
          "internalType": "address",
          "name": "",
          "type": "address"
        }
      ],
      "stateMutability": "view",
      "type": "function"
    },
    {
      "inputs": [],
      "name": "uniswapV2Router",
      "outputs": [
        {
          "internalType": "address",
          "name": "",
          "type": "address"
        }
      ],
      "stateMutability": "view",
      "type": "function"
    },
    {
      "inputs": [],
      "name": "unitFactory",
      "outputs": [
        {
          "internalType": "address",
          "name": "",
          "type": "address"
        }
      ],
      "stateMutability": "view",
      "type": "function"
    }
  ],
  "bytecode": "0x61018034620002b4576200224c38819003601f8101601f191683016001600160401b03811184821017620002b95783928291604052833961014092839181010312620002b4576200005081620002cf565b6200005e60208301620002cf565b926200006d60408401620002cf565b6200007b60608501620002cf565b926200008a60808601620002cf565b956200009960a08701620002cf565b94620000a860c08801620002cf565b620000b660e08901620002cf565b9661010099620000c88b8b01620002cf565b93610120809b0151976000549660018060a01b031998338a8a161760005560405160018060a01b03998a3391167f8be0079c531659141344cd1fd0a4f28419497f9722a3daafe3b4186f6b6457e0600080a360018055818a16158a8f8215620002a8575b82156200029c575b821562000290575b821562000284575b821562000278575b82156200026c575b821562000260575b505062000251575060805260a05260c05260e0528a52885285526101609586521690600254161760025560035560405192611f679485620002e586396080518581816105970152818161105001526110d9015260a05185818161092401528181610ad301528181610b2d01528181610b8701528181610c4601526117fa015260c0518581816106e40152610c78015260e051858181610a4501528181610a7f01528181610ab201528181610b0c01528181610bf6015261188201525184818161041101526109b8015251838181610e5201526117760152518281816104600152610d57015251818181610dc401526117310152f35b63aac405c960e01b8152600490fd5b161590508a8f6200015c565b8a821615925062000154565b8982161592506200014c565b88821615925062000144565b8782161592506200013c565b86821615925062000134565b8582161592506200012c565b600080fd5b634e487b7160e01b600052604160045260246000fd5b51906001600160a01b0382168203620002b45756fe608080604052600436101561001357600080fd5b600090813560e01c9081630524c46a146118d5575080630986e40f1461033e5780630e1c17e7146118b15780631694505e1461186c5780631cd7e1361461184757806332359f6d1461182957806332a8ad99146117e457806335239f94146117a55780633635bdfd146103435780633fec79a21461176057806347ce07cc1461171b5780634e6fd6c4146116fe578063544a8b7a1461071357806359d0f713146106ce578063699b22b1146102fa5780636b7b91121461065f578063715018a6146106055780637975e2a1146105c65780637b1039991461058157806380ee356014610564578063832c0e5f1461053057806383e9d76b146104f15780638d74be19146104455780638da5cb5b146104ca5780638e0a9b2614610440578063a3fcb57a146104ad578063a8c493c31461048f578063abf4fde41461044a578063ad3857fb14610445578063ba0d1a5e14610440578063bbba90e2146103fb578063cce516b7146103d2578063d21bde931461038c578063d7a8c47514610348578063e91825a114610343578063eaa581601461033e578063eb081747146102ff578063eb1f9c1b146102fa578063f2fde38b146102295763f9e6e6e7146101d957600080fd5b34610226576020366003190112610226577f96c8eb8f356df1b32db10d545cfe96948b1a18cd9061438411002806f7af2f896020600435610218611af1565b80600355604051908152a180f35b80fd5b5034610226576020366003190112610226576004356001600160a01b03818116918290036102f657610259611af1565b81156102a257600054826bffffffffffffffffffffffff60a01b821617600055167f8be0079c531659141344cd1fd0a4f28419497f9722a3daafe3b4186f6b6457e0600080a380f35b60405162461bcd60e51b815260206004820152602660248201527f4f776e61626c653a206e6577206f776e657220697320746865207a65726f206160448201526564647265737360d01b6064820152608490fd5b8280fd5b61195b565b5034610226576020366003190112610226576001600160a01b03600435818116908190036102f657826040916020945260068452205416604051908152f35b611915565b61193d565b5034610226576020366003190112610226576004359060045482101561022657602061037383611aa4565b905460405160039290921b1c6001600160a01b03168152f35b5034610226576020366003190112610226576004356001600160a01b038116908190036103ce5760408260ff9260209452600584522054166040519015158152f35b5080fd5b50346102265780600319360112610226576002546040516001600160a01b039091168152602090f35b50346102265780600319360112610226576040517f00000000000000000000000000000000000000000000000000000000000000006001600160a01b03168152602090f35b611a81565b611a62565b50346102265780600319360112610226576040517f00000000000000000000000000000000000000000000000000000000000000006001600160a01b03168152602090f35b50346102265780600319360112610226576020600354604051908152f35b50346102265780600319360112610226576020604051610e108152f35b5034610226578060031936011261022657546040516001600160a01b039091168152602090f35b5034610226576020366003190112610226576001600160a01b03600435818116908190036102f657826040916020945260098452205416604051908152f35b503461022657806003193601126102265761056061054c611a02565b604051918291602083526020830190611a22565b0390f35b503461022657806003193601126102265760206040516102588152f35b50346102265780600319360112610226576040517f00000000000000000000000000000000000000000000000000000000000000006001600160a01b03168152602090f35b5034610226576020366003190112610226576001600160a01b03600435818116908190036102f657826040916020945260078452205416604051908152f35b503461022657806003193601126102265761061e611af1565b600080546001600160a01b0319811682556001600160a01b03167f8be0079c531659141344cd1fd0a4f28419497f9722a3daafe3b4186f6b6457e08280a380f35b5034610226576020366003190112610226576004356001600160a01b038116908190036103ce5760207f7e9a69fb63e32ca76918e9bfbf93e3fa09d95a659a17efc13e6b574c598d9681916106b2611af1565b600280546001600160a01b03191682179055604051908152a180f35b50346102265780600319360112610226576040517f00000000000000000000000000000000000000000000000000000000000000006001600160a01b03168152602090f35b50346102265760203660031901126102265767ffffffffffffffff600435116102265761022060043536036003190112610226576002600154146116b95760026001556001600160a01b0361076b6004803501611bbc565b16156116a7576001600160a01b03610787600435602401611bbc565b16156116955760035460a4600435013510611683576107b0604460043501600435600401611b49565b905015611671576107cb606460043501600435600401611b49565b90501561165f5760c460043501351561164d576102586101446004350135108015611639575b61162757670f43fc2c04ee0000610164600435013510801561160f575b6115fd57620f424061018460043501351080156115e6575b6115d45760e460043501351580156115bb575b6115a9576101046004350135158015611593575b611581576101246004350135158015611568575b61155657610e106101c46004350135108015611542575b61153057670f43fc2c04ee00006101e46004350135108015611518575b61150657620f424061020460043501351080156114ef575b6114dd5761020460043501356101a460043501351080156114c6575b6114b557604051906323b872dd60e01b602083015233602483015230604483015260a460043501356064830152606482528160a081011067ffffffffffffffff60a0840111176114a15760a082016040526109a191610951907f00000000000000000000000000000000000000000000000000000000000000006001600160a01b0316611d50565b6020610967604460043501600435600401611b49565b6109b361097e606460043501600435600401611b49565b604051978895869563b548848760e01b8752604060048801526044870191611b9b565b84810360031901602486015291611b9b565b0381847f00000000000000000000000000000000000000000000000000000000000000006001600160a01b03165af19182156113d3578192611480575b506001600160a01b0382163b15610226576040516340c10f1960e01b8152306004808301919091523560c4013560248201528181604481836001600160a01b0388165af180156112d557611471575b50610a737f00000000000000000000000000000000000000000000000000000000000000006001600160a01b038416611bd0565b610aad60043560c401357f00000000000000000000000000000000000000000000000000000000000000006001600160a01b038516611c12565b610b007f00000000000000000000000000000000000000000000000000000000000000007f00000000000000000000000000000000000000000000000000000000000000006001600160a01b0316611bd0565b610b5a60043560a401357f00000000000000000000000000000000000000000000000000000000000000007f00000000000000000000000000000000000000000000000000000000000000006001600160a01b0316611c12565b6104b04201421161145d5760405162e8e33760e81b81526001600160a01b038381166004808401919091527f00000000000000000000000000000000000000000000000000000000000000008216602484015260c49035818101356044850181905260a4918201356064860181905260848601919091529084015230908301526104b0420160e4830152909190606090839061010490829085907f0000000000000000000000000000000000000000000000000000000000000000165af19182156113d3578192611426575b5060405163e6a4390560e01b81526001600160a01b0380851660048301527f000000000000000000000000000000000000000000000000000000000000000016602482015291602083806044810103817f00000000000000000000000000000000000000000000000000000000000000006001600160a01b03165afa9283156112d5578293611401575b50610cef906040519063a9059cbb60e01b602083015261dead6024830152604482015260448152610ce0816119c4565b6001600160a01b038416611d50565b60405190633e25ba8f60e21b82526101a46004350135600483015260018060a01b038316602483015261dead60448301526101c4600435013560648301526101e460043501356084830152610204600435013560a483015260208260c4818460018060a01b037f0000000000000000000000000000000000000000000000000000000000000000165af19182156113d35781926113e0575b50610d96602460043501611bbc565b600254604051635d68ffa560e01b81526001600160a01b0387811660048084019190915293811660248301527f0000000000000000000000000000000000000000000000000000000000000000811660448301529182166064820152848216608482015291356101448181013560a48501526101648083013560c486015261018483013560e4808701919091528301356101048087019190915261012480850135908701529092013590840152919291602091849190829085907f0000000000000000000000000000000000000000000000000000000000000000165af19182156113d35781926113a2575b506001600160a01b0385163b156102265760405163588d95c960e11b81526001600160a01b03838116600483015282908290602490829084908b165af180156112d55790829161138e575b5050610ee3608460043501600435600401611b49565b9050611308575b610ef8600435600401611bbc565b6001600160a01b0383163b156103ce5760405163f2fde38b60e01b81526001600160a01b03918216600482015290829082906024908290849088165af180156112d5579082916112f4575b5050600454680100000000000000008110156112e057806001610f699201600455611aa4565b81546001600160a01b0385811660039390931b83811b91901b19909116179091558152600560205260408120805460ff19166001179055610fad6004803501611bbc565b60066020908152604080842080546001600160a01b03199081166001600160a01b039586161790915560078352818520805482168a8616179055600883528185208054821688861617905560099092528320805482169287169290921790915561101b600435602401611bbc565b600a6020526040832080549092166001600160a01b0390911617905561103f611a02565b61104d600435600401611bbc565b907f00000000000000000000000000000000000000000000000000000000000000006001600160a01b03163b156102f657604051631d3317b360e31b81526001600160a01b038516600482015260806024820152918391839182916110b6906084840190611a22565b6001600160a01b038b8116604485015291821660648401529190910390829084907f0000000000000000000000000000000000000000000000000000000000000000165af180156112d5576112c1575b505060043560040161111790611bbc565b611125602460043501611bbc565b9061113860048035604481019101611b49565b9061114b60048035606481019101611b49565b61115d60048035608481019101611b49565b604080516001600160a01b03988916815298881660208a01528c88169089015288871660608901528987166080890152958a1660a08801526102a060c088018190528796919591946111b3929188019190611b9b565b9085820360e08701526111c592611b9b565b908382036101008501526111d892611b9b565b60043560a481013561012084015260c481013561014084015260e48101356101608401526101048101356101808401526101248101356101a08401526101448101356101c08401526101648101356101e08401526101848101356102008401526101a48101356102208401526101c48101356102408401526101e481013561026084015261020401356102808301527fd5067620f3685115bd3868b6df69682f06ec1da1cb8b3b4535768c087ea8fc809291900390a160018055604080516001600160a01b03958616815291851660208301529184169181019190915291166060820152608090f35b6112cb829161197e565b6102265780611106565b6040513d84823e3d90fd5b634e487b7160e01b82526041600452602482fd5b6112fd9061197e565b610226578038610f43565b61131c608460043501600435600401611b49565b6001600160a01b0384163b156102f657604051639b642de160e01b8152602060048201529183918391829161135691602484019190611b9b565b0381836001600160a01b0388165af180156112d55790829161137a575b5050610eea565b6113839061197e565b610226578038611373565b6113979061197e565b610226578038610ecd565b6113c591925060203d6020116113cc575b6113bd81836119e0565b810190611b7c565b9038610e82565b503d6113b3565b50604051903d90823e3d90fd5b6113fa91925060203d6020116113cc576113bd81836119e0565b9038610d87565b610cef91935061141f9060203d6020116113cc576113bd81836119e0565b9290610cb0565b9091506060813d606011611455575b81611442606093836119e0565b810103126103ce57604001519038610c26565b3d9150611435565b634e487b7160e01b81526011600452602490fd5b61147a9061197e565b38610a3f565b61149a91925060203d6020116113cc576113bd81836119e0565b90386109f0565b634e487b7160e01b81526041600452602490fd5b60405162a078bd60e31b8152600490fd5b506001600160c01b036004356101a40135116108c9565b6040516331ab97fd60e21b8152600490fd5b506001600160c01b036004356102040135116108ad565b60405163da6adb2f60e01b8152600490fd5b506729a2241af62c00006101e4600435013511610895565b604051630d16b4ab60e11b8152600490fd5b506301e133806101c4600435013511610878565b604051632972a24360e11b8152600490fd5b50683635c9adc5dea00000610124600435013510610861565b60405163ddab1cdb60e01b8152600490fd5b5060e4600435013561010460043501351161084d565b6040516301fd82ed60e11b8152600490fd5b5069d3c21bcecceda100000060e4600435013511610839565b6040516306413ee960e11b8152600490fd5b506001600160c01b03600435610184013511610826565b60405163363ca0b960e11b8152600490fd5b506729a2241af62c000061016460043501351161080e565b60405163665b0f0f60e01b8152600490fd5b506301e133806101446004350135116107f1565b6040516398cfc80b60e01b8152600490fd5b604051639ad049f560e01b8152600490fd5b604051631417600960e21b8152600490fd5b604051633b81cf9560e21b8152600490fd5b604051634e7c9a5960e01b8152600490fd5b604051637aebc2b760e01b8152600490fd5b60405162461bcd60e51b815260206004820152601f60248201527f5265656e7472616e637947756172643a207265656e7472616e742063616c6c006044820152606490fd5b5034610226578060031936011261022657602060405161dead8152f35b50346102265780600319360112610226576040517f00000000000000000000000000000000000000000000000000000000000000006001600160a01b03168152602090f35b50346102265780600319360112610226576040517f00000000000000000000000000000000000000000000000000000000000000006001600160a01b03168152602090f35b5034610226576020366003190112610226576001600160a01b03600435818116908190036102f6578260409160209452600a8452205416604051908152f35b50346102265780600319360112610226576040517f00000000000000000000000000000000000000000000000000000000000000006001600160a01b03168152602090f35b50346102265780600319360112610226576020600454604051908152f35b5034610226578060031936011261022657602060405169d3c21bcecceda10000008152f35b50346102265780600319360112610226576040517f00000000000000000000000000000000000000000000000000000000000000006001600160a01b03168152602090f35b50346102265780600319360112610226576020604051683635c9adc5dea000008152f35b9050346103ce5760203660031901126103ce576001600160a01b0360043581811690819003611911578360409160209552600885522054168152f35b8380fd5b34611938576000366003190112611938576040516001600160c01b038152602090f35b600080fd5b34611938576000366003190112611938576020604051620f42408152f35b346119385760003660031901126119385760206040516729a2241af62c00008152f35b67ffffffffffffffff811161199257604052565b634e487b7160e01b600052604160045260246000fd5b6040810190811067ffffffffffffffff82111761199257604052565b6080810190811067ffffffffffffffff82111761199257604052565b90601f8019910116810190811067ffffffffffffffff82111761199257604052565b60405190611a0f826119a8565b60048252636d696e6560e01b6020830152565b919082519283825260005b848110611a4e575050826000602080949584010152601f8019910116010190565b602081830181015184830182015201611a2d565b346119385760003660031901126119385760206040516301e133808152f35b34611938576000366003190112611938576020604051670f43fc2c04ee00008152f35b600454811015611adb5760046000527f8a35acfbc15ff81a39ae7d344fd709f28e8600b4aa8c65c6b64bfe7fe36bd19b0190600090565b634e487b7160e01b600052603260045260246000fd5b6000546001600160a01b03163303611b0557565b606460405162461bcd60e51b815260206004820152602060248201527f4f776e61626c653a2063616c6c6572206973206e6f7420746865206f776e65726044820152fd5b903590601e1981360301821215611938570180359067ffffffffffffffff82116119385760200191813603831361193857565b9081602091031261193857516001600160a01b03811681036119385790565b908060209392818452848401376000828201840152601f01601f1916010190565b356001600160a01b03811681036119385790565b60405163095ea7b360e01b60208201526001600160a01b03909216602483015260006044808401919091528252611c109190611c0b826119c4565b611d50565b565b91909181158015611cc4575b15611c605760405163095ea7b360e01b60208201526001600160a01b03939093166024840152604480840192909252908252611c109190611c0b6064836119e0565b60405162461bcd60e51b815260206004820152603660248201527f5361666545524332303a20617070726f76652066726f6d206e6f6e2d7a65726f60448201527520746f206e6f6e2d7a65726f20616c6c6f77616e636560501b6064820152608490fd5b50604051636eb1769f60e11b81523060048201526001600160a01b0384166024820152602081806044810103816001600160a01b0386165afa908115611d4457600091611d13575b5015611c1e565b906020823d8211611d3c575b81611d2c602093836119e0565b8101031261022657505138611d0c565b3d9150611d1f565b6040513d6000823e3d90fd5b60018060a01b031690604051611d65816119a8565b6020928382527f5361666545524332303a206c6f772d6c6576656c2063616c6c206661696c6564848301526000808486829651910182855af13d15611e8a573d9167ffffffffffffffff8311611e765790611de093929160405192611dd388601f19601f84011601856119e0565b83523d868885013e611e94565b805191821591848315611e52575b505050905015611dfb5750565b6084906040519062461bcd60e51b82526004820152602a60248201527f5361666545524332303a204552433230206f7065726174696f6e20646964206e6044820152691bdd081cdd58d8d9595960b21b6064820152fd5b9193818094500103126103ce57820151908115158203610226575080388084611dee565b634e487b7160e01b85526041600452602485fd5b90611de092916060915b91929015611ef65750815115611ea8575090565b3b15611eb15790565b60405162461bcd60e51b815260206004820152601d60248201527f416464726573733a2063616c6c20746f206e6f6e2d636f6e74726163740000006044820152606490fd5b825190915015611f095750805190602001fd5b60405162461bcd60e51b815260206004820152908190611f2d906024830190611a22565b0390fdfea26469706673582212204828d87722f4dc8c49c04a28e60995e1ff7320e95fe8289ed60281df748dec4264736f6c63430008130033",
  "linkReferences": {},
  "deployedLinkReferences": {}
}