{
  "_format": "hh-sol-artifact-1",
  "contractName": "SlotRig",
  "sourceName": "contracts/rigs/slot/SlotRig.sol",
  "abi": [
    {
      "inputs": [
        {
          "internalType": "address",
          "name": "_unit",
          "type": "address"
        },
        {
          "internalType": "address",
          "name": "_quote",
          "type": "address"
        },
        {
          "internalType": "address",
          "name": "_entropy",
          "type": "address"
        },
        {
          "internalType": "address",
          "name": "_treasury",
          "type": "address"
        },
        {
          "internalType": "address",
          "name": "_core",
          "type": "address"
        },
        {
          "components": [
            {
              "internalType": "uint256",
              "name": "epochPeriod",
              "type": "uint256"
            },
            {
              "internalType": "uint256",
              "name": "priceMultiplier",
              "type": "uint256"
            },
            {
              "internalType": "uint256",
              "name": "minInitPrice",
              "type": "uint256"
            },
            {
              "internalType": "uint256",
              "name": "initialUps",
              "type": "uint256"
            },
            {
              "internalType": "uint256",
              "name": "halvingPeriod",
              "type": "uint256"
            },
            {
              "internalType": "uint256",
              "name": "tailUps",
              "type": "uint256"
            }
          ],
          "internalType": "struct SlotRig.Config",
          "name": "config",
          "type": "tuple"
        }
      ],
      "stateMutability": "nonpayable",
      "type": "constructor"
    },
    {
      "inputs": [],
      "name": "SlotRig__EpochIdMismatch",
      "type": "error"
    },
    {
      "inputs": [],
      "name": "SlotRig__EpochPeriodOutOfRange",
      "type": "error"
    },
    {
      "inputs": [],
      "name": "SlotRig__Expired",
      "type": "error"
    },
    {
      "inputs": [],
      "name": "SlotRig__HalvingPeriodOutOfRange",
      "type": "error"
    },
    {
      "inputs": [],
      "name": "SlotRig__InitialUpsOutOfRange",
      "type": "error"
    },
    {
      "inputs": [],
      "name": "SlotRig__InsufficientFee",
      "type": "error"
    },
    {
      "inputs": [],
      "name": "SlotRig__InvalidAddress",
      "type": "error"
    },
    {
      "inputs": [],
      "name": "SlotRig__InvalidOdds",
      "type": "error"
    },
    {
      "inputs": [],
      "name": "SlotRig__InvalidSlotner",
      "type": "error"
    },
    {
      "inputs": [],
      "name": "SlotRig__MaxPriceExceeded",
      "type": "error"
    },
    {
      "inputs": [],
      "name": "SlotRig__MinInitPriceOutOfRange",
      "type": "error"
    },
    {
      "inputs": [],
      "name": "SlotRig__OddsTooLow",
      "type": "error"
    },
    {
      "inputs": [],
      "name": "SlotRig__PriceMultiplierOutOfRange",
      "type": "error"
    },
    {
      "inputs": [],
      "name": "SlotRig__TailUpsOutOfRange",
      "type": "error"
    },
    {
      "anonymous": false,
      "inputs": [
        {
          "indexed": true,
          "internalType": "address",
          "name": "previousOwner",
          "type": "address"
        },
        {
          "indexed": true,
          "internalType": "address",
          "name": "newOwner",
          "type": "address"
        }
      ],
      "name": "OwnershipTransferred",
      "type": "event"
    },
    {
      "anonymous": false,
      "inputs": [
        {
          "indexed": true,
          "internalType": "uint256",
          "name": "epochId",
          "type": "uint256"
        },
        {
          "indexed": false,
          "internalType": "uint256",
          "name": "amount",
          "type": "uint256"
        }
      ],
      "name": "SlotRig__EmissionMinted",
      "type": "event"
    },
    {
      "anonymous": false,
      "inputs": [
        {
          "indexed": true,
          "internalType": "uint256",
          "name": "epochId",
          "type": "uint256"
        },
        {
          "indexed": true,
          "internalType": "uint64",
          "name": "sequenceNumber",
          "type": "uint64"
        }
      ],
      "name": "SlotRig__EntropyRequested",
      "type": "event"
    },
    {
      "anonymous": false,
      "inputs": [
        {
          "indexed": false,
          "internalType": "uint256[]",
          "name": "odds",
          "type": "uint256[]"
        }
      ],
      "name": "SlotRig__OddsSet",
      "type": "event"
    },
    {
      "anonymous": false,
      "inputs": [
        {
          "indexed": true,
          "internalType": "address",
          "name": "protocol",
          "type": "address"
        },
        {
          "indexed": true,
          "internalType": "uint256",
          "name": "epochId",
          "type": "uint256"
        },
        {
          "indexed": false,
          "internalType": "uint256",
          "name": "amount",
          "type": "uint256"
        }
      ],
      "name": "SlotRig__ProtocolFee",
      "type": "event"
    },
    {
      "anonymous": false,
      "inputs": [
        {
          "indexed": true,
          "internalType": "address",
          "name": "sender",
          "type": "address"
        },
        {
          "indexed": true,
          "internalType": "address",
          "name": "slotner",
          "type": "address"
        },
        {
          "indexed": true,
          "internalType": "uint256",
          "name": "epochId",
          "type": "uint256"
        },
        {
          "indexed": false,
          "internalType": "uint256",
          "name": "price",
          "type": "uint256"
        }
      ],
      "name": "SlotRig__Slot",
      "type": "event"
    },
    {
      "anonymous": false,
      "inputs": [
        {
          "indexed": true,
          "internalType": "address",
          "name": "team",
          "type": "address"
        },
        {
          "indexed": true,
          "internalType": "uint256",
          "name": "epochId",
          "type": "uint256"
        },
        {
          "indexed": false,
          "internalType": "uint256",
          "name": "amount",
          "type": "uint256"
        }
      ],
      "name": "SlotRig__TeamFee",
      "type": "event"
    },
    {
      "anonymous": false,
      "inputs": [
        {
          "indexed": true,
          "internalType": "address",
          "name": "team",
          "type": "address"
        }
      ],
      "name": "SlotRig__TeamSet",
      "type": "event"
    },
    {
      "anonymous": false,
      "inputs": [
        {
          "indexed": true,
          "internalType": "address",
          "name": "treasury",
          "type": "address"
        },
        {
          "indexed": true,
          "internalType": "uint256",
          "name": "epochId",
          "type": "uint256"
        },
        {
          "indexed": false,
          "internalType": "uint256",
          "name": "amount",
          "type": "uint256"
        }
      ],
      "name": "SlotRig__TreasuryFee",
      "type": "event"
    },
    {
      "anonymous": false,
      "inputs": [
        {
          "indexed": true,
          "internalType": "address",
          "name": "treasury",
          "type": "address"
        }
      ],
      "name": "SlotRig__TreasurySet",
      "type": "event"
    },
    {
      "anonymous": false,
      "inputs": [
        {
          "indexed": true,
          "internalType": "address",
          "name": "slotner",
          "type": "address"
        },
        {
          "indexed": true,
          "internalType": "uint256",
          "name": "epochId",
          "type": "uint256"
        },
        {
          "indexed": false,
          "internalType": "uint256",
          "name": "oddsBps",
          "type": "uint256"
        },
        {
          "indexed": false,
          "internalType": "uint256",
          "name": "amount",
          "type": "uint256"
        }
      ],
      "name": "SlotRig__Win",
      "type": "event"
    },
    {
      "inputs": [],
      "name": "ABS_MAX_INIT_PRICE",
      "outputs": [
        {
          "internalType": "uint256",
          "name": "",
          "type": "uint256"
        }
      ],
      "stateMutability": "view",
      "type": "function"
    },
    {
      "inputs": [],
      "name": "ABS_MIN_INIT_PRICE",
      "outputs": [
        {
          "internalType": "uint256",
          "name": "",
          "type": "uint256"
        }
      ],
      "stateMutability": "view",
      "type": "function"
    },
    {
      "inputs": [],
      "name": "DIVISOR",
      "outputs": [
        {
          "internalType": "uint256",
          "name": "",
          "type": "uint256"
        }
      ],
      "stateMutability": "view",
      "type": "function"
    },
    {
      "inputs": [],
      "name": "MAX_EPOCH_PERIOD",
      "outputs": [
        {
          "internalType": "uint256",
          "name": "",
          "type": "uint256"
        }
      ],
      "stateMutability": "view",
      "type": "function"
    },
    {
      "inputs": [],
      "name": "MAX_HALVING_PERIOD",
      "outputs": [
        {
          "internalType": "uint256",
          "name": "",
          "type": "uint256"
        }
      ],
      "stateMutability": "view",
      "type": "function"
    },
    {
      "inputs": [],
      "name": "MAX_INITIAL_UPS",
      "outputs": [
        {
          "internalType": "uint256",
          "name": "",
          "type": "uint256"
        }
      ],
      "stateMutability": "view",
      "type": "function"
    },
    {
      "inputs": [],
      "name": "MAX_ODDS_BPS",
      "outputs": [
        {
          "internalType": "uint256",
          "name": "",
          "type": "uint256"
        }
      ],
      "stateMutability": "view",
      "type": "function"
    },
    {
      "inputs": [],
      "name": "MAX_PRICE_MULTIPLIER",
      "outputs": [
        {
          "internalType": "uint256",
          "name": "",
          "type": "uint256"
        }
      ],
      "stateMutability": "view",
      "type": "function"
    },
    {
      "inputs": [],
      "name": "MIN_EPOCH_PERIOD",
      "outputs": [
        {
          "internalType": "uint256",
          "name": "",
          "type": "uint256"
        }
      ],
      "stateMutability": "view",
      "type": "function"
    },
    {
      "inputs": [],
      "name": "MIN_HALVING_PERIOD",
      "outputs": [
        {
          "internalType": "uint256",
          "name": "",
          "type": "uint256"
        }
      ],
      "stateMutability": "view",
      "type": "function"
    },
    {
      "inputs": [],
      "name": "MIN_ODDS_BPS",
      "outputs": [
        {
          "internalType": "uint256",
          "name": "",
          "type": "uint256"
        }
      ],
      "stateMutability": "view",
      "type": "function"
    },
    {
      "inputs": [],
      "name": "MIN_PRICE_MULTIPLIER",
      "outputs": [
        {
          "internalType": "uint256",
          "name": "",
          "type": "uint256"
        }
      ],
      "stateMutability": "view",
      "type": "function"
    },
    {
      "inputs": [],
      "name": "PRECISION",
      "outputs": [
        {
          "internalType": "uint256",
          "name": "",
          "type": "uint256"
        }
      ],
      "stateMutability": "view",
      "type": "function"
    },
    {
      "inputs": [],
      "name": "PROTOCOL_BPS",
      "outputs": [
        {
          "internalType": "uint256",
          "name": "",
          "type": "uint256"
        }
      ],
      "stateMutability": "view",
      "type": "function"
    },
    {
      "inputs": [],
      "name": "TEAM_BPS",
      "outputs": [
        {
          "internalType": "uint256",
          "name": "",
          "type": "uint256"
        }
      ],
      "stateMutability": "view",
      "type": "function"
    },
    {
      "inputs": [
        {
          "internalType": "uint64",
          "name": "sequence",
          "type": "uint64"
        },
        {
          "internalType": "address",
          "name": "provider",
          "type": "address"
        },
        {
          "internalType": "bytes32",
          "name": "randomNumber",
          "type": "bytes32"
        }
      ],
      "name": "_entropyCallback",
      "outputs": [],
      "stateMutability": "nonpayable",
      "type": "function"
    },
    {
      "inputs": [],
      "name": "core",
      "outputs": [
        {
          "internalType": "address",
          "name": "",
          "type": "address"
        }
      ],
      "stateMutability": "view",
      "type": "function"
    },
    {
      "inputs": [],
      "name": "entropy",
      "outputs": [
        {
          "internalType": "contract IEntropyV2",
          "name": "",
          "type": "address"
        }
      ],
      "stateMutability": "view",
      "type": "function"
    },
    {
      "inputs": [],
      "name": "epochId",
      "outputs": [
        {
          "internalType": "uint256",
          "name": "",
          "type": "uint256"
        }
      ],
      "stateMutability": "view",
      "type": "function"
    },
    {
      "inputs": [],
      "name": "epochPeriod",
      "outputs": [
        {
          "internalType": "uint256",
          "name": "",
          "type": "uint256"
        }
      ],
      "stateMutability": "view",
      "type": "function"
    },
    {
      "inputs": [],
      "name": "getEntropyFee",
      "outputs": [
        {
          "internalType": "uint256",
          "name": "",
          "type": "uint256"
        }
      ],
      "stateMutability": "view",
      "type": "function"
    },
    {
      "inputs": [],
      "name": "getEpochId",
      "outputs": [
        {
          "internalType": "uint256",
          "name": "",
          "type": "uint256"
        }
      ],
      "stateMutability": "view",
      "type": "function"
    },
    {
      "inputs": [],
      "name": "getInitPrice",
      "outputs": [
        {
          "internalType": "uint256",
          "name": "",
          "type": "uint256"
        }
      ],
      "stateMutability": "view",
      "type": "function"
    },
    {
      "inputs": [],
      "name": "getOdds",
      "outputs": [
        {
          "internalType": "uint256[]",
          "name": "",
          "type": "uint256[]"
        }
      ],
      "stateMutability": "view",
      "type": "function"
    },
    {
      "inputs": [],
      "name": "getOddsLength",
      "outputs": [
        {
          "internalType": "uint256",
          "name": "",
          "type": "uint256"
        }
      ],
      "stateMutability": "view",
      "type": "function"
    },
    {
      "inputs": [],
      "name": "getPendingEmissions",
      "outputs": [
        {
          "internalType": "uint256",
          "name": "",
          "type": "uint256"
        }
      ],
      "stateMutability": "view",
      "type": "function"
    },
    {
      "inputs": [],
      "name": "getPrice",
      "outputs": [
        {
          "internalType": "uint256",
          "name": "",
          "type": "uint256"
        }
      ],
      "stateMutability": "view",
      "type": "function"
    },
    {
      "inputs": [],
      "name": "getPrizePool",
      "outputs": [
        {
          "internalType": "uint256",
          "name": "",
          "type": "uint256"
        }
      ],
      "stateMutability": "view",
      "type": "function"
    },
    {
      "inputs": [],
      "name": "getSlotStartTime",
      "outputs": [
        {
          "internalType": "uint256",
          "name": "",
          "type": "uint256"
        }
      ],
      "stateMutability": "view",
      "type": "function"
    },
    {
      "inputs": [],
      "name": "getUps",
      "outputs": [
        {
          "internalType": "uint256",
          "name": "",
          "type": "uint256"
        }
      ],
      "stateMutability": "view",
      "type": "function"
    },
    {
      "inputs": [],
      "name": "halvingPeriod",
      "outputs": [
        {
          "internalType": "uint256",
          "name": "",
          "type": "uint256"
        }
      ],
      "stateMutability": "view",
      "type": "function"
    },
    {
      "inputs": [],
      "name": "initPrice",
      "outputs": [
        {
          "internalType": "uint256",
          "name": "",
          "type": "uint256"
        }
      ],
      "stateMutability": "view",
      "type": "function"
    },
    {
      "inputs": [],
      "name": "initialUps",
      "outputs": [
        {
          "internalType": "uint256",
          "name": "",
          "type": "uint256"
        }
      ],
      "stateMutability": "view",
      "type": "function"
    },
    {
      "inputs": [],
      "name": "lastEmissionTime",
      "outputs": [
        {
          "internalType": "uint256",
          "name": "",
          "type": "uint256"
        }
      ],
      "stateMutability": "view",
      "type": "function"
    },
    {
      "inputs": [],
      "name": "minInitPrice",
      "outputs": [
        {
          "internalType": "uint256",
          "name": "",
          "type": "uint256"
        }
      ],
      "stateMutability": "view",
      "type": "function"
    },
    {
      "inputs": [
        {
          "internalType": "uint256",
          "name": "",
          "type": "uint256"
        }
      ],
      "name": "odds",
      "outputs": [
        {
          "internalType": "uint256",
          "name": "",
          "type": "uint256"
        }
      ],
      "stateMutability": "view",
      "type": "function"
    },
    {
      "inputs": [],
      "name": "owner",
      "outputs": [
        {
          "internalType": "address",
          "name": "",
          "type": "address"
        }
      ],
      "stateMutability": "view",
      "type": "function"
    },
    {
      "inputs": [],
      "name": "priceMultiplier",
      "outputs": [
        {
          "internalType": "uint256",
          "name": "",
          "type": "uint256"
        }
      ],
      "stateMutability": "view",
      "type": "function"
    },
    {
      "inputs": [],
      "name": "quote",
      "outputs": [
        {
          "internalType": "address",
          "name": "",
          "type": "address"
        }
      ],
      "stateMutability": "view",
      "type": "function"
    },
    {
      "inputs": [],
      "name": "renounceOwnership",
      "outputs": [],
      "stateMutability": "nonpayable",
      "type": "function"
    },
    {
      "inputs": [
        {
          "internalType": "uint64",
          "name": "",
          "type": "uint64"
        }
      ],
      "name": "sequenceToEpoch",
      "outputs": [
        {
          "internalType": "uint256",
          "name": "",
          "type": "uint256"
        }
      ],
      "stateMutability": "view",
      "type": "function"
    },
    {
      "inputs": [
        {
          "internalType": "uint64",
          "name": "",
          "type": "uint64"
        }
      ],
      "name": "sequenceToSlotner",
      "outputs": [
        {
          "internalType": "address",
          "name": "",
          "type": "address"
        }
      ],
      "stateMutability": "view",
      "type": "function"
    },
    {
      "inputs": [
        {
          "internalType": "uint256[]",
          "name": "_odds",
          "type": "uint256[]"
        }
      ],
      "name": "setOdds",
      "outputs": [],
      "stateMutability": "nonpayable",
      "type": "function"
    },
    {
      "inputs": [
        {
          "internalType": "address",
          "name": "_team",
          "type": "address"
        }
      ],
      "name": "setTeam",
      "outputs": [],
      "stateMutability": "nonpayable",
      "type": "function"
    },
    {
      "inputs": [
        {
          "internalType": "address",
          "name": "_treasury",
          "type": "address"
        }
      ],
      "name": "setTreasury",
      "outputs": [],
      "stateMutability": "nonpayable",
      "type": "function"
    },
    {
      "inputs": [
        {
          "internalType": "address",
          "name": "slotner",
          "type": "address"
        },
        {
          "internalType": "uint256",
          "name": "_epochId",
          "type": "uint256"
        },
        {
          "internalType": "uint256",
          "name": "deadline",
          "type": "uint256"
        },
        {
          "internalType": "uint256",
          "name": "maxPrice",
          "type": "uint256"
        }
      ],
      "name": "slot",
      "outputs": [
        {
          "internalType": "uint256",
          "name": "price",
          "type": "uint256"
        }
      ],
      "stateMutability": "payable",
      "type": "function"
    },
    {
      "inputs": [],
      "name": "slotStartTime",
      "outputs": [
        {
          "internalType": "uint256",
          "name": "",
          "type": "uint256"
        }
      ],
      "stateMutability": "view",
      "type": "function"
    },
    {
      "inputs": [],
      "name": "startTime",
      "outputs": [
        {
          "internalType": "uint256",
          "name": "",
          "type": "uint256"
        }
      ],
      "stateMutability": "view",
      "type": "function"
    },
    {
      "inputs": [],
      "name": "tailUps",
      "outputs": [
        {
          "internalType": "uint256",
          "name": "",
          "type": "uint256"
        }
      ],
      "stateMutability": "view",
      "type": "function"
    },
    {
      "inputs": [],
      "name": "team",
      "outputs": [
        {
          "internalType": "address",
          "name": "",
          "type": "address"
        }
      ],
      "stateMutability": "view",
      "type": "function"
    },
    {
      "inputs": [
        {
          "internalType": "address",
          "name": "newOwner",
          "type": "address"
        }
      ],
      "name": "transferOwnership",
      "outputs": [],
      "stateMutability": "nonpayable",
      "type": "function"
    },
    {
      "inputs": [],
      "name": "treasury",
      "outputs": [
        {
          "internalType": "address",
          "name": "",
          "type": "address"
        }
      ],
      "stateMutability": "view",
      "type": "function"
    },
    {
      "inputs": [],
      "name": "unit",
      "outputs": [
        {
          "internalType": "address",
          "name": "",
          "type": "address"
        }
      ],
      "stateMutability": "view",
      "type": "function"
    }
  ],
  "bytecode": "0x6101e0346200048c576001600160401b036200220538819003601f8101601f191684018381118582101762000383578492829160405283398101039061016082126200048c57620000508362000491565b926200005f6020820162000491565b926200006e6040830162000491565b936200007d6060840162000491565b60c06200008d6080860162000491565b93609f1901126200048c576040519460c0860190811186821017620003835760405260a0840151855260c0840151602086015260e0840151604086015261010096878501516060870152610120968786015160808801526101408096015160a08801526001600055600154933360018060a01b031986161760015560405160018060a01b0395863391167f8be0079c531659141344cd1fd0a4f28419497f9722a3daafe3b4186f6b6457e0600080a3858416156200047d5750848116156200046b57848216156200046b57848416156200046b57848616156200046b57875161025881109081156200045c575b506200044a576020880151670f43fc2c04ee0000811090811562000437575b5062000425576040880151620f4240811090811562000413575b50620004015760608801518015908115620003ec575b50620003db5760a08801518015908115620003cc575b50620003ba57608088015162093a808110908115620003ab575b506200039957849260805260a0521660e0521660018060a01b0319600254161760025560c05281516101809081526020830151916101a0928352604080850151946101c09586526060810151875260a081015183526080810151610160524288524260075542600655015160055560085468010000000000000000811015620003835760018101806008558110156200036d5760649060086000526020600020015560405194611d5e9687620004a788396080518781816106800152818161072e015281816119b50152611b29015260a0518781816106180152610b66015260c05187818161036e0152610ace015260e0518781816108d701528181610ee601528181611061015261137b015251868181610d880152611bbe01525185818161059f0152611bec0152518481816111000152611c0f015261016051848181610e6f0152611c4d0152518381816105640152611c990152518281816104e6015261085b015251818181610a52015261113b0152f35b634e487b7160e01b600052603260045260246000fd5b634e487b7160e01b600052604160045260246000fd5b60405163012440f960e41b8152600490fd5b6301e1338091501138620001f9565b60405163188d2d6360e11b8152600490fd5b905060608901511038620001df565b604051627e08e360e51b8152600490fd5b69d3c21bcecceda100000091501138620001c9565b6040516337650a4f60e01b8152600490fd5b6001600160c01b0310905038620001b3565b60405163046c489d60e51b8152600490fd5b6729a2241af62c00009150113862000199565b6040516305380ce360e31b8152600490fd5b6301e13380915011386200017a565b604051634f8146c760e11b8152600490fd5b634f8146c760e11b8152600490fd5b600080fd5b51906001600160a01b03821682036200048c5756fe6040608081526004908136101561001557600080fd5b600091823560e01c908163095cf5c61461146d5781630bf34fbb146105095781630de84da91461142a57816317f4f0ab146106af5781631d5b17061461140d578163272438461461115e5781632a4265a6146113ee5781632d971e63146113535781633054da03146111635781633410fe6e1461115e5781633c92276e1461112357816342b14a79146110e8578163439af45e146110c957816346156ea01461109057816347ce07cc1461104c5781634aebdf231461102e5781634c5be57414610fb857816351b68ab91461052d57816352a5f1f814610eb55781635889486e14610e925781635a3e251f14610e5757816361d027b314610e2e578163715018a614610dce578163750d48b814610dab57816378e9792514610d705781637d36a410146105e55781637f9c452f146107da57816385f2aef2146107b1578163884bf67c146106ff57816388f4b49e146106dd5781638da5cb5b146106b45781638fc59c52146106af578163907af6c01461066b578163925e38ab1461052857816398d5fdca14610647578163999b93af14610603578163aa9bbc0c146105e5578163aaf5eb68146105c2578163abf0caa414610587578163b5b7a1841461054c578163b6add0f41461052d578163c1e7af3514610528578163ca3b330314610509578163d50cb88b146104ce578163d5861d91146104b1578163d927c8791461048c578163dd481bf21461046e578163e44d78d014610436578163efd3315614610418578163f0f442601461039d578163f2f4eb2614610359578163f2fde38b14610289575063f6cb1a491461026a57600080fd5b34610285578160031936011261028557602090516102588152f35b5080fd5b905034610355576020366003190112610355576102a46114d5565b906102ad6115d5565b6001600160a01b03918216928315610303575050600154826bffffffffffffffffffffffff60a01b821617600155167f8be0079c531659141344cd1fd0a4f28419497f9722a3daafe3b4186f6b6457e08380a380f35b906020608492519162461bcd60e51b8352820152602660248201527f4f776e61626c653a206e6577206f776e657220697320746865207a65726f206160448201526564647265737360d01b6064820152fd5b8280fd5b505034610285578160031936011261028557517f00000000000000000000000000000000000000000000000000000000000000006001600160a01b03168152602090f35b905034610355576020366003190112610355576103b86114d5565b6103c06115d5565b6001600160a01b031691821561040b575050600280546001600160a01b031916821790557f7a7d9bc4e70dcb93c443cda2cf97dfa66539498c368072fb5e4067fba261760d8280a280f35b51634f8146c760e11b8152fd5b50503461028557816003193601126102855760209051620f42408152f35b505034610285576020366003190112610285578060209267ffffffffffffffff61045e6114f0565b168152600a845220549051908152f35b5050346102855781600319360112610285576020905162093a808152f35b5050346102855781600319360112610285576020905169d3c21bcecceda10000008152f35b505034610285578160031936011261028557602090516101908152f35b505034610285578160031936011261028557602090517f00000000000000000000000000000000000000000000000000000000000000008152f35b5050346102855781600319360112610285576020906006549051908152f35b6115b9565b5050346102855781600319360112610285576020906005549051908152f35b505034610285578160031936011261028557602090517f00000000000000000000000000000000000000000000000000000000000000008152f35b505034610285578160031936011261028557602090517f00000000000000000000000000000000000000000000000000000000000000008152f35b50503461028557816003193601126102855760209051670de0b6b3a76400008152f35b90503461035557826003193601126103555760209250549051908152f35b505034610285578160031936011261028557517f00000000000000000000000000000000000000000000000000000000000000006001600160a01b03168152602090f35b505034610285578160031936011261028557602090610664611c8b565b9051908152f35b505034610285578160031936011261028557517f00000000000000000000000000000000000000000000000000000000000000006001600160a01b03168152602090f35b611507565b50503461028557816003193601126102855760015490516001600160a01b039091168152602090f35b505034610285578160031936011261028557516001600160c01b038152602090f35b9190503461035557826003193601126103555780516370a0823160e01b815230928101929092526020826024817f00000000000000000000000000000000000000000000000000000000000000006001600160a01b03165afa9182156107a7578392610770575b6020838351908152f35b9091506020813d821161079f575b8161078b6020938361162d565b810103126103555760209250519038610766565b3d915061077e565b81513d85823e3d90fd5b50503461028557816003193601126102855760035490516001600160a01b039091168152602090f35b90506080366003190112610355576107f06114d5565b926002815414610d2d57600281556001600160a01b039384168015610d1d576044354211610d0d57825460243503610cfd5761082a611c8b565b926064358411610cef5783158015610ab9575b50610846611af5565b80610a87575b50670de0b6b3a76400006108807f000000000000000000000000000000000000000000000000000000000000000086611665565b6001600160c01b0391900481811115610a4d5750955b81549660018801835560055542600655855196858852836020987f10fc3773487806dc9f811ce82e472c9cf68f910464b6d6dba5e8a5d0b576c0858a3392a47f00000000000000000000000000000000000000000000000000000000000000001685516341025b3d60e11b815287818481855afa908115610a4357906001600160801b03918691610a16575b501690813410610a0657879083885180948193637b43155d60e01b83525af19081156109fc5784916109b2575b5067ffffffffffffffff168084526009875285842080546001600160a01b03191690931790925554600a865284832081905593519360019291907fe7fb01f3fe1dca1fb81d82e9c2ce841f2a3850a8b4a2454ab09a790617f745358380a3558152f35b90508681813d83116109f5575b6109c9818361162d565b810103126109f1575167ffffffffffffffff811681036109f15767ffffffffffffffff61094f565b8380fd5b503d6109bf565b86513d86823e3d90fd5b8651638d7c893f60e01b81528390fd5b610a369150893d8b11610a3c575b610a2e818361162d565b8101906116bb565b38610922565b503d610a24565b87513d87823e3d90fd5b9690507f0000000000000000000000000000000000000000000000000000000000000000808810610a7f575b50610896565b965038610a79565b7f54da56d4ea8b900cde35f96c178591113aa00998f0c5c18c6b5b0a09fcf4652560208354928851908152a23861084c565b855163cce516b760e01b8152906020808385817f00000000000000000000000000000000000000000000000000000000000000008d165afa928315610ce5578693610ca9575b50600354891615610ca2576101908088029088820414831715610c8f576127109004925b808a16928a8415610c79575060648902908982046064141715610c6657908985610b5f8b610b5a8f97966127109004998a926116ae565b6116ae565b610b9281877f000000000000000000000000000000000000000000000000000000000000000016976002541633896116da565b8d600254167f4617f7c13dd6095dadd43fff222779a33eb6325f6a72ecc6d31ce9817248d6dd868b54938651908152a38c8482610c1e575b5050505084610bdd575b5050505061083d565b84610c0b917f634213e0a601b1ab8e055c05f4bbe4f38715a9f55e9fe073792554e5f5e929a39433906116da565b8454938951908152a33880808080610bd4565b81610c50847f6aa90d84e5f0c6f7fe7206e9a37d8aff3298a012d07ad1caadfd308b96d3b44d9460035416338b6116da565b60035416928a549451908152a389388c84610bca565b634e487b7160e01b885260118652602488fd5b929190508985610b5f8b610b5a8c998a926116ae565b634e487b7160e01b875260118552602487fd5b8592610b23565b9080935081813d8311610cde575b610cc1818361162d565b81010312610cda57518881168103610cda579138610aff565b8580fd5b503d610cb7565b88513d88823e3d90fd5b845163199915c360e01b8152fd5b835163a87a8eab60e01b81528390fd5b83516313de192760e11b81528390fd5b83516311c5253f60e21b81528390fd5b506020606492519162461bcd60e51b8352820152601f60248201527f5265656e7472616e637947756172643a207265656e7472616e742063616c6c006044820152fd5b505034610285578160031936011261028557602090517f00000000000000000000000000000000000000000000000000000000000000008152f35b50503461028557816003193601126102855760209051670f43fc2c04ee00008152f35b8334610e2b5780600319360112610e2b57610de76115d5565b600180546001600160a01b0319811690915581906001600160a01b03167f8be0079c531659141344cd1fd0a4f28419497f9722a3daafe3b4186f6b6457e08280a380f35b80fd5b50503461028557816003193601126102855760025490516001600160a01b039091168152602090f35b505034610285578160031936011261028557602090517f00000000000000000000000000000000000000000000000000000000000000008152f35b505034610285578160031936011261028557602090516729a2241af62c00008152f35b90503461035557606036600319011261035557610ed06114f0565b916001600160a01b0360243581811603610fb4577f0000000000000000000000000000000000000000000000000000000000000000168015610f71573303610f225783610f1f60443585611959565b80f35b906020608492519162461bcd60e51b8352820152602360248201527f4f6e6c7920456e74726f70792063616e2063616c6c20746869732066756e637460448201526234b7b760e91b6064820152fd5b815162461bcd60e51b8152602081850152601760248201527f456e74726f70792061646472657373206e6f74207365740000000000000000006044820152606490fd5b8480fd5b828434610e2b5780600319360112610e2b57815191829160085480855260208095019460088352600080516020611d0983398151915292905b828210611017576110138686611009828b038361162d565b519182918261157e565b0390f35b835487529586019560019384019390910190610ff1565b50503461028557816003193601126102855760209061066442611bbc565b505034610285578160031936011261028557517f00000000000000000000000000000000000000000000000000000000000000006001600160a01b03168152602090f35b905034610355576020366003190112610355573591600854831015610e2b57506110bb602092611543565b91905490519160031b1c8152f35b5050346102855781600319360112610285576020906007549051908152f35b505034610285578160031936011261028557602090517f00000000000000000000000000000000000000000000000000000000000000008152f35b505034610285578160031936011261028557602090517f00000000000000000000000000000000000000000000000000000000000000008152f35b611526565b91905034610355576020806003193601126109f15767ffffffffffffffff908335828111610cda5736602382011215610cda578085013583811161134f578060051b9560249182888501019036821161134b576111be6115d5565b6111cc8689519a018a61162d565b885284880193830185855b83831061133b57505050508651801561132c57885b8181106112c457505086519485116112b3576801000000000000000085116112b357505060085483600855808410611285575b509060088652855b83811061126557867f958f573d0d489e3e95062c48e2bcd790baf82bea2bf790ff0a3c0bd541c324b861125f8888519182918261157e565b0390a180f35b8251600080516020611d0983398151915282015591810191600101611227565b83600080516020611d0983398151915291820191015b8181106112a8575061121f565b87815560010161129b565b634e487b7160e01b88526041905286fd5b60646112d0828b611c77565b511061131c576127106112e3828b611c77565b511161130c5760001981146112fa576001016111ec565b634e487b7160e01b8a5260118352838afd5b87516322efe5c760e21b81528390fd5b87516380e297cf60e01b81528390fd5b5085516322efe5c760e21b8152fd5b82358152918101918791016111d7565b8980fd5b8680fd5b9190503461035557826003193601126103555780516341025b3d60e11b8152916020908390817f00000000000000000000000000000000000000000000000000000000000000006001600160a01b03165afa9182156107a757602093926113c6575b506001600160801b03905191168152f35b6001600160801b039192506113e790843d8111610a3c57610a2e818361162d565b91906113b5565b5050346102855781600319360112610285576020906008549051908152f35b505034610285578160031936011261028557602090610664611ce9565b5050346102855760203660031901126102855760209167ffffffffffffffff6114516114f0565b168152600983528190205490516001600160a01b039091168152f35b8334610e2b576020366003190112610e2b576114876114d5565b61148f6115d5565b600380546001600160a01b0319166001600160a01b039290921691821790557f9dd6d065851f0536f7808c6ff623011be79ac97db79ffb234ceaceffca4ccbc68280a280f35b600435906001600160a01b03821682036114eb57565b600080fd5b6004359067ffffffffffffffff821682036114eb57565b346114eb5760003660031901126114eb5760206040516301e133808152f35b346114eb5760003660031901126114eb5760206040516127108152f35b600854811015611568576008600052600080516020611d098339815191520190600090565b634e487b7160e01b600052603260045260246000fd5b6020908160408183019282815285518094520193019160005b8281106115a5575050505090565b835185529381019392810192600101611597565b346114eb5760003660031901126114eb57602060405160648152f35b6001546001600160a01b031633036115e957565b606460405162461bcd60e51b815260206004820152602060248201527f4f776e61626c653a2063616c6c6572206973206e6f7420746865206f776e65726044820152fd5b90601f8019910116810190811067ffffffffffffffff82111761164f57604052565b634e487b7160e01b600052604160045260246000fd5b8181029291811591840414171561167857565b634e487b7160e01b600052601160045260246000fd5b8115611698570490565b634e487b7160e01b600052601260045260246000fd5b9190820391821161167857565b908160209103126114eb57516001600160801b03811681036114eb5790565b6040516323b872dd60e01b60208201526001600160a01b03928316602482015292909116604483015260648083019390935291815260a081019181831067ffffffffffffffff84111761164f5761173392604052611735565b565b60018060a01b0316906040516040810167ffffffffffffffff908281108282111761164f576040526020938483527f5361666545524332303a206c6f772d6c6576656c2063616c6c206661696c6564858401526000808587829751910182855af1903d1561187a573d92831161186657906117d0939291604051926117c388601f19601f840116018561162d565b83523d868885013e611885565b805191821591848315611842575b5050509050156117eb5750565b6084906040519062461bcd60e51b82526004820152602a60248201527f5361666545524332303a204552433230206f7065726174696f6e20646964206e6044820152691bdd081cdd58d8d9595960b21b6064820152fd5b91938180945001031261028557820151908115158203610e2b5750803880846117de565b634e487b7160e01b85526041600452602485fd5b906117d09392506060915b919290156118e75750815115611899575090565b3b156118a25790565b60405162461bcd60e51b815260206004820152601d60248201527f416464726573733a2063616c6c20746f206e6f6e2d636f6e74726163740000006044820152606490fd5b8251909150156118fa5750805190602001fd5b6040519062461bcd60e51b82528160208060048301528251908160248401526000935b828510611940575050604492506000838284010152601f80199101168101030190fd5b848101820151868601604401529381019385935061191d565b67ffffffffffffffff1660009081526009602090815260408083208054600a845282852080546001600160a01b0319831690935585905593959490936001600160a01b039081169390918415611ac7576119b290611ad1565b917f0000000000000000000000000000000000000000000000000000000000000000169083516370a0823160e01b81523060048201528181602481865afa988915611abc578099611a86575b5050612710611a31847fed4eb973d2f386f271c440aec5082b56f97cf7b5e2e387ce511b59d25c83cef49798999a611665565b049182611a45575b508351928352820152a3565b845163a9059cbb60e01b838201526001600160a01b038816602482015260448082018590528152611a8091611a7b60648361162d565b611735565b38611a39565b9098508189813d8311611ab5575b611a9e818361162d565b81010312610e2b5750965196612710611a316119fe565b503d611a94565b8551903d90823e3d90fd5b5050505050509050565b6008548015611aee57611ae49106611543565b90549060031b1c90565b5050606490565b611b01600754426116ae565b8015611bb657611b1a90611b1442611bbc565b90611665565b80611b27575b4260075590565b7f00000000000000000000000000000000000000000000000000000000000000006001600160a01b0316803b156114eb576040516340c10f1960e01b815230600482015260248101839052906000908290604490829084905af18015611baa57611b92575b50611b20565b67ffffffffffffffff811161164f5760405238611b8c565b6040513d6000823e3d90fd5b50600090565b7f000000000000000000000000000000000000000000000000000000000000000090818111611c3e57505060005b7f0000000000000000000000000000000000000000000000000000000000000000901c7f0000000000000000000000000000000000000000000000000000000000000000808210611c39575090565b905090565b611c7291611c4b916116ae565b7f00000000000000000000000000000000000000000000000000000000000000009061168e565b611bea565b80518210156115685760209160051b010190565b611c97600654426116ae565b7f000000000000000000000000000000000000000000000000000000000000000090818111611ce257611cd9611cdf92611cd46005549384611665565b61168e565b906116ae565b90565b5050600090565b611cf5600754426116ae565b8015611bb657611cdf90611b1442611bbc56fef3f7a9fe364faab93b216da50a3214154f22a0a2b415b23a84c8169e8b636ee3a26469706673582212205c847d1be1de306cb1517071eb502ba7ad8354c71a0b202a0fea68df20ef1e4c64736f6c63430008130033",
  "linkReferences": {},
  "deployedLinkReferences": {}
}