{
  "_format": "hh-sol-artifact-1",
  "contractName": "SpinCore",
  "sourceName": "contracts/rigs/spin/SpinCore.sol",
  "abi": [
    {
      "inputs": [
        {
          "internalType": "address",
          "name": "_registry",
          "type": "address"
        },
        {
          "internalType": "address",
          "name": "_usdcToken",
          "type": "address"
        },
        {
          "internalType": "address",
          "name": "_uniswapV2Factory",
          "type": "address"
        },
        {
          "internalType": "address",
          "name": "_uniswapV2Router",
          "type": "address"
        },
        {
          "internalType": "address",
          "name": "_unitFactory",
          "type": "address"
        },
        {
          "internalType": "address",
          "name": "_spinRigFactory",
          "type": "address"
        },
        {
          "internalType": "address",
          "name": "_auctionFactory",
          "type": "address"
        },
        {
          "internalType": "address",
          "name": "_entropy",
          "type": "address"
        },
        {
          "internalType": "address",
          "name": "_protocolFeeAddress",
          "type": "address"
        },
        {
          "internalType": "uint256",
          "name": "_minUsdcForLaunch",
          "type": "uint256"
        }
      ],
      "stateMutability": "nonpayable",
      "type": "constructor"
    },
    {
      "inputs": [],
      "name": "SpinCore__EmptyTokenName",
      "type": "error"
    },
    {
      "inputs": [],
      "name": "SpinCore__EmptyTokenSymbol",
      "type": "error"
    },
    {
      "inputs": [],
      "name": "SpinCore__EmptyUri",
      "type": "error"
    },
    {
      "inputs": [],
      "name": "SpinCore__InsufficientUsdc",
      "type": "error"
    },
    {
      "inputs": [],
      "name": "SpinCore__ZeroAddress",
      "type": "error"
    },
    {
      "inputs": [],
      "name": "SpinCore__ZeroLauncher",
      "type": "error"
    },
    {
      "inputs": [],
      "name": "SpinCore__ZeroQuoteToken",
      "type": "error"
    },
    {
      "inputs": [],
      "name": "SpinCore__ZeroUnitAmount",
      "type": "error"
    },
    {
      "anonymous": false,
      "inputs": [
        {
          "indexed": true,
          "internalType": "address",
          "name": "previousOwner",
          "type": "address"
        },
        {
          "indexed": true,
          "internalType": "address",
          "name": "newOwner",
          "type": "address"
        }
      ],
      "name": "OwnershipTransferred",
      "type": "event"
    },
    {
      "anonymous": false,
      "inputs": [
        {
          "indexed": true,
          "internalType": "address",
          "name": "launcher",
          "type": "address"
        },
        {
          "indexed": true,
          "internalType": "address",
          "name": "rig",
          "type": "address"
        },
        {
          "indexed": true,
          "internalType": "address",
          "name": "unit",
          "type": "address"
        },
        {
          "indexed": false,
          "internalType": "address",
          "name": "auction",
          "type": "address"
        },
        {
          "indexed": false,
          "internalType": "address",
          "name": "lpToken",
          "type": "address"
        },
        {
          "indexed": false,
          "internalType": "address",
          "name": "quoteToken",
          "type": "address"
        },
        {
          "indexed": false,
          "internalType": "string",
          "name": "tokenName",
          "type": "string"
        },
        {
          "indexed": false,
          "internalType": "string",
          "name": "tokenSymbol",
          "type": "string"
        },
        {
          "indexed": false,
          "internalType": "string",
          "name": "uri",
          "type": "string"
        },
        {
          "indexed": false,
          "internalType": "uint256",
          "name": "usdcAmount",
          "type": "uint256"
        },
        {
          "indexed": false,
          "internalType": "uint256",
          "name": "unitAmount",
          "type": "uint256"
        },
        {
          "indexed": false,
          "internalType": "uint256",
          "name": "initialUps",
          "type": "uint256"
        },
        {
          "indexed": false,
          "internalType": "uint256",
          "name": "tailUps",
          "type": "uint256"
        },
        {
          "indexed": false,
          "internalType": "uint256",
          "name": "halvingPeriod",
          "type": "uint256"
        },
        {
          "indexed": false,
          "internalType": "uint256",
          "name": "rigEpochPeriod",
          "type": "uint256"
        },
        {
          "indexed": false,
          "internalType": "uint256",
          "name": "rigPriceMultiplier",
          "type": "uint256"
        },
        {
          "indexed": false,
          "internalType": "uint256",
          "name": "rigMinInitPrice",
          "type": "uint256"
        },
        {
          "indexed": false,
          "internalType": "uint256[]",
          "name": "odds",
          "type": "uint256[]"
        },
        {
          "indexed": false,
          "internalType": "uint256",
          "name": "auctionInitPrice",
          "type": "uint256"
        },
        {
          "indexed": false,
          "internalType": "uint256",
          "name": "auctionEpochPeriod",
          "type": "uint256"
        },
        {
          "indexed": false,
          "internalType": "uint256",
          "name": "auctionPriceMultiplier",
          "type": "uint256"
        },
        {
          "indexed": false,
          "internalType": "uint256",
          "name": "auctionMinInitPrice",
          "type": "uint256"
        }
      ],
      "name": "SpinCore__Launched",
      "type": "event"
    },
    {
      "anonymous": false,
      "inputs": [
        {
          "indexed": false,
          "internalType": "uint256",
          "name": "minUsdcForLaunch",
          "type": "uint256"
        }
      ],
      "name": "SpinCore__MinUsdcForLaunchSet",
      "type": "event"
    },
    {
      "anonymous": false,
      "inputs": [
        {
          "indexed": false,
          "internalType": "address",
          "name": "protocolFeeAddress",
          "type": "address"
        }
      ],
      "name": "SpinCore__ProtocolFeeAddressSet",
      "type": "event"
    },
    {
      "inputs": [],
      "name": "DEAD_ADDRESS",
      "outputs": [
        {
          "internalType": "address",
          "name": "",
          "type": "address"
        }
      ],
      "stateMutability": "view",
      "type": "function"
    },
    {
      "inputs": [],
      "name": "RIG_TYPE",
      "outputs": [
        {
          "internalType": "string",
          "name": "",
          "type": "string"
        }
      ],
      "stateMutability": "view",
      "type": "function"
    },
    {
      "inputs": [],
      "name": "auctionFactory",
      "outputs": [
        {
          "internalType": "address",
          "name": "",
          "type": "address"
        }
      ],
      "stateMutability": "view",
      "type": "function"
    },
    {
      "inputs": [],
      "name": "entropy",
      "outputs": [
        {
          "internalType": "address",
          "name": "",
          "type": "address"
        }
      ],
      "stateMutability": "view",
      "type": "function"
    },
    {
      "inputs": [
        {
          "components": [
            {
              "internalType": "address",
              "name": "launcher",
              "type": "address"
            },
            {
              "internalType": "address",
              "name": "quoteToken",
              "type": "address"
            },
            {
              "internalType": "string",
              "name": "tokenName",
              "type": "string"
            },
            {
              "internalType": "string",
              "name": "tokenSymbol",
              "type": "string"
            },
            {
              "internalType": "string",
              "name": "uri",
              "type": "string"
            },
            {
              "internalType": "uint256",
              "name": "usdcAmount",
              "type": "uint256"
            },
            {
              "internalType": "uint256",
              "name": "unitAmount",
              "type": "uint256"
            },
            {
              "internalType": "uint256",
              "name": "initialUps",
              "type": "uint256"
            },
            {
              "internalType": "uint256",
              "name": "tailUps",
              "type": "uint256"
            },
            {
              "internalType": "uint256",
              "name": "halvingPeriod",
              "type": "uint256"
            },
            {
              "internalType": "uint256",
              "name": "rigEpochPeriod",
              "type": "uint256"
            },
            {
              "internalType": "uint256",
              "name": "rigPriceMultiplier",
              "type": "uint256"
            },
            {
              "internalType": "uint256",
              "name": "rigMinInitPrice",
              "type": "uint256"
            },
            {
              "internalType": "uint256[]",
              "name": "odds",
              "type": "uint256[]"
            },
            {
              "internalType": "uint256",
              "name": "auctionInitPrice",
              "type": "uint256"
            },
            {
              "internalType": "uint256",
              "name": "auctionEpochPeriod",
              "type": "uint256"
            },
            {
              "internalType": "uint256",
              "name": "auctionPriceMultiplier",
              "type": "uint256"
            },
            {
              "internalType": "uint256",
              "name": "auctionMinInitPrice",
              "type": "uint256"
            }
          ],
          "internalType": "struct SpinCore.LaunchParams",
          "name": "params",
          "type": "tuple"
        }
      ],
      "name": "launch",
      "outputs": [
        {
          "internalType": "address",
          "name": "unit",
          "type": "address"
        },
        {
          "internalType": "address",
          "name": "rig",
          "type": "address"
        },
        {
          "internalType": "address",
          "name": "auction",
          "type": "address"
        },
        {
          "internalType": "address",
          "name": "lpToken",
          "type": "address"
        }
      ],
      "stateMutability": "nonpayable",
      "type": "function"
    },
    {
      "inputs": [],
      "name": "minUsdcForLaunch",
      "outputs": [
        {
          "internalType": "uint256",
          "name": "",
          "type": "uint256"
        }
      ],
      "stateMutability": "view",
      "type": "function"
    },
    {
      "inputs": [],
      "name": "owner",
      "outputs": [
        {
          "internalType": "address",
          "name": "",
          "type": "address"
        }
      ],
      "stateMutability": "view",
      "type": "function"
    },
    {
      "inputs": [],
      "name": "protocolFeeAddress",
      "outputs": [
        {
          "internalType": "address",
          "name": "",
          "type": "address"
        }
      ],
      "stateMutability": "view",
      "type": "function"
    },
    {
      "inputs": [],
      "name": "registry",
      "outputs": [
        {
          "internalType": "address",
          "name": "",
          "type": "address"
        }
      ],
      "stateMutability": "view",
      "type": "function"
    },
    {
      "inputs": [],
      "name": "renounceOwnership",
      "outputs": [],
      "stateMutability": "nonpayable",
      "type": "function"
    },
    {
      "inputs": [
        {
          "internalType": "address",
          "name": "",
          "type": "address"
        }
      ],
      "name": "rigToAuction",
      "outputs": [
        {
          "internalType": "address",
          "name": "",
          "type": "address"
        }
      ],
      "stateMutability": "view",
      "type": "function"
    },
    {
      "inputs": [
        {
          "internalType": "address",
          "name": "",
          "type": "address"
        }
      ],
      "name": "rigToIndex",
      "outputs": [
        {
          "internalType": "uint256",
          "name": "",
          "type": "uint256"
        }
      ],
      "stateMutability": "view",
      "type": "function"
    },
    {
      "inputs": [
        {
          "internalType": "address",
          "name": "",
          "type": "address"
        }
      ],
      "name": "rigToIsRig",
      "outputs": [
        {
          "internalType": "bool",
          "name": "",
          "type": "bool"
        }
      ],
      "stateMutability": "view",
      "type": "function"
    },
    {
      "inputs": [
        {
          "internalType": "address",
          "name": "",
          "type": "address"
        }
      ],
      "name": "rigToLP",
      "outputs": [
        {
          "internalType": "address",
          "name": "",
          "type": "address"
        }
      ],
      "stateMutability": "view",
      "type": "function"
    },
    {
      "inputs": [
        {
          "internalType": "uint256",
          "name": "",
          "type": "uint256"
        }
      ],
      "name": "rigs",
      "outputs": [
        {
          "internalType": "address",
          "name": "",
          "type": "address"
        }
      ],
      "stateMutability": "view",
      "type": "function"
    },
    {
      "inputs": [],
      "name": "rigsLength",
      "outputs": [
        {
          "internalType": "uint256",
          "name": "",
          "type": "uint256"
        }
      ],
      "stateMutability": "view",
      "type": "function"
    },
    {
      "inputs": [
        {
          "internalType": "uint256",
          "name": "_minUsdcForLaunch",
          "type": "uint256"
        }
      ],
      "name": "setMinUsdcForLaunch",
      "outputs": [],
      "stateMutability": "nonpayable",
      "type": "function"
    },
    {
      "inputs": [
        {
          "internalType": "address",
          "name": "_protocolFeeAddress",
          "type": "address"
        }
      ],
      "name": "setProtocolFeeAddress",
      "outputs": [],
      "stateMutability": "nonpayable",
      "type": "function"
    },
    {
      "inputs": [],
      "name": "spinRigFactory",
      "outputs": [
        {
          "internalType": "address",
          "name": "",
          "type": "address"
        }
      ],
      "stateMutability": "view",
      "type": "function"
    },
    {
      "inputs": [
        {
          "internalType": "address",
          "name": "newOwner",
          "type": "address"
        }
      ],
      "name": "transferOwnership",
      "outputs": [],
      "stateMutability": "nonpayable",
      "type": "function"
    },
    {
      "inputs": [],
      "name": "uniswapV2Factory",
      "outputs": [
        {
          "internalType": "address",
          "name": "",
          "type": "address"
        }
      ],
      "stateMutability": "view",
      "type": "function"
    },
    {
      "inputs": [],
      "name": "uniswapV2Router",
      "outputs": [
        {
          "internalType": "address",
          "name": "",
          "type": "address"
        }
      ],
      "stateMutability": "view",
      "type": "function"
    },
    {
      "inputs": [],
      "name": "unitFactory",
      "outputs": [
        {
          "internalType": "address",
          "name": "",
          "type": "address"
        }
      ],
      "stateMutability": "view",
      "type": "function"
    },
    {
      "inputs": [],
      "name": "usdcToken",
      "outputs": [
        {
          "internalType": "address",
          "name": "",
          "type": "address"
        }
      ],
      "stateMutability": "view",
      "type": "function"
    }
  ],
  "bytecode": "0x61018034620002b45762001dc538819003601f8101601f191683016001600160401b03811184821017620002b95783928291604052833961014092839181010312620002b4576200005081620002cf565b6200005e60208301620002cf565b926200006d60408401620002cf565b6200007b60608501620002cf565b926200008a60808601620002cf565b956200009960a08701620002cf565b94620000a860c08801620002cf565b620000b660e08901620002cf565b9661010099620000c88b8b01620002cf565b93610120809b0151976000549660018060a01b031998338a8a161760005560405160018060a01b03998a3391167f8be0079c531659141344cd1fd0a4f28419497f9722a3daafe3b4186f6b6457e0600080a360018055818a16158a8f8215620002a8575b82156200029c575b821562000290575b821562000284575b821562000278575b82156200026c575b821562000260575b505062000251575060805260a05260c05260e0528a52885285526101609586521690600254161760025560035560405192611ae09485620002e5863960805185818161045f01528181610fab0152611014015260a0518581816106b401528181610820015281816109cf01528181610a2901528181610a830152610b42015260c05185818161056d0152610b74015260e05185818161066f015281816109410152818161097b015281816109ae01528181610a080152610af20152518481816102a301526108b401525183818161032d0152610da30152518281816102e80152610c510152518181816105cf0152610d140152f35b63cf80440560e01b8152600490fd5b161590508a8f6200015c565b8a821615925062000154565b8982161592506200014c565b88821615925062000144565b8782161592506200013c565b86821615925062000134565b8582161592506200012c565b600080fd5b634e487b7160e01b600052604160045260246000fd5b51906001600160a01b0382168203620002b45756fe6080604052600436101561001257600080fd5b6000803560e01c806305244d77146114b55780630524c46a146114765780630c579530146106e357806311eac8551461069e5780631694505e1461065957806332d1338e1461061c578063446418cf146105fe57806347ce07cc146105b95780634e6fd6c41461059c57806359d0f713146105575780636b7b9112146104e8578063715018a61461048e5780637b10399914610449578063832c0e5f1461040857806383e9d76b146103c95780638da5cb5b146103a25780639827ba631461035c5780639b321d9214610317578063abf4fde4146102d2578063bbba90e21461028d578063cce516b714610264578063cf52d14314610246578063d9efb589146101f85763f2fde38b1461012557600080fd5b346101f55760203660031901126101f5576004356001600160a01b03818116918290036101f157610154611613565b811561019d57600054826bffffffffffffffffffffffff60a01b821617600055167f8be0079c531659141344cd1fd0a4f28419497f9722a3daafe3b4186f6b6457e0600080a380f35b60405162461bcd60e51b815260206004820152602660248201527f4f776e61626c653a206e6577206f776e657220697320746865207a65726f206160448201526564647265737360d01b6064820152608490fd5b8280fd5b80fd5b50346101f55760203660031901126101f5577f0ec9039d63dc0d154e919f6dca58c6455ef8db69f50f1d45e44ffa29f217bb706020600435610238611613565b80600355604051908152a180f35b50346101f557806003193601126101f5576020600454604051908152f35b50346101f557806003193601126101f5576002546040516001600160a01b039091168152602090f35b50346101f557806003193601126101f5576040517f00000000000000000000000000000000000000000000000000000000000000006001600160a01b03168152602090f35b50346101f557806003193601126101f5576040517f00000000000000000000000000000000000000000000000000000000000000006001600160a01b03168152602090f35b50346101f557806003193601126101f5576040517f00000000000000000000000000000000000000000000000000000000000000006001600160a01b03168152602090f35b50346101f55760203660031901126101f5576004356001600160a01b0381169081900361039e5760408260ff9260209452600584522054166040519015158152f35b5080fd5b50346101f557806003193601126101f557546040516001600160a01b039091168152602090f35b50346101f55760203660031901126101f5576001600160a01b03600435818116908190036101f157826040916020945260088452205416604051908152f35b50346101f557806003193601126101f55761044560405161042881611570565b600481526339b834b760e11b6020820152604051918291826115ca565b0390f35b50346101f557806003193601126101f5576040517f00000000000000000000000000000000000000000000000000000000000000006001600160a01b03168152602090f35b50346101f557806003193601126101f5576104a7611613565b600080546001600160a01b0319811682556001600160a01b03167f8be0079c531659141344cd1fd0a4f28419497f9722a3daafe3b4186f6b6457e08280a380f35b50346101f55760203660031901126101f5576004356001600160a01b0381169081900361039e5760207f8353abad207947fa3703a3ba092f2576130eaf34c7ab40613e08b52b3e77c9c49161053b611613565b600280546001600160a01b03191682179055604051908152a180f35b50346101f557806003193601126101f5576040517f00000000000000000000000000000000000000000000000000000000000000006001600160a01b03168152602090f35b50346101f557806003193601126101f557602060405161dead8152f35b50346101f557806003193601126101f5576040517f00000000000000000000000000000000000000000000000000000000000000006001600160a01b03168152602090f35b50346101f557806003193601126101f5576020600354604051908152f35b50346101f55760203660031901126101f5576004356001600160a01b0381169081900361039e578160409160209352600683522054604051908152f35b50346101f557806003193601126101f5576040517f00000000000000000000000000000000000000000000000000000000000000006001600160a01b03168152602090f35b50346101f557806003193601126101f5576040517f00000000000000000000000000000000000000000000000000000000000000006001600160a01b03168152602090f35b50346101f55760203660031901126101f55767ffffffffffffffff600435116101f557610240600435360360031901126101f5576002600154146114315760026001556001600160a01b0361073b60048035016116e3565b161561141f576001600160a01b036107576004356024016116e3565b161561140d5760035460a46004350135106113fb5761078060446004350160043560040161166b565b9050156113e95761079b60646004350160043560040161166b565b9050156113d7576107b660846004350160043560040161166b565b9050156113c55760c46004350135156113b357604051906323b872dd60e01b602083015233602483015230604483015260a460043501356064830152606482528160a081011067ffffffffffffffff60a08401111761139f5760a0820160405261089d9161084d907f00000000000000000000000000000000000000000000000000000000000000006001600160a01b03166118d1565b602061086360446004350160043560040161166b565b6108af61087a60646004350160043560040161166b565b604051978895869563b548848760e01b87526040600488015260448701916116c2565b848103600319016024860152916116c2565b0381847f00000000000000000000000000000000000000000000000000000000000000006001600160a01b03165af19182156112d157819261137e575b506001600160a01b0382163b156101f5576040516340c10f1960e01b8152306004808301919091523560c4013560248201528181604481836001600160a01b0388165af180156112455761136f575b5061096f7f00000000000000000000000000000000000000000000000000000000000000006001600160a01b038416611751565b6109a960043560c401357f00000000000000000000000000000000000000000000000000000000000000006001600160a01b038516611793565b6109fc7f00000000000000000000000000000000000000000000000000000000000000007f00000000000000000000000000000000000000000000000000000000000000006001600160a01b0316611751565b610a5660043560a401357f00000000000000000000000000000000000000000000000000000000000000007f00000000000000000000000000000000000000000000000000000000000000006001600160a01b0316611793565b6104b04201421161135b5760405162e8e33760e81b81526001600160a01b038381166004808401919091527f00000000000000000000000000000000000000000000000000000000000000008216602484015260c49035818101356044850181905260a4918201356064860181905260848601919091529084015230908301526104b0420160e4830152909190606090839061010490829085907f0000000000000000000000000000000000000000000000000000000000000000165af19182156112d1578192611324575b5060405163e6a4390560e01b81526001600160a01b0380851660048301527f000000000000000000000000000000000000000000000000000000000000000016602482015291602083806044810103817f00000000000000000000000000000000000000000000000000000000000000006001600160a01b03165afa9283156112455782936112ff575b50610beb906040519063a9059cbb60e01b602083015261dead6024830152604482015260448152610bdc8161158c565b6001600160a01b0384166118d1565b60405163423b7f1960e01b81526001600160a01b0383811660048084019190915261dead6024840152356101c481013560448401526101e481013560648401526102048101356084840152610224013560a4830152909190602090839060c490829085907f0000000000000000000000000000000000000000000000000000000000000000165af19182156112d15781926112de575b50610c906024600435016116e3565b90610c9f6004356004016116e3565b906020610cb76101a4600435016004356004016116f7565b939094610d9e604051968793849363128b0e9b60e11b855260018060a01b038d16600486015260018060a01b0316602485015230604485015260018060a01b038a16606485015260018060a01b0316608484015260018060a01b037f00000000000000000000000000000000000000000000000000000000000000001660a4840152610144600435013560c4840152610164600435013560e484015261018460043501356101048401526101249660e460043501358885015287600435013561014485015261010460043501356101648501526101a06101848501526101a484019161172d565b0381847f00000000000000000000000000000000000000000000000000000000000000006001600160a01b03165af19283156112d15781936112a0575b506001600160a01b0386163b156101f55760405163588d95c960e11b81526001600160a01b03848116600483015282908290602490829084908c165af180156112455790829161128c575b5050610e3c60846004350160043560040161166b565b6001600160a01b0385163b156101f157604051639b642de160e01b81526020600482015291839183918291610e76916024840191906116c2565b0381836001600160a01b0389165af1801561124557908291611278575b5050610ea36004356004016116e3565b6001600160a01b0384163b1561039e5760405163f2fde38b60e01b81526001600160a01b03918216600482015290829082906024908290849089165af1801561124557908291611264575b50506001600160a01b0383168152600560209081526040808320805460ff19166001179055600454600690925282208190556801000000000000000081101561125057806001610f4192016004556114f9565b81546001600160a01b0360039290921b82811b199091168683169182901b1790925590825260086020908152604080842080546001600160a01b03199081168a861617909155600790925283208054909116918616919091179055610fa960048035016116e3565b7f00000000000000000000000000000000000000000000000000000000000000006001600160a01b03163b1561039e57604051633cc8050960e21b81526001600160a01b038581166004830152888116602483015291821660448201529082908290606490829084907f0000000000000000000000000000000000000000000000000000000000000000165af1801561124557908593929161122b575b505084600435600401611058906116e3565b916110676024600435016116e3565b6110796004803560448101910161166b565b9061108c6004803560648101910161166b565b61109e6004803560848101910161166b565b9390946004356101a401600435600401906110b8916116f7565b604080516001600160a01b039e8f1681529b8e1660208d01529c9098169b8a019b909b5261026060608a01819052989a986110f792908c0191906116c2565b9089820360808b0152611109926116c2565b9087820360a089015261111b926116c2565b60043560a481013560c088015260c481013560e088015260e481013561010088015261010481013561012088015292830135610140870152610144830135610160870152610164830135610180870152610184909201356101a08601528482036101c086015261118a9261172d565b6004356101c48101356101e08501526101e481013561020085015261020481013561022085015261022401356102408401526001600160a01b038781169385821693909116917ffb0d1c3c8a7a8a1c76aab9f4c817fa239258c7ae7d45470f054404ffa46b573d919081900390a460018055604080516001600160a01b03958616815291851660208301529184169181019190915291166060820152608090f35b8192935061123890611546565b6101f55790818492611046565b6040513d84823e3d90fd5b634e487b7160e01b82526041600452602482fd5b61126d90611546565b6101f5578038610eee565b61128190611546565b6101f5578038610e93565b61129590611546565b6101f5578038610e26565b6112c391935060203d6020116112ca575b6112bb81836115a8565b8101906116a3565b9138610ddb565b503d6112b1565b50604051903d90823e3d90fd5b6112f891925060203d6020116112ca576112bb81836115a8565b9038610c81565b610beb91935061131d9060203d6020116112ca576112bb81836115a8565b9290610bac565b9091506060813d606011611353575b81611340606093836115a8565b8101031261039e57604001519038610b22565b3d9150611333565b634e487b7160e01b81526011600452602490fd5b61137890611546565b3861093b565b61139891925060203d6020116112ca576112bb81836115a8565b90386108ec565b634e487b7160e01b81526041600452602490fd5b604051636203fb2760e01b8152600490fd5b604051631353c3ed60e21b8152600490fd5b6040516331a48b3b60e21b8152600490fd5b6040516340503cfb60e01b8152600490fd5b60405163781d5dcf60e01b8152600490fd5b604051636027e32160e01b8152600490fd5b60405163f9452d9960e01b8152600490fd5b60405162461bcd60e51b815260206004820152601f60248201527f5265656e7472616e637947756172643a207265656e7472616e742063616c6c006044820152606490fd5b50346101f55760203660031901126101f5576001600160a01b03600435818116908190036101f157826040916020945260078452205416604051908152f35b50346101f55760203660031901126101f557600435906004548210156101f55760206114e0836114f9565b905460405160039290921b1c6001600160a01b03168152f35b6004548110156115305760046000527f8a35acfbc15ff81a39ae7d344fd709f28e8600b4aa8c65c6b64bfe7fe36bd19b0190600090565b634e487b7160e01b600052603260045260246000fd5b67ffffffffffffffff811161155a57604052565b634e487b7160e01b600052604160045260246000fd5b6040810190811067ffffffffffffffff82111761155a57604052565b6080810190811067ffffffffffffffff82111761155a57604052565b90601f8019910116810190811067ffffffffffffffff82111761155a57604052565b6020808252825181830181905290939260005b8281106115ff57505060409293506000838284010152601f8019910116010190565b8181018601518482016040015285016115dd565b6000546001600160a01b0316330361162757565b606460405162461bcd60e51b815260206004820152602060248201527f4f776e61626c653a2063616c6c6572206973206e6f7420746865206f776e65726044820152fd5b903590601e198136030182121561169e570180359067ffffffffffffffff821161169e5760200191813603831361169e57565b600080fd5b9081602091031261169e57516001600160a01b038116810361169e5790565b908060209392818452848401376000828201840152601f01601f1916010190565b356001600160a01b038116810361169e5790565b903590601e198136030182121561169e570180359067ffffffffffffffff821161169e57602001918160051b3603831361169e57565b81835290916001600160fb1b03831161169e5760209260051b809284830137010190565b60405163095ea7b360e01b60208201526001600160a01b03909216602483015260006044808401919091528252611791919061178c8261158c565b6118d1565b565b91909181158015611845575b156117e15760405163095ea7b360e01b60208201526001600160a01b03939093166024840152604480840192909252908252611791919061178c6064836115a8565b60405162461bcd60e51b815260206004820152603660248201527f5361666545524332303a20617070726f76652066726f6d206e6f6e2d7a65726f60448201527520746f206e6f6e2d7a65726f20616c6c6f77616e636560501b6064820152608490fd5b50604051636eb1769f60e11b81523060048201526001600160a01b0384166024820152602081806044810103816001600160a01b0386165afa9081156118c557600091611894575b501561179f565b906020823d82116118bd575b816118ad602093836115a8565b810103126101f55750513861188d565b3d91506118a0565b6040513d6000823e3d90fd5b60018060a01b0316906040516118e681611570565b6020928382527f5361666545524332303a206c6f772d6c6576656c2063616c6c206661696c6564848301526000808486829651910182855af13d15611a0b573d9167ffffffffffffffff83116119f757906119619392916040519261195488601f19601f84011601856115a8565b83523d868885013e611a15565b8051918215918483156119d3575b50505090501561197c5750565b6084906040519062461bcd60e51b82526004820152602a60248201527f5361666545524332303a204552433230206f7065726174696f6e20646964206e6044820152691bdd081cdd58d8d9595960b21b6064820152fd5b91938180945001031261039e578201519081151582036101f557508038808461196f565b634e487b7160e01b85526041600452602485fd5b9061196192916060915b91929015611a775750815115611a29575090565b3b15611a325790565b60405162461bcd60e51b815260206004820152601d60248201527f416464726573733a2063616c6c20746f206e6f6e2d636f6e74726163740000006044820152606490fd5b825190915015611a8a5750805190602001fd5b60405162461bcd60e51b8152908190611aa690600483016115ca565b0390fdfea264697066735822122098a434218a3bb7a1497e54be3a07696a2452bba030451bf0c2043ce93db87bfd64736f6c63430008130033",
  "linkReferences": {},
  "deployedLinkReferences": {}
}