{
  "_format": "hh-sol-artifact-1",
  "contractName": "SpinCore",
  "sourceName": "contracts/rigs/spin/SpinCore.sol",
  "abi": [
    {
      "inputs": [
        {
          "internalType": "address",
          "name": "_registry",
          "type": "address"
        },
        {
          "internalType": "address",
          "name": "_usdcToken",
          "type": "address"
        },
        {
          "internalType": "address",
          "name": "_uniswapV2Factory",
          "type": "address"
        },
        {
          "internalType": "address",
          "name": "_uniswapV2Router",
          "type": "address"
        },
        {
          "internalType": "address",
          "name": "_unitFactory",
          "type": "address"
        },
        {
          "internalType": "address",
          "name": "_spinRigFactory",
          "type": "address"
        },
        {
          "internalType": "address",
          "name": "_auctionFactory",
          "type": "address"
        },
        {
          "internalType": "address",
          "name": "_entropy",
          "type": "address"
        },
        {
          "internalType": "address",
          "name": "_protocolFeeAddress",
          "type": "address"
        },
        {
          "internalType": "uint256",
          "name": "_minUsdcForLaunch",
          "type": "uint256"
        }
      ],
      "stateMutability": "nonpayable",
      "type": "constructor"
    },
    {
      "inputs": [],
      "name": "SpinCore__EmptyTokenName",
      "type": "error"
    },
    {
      "inputs": [],
      "name": "SpinCore__EmptyTokenSymbol",
      "type": "error"
    },
    {
      "inputs": [],
      "name": "SpinCore__EmptyUri",
      "type": "error"
    },
    {
      "inputs": [],
      "name": "SpinCore__InsufficientUsdc",
      "type": "error"
    },
    {
      "inputs": [],
      "name": "SpinCore__ZeroAddress",
      "type": "error"
    },
    {
      "inputs": [],
      "name": "SpinCore__ZeroLauncher",
      "type": "error"
    },
    {
      "inputs": [],
      "name": "SpinCore__ZeroQuoteToken",
      "type": "error"
    },
    {
      "inputs": [],
      "name": "SpinCore__ZeroUnitAmount",
      "type": "error"
    },
    {
      "anonymous": false,
      "inputs": [
        {
          "indexed": true,
          "internalType": "address",
          "name": "previousOwner",
          "type": "address"
        },
        {
          "indexed": true,
          "internalType": "address",
          "name": "newOwner",
          "type": "address"
        }
      ],
      "name": "OwnershipTransferred",
      "type": "event"
    },
    {
      "anonymous": false,
      "inputs": [
        {
          "indexed": true,
          "internalType": "address",
          "name": "launcher",
          "type": "address"
        },
        {
          "indexed": true,
          "internalType": "address",
          "name": "rig",
          "type": "address"
        },
        {
          "indexed": true,
          "internalType": "address",
          "name": "unit",
          "type": "address"
        },
        {
          "indexed": false,
          "internalType": "address",
          "name": "auction",
          "type": "address"
        },
        {
          "indexed": false,
          "internalType": "address",
          "name": "lpToken",
          "type": "address"
        },
        {
          "indexed": false,
          "internalType": "address",
          "name": "quoteToken",
          "type": "address"
        },
        {
          "indexed": false,
          "internalType": "string",
          "name": "tokenName",
          "type": "string"
        },
        {
          "indexed": false,
          "internalType": "string",
          "name": "tokenSymbol",
          "type": "string"
        },
        {
          "indexed": false,
          "internalType": "string",
          "name": "uri",
          "type": "string"
        },
        {
          "indexed": false,
          "internalType": "uint256",
          "name": "usdcAmount",
          "type": "uint256"
        },
        {
          "indexed": false,
          "internalType": "uint256",
          "name": "unitAmount",
          "type": "uint256"
        },
        {
          "indexed": false,
          "internalType": "uint256",
          "name": "initialUps",
          "type": "uint256"
        },
        {
          "indexed": false,
          "internalType": "uint256",
          "name": "tailUps",
          "type": "uint256"
        },
        {
          "indexed": false,
          "internalType": "uint256",
          "name": "halvingPeriod",
          "type": "uint256"
        },
        {
          "indexed": false,
          "internalType": "uint256",
          "name": "rigEpochPeriod",
          "type": "uint256"
        },
        {
          "indexed": false,
          "internalType": "uint256",
          "name": "rigPriceMultiplier",
          "type": "uint256"
        },
        {
          "indexed": false,
          "internalType": "uint256",
          "name": "rigMinInitPrice",
          "type": "uint256"
        },
        {
          "indexed": false,
          "internalType": "uint256",
          "name": "auctionInitPrice",
          "type": "uint256"
        },
        {
          "indexed": false,
          "internalType": "uint256",
          "name": "auctionEpochPeriod",
          "type": "uint256"
        },
        {
          "indexed": false,
          "internalType": "uint256",
          "name": "auctionPriceMultiplier",
          "type": "uint256"
        },
        {
          "indexed": false,
          "internalType": "uint256",
          "name": "auctionMinInitPrice",
          "type": "uint256"
        }
      ],
      "name": "SpinCore__Launched",
      "type": "event"
    },
    {
      "anonymous": false,
      "inputs": [
        {
          "indexed": false,
          "internalType": "uint256",
          "name": "minUsdcForLaunch",
          "type": "uint256"
        }
      ],
      "name": "SpinCore__MinUsdcForLaunchSet",
      "type": "event"
    },
    {
      "anonymous": false,
      "inputs": [
        {
          "indexed": false,
          "internalType": "address",
          "name": "protocolFeeAddress",
          "type": "address"
        }
      ],
      "name": "SpinCore__ProtocolFeeAddressSet",
      "type": "event"
    },
    {
      "inputs": [],
      "name": "DEAD_ADDRESS",
      "outputs": [
        {
          "internalType": "address",
          "name": "",
          "type": "address"
        }
      ],
      "stateMutability": "view",
      "type": "function"
    },
    {
      "inputs": [],
      "name": "RIG_TYPE",
      "outputs": [
        {
          "internalType": "string",
          "name": "",
          "type": "string"
        }
      ],
      "stateMutability": "view",
      "type": "function"
    },
    {
      "inputs": [],
      "name": "auctionFactory",
      "outputs": [
        {
          "internalType": "address",
          "name": "",
          "type": "address"
        }
      ],
      "stateMutability": "view",
      "type": "function"
    },
    {
      "inputs": [],
      "name": "entropy",
      "outputs": [
        {
          "internalType": "address",
          "name": "",
          "type": "address"
        }
      ],
      "stateMutability": "view",
      "type": "function"
    },
    {
      "inputs": [
        {
          "components": [
            {
              "internalType": "address",
              "name": "launcher",
              "type": "address"
            },
            {
              "internalType": "address",
              "name": "quoteToken",
              "type": "address"
            },
            {
              "internalType": "string",
              "name": "tokenName",
              "type": "string"
            },
            {
              "internalType": "string",
              "name": "tokenSymbol",
              "type": "string"
            },
            {
              "internalType": "string",
              "name": "uri",
              "type": "string"
            },
            {
              "internalType": "uint256",
              "name": "usdcAmount",
              "type": "uint256"
            },
            {
              "internalType": "uint256",
              "name": "unitAmount",
              "type": "uint256"
            },
            {
              "internalType": "uint256",
              "name": "initialUps",
              "type": "uint256"
            },
            {
              "internalType": "uint256",
              "name": "tailUps",
              "type": "uint256"
            },
            {
              "internalType": "uint256",
              "name": "halvingPeriod",
              "type": "uint256"
            },
            {
              "internalType": "uint256",
              "name": "rigEpochPeriod",
              "type": "uint256"
            },
            {
              "internalType": "uint256",
              "name": "rigPriceMultiplier",
              "type": "uint256"
            },
            {
              "internalType": "uint256",
              "name": "rigMinInitPrice",
              "type": "uint256"
            },
            {
              "internalType": "uint256[]",
              "name": "odds",
              "type": "uint256[]"
            },
            {
              "internalType": "uint256",
              "name": "auctionInitPrice",
              "type": "uint256"
            },
            {
              "internalType": "uint256",
              "name": "auctionEpochPeriod",
              "type": "uint256"
            },
            {
              "internalType": "uint256",
              "name": "auctionPriceMultiplier",
              "type": "uint256"
            },
            {
              "internalType": "uint256",
              "name": "auctionMinInitPrice",
              "type": "uint256"
            }
          ],
          "internalType": "struct SpinCore.LaunchParams",
          "name": "params",
          "type": "tuple"
        }
      ],
      "name": "launch",
      "outputs": [
        {
          "internalType": "address",
          "name": "unit",
          "type": "address"
        },
        {
          "internalType": "address",
          "name": "rig",
          "type": "address"
        },
        {
          "internalType": "address",
          "name": "auction",
          "type": "address"
        },
        {
          "internalType": "address",
          "name": "lpToken",
          "type": "address"
        }
      ],
      "stateMutability": "nonpayable",
      "type": "function"
    },
    {
      "inputs": [],
      "name": "minUsdcForLaunch",
      "outputs": [
        {
          "internalType": "uint256",
          "name": "",
          "type": "uint256"
        }
      ],
      "stateMutability": "view",
      "type": "function"
    },
    {
      "inputs": [],
      "name": "owner",
      "outputs": [
        {
          "internalType": "address",
          "name": "",
          "type": "address"
        }
      ],
      "stateMutability": "view",
      "type": "function"
    },
    {
      "inputs": [],
      "name": "protocolFeeAddress",
      "outputs": [
        {
          "internalType": "address",
          "name": "",
          "type": "address"
        }
      ],
      "stateMutability": "view",
      "type": "function"
    },
    {
      "inputs": [],
      "name": "registry",
      "outputs": [
        {
          "internalType": "address",
          "name": "",
          "type": "address"
        }
      ],
      "stateMutability": "view",
      "type": "function"
    },
    {
      "inputs": [],
      "name": "renounceOwnership",
      "outputs": [],
      "stateMutability": "nonpayable",
      "type": "function"
    },
    {
      "inputs": [
        {
          "internalType": "address",
          "name": "",
          "type": "address"
        }
      ],
      "name": "rigToAuction",
      "outputs": [
        {
          "internalType": "address",
          "name": "",
          "type": "address"
        }
      ],
      "stateMutability": "view",
      "type": "function"
    },
    {
      "inputs": [
        {
          "internalType": "address",
          "name": "",
          "type": "address"
        }
      ],
      "name": "rigToIndex",
      "outputs": [
        {
          "internalType": "uint256",
          "name": "",
          "type": "uint256"
        }
      ],
      "stateMutability": "view",
      "type": "function"
    },
    {
      "inputs": [
        {
          "internalType": "address",
          "name": "",
          "type": "address"
        }
      ],
      "name": "rigToIsRig",
      "outputs": [
        {
          "internalType": "bool",
          "name": "",
          "type": "bool"
        }
      ],
      "stateMutability": "view",
      "type": "function"
    },
    {
      "inputs": [
        {
          "internalType": "address",
          "name": "",
          "type": "address"
        }
      ],
      "name": "rigToLP",
      "outputs": [
        {
          "internalType": "address",
          "name": "",
          "type": "address"
        }
      ],
      "stateMutability": "view",
      "type": "function"
    },
    {
      "inputs": [
        {
          "internalType": "uint256",
          "name": "",
          "type": "uint256"
        }
      ],
      "name": "rigs",
      "outputs": [
        {
          "internalType": "address",
          "name": "",
          "type": "address"
        }
      ],
      "stateMutability": "view",
      "type": "function"
    },
    {
      "inputs": [],
      "name": "rigsLength",
      "outputs": [
        {
          "internalType": "uint256",
          "name": "",
          "type": "uint256"
        }
      ],
      "stateMutability": "view",
      "type": "function"
    },
    {
      "inputs": [
        {
          "internalType": "uint256",
          "name": "_minUsdcForLaunch",
          "type": "uint256"
        }
      ],
      "name": "setMinUsdcForLaunch",
      "outputs": [],
      "stateMutability": "nonpayable",
      "type": "function"
    },
    {
      "inputs": [
        {
          "internalType": "address",
          "name": "_protocolFeeAddress",
          "type": "address"
        }
      ],
      "name": "setProtocolFeeAddress",
      "outputs": [],
      "stateMutability": "nonpayable",
      "type": "function"
    },
    {
      "inputs": [],
      "name": "spinRigFactory",
      "outputs": [
        {
          "internalType": "address",
          "name": "",
          "type": "address"
        }
      ],
      "stateMutability": "view",
      "type": "function"
    },
    {
      "inputs": [
        {
          "internalType": "address",
          "name": "newOwner",
          "type": "address"
        }
      ],
      "name": "transferOwnership",
      "outputs": [],
      "stateMutability": "nonpayable",
      "type": "function"
    },
    {
      "inputs": [],
      "name": "uniswapV2Factory",
      "outputs": [
        {
          "internalType": "address",
          "name": "",
          "type": "address"
        }
      ],
      "stateMutability": "view",
      "type": "function"
    },
    {
      "inputs": [],
      "name": "uniswapV2Router",
      "outputs": [
        {
          "internalType": "address",
          "name": "",
          "type": "address"
        }
      ],
      "stateMutability": "view",
      "type": "function"
    },
    {
      "inputs": [],
      "name": "unitFactory",
      "outputs": [
        {
          "internalType": "address",
          "name": "",
          "type": "address"
        }
      ],
      "stateMutability": "view",
      "type": "function"
    },
    {
      "inputs": [],
      "name": "usdcToken",
      "outputs": [
        {
          "internalType": "address",
          "name": "",
          "type": "address"
        }
      ],
      "stateMutability": "view",
      "type": "function"
    }
  ],
  "bytecode": "0x61018034620002b45762001e1b38819003601f8101601f191683016001600160401b03811184821017620002b95783928291604052833961014092839181010312620002b4576200005081620002cf565b6200005e60208301620002cf565b926200006d60408401620002cf565b6200007b60608501620002cf565b926200008a60808601620002cf565b956200009960a08701620002cf565b94620000a860c08801620002cf565b620000b660e08901620002cf565b9661010099620000c88b8b01620002cf565b93610120809b0151976000549660018060a01b031998338a8a161760005560405160018060a01b03998a3391167f8be0079c531659141344cd1fd0a4f28419497f9722a3daafe3b4186f6b6457e0600080a360018055818a16158a8f8215620002a8575b82156200029c575b821562000290575b821562000284575b821562000278575b82156200026c575b821562000260575b505062000251575060805260a05260c05260e0528a52885285526101609586521690600254161760025560035560405192611b369485620002e5863960805185818161045201528181611012015261109a015260a0518581816106a701528181610813015281816109c301528181610a1d01528181610a770152610b33015260c0518581816105600152610b65015260e051858181610662015281816109350152818161096f015281816109a2015281816109fc0152610ae30152518481816102a301526108a701525183818161032d0152610db00152518281816102e80152610c400152518181816105c20152610ceb0152f35b63cf80440560e01b8152600490fd5b161590508a8f6200015c565b8a821615925062000154565b8982161592506200014c565b88821615925062000144565b8782161592506200013c565b86821615925062000134565b8582161592506200012c565b600080fd5b634e487b7160e01b600052604160045260246000fd5b51906001600160a01b0382168203620002b45756fe6080604052600436101561001257600080fd5b6000803560e01c806305244d77146115465780630524c46a146115075780630c579530146106d657806311eac855146106915780631694505e1461064c57806332d1338e1461060f578063446418cf146105f157806347ce07cc146105ac5780634e6fd6c41461058f57806359d0f7131461054a5780636b7b9112146104db578063715018a6146104815780637b1039991461043c578063832c0e5f1461040857806383e9d76b146103c95780638da5cb5b146103a25780639827ba631461035c5780639b321d9214610317578063abf4fde4146102d2578063bbba90e21461028d578063cce516b714610264578063cf52d14314610246578063d9efb589146101f85763f2fde38b1461012557600080fd5b346101f55760203660031901126101f5576004356001600160a01b03818116918290036101f1576101546116bb565b811561019d57600054826bffffffffffffffffffffffff60a01b821617600055167f8be0079c531659141344cd1fd0a4f28419497f9722a3daafe3b4186f6b6457e0600080a380f35b60405162461bcd60e51b815260206004820152602660248201527f4f776e61626c653a206e6577206f776e657220697320746865207a65726f206160448201526564647265737360d01b6064820152608490fd5b8280fd5b80fd5b50346101f55760203660031901126101f5577f0ec9039d63dc0d154e919f6dca58c6455ef8db69f50f1d45e44ffa29f217bb7060206004356102386116bb565b80600355604051908152a180f35b50346101f557806003193601126101f5576020600454604051908152f35b50346101f557806003193601126101f5576002546040516001600160a01b039091168152602090f35b50346101f557806003193601126101f5576040517f00000000000000000000000000000000000000000000000000000000000000006001600160a01b03168152602090f35b50346101f557806003193601126101f5576040517f00000000000000000000000000000000000000000000000000000000000000006001600160a01b03168152602090f35b50346101f557806003193601126101f5576040517f00000000000000000000000000000000000000000000000000000000000000006001600160a01b03168152602090f35b50346101f55760203660031901126101f5576004356001600160a01b0381169081900361039e5760408260ff9260209452600584522054166040519015158152f35b5080fd5b50346101f557806003193601126101f557546040516001600160a01b039091168152602090f35b50346101f55760203660031901126101f5576001600160a01b03600435818116908190036101f157826040916020945260088452205416604051908152f35b50346101f557806003193601126101f55761043861042461165b565b60405191829160208352602083019061167b565b0390f35b50346101f557806003193601126101f5576040517f00000000000000000000000000000000000000000000000000000000000000006001600160a01b03168152602090f35b50346101f557806003193601126101f55761049a6116bb565b600080546001600160a01b0319811682556001600160a01b03167f8be0079c531659141344cd1fd0a4f28419497f9722a3daafe3b4186f6b6457e08280a380f35b50346101f55760203660031901126101f5576004356001600160a01b0381169081900361039e5760207f8353abad207947fa3703a3ba092f2576130eaf34c7ab40613e08b52b3e77c9c49161052e6116bb565b600280546001600160a01b03191682179055604051908152a180f35b50346101f557806003193601126101f5576040517f00000000000000000000000000000000000000000000000000000000000000006001600160a01b03168152602090f35b50346101f557806003193601126101f557602060405161dead8152f35b50346101f557806003193601126101f5576040517f00000000000000000000000000000000000000000000000000000000000000006001600160a01b03168152602090f35b50346101f557806003193601126101f5576020600354604051908152f35b50346101f55760203660031901126101f5576004356001600160a01b0381169081900361039e578160409160209352600683522054604051908152f35b50346101f557806003193601126101f5576040517f00000000000000000000000000000000000000000000000000000000000000006001600160a01b03168152602090f35b50346101f557806003193601126101f5576040517f00000000000000000000000000000000000000000000000000000000000000006001600160a01b03168152602090f35b50346101f55760203660031901126101f55767ffffffffffffffff600435116101f557610240600435360360031901126101f5576002600154146114c25760026001556001600160a01b0361072e600480350161178b565b16156114b0576001600160a01b0361074a60043560240161178b565b161561149e5760035460a460043501351061148c57610773604460043501600435600401611713565b90501561147a5761078e606460043501600435600401611713565b905015611468576107a9608460043501600435600401611713565b9050156114565760c460043501351561144457604051906323b872dd60e01b602083015233602483015230604483015260a460043501356064830152606482528160a081011067ffffffffffffffff60a0840111176114305760a0820160405261089091610840907f00000000000000000000000000000000000000000000000000000000000000006001600160a01b031661191f565b6020610856604460043501600435600401611713565b6108a261086d606460043501600435600401611713565b604051978895869563b548848760e01b875260406004880152604487019161176a565b8481036003190160248601529161176a565b0381847f00000000000000000000000000000000000000000000000000000000000000006001600160a01b03165af1918215611423578192611402575b506001600160a01b0382163b156101f5576040516340c10f1960e01b8152306004808301919091523560c4013560248201528181604481836001600160a01b0388165af180156112cb576113f3575b50906109637f00000000000000000000000000000000000000000000000000000000000000006001600160a01b03831661179f565b61099d60043560c401357f00000000000000000000000000000000000000000000000000000000000000006001600160a01b0384166117e1565b6109f07f00000000000000000000000000000000000000000000000000000000000000007f00000000000000000000000000000000000000000000000000000000000000006001600160a01b031661179f565b610a4a60043560a401357f00000000000000000000000000000000000000000000000000000000000000007f00000000000000000000000000000000000000000000000000000000000000006001600160a01b03166117e1565b6104b0420142116113df5760405162e8e33760e81b81526001600160a01b038281166004808401919091527f00000000000000000000000000000000000000000000000000000000000000008216602484015260c49035818101356044850181905260a4918201356064860181905260848601919091529084015230908301526104b0420160e4830152606090829061010490829087907f0000000000000000000000000000000000000000000000000000000000000000165af19081156113d457839161139f575b5060405163e6a4390560e01b81526001600160a01b0380841660048301527f000000000000000000000000000000000000000000000000000000000000000016602482015290602082806044810103817f00000000000000000000000000000000000000000000000000000000000000006001600160a01b03165afa91821561136f57849261137a575b50610bdc906040519063a9059cbb60e01b602083015261dead6024830152604482015260448152610bcd8161161d565b6001600160a01b03831661191f565b604051633e25ba8f60e21b81526101c46004803591820135908301526001600160a01b03838116602484015261dead60448401526101e4820135606484015261020482013560848401526102249091013560a4830152602090829060c490829088907f0000000000000000000000000000000000000000000000000000000000000000165af190811561136f578491611350575b50610c7f60246004350161178b565b6004356101a48101359036036022190181121561134c576004350167ffffffffffffffff60048201351161134c57600481013560051b3603602482011361134c5760405163a573d4b360e01b81526001600160a01b0386811660048084019190915293811660248301527f0000000000000000000000000000000000000000000000000000000000000000811660448301523060648301528416608482015282356101448181013560a48401526101648083013560c48501526101848084013560e48087019190915284013561010480870191909152610124808601359087015290930135918401919091526101809083015292820135928101839052916001600160fb1b031061134c57816101a48160048481602096013560051b6024820185850137013560051b8101030181887f00000000000000000000000000000000000000000000000000000000000000006001600160a01b03165af1908115611341578591611312575b506001600160a01b0384163b156112945760405163588d95c960e11b81526001600160a01b03828116600483015286919082908290602490829084908b165af180156112cb576112fe575b50610e4260043560040161178b565b6001600160a01b0383163b1561039e576040516304ae7ae360e11b81526001600160a01b03918216600482015290829082906024908290849088165af180156112cb576112ea575b50610e9f608460043501600435600401611713565b6001600160a01b0384163b156101f157604051639b642de160e01b81526020600482015291839183918291610ed99160248401919061176a565b0381836001600160a01b0388165af180156112cb576112d6575b50610f0260043560040161178b565b6001600160a01b0383163b1561039e5760405163f2fde38b60e01b81526001600160a01b03918216600482015290829082906024908290849088165af180156112cb576112b7575b50506001600160a01b0381168552600560209081526040808720805460ff1916600117905560045460069092528620819055680100000000000000008110156112a357806001610f9d920160045561158a565b81546001600160a01b0360039290921b82811b199091168483169182901b1790925590865260086020908152604080882080546001600160a01b03199081168886161790915560079092528720805490911691841691909117905561100061165b565b8561100f60043560040161178b565b917f00000000000000000000000000000000000000000000000000000000000000006001600160a01b03163b1561039e57604051631d3317b360e31b81526001600160a01b03851660048201526080602482015292839182919061107790608484019061167b565b6001600160a01b038a8116604485015291821660648401529190910390829084907f0000000000000000000000000000000000000000000000000000000000000000165af1801561129857611280575b5060809450816110db60043560040161178b565b611187856110ed60246004350161178b565b611179611104604460043501600435600401611713565b9061116c61111c606460043501600435600401611713565b929093611133608460043501600435600401611713565b604080516001600160a01b039e8f1681529a8e1660208c01529c9098169b89019b909b5261024060608901819052979a978b019161176a565b918883038e8a015261176a565b9185830360a087015261176a565b60043560a481013560c085015260c481013560e085015260e48101356101008501526101048101356101208501526101248101356101408501526101448101356101608501526101648101356101808501526101848101356101a08501526101c48101356101c08501526101e48101356101e085015261020481013561020085015261022401356102208401526001600160a01b038781169385821693909116917f8fe37ecf5e9dd4343a872944b6f8acfbb7d156e05c0d0a81259e45179ac5d5c9919081900390a460018055604080516001600160a01b03958616815291851660208301529184169181019190915291166060820152f35b61128a86916115d7565b61129457846110c7565b8480fd5b6040513d88823e3d90fd5b634e487b7160e01b86526041600452602486fd5b6112c0906115d7565b611294578438610f4a565b6040513d84823e3d90fd5b6112df906115d7565b611294578438610ef3565b6112f3906115d7565b611294578438610e8a565b611307906115d7565b611294578438610e33565b611334915060203d60201161133a575b61132c8183611639565b81019061174b565b38610de8565b503d611322565b6040513d87823e3d90fd5b8580fd5b611369915060203d60201161133a5761132c8183611639565b38610c70565b6040513d86823e3d90fd5b610bdc9192506113989060203d60201161133a5761132c8183611639565b9190610b9d565b90506060813d6060116113cc575b816113ba60609383611639565b810103126101f1576040015138610b13565b3d91506113ad565b6040513d85823e3d90fd5b634e487b7160e01b82526011600452602482fd5b6113fc906115d7565b3861092e565b61141c91925060203d60201161133a5761132c8183611639565b90386108df565b50604051903d90823e3d90fd5b634e487b7160e01b81526041600452602490fd5b604051636203fb2760e01b8152600490fd5b604051631353c3ed60e21b8152600490fd5b6040516331a48b3b60e21b8152600490fd5b6040516340503cfb60e01b8152600490fd5b60405163781d5dcf60e01b8152600490fd5b604051636027e32160e01b8152600490fd5b60405163f9452d9960e01b8152600490fd5b60405162461bcd60e51b815260206004820152601f60248201527f5265656e7472616e637947756172643a207265656e7472616e742063616c6c006044820152606490fd5b50346101f55760203660031901126101f5576001600160a01b03600435818116908190036101f157826040916020945260078452205416604051908152f35b50346101f55760203660031901126101f557600435906004548210156101f55760206115718361158a565b905460405160039290921b1c6001600160a01b03168152f35b6004548110156115c15760046000527f8a35acfbc15ff81a39ae7d344fd709f28e8600b4aa8c65c6b64bfe7fe36bd19b0190600090565b634e487b7160e01b600052603260045260246000fd5b67ffffffffffffffff81116115eb57604052565b634e487b7160e01b600052604160045260246000fd5b6040810190811067ffffffffffffffff8211176115eb57604052565b6080810190811067ffffffffffffffff8211176115eb57604052565b90601f8019910116810190811067ffffffffffffffff8211176115eb57604052565b6040519061166882611601565b600482526339b834b760e11b6020830152565b919082519283825260005b8481106116a7575050826000602080949584010152601f8019910116010190565b602081830181015184830182015201611686565b6000546001600160a01b031633036116cf57565b606460405162461bcd60e51b815260206004820152602060248201527f4f776e61626c653a2063616c6c6572206973206e6f7420746865206f776e65726044820152fd5b903590601e1981360301821215611746570180359067ffffffffffffffff82116117465760200191813603831361174657565b600080fd5b9081602091031261174657516001600160a01b03811681036117465790565b908060209392818452848401376000828201840152601f01601f1916010190565b356001600160a01b03811681036117465790565b60405163095ea7b360e01b60208201526001600160a01b039092166024830152600060448084019190915282526117df91906117da8261161d565b61191f565b565b91909181158015611893575b1561182f5760405163095ea7b360e01b60208201526001600160a01b039390931660248401526044808401929092529082526117df91906117da606483611639565b60405162461bcd60e51b815260206004820152603660248201527f5361666545524332303a20617070726f76652066726f6d206e6f6e2d7a65726f60448201527520746f206e6f6e2d7a65726f20616c6c6f77616e636560501b6064820152608490fd5b50604051636eb1769f60e11b81523060048201526001600160a01b0384166024820152602081806044810103816001600160a01b0386165afa908115611913576000916118e2575b50156117ed565b906020823d821161190b575b816118fb60209383611639565b810103126101f5575051386118db565b3d91506118ee565b6040513d6000823e3d90fd5b60018060a01b03169060405161193481611601565b6020928382527f5361666545524332303a206c6f772d6c6576656c2063616c6c206661696c6564848301526000808486829651910182855af13d15611a59573d9167ffffffffffffffff8311611a4557906119af939291604051926119a288601f19601f8401160185611639565b83523d868885013e611a63565b805191821591848315611a21575b5050509050156119ca5750565b6084906040519062461bcd60e51b82526004820152602a60248201527f5361666545524332303a204552433230206f7065726174696f6e20646964206e6044820152691bdd081cdd58d8d9595960b21b6064820152fd5b91938180945001031261039e578201519081151582036101f55750803880846119bd565b634e487b7160e01b85526041600452602485fd5b906119af92916060915b91929015611ac55750815115611a77575090565b3b15611a805790565b60405162461bcd60e51b815260206004820152601d60248201527f416464726573733a2063616c6c20746f206e6f6e2d636f6e74726163740000006044820152606490fd5b825190915015611ad85750805190602001fd5b60405162461bcd60e51b815260206004820152908190611afc90602483019061167b565b0390fdfea2646970667358221220b9caa7b09ebee865e0479365f176c601485afc2a79685f64c0626061205c6a9564736f6c63430008130033",
  "linkReferences": {},
  "deployedLinkReferences": {}
}