{
  "_format": "hh-sol-artifact-1",
  "contractName": "SpinRig",
  "sourceName": "contracts/rigs/spin/SpinRig.sol",
  "abi": [
    {
      "inputs": [
        {
          "internalType": "address",
          "name": "_unit",
          "type": "address"
        },
        {
          "internalType": "address",
          "name": "_quote",
          "type": "address"
        },
        {
          "internalType": "address",
          "name": "_entropy",
          "type": "address"
        },
        {
          "internalType": "address",
          "name": "_treasury",
          "type": "address"
        },
        {
          "internalType": "address",
          "name": "_core",
          "type": "address"
        },
        {
          "components": [
            {
              "internalType": "uint256",
              "name": "epochPeriod",
              "type": "uint256"
            },
            {
              "internalType": "uint256",
              "name": "priceMultiplier",
              "type": "uint256"
            },
            {
              "internalType": "uint256",
              "name": "minInitPrice",
              "type": "uint256"
            },
            {
              "internalType": "uint256",
              "name": "initialUps",
              "type": "uint256"
            },
            {
              "internalType": "uint256",
              "name": "halvingPeriod",
              "type": "uint256"
            },
            {
              "internalType": "uint256",
              "name": "tailUps",
              "type": "uint256"
            },
            {
              "internalType": "uint256[]",
              "name": "odds",
              "type": "uint256[]"
            }
          ],
          "internalType": "struct SpinRig.Config",
          "name": "config",
          "type": "tuple"
        }
      ],
      "stateMutability": "nonpayable",
      "type": "constructor"
    },
    {
      "inputs": [],
      "name": "SpinRig__EpochIdMismatch",
      "type": "error"
    },
    {
      "inputs": [],
      "name": "SpinRig__EpochPeriodOutOfRange",
      "type": "error"
    },
    {
      "inputs": [],
      "name": "SpinRig__Expired",
      "type": "error"
    },
    {
      "inputs": [],
      "name": "SpinRig__HalvingPeriodOutOfRange",
      "type": "error"
    },
    {
      "inputs": [],
      "name": "SpinRig__InitialUpsOutOfRange",
      "type": "error"
    },
    {
      "inputs": [],
      "name": "SpinRig__InsufficientFee",
      "type": "error"
    },
    {
      "inputs": [],
      "name": "SpinRig__InvalidAddress",
      "type": "error"
    },
    {
      "inputs": [],
      "name": "SpinRig__InvalidOdds",
      "type": "error"
    },
    {
      "inputs": [],
      "name": "SpinRig__InvalidSpinner",
      "type": "error"
    },
    {
      "inputs": [],
      "name": "SpinRig__MaxPriceExceeded",
      "type": "error"
    },
    {
      "inputs": [],
      "name": "SpinRig__MinInitPriceOutOfRange",
      "type": "error"
    },
    {
      "inputs": [],
      "name": "SpinRig__OddsTooLow",
      "type": "error"
    },
    {
      "inputs": [],
      "name": "SpinRig__PriceMultiplierOutOfRange",
      "type": "error"
    },
    {
      "inputs": [],
      "name": "SpinRig__TailUpsOutOfRange",
      "type": "error"
    },
    {
      "anonymous": false,
      "inputs": [
        {
          "indexed": true,
          "internalType": "address",
          "name": "previousOwner",
          "type": "address"
        },
        {
          "indexed": true,
          "internalType": "address",
          "name": "newOwner",
          "type": "address"
        }
      ],
      "name": "OwnershipTransferred",
      "type": "event"
    },
    {
      "anonymous": false,
      "inputs": [
        {
          "indexed": true,
          "internalType": "uint256",
          "name": "epochId",
          "type": "uint256"
        },
        {
          "indexed": false,
          "internalType": "uint256",
          "name": "amount",
          "type": "uint256"
        }
      ],
      "name": "SpinRig__EmissionMinted",
      "type": "event"
    },
    {
      "anonymous": false,
      "inputs": [
        {
          "indexed": false,
          "internalType": "bool",
          "name": "enabled",
          "type": "bool"
        }
      ],
      "name": "SpinRig__EntropyEnabledSet",
      "type": "event"
    },
    {
      "anonymous": false,
      "inputs": [
        {
          "indexed": true,
          "internalType": "uint256",
          "name": "epochId",
          "type": "uint256"
        },
        {
          "indexed": true,
          "internalType": "uint64",
          "name": "sequenceNumber",
          "type": "uint64"
        }
      ],
      "name": "SpinRig__EntropyRequested",
      "type": "event"
    },
    {
      "anonymous": false,
      "inputs": [
        {
          "indexed": true,
          "internalType": "address",
          "name": "protocol",
          "type": "address"
        },
        {
          "indexed": true,
          "internalType": "uint256",
          "name": "epochId",
          "type": "uint256"
        },
        {
          "indexed": false,
          "internalType": "uint256",
          "name": "amount",
          "type": "uint256"
        }
      ],
      "name": "SpinRig__ProtocolFee",
      "type": "event"
    },
    {
      "anonymous": false,
      "inputs": [
        {
          "indexed": true,
          "internalType": "address",
          "name": "sender",
          "type": "address"
        },
        {
          "indexed": true,
          "internalType": "address",
          "name": "spinner",
          "type": "address"
        },
        {
          "indexed": true,
          "internalType": "uint256",
          "name": "epochId",
          "type": "uint256"
        },
        {
          "indexed": false,
          "internalType": "uint256",
          "name": "price",
          "type": "uint256"
        },
        {
          "indexed": false,
          "internalType": "string",
          "name": "uri",
          "type": "string"
        }
      ],
      "name": "SpinRig__Spin",
      "type": "event"
    },
    {
      "anonymous": false,
      "inputs": [
        {
          "indexed": true,
          "internalType": "address",
          "name": "team",
          "type": "address"
        },
        {
          "indexed": true,
          "internalType": "uint256",
          "name": "epochId",
          "type": "uint256"
        },
        {
          "indexed": false,
          "internalType": "uint256",
          "name": "amount",
          "type": "uint256"
        }
      ],
      "name": "SpinRig__TeamFee",
      "type": "event"
    },
    {
      "anonymous": false,
      "inputs": [
        {
          "indexed": true,
          "internalType": "address",
          "name": "team",
          "type": "address"
        }
      ],
      "name": "SpinRig__TeamSet",
      "type": "event"
    },
    {
      "anonymous": false,
      "inputs": [
        {
          "indexed": true,
          "internalType": "address",
          "name": "treasury",
          "type": "address"
        },
        {
          "indexed": true,
          "internalType": "uint256",
          "name": "epochId",
          "type": "uint256"
        },
        {
          "indexed": false,
          "internalType": "uint256",
          "name": "amount",
          "type": "uint256"
        }
      ],
      "name": "SpinRig__TreasuryFee",
      "type": "event"
    },
    {
      "anonymous": false,
      "inputs": [
        {
          "indexed": true,
          "internalType": "address",
          "name": "treasury",
          "type": "address"
        }
      ],
      "name": "SpinRig__TreasurySet",
      "type": "event"
    },
    {
      "anonymous": false,
      "inputs": [
        {
          "indexed": false,
          "internalType": "string",
          "name": "uri",
          "type": "string"
        }
      ],
      "name": "SpinRig__UriSet",
      "type": "event"
    },
    {
      "anonymous": false,
      "inputs": [
        {
          "indexed": true,
          "internalType": "address",
          "name": "spinner",
          "type": "address"
        },
        {
          "indexed": true,
          "internalType": "uint256",
          "name": "epochId",
          "type": "uint256"
        },
        {
          "indexed": false,
          "internalType": "uint256",
          "name": "oddsBps",
          "type": "uint256"
        },
        {
          "indexed": false,
          "internalType": "uint256",
          "name": "amount",
          "type": "uint256"
        }
      ],
      "name": "SpinRig__Win",
      "type": "event"
    },
    {
      "inputs": [],
      "name": "ABS_MAX_INIT_PRICE",
      "outputs": [
        {
          "internalType": "uint256",
          "name": "",
          "type": "uint256"
        }
      ],
      "stateMutability": "view",
      "type": "function"
    },
    {
      "inputs": [],
      "name": "ABS_MIN_INIT_PRICE",
      "outputs": [
        {
          "internalType": "uint256",
          "name": "",
          "type": "uint256"
        }
      ],
      "stateMutability": "view",
      "type": "function"
    },
    {
      "inputs": [],
      "name": "DIVISOR",
      "outputs": [
        {
          "internalType": "uint256",
          "name": "",
          "type": "uint256"
        }
      ],
      "stateMutability": "view",
      "type": "function"
    },
    {
      "inputs": [],
      "name": "MAX_EPOCH_PERIOD",
      "outputs": [
        {
          "internalType": "uint256",
          "name": "",
          "type": "uint256"
        }
      ],
      "stateMutability": "view",
      "type": "function"
    },
    {
      "inputs": [],
      "name": "MAX_HALVING_PERIOD",
      "outputs": [
        {
          "internalType": "uint256",
          "name": "",
          "type": "uint256"
        }
      ],
      "stateMutability": "view",
      "type": "function"
    },
    {
      "inputs": [],
      "name": "MAX_INITIAL_UPS",
      "outputs": [
        {
          "internalType": "uint256",
          "name": "",
          "type": "uint256"
        }
      ],
      "stateMutability": "view",
      "type": "function"
    },
    {
      "inputs": [],
      "name": "MAX_ODDS_BPS",
      "outputs": [
        {
          "internalType": "uint256",
          "name": "",
          "type": "uint256"
        }
      ],
      "stateMutability": "view",
      "type": "function"
    },
    {
      "inputs": [],
      "name": "MAX_PRICE_MULTIPLIER",
      "outputs": [
        {
          "internalType": "uint256",
          "name": "",
          "type": "uint256"
        }
      ],
      "stateMutability": "view",
      "type": "function"
    },
    {
      "inputs": [],
      "name": "MIN_EPOCH_PERIOD",
      "outputs": [
        {
          "internalType": "uint256",
          "name": "",
          "type": "uint256"
        }
      ],
      "stateMutability": "view",
      "type": "function"
    },
    {
      "inputs": [],
      "name": "MIN_HALVING_PERIOD",
      "outputs": [
        {
          "internalType": "uint256",
          "name": "",
          "type": "uint256"
        }
      ],
      "stateMutability": "view",
      "type": "function"
    },
    {
      "inputs": [],
      "name": "MIN_ODDS_BPS",
      "outputs": [
        {
          "internalType": "uint256",
          "name": "",
          "type": "uint256"
        }
      ],
      "stateMutability": "view",
      "type": "function"
    },
    {
      "inputs": [],
      "name": "MIN_PRICE_MULTIPLIER",
      "outputs": [
        {
          "internalType": "uint256",
          "name": "",
          "type": "uint256"
        }
      ],
      "stateMutability": "view",
      "type": "function"
    },
    {
      "inputs": [],
      "name": "PRECISION",
      "outputs": [
        {
          "internalType": "uint256",
          "name": "",
          "type": "uint256"
        }
      ],
      "stateMutability": "view",
      "type": "function"
    },
    {
      "inputs": [],
      "name": "PROTOCOL_BPS",
      "outputs": [
        {
          "internalType": "uint256",
          "name": "",
          "type": "uint256"
        }
      ],
      "stateMutability": "view",
      "type": "function"
    },
    {
      "inputs": [],
      "name": "TEAM_BPS",
      "outputs": [
        {
          "internalType": "uint256",
          "name": "",
          "type": "uint256"
        }
      ],
      "stateMutability": "view",
      "type": "function"
    },
    {
      "inputs": [
        {
          "internalType": "uint64",
          "name": "sequence",
          "type": "uint64"
        },
        {
          "internalType": "address",
          "name": "provider",
          "type": "address"
        },
        {
          "internalType": "bytes32",
          "name": "randomNumber",
          "type": "bytes32"
        }
      ],
      "name": "_entropyCallback",
      "outputs": [],
      "stateMutability": "nonpayable",
      "type": "function"
    },
    {
      "inputs": [],
      "name": "core",
      "outputs": [
        {
          "internalType": "address",
          "name": "",
          "type": "address"
        }
      ],
      "stateMutability": "view",
      "type": "function"
    },
    {
      "inputs": [],
      "name": "entropy",
      "outputs": [
        {
          "internalType": "address",
          "name": "",
          "type": "address"
        }
      ],
      "stateMutability": "view",
      "type": "function"
    },
    {
      "inputs": [],
      "name": "entropyEnabled",
      "outputs": [
        {
          "internalType": "bool",
          "name": "",
          "type": "bool"
        }
      ],
      "stateMutability": "view",
      "type": "function"
    },
    {
      "inputs": [],
      "name": "epochId",
      "outputs": [
        {
          "internalType": "uint256",
          "name": "",
          "type": "uint256"
        }
      ],
      "stateMutability": "view",
      "type": "function"
    },
    {
      "inputs": [],
      "name": "epochPeriod",
      "outputs": [
        {
          "internalType": "uint256",
          "name": "",
          "type": "uint256"
        }
      ],
      "stateMutability": "view",
      "type": "function"
    },
    {
      "inputs": [],
      "name": "getEntropyFee",
      "outputs": [
        {
          "internalType": "uint256",
          "name": "",
          "type": "uint256"
        }
      ],
      "stateMutability": "view",
      "type": "function"
    },
    {
      "inputs": [],
      "name": "getEpochId",
      "outputs": [
        {
          "internalType": "uint256",
          "name": "",
          "type": "uint256"
        }
      ],
      "stateMutability": "view",
      "type": "function"
    },
    {
      "inputs": [],
      "name": "getInitPrice",
      "outputs": [
        {
          "internalType": "uint256",
          "name": "",
          "type": "uint256"
        }
      ],
      "stateMutability": "view",
      "type": "function"
    },
    {
      "inputs": [],
      "name": "getOdds",
      "outputs": [
        {
          "internalType": "uint256[]",
          "name": "",
          "type": "uint256[]"
        }
      ],
      "stateMutability": "view",
      "type": "function"
    },
    {
      "inputs": [],
      "name": "getOddsLength",
      "outputs": [
        {
          "internalType": "uint256",
          "name": "",
          "type": "uint256"
        }
      ],
      "stateMutability": "view",
      "type": "function"
    },
    {
      "inputs": [],
      "name": "getPendingEmissions",
      "outputs": [
        {
          "internalType": "uint256",
          "name": "",
          "type": "uint256"
        }
      ],
      "stateMutability": "view",
      "type": "function"
    },
    {
      "inputs": [],
      "name": "getPrice",
      "outputs": [
        {
          "internalType": "uint256",
          "name": "",
          "type": "uint256"
        }
      ],
      "stateMutability": "view",
      "type": "function"
    },
    {
      "inputs": [],
      "name": "getPrizePool",
      "outputs": [
        {
          "internalType": "uint256",
          "name": "",
          "type": "uint256"
        }
      ],
      "stateMutability": "view",
      "type": "function"
    },
    {
      "inputs": [],
      "name": "getSpinStartTime",
      "outputs": [
        {
          "internalType": "uint256",
          "name": "",
          "type": "uint256"
        }
      ],
      "stateMutability": "view",
      "type": "function"
    },
    {
      "inputs": [],
      "name": "getUps",
      "outputs": [
        {
          "internalType": "uint256",
          "name": "",
          "type": "uint256"
        }
      ],
      "stateMutability": "view",
      "type": "function"
    },
    {
      "inputs": [],
      "name": "halvingPeriod",
      "outputs": [
        {
          "internalType": "uint256",
          "name": "",
          "type": "uint256"
        }
      ],
      "stateMutability": "view",
      "type": "function"
    },
    {
      "inputs": [],
      "name": "initPrice",
      "outputs": [
        {
          "internalType": "uint256",
          "name": "",
          "type": "uint256"
        }
      ],
      "stateMutability": "view",
      "type": "function"
    },
    {
      "inputs": [],
      "name": "initialUps",
      "outputs": [
        {
          "internalType": "uint256",
          "name": "",
          "type": "uint256"
        }
      ],
      "stateMutability": "view",
      "type": "function"
    },
    {
      "inputs": [],
      "name": "lastEmissionTime",
      "outputs": [
        {
          "internalType": "uint256",
          "name": "",
          "type": "uint256"
        }
      ],
      "stateMutability": "view",
      "type": "function"
    },
    {
      "inputs": [],
      "name": "minInitPrice",
      "outputs": [
        {
          "internalType": "uint256",
          "name": "",
          "type": "uint256"
        }
      ],
      "stateMutability": "view",
      "type": "function"
    },
    {
      "inputs": [
        {
          "internalType": "uint256",
          "name": "",
          "type": "uint256"
        }
      ],
      "name": "odds",
      "outputs": [
        {
          "internalType": "uint256",
          "name": "",
          "type": "uint256"
        }
      ],
      "stateMutability": "view",
      "type": "function"
    },
    {
      "inputs": [],
      "name": "owner",
      "outputs": [
        {
          "internalType": "address",
          "name": "",
          "type": "address"
        }
      ],
      "stateMutability": "view",
      "type": "function"
    },
    {
      "inputs": [],
      "name": "priceMultiplier",
      "outputs": [
        {
          "internalType": "uint256",
          "name": "",
          "type": "uint256"
        }
      ],
      "stateMutability": "view",
      "type": "function"
    },
    {
      "inputs": [],
      "name": "quote",
      "outputs": [
        {
          "internalType": "address",
          "name": "",
          "type": "address"
        }
      ],
      "stateMutability": "view",
      "type": "function"
    },
    {
      "inputs": [],
      "name": "renounceOwnership",
      "outputs": [],
      "stateMutability": "nonpayable",
      "type": "function"
    },
    {
      "inputs": [
        {
          "internalType": "uint64",
          "name": "",
          "type": "uint64"
        }
      ],
      "name": "sequenceToEpoch",
      "outputs": [
        {
          "internalType": "uint256",
          "name": "",
          "type": "uint256"
        }
      ],
      "stateMutability": "view",
      "type": "function"
    },
    {
      "inputs": [
        {
          "internalType": "uint64",
          "name": "",
          "type": "uint64"
        }
      ],
      "name": "sequenceToSpinner",
      "outputs": [
        {
          "internalType": "address",
          "name": "",
          "type": "address"
        }
      ],
      "stateMutability": "view",
      "type": "function"
    },
    {
      "inputs": [
        {
          "internalType": "bool",
          "name": "_enabled",
          "type": "bool"
        }
      ],
      "name": "setEntropyEnabled",
      "outputs": [],
      "stateMutability": "nonpayable",
      "type": "function"
    },
    {
      "inputs": [
        {
          "internalType": "address",
          "name": "_team",
          "type": "address"
        }
      ],
      "name": "setTeam",
      "outputs": [],
      "stateMutability": "nonpayable",
      "type": "function"
    },
    {
      "inputs": [
        {
          "internalType": "address",
          "name": "_treasury",
          "type": "address"
        }
      ],
      "name": "setTreasury",
      "outputs": [],
      "stateMutability": "nonpayable",
      "type": "function"
    },
    {
      "inputs": [
        {
          "internalType": "string",
          "name": "_uri",
          "type": "string"
        }
      ],
      "name": "setUri",
      "outputs": [],
      "stateMutability": "nonpayable",
      "type": "function"
    },
    {
      "inputs": [
        {
          "internalType": "address",
          "name": "spinner",
          "type": "address"
        },
        {
          "internalType": "uint256",
          "name": "_epochId",
          "type": "uint256"
        },
        {
          "internalType": "uint256",
          "name": "deadline",
          "type": "uint256"
        },
        {
          "internalType": "uint256",
          "name": "maxPrice",
          "type": "uint256"
        },
        {
          "internalType": "string",
          "name": "_uri",
          "type": "string"
        }
      ],
      "name": "spin",
      "outputs": [
        {
          "internalType": "uint256",
          "name": "price",
          "type": "uint256"
        }
      ],
      "stateMutability": "payable",
      "type": "function"
    },
    {
      "inputs": [],
      "name": "spinStartTime",
      "outputs": [
        {
          "internalType": "uint256",
          "name": "",
          "type": "uint256"
        }
      ],
      "stateMutability": "view",
      "type": "function"
    },
    {
      "inputs": [],
      "name": "startTime",
      "outputs": [
        {
          "internalType": "uint256",
          "name": "",
          "type": "uint256"
        }
      ],
      "stateMutability": "view",
      "type": "function"
    },
    {
      "inputs": [],
      "name": "tailUps",
      "outputs": [
        {
          "internalType": "uint256",
          "name": "",
          "type": "uint256"
        }
      ],
      "stateMutability": "view",
      "type": "function"
    },
    {
      "inputs": [],
      "name": "team",
      "outputs": [
        {
          "internalType": "address",
          "name": "",
          "type": "address"
        }
      ],
      "stateMutability": "view",
      "type": "function"
    },
    {
      "inputs": [
        {
          "internalType": "address",
          "name": "newOwner",
          "type": "address"
        }
      ],
      "name": "transferOwnership",
      "outputs": [],
      "stateMutability": "nonpayable",
      "type": "function"
    },
    {
      "inputs": [],
      "name": "treasury",
      "outputs": [
        {
          "internalType": "address",
          "name": "",
          "type": "address"
        }
      ],
      "stateMutability": "view",
      "type": "function"
    },
    {
      "inputs": [],
      "name": "unit",
      "outputs": [
        {
          "internalType": "address",
          "name": "",
          "type": "address"
        }
      ],
      "stateMutability": "view",
      "type": "function"
    },
    {
      "inputs": [],
      "name": "uri",
      "outputs": [
        {
          "internalType": "string",
          "name": "",
          "type": "string"
        }
      ],
      "stateMutability": "view",
      "type": "function"
    }
  ],
  "bytecode": "0x6101e0604052346200062257620027e6803803806200001e8162000627565b92833981019060c08183031262000622576200003a816200064d565b62000048602083016200064d565b62000056604084016200064d565b62000064606085016200064d565b9162000073608086016200064d565b60a086015190956001600160401b0382116200062257019560e08782031262000622576040519660e088016001600160401b038111898210176200048f57604052805188526020810151602089015260408101516040890152606081015160608901526080810151608089015260a081015160a089015260c08101519060018060401b0382116200062257019080601f8301121562000622578151916001600160401b0383116200048f578260051b906020806200013381850162000627565b8096815201928201019283116200062257602001905b828210620006115750505060c0870152600160008181558154336001600160a01b0319821681179093556040516001600160a01b039793909290918816907f8be0079c531659141344cd1fd0a4f28419497f9722a3daafe3b4186f6b6457e09080a3600160ff19600b541617600b558582161562000602575084821615620005f05784831615620005f05784841615620005f05784861615620005f05786516102588110908115620005e1575b50620005cf576020870151670f43fc2c04ee00008110908115620005bc575b50620005aa576040870151620f4240811090811562000598575b5062000586576060870151801590811562000571575b506200055f5760a0870151801590811562000550575b506200053e57608087015162093a8081109081156200052f575b506200051d5760805260a05260e0521660018060a01b0319600254161760025560c052805161018090815260208201516101a09081526040830151906101c091825260608401519261012093845260a085015161014090815260808601519061016091825260c06101009742895242600755426006556040810151600555015180518015620004f95760005b818110620004a55750508051906001600160401b0382116200048f576801000000000000000082116200048f576008548260085580831062000446575b506020016008600052602060002060005b8381106200043157505050506040519561215897886200068e893960805188818161098a01528181610a3801528181610e4a01528181611e0f0152611f57015260a0518881816109060152611099015260c05188818161038f0152610ff8015260e051888181610cab0152818161140c015281816115c40152611706015251878181610afc0152611fec015251868181610699015261201a015251858181611663015261203d015251848181611395015261207b01525183818161065e01526120b30152518281816105e80152610c0f015251818181610f7a015261169e0152f35b6001906020845194019381840155016200034f565b60086000527ff3f7a9fe364faab93b216da50a3214154f22a0a2b415b23a84c8169e8b636ee39081019083015b8181106200048257506200033e565b6000815560010162000473565b634e487b7160e01b600052604160045260246000fd5b600a620004b3828562000662565b51106200050b57611f40620004c9828562000662565b5111620004f9576000198114620004e35760010162000301565b634e487b7160e01b600052601160045260246000fd5b604051630837e60f60e41b8152600490fd5b60405163cd88e71360e01b8152600490fd5b604051630f1b43f160e21b8152600490fd5b6301e133809150113862000275565b604051631a85497960e21b8152600490fd5b9050606088015110386200025b565b604051638c67623d60e01b8152600490fd5b69d3c21bcecceda10000009150113862000245565b604051632e5f374560e01b8152600490fd5b6001600160c01b03109050386200022f565b6040516304943c6f60e01b8152600490fd5b6729a2241af62c00009150113862000215565b604051637c8bf1a360e11b8152600490fd5b6301e1338091501138620001f6565b6040516325eea9eb60e11b8152600490fd5b6325eea9eb60e11b8152600490fd5b815181526020918201910162000149565b600080fd5b6040519190601f01601f191682016001600160401b038111838210176200048f57604052565b51906001600160a01b03821682036200062257565b8051821015620006775760209160051b010190565b634e487b7160e01b600052603260045260246000fdfe6040608081526004908136101561001557600080fd5b600091823560e01c908163095cf5c6146118595781630963054e146117f657816317f4f0ab146109b95781631d5b1706146117d957816326a6fd78146117b557816327243846146117985781632a4265a6146117795781632d971e63146116de5781633410fe6e146116c15781633c92276e1461168657816342b14a791461164b57816342c1976b14610b42578163439af45e1461162c57816346156ea0146115f357816347ce07cc146115af5781634aebdf23146115915781634c5be574146114de57816351b68ab91461062757816352a5f1f8146113db5781635889486e146113b85781635a3e251f1461137d57816361d027b3146113545781636b91ba0a14611311578163715018a6146112b1578163724373b114610b6157816373a4c53e14610b42578163750d48b814610b1f57816378e9792514610ae45781637d36a410146106df57816385f2aef214610abb578163884bf67c14610a0957816388f4b49e146109e75781638da5cb5b146109be5781638fc59c52146109b9578163907af6c014610975578163925e38ab1461095957816398d5fdca14610935578163999b93af146108f15781639b642de1146106fd578163aa9bbc0c146106df578163aaf5eb68146106bc578163abf0caa414610681578163b5b7a18414610646578163b6add0f414610627578163c1e7af351461060b578163d50cb88b146105d0578163d5861d91146105b3578163d927c8791461058e578163dd481bf214610570578163e44d78d014610538578163eac989f814610457578163efd3315614610439578163f0f44260146103be578163f2f4eb261461037a578163f2fde38b146102aa575063f6cb1a491461028b57600080fd5b346102a657816003193601126102a657602090516102588152f35b5080fd5b905034610376576020366003190112610376576102c56118c1565b906102ce611a48565b6001600160a01b03918216928315610324575050600154826bffffffffffffffffffffffff60a01b821617600155167f8be0079c531659141344cd1fd0a4f28419497f9722a3daafe3b4186f6b6457e08380a380f35b906020608492519162461bcd60e51b8352820152602660248201527f4f776e61626c653a206e6577206f776e657220697320746865207a65726f206160448201526564647265737360d01b6064820152fd5b8280fd5b5050346102a657816003193601126102a657517f00000000000000000000000000000000000000000000000000000000000000006001600160a01b03168152602090f35b905034610376576020366003190112610376576103d96118c1565b6103e1611a48565b6001600160a01b031691821561042c575050600280546001600160a01b031916821790557f926b32a8b30a7ff663e26ca85e94cba913ba67d4987aa3ce5d98d5c9fde891298280a280f35b516325eea9eb60e11b8152fd5b5050346102a657816003193601126102a65760209051620f42408152f35b5050346102a657816003193601126102a65780519082600c546104798161198d565b8085529160019180831690811561051057506001146104b3575b5050506104a5826104af9403836119c7565b51918291826119ff565b0390f35b9450600c85527fdf6966c971051c3d54ec59162606531493a51404a002842f56009d7e5cf4a8c75b8286106104f8575050506104a58260206104af9582010194610493565b805460208787018101919091529095019481016104db565b6104af9750869350602092506104a594915060ff191682840152151560051b82010194610493565b5050346102a65760203660031901126102a6578060209267ffffffffffffffff610560611948565b168152600a845220549051908152f35b5050346102a657816003193601126102a6576020905162093a808152f35b5050346102a657816003193601126102a6576020905169d3c21bcecceda10000008152f35b5050346102a657816003193601126102a657602090516101908152f35b5050346102a657816003193601126102a657602090517f00000000000000000000000000000000000000000000000000000000000000008152f35b5050346102a657816003193601126102a6576020905160648152f35b5050346102a657816003193601126102a6576020906005549051908152f35b5050346102a657816003193601126102a657602090517f00000000000000000000000000000000000000000000000000000000000000008152f35b5050346102a657816003193601126102a657602090517f00000000000000000000000000000000000000000000000000000000000000008152f35b5050346102a657816003193601126102a65760209051670de0b6b3a76400008152f35b90503461037657826003193601126103765760209250549051908152f35b9190503461037657602090816003193601126108ed5767ffffffffffffffff9083358281116108e957610733903690860161195f565b94909261073e611a48565b85116108d65750610750600c5461198d565b601f8111610874575b5084601f85116001146107cc57916107bb91857fd9bd465f9b699465b782545218445a2f12b2ee792a680fb5a7d197fa5533bc7c96959488916107c1575b508560011b906000198760031b1c191617600c555b51938385948552840191611af6565b0390a180f35b905082013538610797565b600c86527fdf6966c971051c3d54ec59162606531493a51404a002842f56009d7e5cf4a8c790601f198616875b81811061085d5750916107bb9391877fd9bd465f9b699465b782545218445a2f12b2ee792a680fb5a7d197fa5533bc7c9897969410610843575b5050600185811b01600c556107ac565b830135600019600388901b60f8161c191690553880610833565b9192866001819286890135815501940192016107f9565b600c86527fdf6966c971051c3d54ec59162606531493a51404a002842f56009d7e5cf4a8c7601f860160051c8101918587106108cc575b601f0160051c01905b8181106108c15750610759565b8681556001016108b4565b90915081906108ab565b634e487b7160e01b865260419052602485fd5b8580fd5b8380fd5b5050346102a657816003193601126102a657517f00000000000000000000000000000000000000000000000000000000000000006001600160a01b03168152602090f35b5050346102a657816003193601126102a6576020906109526120a5565b9051908152f35b5050346102a657816003193601126102a65760209051600a8152f35b5050346102a657816003193601126102a657517f00000000000000000000000000000000000000000000000000000000000000006001600160a01b03168152602090f35b6118dc565b5050346102a657816003193601126102a65760015490516001600160a01b039091168152602090f35b5050346102a657816003193601126102a657516001600160c01b038152602090f35b9190503461037657826003193601126103765780516370a0823160e01b815230928101929092526020826024817f00000000000000000000000000000000000000000000000000000000000000006001600160a01b03165afa918215610ab1578392610a7a575b6020838351908152f35b9091506020813d8211610aa9575b81610a95602093836119c7565b810103126103765760209250519038610a70565b3d9150610a88565b81513d85823e3d90fd5b5050346102a657816003193601126102a65760035490516001600160a01b039091168152602090f35b5050346102a657816003193601126102a657602090517f00000000000000000000000000000000000000000000000000000000000000008152f35b5050346102a657816003193601126102a65760209051670f43fc2c04ee00008152f35b5050346102a657816003193601126102a6576020906006549051908152f35b91905060a036600319011261037657610b786118c1565b67ffffffffffffffff936084358581116102a657610b99903690860161195f565b9590600283541461126e57600283556001600160a01b038481169290831561125e57604435421161124e5787546024350361123e57610bd66120a5565b95606435871161122e5786158015610fe1575b508885899a9b610bfa9a999a611f23565b80610faf575b50670de0b6b3a7640000610c347f00000000000000000000000000000000000000000000000000000000000000008d611aa0565b6001600160c01b0391900481811115610f755750965b8354978894600186019055600555426006558a5180918d825260209e8f83015233938d830190610c7992611af6565b037fee3d5f6534ca964caed872dd961ea75348307a35540ca87da28a67c9bc572d7791a4600b5460ff1615610e0c57507f00000000000000000000000000000000000000000000000000000000000000001685516341025b3d60e11b815288818b81855afa908115610e0257906001600160801b03918791610dd5575b501698893410610dc7578651637b43155d60e01b81529989928b929183915af18015610dbd578490610d82575b60019596979850169182845260098852858420906bffffffffffffffffffffffff60a01b825416179055600a875280858420557f642fe50b0758433126e76ed2960b2a1078adb2607727b2b75d98be66a4e621fd8380a35b5551908152f35b50968681813d8311610db6575b610d9981836119c7565b810103126108ed57519680881688036108ed579596879690610d23565b503d610d8f565b85513d86823e3d90fd5b8651635cf6ce4d60e01b8152fd5b610df591508a3d8c11610dfb575b610ded81836119c7565b810190611b17565b38610cf6565b503d610de3565b87513d88823e3d90fd5b915091939495969734610dc75760085415610f6257600886527ff3f7a9fe364faab93b216da50a3214154f22a0a2b415b23a84c8169e8b636ee354927f000000000000000000000000000000000000000000000000000000000000000016908751906370a0823160e01b825230908201528981602481855afa908115610f58579088949392918891610efd575b50918391612710610ed17fc84cdbfe6ab7b6c8ba19d9d43549658919bc51ecb43173ab3da971dd32dd24359660019b9a999896611aa0565b04809281610eec575b50505082519182528a820152a3610d7b565b610ef592611b36565b388181610eda565b8092939495508b8092503d8311610f51575b610f1981836119c7565b81010312610f4d575187939291907fc84cdbfe6ab7b6c8ba19d9d43549658919bc51ecb43173ab3da971dd32dd2435610e99565b8680fd5b503d610f0f565b88513d89823e3d90fd5b634e487b7160e01b865260329052602485fd5b9790507f0000000000000000000000000000000000000000000000000000000000000000808910610fa7575b50610c4a565b975038610fa1565b7f24562cbeb2dd4b8c04e5cabdbcd360d0cb540d872c47a3316f9ae604cc7eccc660208554928d51908152a238610c00565b885163cce516b760e01b815260209b91908c818d817f000000000000000000000000000000000000000000000000000000000000000089165afa9081156112245789916111ea575b506003548516156111e357610190808b02908b8204148317156111d0576127109004905b8086169283156111af5760648c02908c8204606414171561119b5792868e9f8e9f96948e9f9e948f956110928f999161108d612710869404958692611ae9565b611ae9565b6110c581877f00000000000000000000000000000000000000000000000000000000000000001697600254163389611b79565b8c600254167fba0450009d009d11ffd93f779f78c55ab21ec496dbdb727de430f249a07efa5a868d54938b51908152a380611155575b5081611114575b5050505050509b9a5050979697610be9565b81611142917f1199f54426760f7cebee280b0efef53b0602690f09314271cef16127bdd36dc9953390611b79565b87549451908152a3893880808080611102565b611165818d600354163388611b79565b8b600354167fb564e70919fa0c597ebeed2fb2607be68d8195df3c8c088637e5baaa9ed8b050858c54938a51908152a3386110fb565b50634e487b7160e01b8a5260118d5260248afd5b509a8892868e9f839f96948e9f859f8f839161108d61109292958692611ae9565b634e487b7160e01b8a5260118d5260248afd5b889061104d565b90508c81813d831161121d575b61120181836119c7565b81010312611219575184811681036112195738611029565b8880fd5b503d6111f7565b8b513d8b823e3d90fd5b8751630ade1bf360e21b81528990fd5b865163b329638b60e01b81528890fd5b865163687c0fc560e11b81528890fd5b865163af07599760e01b81528890fd5b845162461bcd60e51b8152602081880152601f60248201527f5265656e7472616e637947756172643a207265656e7472616e742063616c6c006044820152606490fd5b833461130e578060031936011261130e576112ca611a48565b600180546001600160a01b0319811690915581906001600160a01b03167f8be0079c531659141344cd1fd0a4f28419497f9722a3daafe3b4186f6b6457e08280a380f35b80fd5b5050346102a65760203660031901126102a65760209167ffffffffffffffff611338611948565b168152600983528190205490516001600160a01b039091168152f35b5050346102a657816003193601126102a65760025490516001600160a01b039091168152602090f35b5050346102a657816003193601126102a657602090517f00000000000000000000000000000000000000000000000000000000000000008152f35b5050346102a657816003193601126102a657602090516729a2241af62c00008152f35b905034610376576060366003190112610376576113f6611948565b916001600160a01b03602435818116036114da577f0000000000000000000000000000000000000000000000000000000000000000168015611497573303611448578361144560443585611db3565b80f35b906020608492519162461bcd60e51b8352820152602360248201527f4f6e6c7920456e74726f70792063616e2063616c6c20746869732066756e637460448201526234b7b760e91b6064820152fd5b815162461bcd60e51b8152602081850152601760248201527f456e74726f70792061646472657373206e6f74207365740000000000000000006044820152606490fd5b8480fd5b82843461130e578060031936011261130e579080519182906008549182855260208095018093600884527ff3f7a9fe364faab93b216da50a3214154f22a0a2b415b23a84c8169e8b636ee390845b81811061157d57505050816115429103826119c7565b83519485948186019282875251809352850193925b82811061156657505050500390f35b835185528695509381019392810192600101611557565b82548452928801926001928301920161152c565b5050346102a657816003193601126102a65760209061095242611fea565b5050346102a657816003193601126102a657517f00000000000000000000000000000000000000000000000000000000000000006001600160a01b03168152602090f35b90503461037657602036600319011261037657359160085483101561130e575061161e6020926118fb565b91905490519160031b1c8152f35b5050346102a657816003193601126102a6576020906007549051908152f35b5050346102a657816003193601126102a657602090517f00000000000000000000000000000000000000000000000000000000000000008152f35b5050346102a657816003193601126102a657602090517f00000000000000000000000000000000000000000000000000000000000000008152f35b5050346102a657816003193601126102a657602090516127108152f35b9190503461037657826003193601126103765780516341025b3d60e11b8152916020908390817f00000000000000000000000000000000000000000000000000000000000000006001600160a01b03165afa918215610ab15760209392611751575b506001600160801b03905191168152f35b6001600160801b0391925061177290843d8111610dfb57610ded81836119c7565b9190611740565b5050346102a657816003193601126102a6576020906008549051908152f35b5050346102a657816003193601126102a65760209051611f408152f35b5050346102a657816003193601126102a65760209060ff600b541690519015158152f35b5050346102a657816003193601126102a657602090610952612103565b905034610376576020366003190112610376573590811515809203610376577f6568dc49b6d526e1f8d05a7b2461dd0c9e234d9d116e3bfead83feb0db31f6f491602091611842611a48565b60ff19600b541660ff831617600b5551908152a180f35b833461130e57602036600319011261130e576118736118c1565b61187b611a48565b600380546001600160a01b0319166001600160a01b039290921691821790557f88a1b85551c24a4e5f9cf247c6c99d1d27e79bce5532970af2756d44b42d4b5d8280a280f35b600435906001600160a01b03821682036118d757565b600080fd5b346118d75760003660031901126118d75760206040516301e133808152f35b6008548110156119325760086000527ff3f7a9fe364faab93b216da50a3214154f22a0a2b415b23a84c8169e8b636ee30190600090565b634e487b7160e01b600052603260045260246000fd5b6004359067ffffffffffffffff821682036118d757565b9181601f840112156118d75782359167ffffffffffffffff83116118d757602083818601950101116118d757565b90600182811c921680156119bd575b60208310146119a757565b634e487b7160e01b600052602260045260246000fd5b91607f169161199c565b90601f8019910116810190811067ffffffffffffffff8211176119e957604052565b634e487b7160e01b600052604160045260246000fd5b6020808252825181830181905290939260005b828110611a3457505060409293506000838284010152601f8019910116010190565b818101860151848201604001528501611a12565b6001546001600160a01b03163303611a5c57565b606460405162461bcd60e51b815260206004820152602060248201527f4f776e61626c653a2063616c6c6572206973206e6f7420746865206f776e65726044820152fd5b81810292918115918404141715611ab357565b634e487b7160e01b600052601160045260246000fd5b8115611ad3570490565b634e487b7160e01b600052601260045260246000fd5b91908203918211611ab357565b908060209392818452848401376000828201840152601f01601f1916010190565b908160209103126118d757516001600160801b03811681036118d75790565b60405163a9059cbb60e01b60208201526001600160a01b03929092166024830152604480830193909352918152611b7791611b726064836119c7565b611bce565b565b6040516323b872dd60e01b60208201526001600160a01b03928316602482015292909116604483015260648083019390935291815260a081019181831067ffffffffffffffff8411176119e957611b77926040525b60018060a01b0316906040516040810167ffffffffffffffff90828110828211176119e9576040526020938483527f5361666545524332303a206c6f772d6c6576656c2063616c6c206661696c6564858401526000808587829751910182855af1903d15611d13573d928311611cff5790611c6993929160405192611c5c88601f19601f84011601856119c7565b83523d868885013e611d1e565b805191821591848315611cdb575b505050905015611c845750565b6084906040519062461bcd60e51b82526004820152602a60248201527f5361666545524332303a204552433230206f7065726174696f6e20646964206e6044820152691bdd081cdd58d8d9595960b21b6064820152fd5b9193818094500103126102a65782015190811515820361130e575080388084611c77565b634e487b7160e01b85526041600452602485fd5b90611c699392506060915b91929015611d805750815115611d32575090565b3b15611d3b5790565b60405162461bcd60e51b815260206004820152601d60248201527f416464726573733a2063616c6c20746f206e6f6e2d636f6e74726163740000006044820152606490fd5b825190915015611d935750805190602001fd5b60405162461bcd60e51b8152908190611daf90600483016119ff565b0390fd5b67ffffffffffffffff1660009081526009602090815260408083208054600a845282852080546001600160a01b0319831690935585905593959490936001600160a01b039081169390918415611ef557611e0c90611eff565b917f0000000000000000000000000000000000000000000000000000000000000000169083516370a0823160e01b81523060048201528181602481865afa988915611eea578099611eb4575b5050612710611e8b847fc84cdbfe6ab7b6c8ba19d9d43549658919bc51ecb43173ab3da971dd32dd24359798999a611aa0565b0491828781611ea3575b5050508351928352820152a3565b611eac92611b36565b388287611e95565b9098508189813d8311611ee3575b611ecc81836119c7565b8101031261130e5750965196612710611e8b611e58565b503d611ec2565b8551903d90823e3d90fd5b5050505050509050565b6008548015611f1c57611f1291066118fb565b90549060031b1c90565b5050600a90565b611f2f60075442611ae9565b8015611fe457611f4890611f4242611fea565b90611aa0565b80611f55575b4260075590565b7f00000000000000000000000000000000000000000000000000000000000000006001600160a01b0316803b156118d7576040516340c10f1960e01b815230600482015260248101839052906000908290604490829084905af18015611fd857611fc0575b50611f4e565b67ffffffffffffffff81116119e95760405238611fba565b6040513d6000823e3d90fd5b50600090565b7f00000000000000000000000000000000000000000000000000000000000000009081811161206c57505060005b7f0000000000000000000000000000000000000000000000000000000000000000901c7f0000000000000000000000000000000000000000000000000000000000000000808210612067575090565b905090565b6120a09161207991611ae9565b7f000000000000000000000000000000000000000000000000000000000000000090611ac9565b612018565b6120b160065442611ae9565b7f0000000000000000000000000000000000000000000000000000000000000000908181116120fc576120f36120f9926120ee6005549384611aa0565b611ac9565b90611ae9565b90565b5050600090565b61210f60075442611ae9565b8015611fe4576120f990611f4242611fea56fea26469706673582212206d9fa8239013c95609cd93e237c09e43fcb3a23378dc1dc03268e137b1c2aae364736f6c63430008130033",
  "linkReferences": {},
  "deployedLinkReferences": {}
}