{
  "_format": "hh-sol-artifact-1",
  "contractName": "SpinRig",
  "sourceName": "contracts/rigs/spin/SpinRig.sol",
  "abi": [
    {
      "inputs": [
        {
          "internalType": "address",
          "name": "_unit",
          "type": "address"
        },
        {
          "internalType": "address",
          "name": "_quote",
          "type": "address"
        },
        {
          "internalType": "address",
          "name": "_core",
          "type": "address"
        },
        {
          "internalType": "address",
          "name": "_treasury",
          "type": "address"
        },
        {
          "internalType": "address",
          "name": "_team",
          "type": "address"
        },
        {
          "internalType": "address",
          "name": "_entropy",
          "type": "address"
        },
        {
          "components": [
            {
              "internalType": "uint256",
              "name": "epochPeriod",
              "type": "uint256"
            },
            {
              "internalType": "uint256",
              "name": "priceMultiplier",
              "type": "uint256"
            },
            {
              "internalType": "uint256",
              "name": "minInitPrice",
              "type": "uint256"
            },
            {
              "internalType": "uint256",
              "name": "initialUps",
              "type": "uint256"
            },
            {
              "internalType": "uint256",
              "name": "halvingPeriod",
              "type": "uint256"
            },
            {
              "internalType": "uint256",
              "name": "tailUps",
              "type": "uint256"
            },
            {
              "internalType": "uint256[]",
              "name": "odds",
              "type": "uint256[]"
            }
          ],
          "internalType": "struct SpinRig.Config",
          "name": "_config",
          "type": "tuple"
        }
      ],
      "stateMutability": "nonpayable",
      "type": "constructor"
    },
    {
      "inputs": [],
      "name": "SpinRig__DeadlinePassed",
      "type": "error"
    },
    {
      "inputs": [],
      "name": "SpinRig__EpochIdMismatch",
      "type": "error"
    },
    {
      "inputs": [],
      "name": "SpinRig__EpochPeriodOutOfRange",
      "type": "error"
    },
    {
      "inputs": [],
      "name": "SpinRig__HalvingPeriodOutOfRange",
      "type": "error"
    },
    {
      "inputs": [],
      "name": "SpinRig__InitialUpsOutOfRange",
      "type": "error"
    },
    {
      "inputs": [],
      "name": "SpinRig__InsufficientFee",
      "type": "error"
    },
    {
      "inputs": [],
      "name": "SpinRig__InvalidOdds",
      "type": "error"
    },
    {
      "inputs": [],
      "name": "SpinRig__MaxPriceExceeded",
      "type": "error"
    },
    {
      "inputs": [],
      "name": "SpinRig__MinInitPriceOutOfRange",
      "type": "error"
    },
    {
      "inputs": [],
      "name": "SpinRig__NoEntropyRequired",
      "type": "error"
    },
    {
      "inputs": [],
      "name": "SpinRig__OddsTooLow",
      "type": "error"
    },
    {
      "inputs": [],
      "name": "SpinRig__PriceMultiplierOutOfRange",
      "type": "error"
    },
    {
      "inputs": [],
      "name": "SpinRig__TailUpsOutOfRange",
      "type": "error"
    },
    {
      "inputs": [],
      "name": "SpinRig__ZeroAddress",
      "type": "error"
    },
    {
      "inputs": [],
      "name": "SpinRig__ZeroSpinner",
      "type": "error"
    },
    {
      "anonymous": false,
      "inputs": [
        {
          "indexed": true,
          "internalType": "address",
          "name": "previousOwner",
          "type": "address"
        },
        {
          "indexed": true,
          "internalType": "address",
          "name": "newOwner",
          "type": "address"
        }
      ],
      "name": "OwnershipTransferred",
      "type": "event"
    },
    {
      "anonymous": false,
      "inputs": [
        {
          "indexed": true,
          "internalType": "uint256",
          "name": "epochId",
          "type": "uint256"
        },
        {
          "indexed": false,
          "internalType": "uint256",
          "name": "amount",
          "type": "uint256"
        }
      ],
      "name": "SpinRig__EmissionMinted",
      "type": "event"
    },
    {
      "anonymous": false,
      "inputs": [
        {
          "indexed": false,
          "internalType": "bool",
          "name": "enabled",
          "type": "bool"
        }
      ],
      "name": "SpinRig__EntropyEnabledSet",
      "type": "event"
    },
    {
      "anonymous": false,
      "inputs": [
        {
          "indexed": true,
          "internalType": "uint256",
          "name": "epochId",
          "type": "uint256"
        },
        {
          "indexed": true,
          "internalType": "uint64",
          "name": "sequenceNumber",
          "type": "uint64"
        }
      ],
      "name": "SpinRig__EntropyRequested",
      "type": "event"
    },
    {
      "anonymous": false,
      "inputs": [
        {
          "indexed": true,
          "internalType": "address",
          "name": "protocol",
          "type": "address"
        },
        {
          "indexed": true,
          "internalType": "uint256",
          "name": "epochId",
          "type": "uint256"
        },
        {
          "indexed": false,
          "internalType": "uint256",
          "name": "amount",
          "type": "uint256"
        }
      ],
      "name": "SpinRig__ProtocolFee",
      "type": "event"
    },
    {
      "anonymous": false,
      "inputs": [
        {
          "indexed": false,
          "internalType": "address",
          "name": "sender",
          "type": "address"
        },
        {
          "indexed": true,
          "internalType": "address",
          "name": "spinner",
          "type": "address"
        },
        {
          "indexed": true,
          "internalType": "uint256",
          "name": "epochId",
          "type": "uint256"
        },
        {
          "indexed": false,
          "internalType": "uint256",
          "name": "price",
          "type": "uint256"
        },
        {
          "indexed": false,
          "internalType": "string",
          "name": "uri",
          "type": "string"
        }
      ],
      "name": "SpinRig__Spin",
      "type": "event"
    },
    {
      "anonymous": false,
      "inputs": [
        {
          "indexed": true,
          "internalType": "address",
          "name": "team",
          "type": "address"
        },
        {
          "indexed": true,
          "internalType": "uint256",
          "name": "epochId",
          "type": "uint256"
        },
        {
          "indexed": false,
          "internalType": "uint256",
          "name": "amount",
          "type": "uint256"
        }
      ],
      "name": "SpinRig__TeamFee",
      "type": "event"
    },
    {
      "anonymous": false,
      "inputs": [
        {
          "indexed": true,
          "internalType": "address",
          "name": "team",
          "type": "address"
        }
      ],
      "name": "SpinRig__TeamSet",
      "type": "event"
    },
    {
      "anonymous": false,
      "inputs": [
        {
          "indexed": true,
          "internalType": "address",
          "name": "treasury",
          "type": "address"
        },
        {
          "indexed": true,
          "internalType": "uint256",
          "name": "epochId",
          "type": "uint256"
        },
        {
          "indexed": false,
          "internalType": "uint256",
          "name": "amount",
          "type": "uint256"
        }
      ],
      "name": "SpinRig__TreasuryFee",
      "type": "event"
    },
    {
      "anonymous": false,
      "inputs": [
        {
          "indexed": true,
          "internalType": "address",
          "name": "treasury",
          "type": "address"
        }
      ],
      "name": "SpinRig__TreasurySet",
      "type": "event"
    },
    {
      "anonymous": false,
      "inputs": [
        {
          "indexed": false,
          "internalType": "string",
          "name": "uri",
          "type": "string"
        }
      ],
      "name": "SpinRig__UriSet",
      "type": "event"
    },
    {
      "anonymous": false,
      "inputs": [
        {
          "indexed": true,
          "internalType": "address",
          "name": "spinner",
          "type": "address"
        },
        {
          "indexed": true,
          "internalType": "uint256",
          "name": "epochId",
          "type": "uint256"
        },
        {
          "indexed": false,
          "internalType": "uint256",
          "name": "oddsBps",
          "type": "uint256"
        },
        {
          "indexed": false,
          "internalType": "uint256",
          "name": "amount",
          "type": "uint256"
        }
      ],
      "name": "SpinRig__Win",
      "type": "event"
    },
    {
      "inputs": [],
      "name": "ABS_MAX_INIT_PRICE",
      "outputs": [
        {
          "internalType": "uint256",
          "name": "",
          "type": "uint256"
        }
      ],
      "stateMutability": "view",
      "type": "function"
    },
    {
      "inputs": [],
      "name": "ABS_MIN_INIT_PRICE",
      "outputs": [
        {
          "internalType": "uint256",
          "name": "",
          "type": "uint256"
        }
      ],
      "stateMutability": "view",
      "type": "function"
    },
    {
      "inputs": [],
      "name": "DIVISOR",
      "outputs": [
        {
          "internalType": "uint256",
          "name": "",
          "type": "uint256"
        }
      ],
      "stateMutability": "view",
      "type": "function"
    },
    {
      "inputs": [],
      "name": "MAX_EPOCH_PERIOD",
      "outputs": [
        {
          "internalType": "uint256",
          "name": "",
          "type": "uint256"
        }
      ],
      "stateMutability": "view",
      "type": "function"
    },
    {
      "inputs": [],
      "name": "MAX_HALVING_PERIOD",
      "outputs": [
        {
          "internalType": "uint256",
          "name": "",
          "type": "uint256"
        }
      ],
      "stateMutability": "view",
      "type": "function"
    },
    {
      "inputs": [],
      "name": "MAX_INITIAL_UPS",
      "outputs": [
        {
          "internalType": "uint256",
          "name": "",
          "type": "uint256"
        }
      ],
      "stateMutability": "view",
      "type": "function"
    },
    {
      "inputs": [],
      "name": "MAX_ODDS_BPS",
      "outputs": [
        {
          "internalType": "uint256",
          "name": "",
          "type": "uint256"
        }
      ],
      "stateMutability": "view",
      "type": "function"
    },
    {
      "inputs": [],
      "name": "MAX_PRICE_MULTIPLIER",
      "outputs": [
        {
          "internalType": "uint256",
          "name": "",
          "type": "uint256"
        }
      ],
      "stateMutability": "view",
      "type": "function"
    },
    {
      "inputs": [],
      "name": "MIN_EPOCH_PERIOD",
      "outputs": [
        {
          "internalType": "uint256",
          "name": "",
          "type": "uint256"
        }
      ],
      "stateMutability": "view",
      "type": "function"
    },
    {
      "inputs": [],
      "name": "MIN_HALVING_PERIOD",
      "outputs": [
        {
          "internalType": "uint256",
          "name": "",
          "type": "uint256"
        }
      ],
      "stateMutability": "view",
      "type": "function"
    },
    {
      "inputs": [],
      "name": "MIN_ODDS_BPS",
      "outputs": [
        {
          "internalType": "uint256",
          "name": "",
          "type": "uint256"
        }
      ],
      "stateMutability": "view",
      "type": "function"
    },
    {
      "inputs": [],
      "name": "MIN_PRICE_MULTIPLIER",
      "outputs": [
        {
          "internalType": "uint256",
          "name": "",
          "type": "uint256"
        }
      ],
      "stateMutability": "view",
      "type": "function"
    },
    {
      "inputs": [],
      "name": "PRECISION",
      "outputs": [
        {
          "internalType": "uint256",
          "name": "",
          "type": "uint256"
        }
      ],
      "stateMutability": "view",
      "type": "function"
    },
    {
      "inputs": [],
      "name": "PROTOCOL_BPS",
      "outputs": [
        {
          "internalType": "uint256",
          "name": "",
          "type": "uint256"
        }
      ],
      "stateMutability": "view",
      "type": "function"
    },
    {
      "inputs": [],
      "name": "TEAM_BPS",
      "outputs": [
        {
          "internalType": "uint256",
          "name": "",
          "type": "uint256"
        }
      ],
      "stateMutability": "view",
      "type": "function"
    },
    {
      "inputs": [
        {
          "internalType": "uint64",
          "name": "sequence",
          "type": "uint64"
        },
        {
          "internalType": "address",
          "name": "provider",
          "type": "address"
        },
        {
          "internalType": "bytes32",
          "name": "randomNumber",
          "type": "bytes32"
        }
      ],
      "name": "_entropyCallback",
      "outputs": [],
      "stateMutability": "nonpayable",
      "type": "function"
    },
    {
      "inputs": [],
      "name": "core",
      "outputs": [
        {
          "internalType": "address",
          "name": "",
          "type": "address"
        }
      ],
      "stateMutability": "view",
      "type": "function"
    },
    {
      "inputs": [],
      "name": "entropy",
      "outputs": [
        {
          "internalType": "address",
          "name": "",
          "type": "address"
        }
      ],
      "stateMutability": "view",
      "type": "function"
    },
    {
      "inputs": [],
      "name": "entropyEnabled",
      "outputs": [
        {
          "internalType": "bool",
          "name": "",
          "type": "bool"
        }
      ],
      "stateMutability": "view",
      "type": "function"
    },
    {
      "inputs": [],
      "name": "epochId",
      "outputs": [
        {
          "internalType": "uint256",
          "name": "",
          "type": "uint256"
        }
      ],
      "stateMutability": "view",
      "type": "function"
    },
    {
      "inputs": [],
      "name": "epochPeriod",
      "outputs": [
        {
          "internalType": "uint256",
          "name": "",
          "type": "uint256"
        }
      ],
      "stateMutability": "view",
      "type": "function"
    },
    {
      "inputs": [],
      "name": "getEntropyFee",
      "outputs": [
        {
          "internalType": "uint256",
          "name": "",
          "type": "uint256"
        }
      ],
      "stateMutability": "view",
      "type": "function"
    },
    {
      "inputs": [],
      "name": "getOdds",
      "outputs": [
        {
          "internalType": "uint256[]",
          "name": "",
          "type": "uint256[]"
        }
      ],
      "stateMutability": "view",
      "type": "function"
    },
    {
      "inputs": [],
      "name": "getOddsLength",
      "outputs": [
        {
          "internalType": "uint256",
          "name": "",
          "type": "uint256"
        }
      ],
      "stateMutability": "view",
      "type": "function"
    },
    {
      "inputs": [],
      "name": "getPendingEmissions",
      "outputs": [
        {
          "internalType": "uint256",
          "name": "",
          "type": "uint256"
        }
      ],
      "stateMutability": "view",
      "type": "function"
    },
    {
      "inputs": [],
      "name": "getPrice",
      "outputs": [
        {
          "internalType": "uint256",
          "name": "",
          "type": "uint256"
        }
      ],
      "stateMutability": "view",
      "type": "function"
    },
    {
      "inputs": [],
      "name": "getPrizePool",
      "outputs": [
        {
          "internalType": "uint256",
          "name": "",
          "type": "uint256"
        }
      ],
      "stateMutability": "view",
      "type": "function"
    },
    {
      "inputs": [],
      "name": "getUps",
      "outputs": [
        {
          "internalType": "uint256",
          "name": "",
          "type": "uint256"
        }
      ],
      "stateMutability": "view",
      "type": "function"
    },
    {
      "inputs": [],
      "name": "halvingPeriod",
      "outputs": [
        {
          "internalType": "uint256",
          "name": "",
          "type": "uint256"
        }
      ],
      "stateMutability": "view",
      "type": "function"
    },
    {
      "inputs": [],
      "name": "initPrice",
      "outputs": [
        {
          "internalType": "uint256",
          "name": "",
          "type": "uint256"
        }
      ],
      "stateMutability": "view",
      "type": "function"
    },
    {
      "inputs": [],
      "name": "initialUps",
      "outputs": [
        {
          "internalType": "uint256",
          "name": "",
          "type": "uint256"
        }
      ],
      "stateMutability": "view",
      "type": "function"
    },
    {
      "inputs": [],
      "name": "lastEmissionTime",
      "outputs": [
        {
          "internalType": "uint256",
          "name": "",
          "type": "uint256"
        }
      ],
      "stateMutability": "view",
      "type": "function"
    },
    {
      "inputs": [],
      "name": "minInitPrice",
      "outputs": [
        {
          "internalType": "uint256",
          "name": "",
          "type": "uint256"
        }
      ],
      "stateMutability": "view",
      "type": "function"
    },
    {
      "inputs": [
        {
          "internalType": "uint256",
          "name": "",
          "type": "uint256"
        }
      ],
      "name": "odds",
      "outputs": [
        {
          "internalType": "uint256",
          "name": "",
          "type": "uint256"
        }
      ],
      "stateMutability": "view",
      "type": "function"
    },
    {
      "inputs": [],
      "name": "owner",
      "outputs": [
        {
          "internalType": "address",
          "name": "",
          "type": "address"
        }
      ],
      "stateMutability": "view",
      "type": "function"
    },
    {
      "inputs": [],
      "name": "priceMultiplier",
      "outputs": [
        {
          "internalType": "uint256",
          "name": "",
          "type": "uint256"
        }
      ],
      "stateMutability": "view",
      "type": "function"
    },
    {
      "inputs": [],
      "name": "quote",
      "outputs": [
        {
          "internalType": "address",
          "name": "",
          "type": "address"
        }
      ],
      "stateMutability": "view",
      "type": "function"
    },
    {
      "inputs": [],
      "name": "renounceOwnership",
      "outputs": [],
      "stateMutability": "nonpayable",
      "type": "function"
    },
    {
      "inputs": [
        {
          "internalType": "uint64",
          "name": "",
          "type": "uint64"
        }
      ],
      "name": "sequenceToEpoch",
      "outputs": [
        {
          "internalType": "uint256",
          "name": "",
          "type": "uint256"
        }
      ],
      "stateMutability": "view",
      "type": "function"
    },
    {
      "inputs": [
        {
          "internalType": "uint64",
          "name": "",
          "type": "uint64"
        }
      ],
      "name": "sequenceToSpinner",
      "outputs": [
        {
          "internalType": "address",
          "name": "",
          "type": "address"
        }
      ],
      "stateMutability": "view",
      "type": "function"
    },
    {
      "inputs": [
        {
          "internalType": "bool",
          "name": "_enabled",
          "type": "bool"
        }
      ],
      "name": "setEntropyEnabled",
      "outputs": [],
      "stateMutability": "nonpayable",
      "type": "function"
    },
    {
      "inputs": [
        {
          "internalType": "address",
          "name": "_team",
          "type": "address"
        }
      ],
      "name": "setTeam",
      "outputs": [],
      "stateMutability": "nonpayable",
      "type": "function"
    },
    {
      "inputs": [
        {
          "internalType": "address",
          "name": "_treasury",
          "type": "address"
        }
      ],
      "name": "setTreasury",
      "outputs": [],
      "stateMutability": "nonpayable",
      "type": "function"
    },
    {
      "inputs": [
        {
          "internalType": "string",
          "name": "_uri",
          "type": "string"
        }
      ],
      "name": "setUri",
      "outputs": [],
      "stateMutability": "nonpayable",
      "type": "function"
    },
    {
      "inputs": [
        {
          "internalType": "address",
          "name": "spinner",
          "type": "address"
        },
        {
          "internalType": "uint256",
          "name": "_epochId",
          "type": "uint256"
        },
        {
          "internalType": "uint256",
          "name": "deadline",
          "type": "uint256"
        },
        {
          "internalType": "uint256",
          "name": "maxPrice",
          "type": "uint256"
        },
        {
          "internalType": "string",
          "name": "_uri",
          "type": "string"
        }
      ],
      "name": "spin",
      "outputs": [
        {
          "internalType": "uint256",
          "name": "price",
          "type": "uint256"
        }
      ],
      "stateMutability": "payable",
      "type": "function"
    },
    {
      "inputs": [],
      "name": "spinStartTime",
      "outputs": [
        {
          "internalType": "uint256",
          "name": "",
          "type": "uint256"
        }
      ],
      "stateMutability": "view",
      "type": "function"
    },
    {
      "inputs": [],
      "name": "startTime",
      "outputs": [
        {
          "internalType": "uint256",
          "name": "",
          "type": "uint256"
        }
      ],
      "stateMutability": "view",
      "type": "function"
    },
    {
      "inputs": [],
      "name": "tailUps",
      "outputs": [
        {
          "internalType": "uint256",
          "name": "",
          "type": "uint256"
        }
      ],
      "stateMutability": "view",
      "type": "function"
    },
    {
      "inputs": [],
      "name": "team",
      "outputs": [
        {
          "internalType": "address",
          "name": "",
          "type": "address"
        }
      ],
      "stateMutability": "view",
      "type": "function"
    },
    {
      "inputs": [
        {
          "internalType": "address",
          "name": "newOwner",
          "type": "address"
        }
      ],
      "name": "transferOwnership",
      "outputs": [],
      "stateMutability": "nonpayable",
      "type": "function"
    },
    {
      "inputs": [],
      "name": "treasury",
      "outputs": [
        {
          "internalType": "address",
          "name": "",
          "type": "address"
        }
      ],
      "stateMutability": "view",
      "type": "function"
    },
    {
      "inputs": [],
      "name": "unit",
      "outputs": [
        {
          "internalType": "address",
          "name": "",
          "type": "address"
        }
      ],
      "stateMutability": "view",
      "type": "function"
    },
    {
      "inputs": [],
      "name": "uri",
      "outputs": [
        {
          "internalType": "string",
          "name": "",
          "type": "string"
        }
      ],
      "stateMutability": "view",
      "type": "function"
    }
  ],
  "bytecode": "0x6101e0604052346200066b576200281d803803806200001e8162000670565b92833960e08282810103126200066b57620000398262000696565b620000476020840162000696565b620000556040850162000696565b620000636060860162000696565b91620000726080870162000696565b936200008160a0880162000696565b60c088015190966001600160401b0382116200066b5760e0828a01828b0103126200066b576040519860e08a016001600160401b0381118b821017620004f857604090815281840180518c52602080820151908d015280820151918c0191909152606080820151908c0152608080820151908c015260a080820151908c015260c00151906001600160401b0382116200066b57828101601f83868401010112156200066b57808401820151916001600160401b038311620004f8576200014d60208460051b0162000670565b9460208087868152019460051b8383860101010194830185116200066b57602092010101905b8282106200065a5750505060c0880152600160008181558154336001600160a01b03198216811790935560405192916001600160a01b03909116907f8be0079c531659141344cd1fd0a4f28419497f9722a3daafe3b4186f6b6457e09080a3600b805460ff191660011790556001600160a01b038216156200064b57506001600160a01b0382161562000639576001600160a01b0383161562000639576001600160a01b0384161562000639576001600160a01b038616156200063957865161025881109081156200062a575b5062000618576020870151670f43fc2c04ee0000811090811562000605575b50620005f3576040870151620f42408110908115620005e1575b50620005cf5760608701518015908115620005ba575b50620005a85760a0870151801590811562000599575b506200058757608087015162093a80811090811562000578575b50620005665760805260a05260c05260018060a01b031660018060a01b0319600254161760025560018060a01b031660018060a01b0319600354161760035560e052805161018090815260208201516101a09081526040830151906101c091825260608401519261012093845260a085015161014090815260808601519061016091825260c06101009742895242600755426006556040810151600555015180518015620005425760005b8181106200050e5750508051906001600160401b038211620004f857680100000000000000008211620004f85760085482600855808310620004af575b506020016008600052602060002060005b8381106200049a5750505050604051956121469788620006d7893960805188818161096901528181610a1701528181610e3001528181611dfd0152611f45015260a0518881816108e5015261108b015260c05188818161036e0152610fec015260e051888181610c91015281816113fa015281816115b201526116f4015251878181610adb0152611fda0152518681816106780152612008015251858181611651015261202b015251848181611383015261206901525183818161063d01526120a10152518281816105c70152610bee015251818181610f6e015261168c0152f35b600190602084519401938184015501620003b8565b60086000527ff3f7a9fe364faab93b216da50a3214154f22a0a2b415b23a84c8169e8b636ee39081019083015b818110620004eb5750620003a7565b60008155600101620004dc565b634e487b7160e01b600052604160045260246000fd5b600a6200051c8285620006ab565b51106200055457611f40620005328285620006ab565b511162000542576001016200036a565b604051630837e60f60e41b8152600490fd5b60405163cd88e71360e01b8152600490fd5b604051630f1b43f160e21b8152600490fd5b6301e1338091501138620002bf565b604051631a85497960e21b8152600490fd5b905060608801511038620002a5565b604051638c67623d60e01b8152600490fd5b69d3c21bcecceda1000000915011386200028f565b604051632e5f374560e01b8152600490fd5b6001600160c01b031090503862000279565b6040516304943c6f60e01b8152600490fd5b6729a2241af62c0000915011386200025f565b604051637c8bf1a360e11b8152600490fd5b6301e133809150113862000240565b60405163e3b5787f60e01b8152600490fd5b63e3b5787f60e01b8152600490fd5b815181526020918201910162000173565b600080fd5b6040519190601f01601f191682016001600160401b03811183821017620004f857604052565b51906001600160a01b03821682036200066b57565b8051821015620006c05760209160051b010190565b634e487b7160e01b600052603260045260246000fdfe6040608081526004908136101561001557600080fd5b600091823560e01c908163095cf5c6146118475781630963054e146117e457816317f4f0ab146109985781631d5b1706146117c757816326a6fd78146117a357816327243846146117865781632a4265a6146117675781632d971e63146116cc5781633410fe6e146116af5781633c92276e1461167457816342b14a7914611639578163439af45e1461161a57816346156ea0146115e157816347ce07cc1461159d5781634aebdf231461157f5781634c5be574146114cc57816352a5f1f8146113c95781635889486e146113a65781635a3e251f1461136b57816361d027b3146113425781636b91ba0a146112ff578163715018a61461129f578163724373b114610b4057816373a4c53e14610b21578163750d48b814610afe57816378e9792514610ac357816385f2aef214610a9a578163884bf67c146109e857816388f4b49e146109c65781638da5cb5b1461099d5781638fc59c5214610998578163907af6c014610954578163925e38ab1461093857816398d5fdca14610914578163999b93af146108d05781639b642de1146106dc578163aa9bbc0c146106be578163aaf5eb681461069b578163abf0caa414610660578163b5b7a18414610625578163b6add0f414610606578163c1e7af35146105ea578163d50cb88b146105af578163d5861d9114610592578163d927c8791461056d578163dd481bf21461054f578163e44d78d014610517578163eac989f814610436578163efd3315614610418578163f0f442601461039d578163f2f4eb2614610359578163f2fde38b14610289575063f6cb1a491461026a57600080fd5b34610285578160031936011261028557602090516102588152f35b5080fd5b905034610355576020366003190112610355576102a46118af565b906102ad611a36565b6001600160a01b03918216928315610303575050600154826bffffffffffffffffffffffff60a01b821617600155167f8be0079c531659141344cd1fd0a4f28419497f9722a3daafe3b4186f6b6457e08380a380f35b906020608492519162461bcd60e51b8352820152602660248201527f4f776e61626c653a206e6577206f776e657220697320746865207a65726f206160448201526564647265737360d01b6064820152fd5b8280fd5b505034610285578160031936011261028557517f00000000000000000000000000000000000000000000000000000000000000006001600160a01b03168152602090f35b905034610355576020366003190112610355576103b86118af565b6103c0611a36565b6001600160a01b031691821561040b575050600280546001600160a01b031916821790557f926b32a8b30a7ff663e26ca85e94cba913ba67d4987aa3ce5d98d5c9fde891298280a280f35b5163e3b5787f60e01b8152fd5b50503461028557816003193601126102855760209051620f42408152f35b50503461028557816003193601126102855780519082600c546104588161197b565b808552916001918083169081156104ef5750600114610492575b5050506104848261048e9403836119b5565b51918291826119ed565b0390f35b9450600c85527fdf6966c971051c3d54ec59162606531493a51404a002842f56009d7e5cf4a8c75b8286106104d75750505061048482602061048e9582010194610472565b805460208787018101919091529095019481016104ba565b61048e97508693506020925061048494915060ff191682840152151560051b82010194610472565b505034610285576020366003190112610285578060209267ffffffffffffffff61053f611936565b168152600a845220549051908152f35b5050346102855781600319360112610285576020905162093a808152f35b5050346102855781600319360112610285576020905169d3c21bcecceda10000008152f35b505034610285578160031936011261028557602090516101908152f35b505034610285578160031936011261028557602090517f00000000000000000000000000000000000000000000000000000000000000008152f35b5050346102855781600319360112610285576020905160648152f35b5050346102855781600319360112610285576020906005549051908152f35b505034610285578160031936011261028557602090517f00000000000000000000000000000000000000000000000000000000000000008152f35b505034610285578160031936011261028557602090517f00000000000000000000000000000000000000000000000000000000000000008152f35b50503461028557816003193601126102855760209051670de0b6b3a76400008152f35b90503461035557826003193601126103555760209250549051908152f35b9190503461035557602090816003193601126108cc5767ffffffffffffffff9083358281116108c857610712903690860161194d565b94909261071d611a36565b85116108b5575061072f600c5461197b565b601f8111610853575b5084601f85116001146107ab579161079a91857fd9bd465f9b699465b782545218445a2f12b2ee792a680fb5a7d197fa5533bc7c96959488916107a0575b508560011b906000198760031b1c191617600c555b51938385948552840191611ae4565b0390a180f35b905082013538610776565b600c86527fdf6966c971051c3d54ec59162606531493a51404a002842f56009d7e5cf4a8c790601f198616875b81811061083c57509161079a9391877fd9bd465f9b699465b782545218445a2f12b2ee792a680fb5a7d197fa5533bc7c9897969410610822575b5050600185811b01600c5561078b565b830135600019600388901b60f8161c191690553880610812565b9192866001819286890135815501940192016107d8565b600c86527fdf6966c971051c3d54ec59162606531493a51404a002842f56009d7e5cf4a8c7601f860160051c8101918587106108ab575b601f0160051c01905b8181106108a05750610738565b868155600101610893565b909150819061088a565b634e487b7160e01b865260419052602485fd5b8580fd5b8380fd5b505034610285578160031936011261028557517f00000000000000000000000000000000000000000000000000000000000000006001600160a01b03168152602090f35b505034610285578160031936011261028557602090610931612093565b9051908152f35b50503461028557816003193601126102855760209051600a8152f35b505034610285578160031936011261028557517f00000000000000000000000000000000000000000000000000000000000000006001600160a01b03168152602090f35b6118ca565b50503461028557816003193601126102855760015490516001600160a01b039091168152602090f35b505034610285578160031936011261028557516001600160c01b038152602090f35b9190503461035557826003193601126103555780516370a0823160e01b815230928101929092526020826024817f00000000000000000000000000000000000000000000000000000000000000006001600160a01b03165afa918215610a90578392610a59575b6020838351908152f35b9091506020813d8211610a88575b81610a74602093836119b5565b810103126103555760209250519038610a4f565b3d9150610a67565b81513d85823e3d90fd5b50503461028557816003193601126102855760035490516001600160a01b039091168152602090f35b505034610285578160031936011261028557602090517f00000000000000000000000000000000000000000000000000000000000000008152f35b50503461028557816003193601126102855760209051670f43fc2c04ee00008152f35b5050346102855781600319360112610285576020906006549051908152f35b91905060a036600319011261035557610b576118af565b906084359367ffffffffffffffff9485811161028557610b7a903690860161194d565b600283979297541461125c57600283556001600160a01b038581169290831561124c57604435421161123c5787546024350361122c57610bb8612093565b96606435881161121c5787158015610fd5575b508885899a9b610bd9611f11565b80610fa3575b50670de0b6b3a7640000610c137f00000000000000000000000000000000000000000000000000000000000000008d611a8e565b6001600160c01b0391900481811115610f695750965b8354978894600186019055600555426006558a5191829133835260209e8f8401528c8301606090526060830190610c5f92611ae4565b037fee3d5f6534ca964caed872dd961ea75348307a35540ca87da28a67c9bc572d7791a3600b5460ff1615610df257507f00000000000000000000000000000000000000000000000000000000000000001685516341025b3d60e11b815288818b81855afa908115610de857906001600160801b03918791610dbb575b501698893410610dad578651637b43155d60e01b81529989928b929183915af18015610da3578490610d68575b60019596979850169182845260098852858420906bffffffffffffffffffffffff60a01b825416179055600a875280858420557f642fe50b0758433126e76ed2960b2a1078adb2607727b2b75d98be66a4e621fd8380a35b5551908152f35b50968681813d8311610d9c575b610d7f81836119b5565b810103126108cc57519680881688036108cc579596879690610d09565b503d610d75565b85513d86823e3d90fd5b8651635cf6ce4d60e01b8152fd5b610ddb91508a3d8c11610de1575b610dd381836119b5565b810190611b05565b38610cdc565b503d610dc9565b87513d88823e3d90fd5b915091939495969734610f5b5760085415610f4857600886527ff3f7a9fe364faab93b216da50a3214154f22a0a2b415b23a84c8169e8b636ee354927f000000000000000000000000000000000000000000000000000000000000000016908751906370a0823160e01b825230908201528981602481855afa908115610f3e579088949392918891610ee3575b50918391612710610eb77fc84cdbfe6ab7b6c8ba19d9d43549658919bc51ecb43173ab3da971dd32dd24359660019b9a999896611a8e565b04809281610ed2575b50505082519182528a820152a3610d61565b610edb92611b24565b388181610ec0565b8092939495508b8092503d8311610f37575b610eff81836119b5565b81010312610f33575187939291907fc84cdbfe6ab7b6c8ba19d9d43549658919bc51ecb43173ab3da971dd32dd2435610e7f565b8680fd5b503d610ef5565b88513d89823e3d90fd5b634e487b7160e01b865260329052602485fd5b8651633cfaf89560e21b8152fd5b9790507f0000000000000000000000000000000000000000000000000000000000000000808910610f9b575b50610c29565b975038610f95565b7f24562cbeb2dd4b8c04e5cabdbcd360d0cb540d872c47a3316f9ae604cc7eccc660208554928d51908152a238610bdf565b875163cce516b760e01b815260209b91908c818d817f000000000000000000000000000000000000000000000000000000000000000089165afa9081156112125789916111d8575b506003548516156111d157610190808c02908c8204148317156111be576127109004905b80861692831561119e5760648d02908d8204606414171561118a5792868e9f8e9f96948f948f956110848f999161107f612710869404958692611ad7565b611ad7565b6110b781877f00000000000000000000000000000000000000000000000000000000000000001697600254163389611b67565b8c600254167fba0450009d009d11ffd93f779f78c55ab21ec496dbdb727de430f249a07efa5a868d54938b51908152a380611144575b5081611103575b5050505050509b9a5050610bcb565b81611131917f1199f54426760f7cebee280b0efef53b0602690f09314271cef16127bdd36dc9953390611b67565b87549451908152a38938808080806110f4565b611154818d600354163388611b67565b8b600354167fb564e70919fa0c597ebeed2fb2607be68d8195df3c8c088637e5baaa9ed8b050858c54938a51908152a3386110ed565b50634e487b7160e01b8a5260118d5260248afd5b508892868e9f8e9f96948f948f958f839161107f61108492958692611ad7565b634e487b7160e01b8a5260118d5260248afd5b8890611041565b90508c81813d831161120b575b6111ef81836119b5565b8101031261120757518481168103611207573861101d565b8880fd5b503d6111e5565b8a513d8b823e3d90fd5b8651630ade1bf360e21b81528990fd5b855163b329638b60e01b81528890fd5b8551630d9d767960e21b81528890fd5b8551637c6da42d60e01b81528890fd5b835162461bcd60e51b8152602081880152601f60248201527f5265656e7472616e637947756172643a207265656e7472616e742063616c6c006044820152606490fd5b83346112fc57806003193601126112fc576112b8611a36565b600180546001600160a01b0319811690915581906001600160a01b03167f8be0079c531659141344cd1fd0a4f28419497f9722a3daafe3b4186f6b6457e08280a380f35b80fd5b5050346102855760203660031901126102855760209167ffffffffffffffff611326611936565b168152600983528190205490516001600160a01b039091168152f35b50503461028557816003193601126102855760025490516001600160a01b039091168152602090f35b505034610285578160031936011261028557602090517f00000000000000000000000000000000000000000000000000000000000000008152f35b505034610285578160031936011261028557602090516729a2241af62c00008152f35b905034610355576060366003190112610355576113e4611936565b916001600160a01b03602435818116036114c8577f0000000000000000000000000000000000000000000000000000000000000000168015611485573303611436578361143360443585611da1565b80f35b906020608492519162461bcd60e51b8352820152602360248201527f4f6e6c7920456e74726f70792063616e2063616c6c20746869732066756e637460448201526234b7b760e91b6064820152fd5b815162461bcd60e51b8152602081850152601760248201527f456e74726f70792061646472657373206e6f74207365740000000000000000006044820152606490fd5b8480fd5b8284346112fc57806003193601126112fc579080519182906008549182855260208095018093600884527ff3f7a9fe364faab93b216da50a3214154f22a0a2b415b23a84c8169e8b636ee390845b81811061156b57505050816115309103826119b5565b83519485948186019282875251809352850193925b82811061155457505050500390f35b835185528695509381019392810192600101611545565b82548452928801926001928301920161151a565b50503461028557816003193601126102855760209061093142611fd8565b505034610285578160031936011261028557517f00000000000000000000000000000000000000000000000000000000000000006001600160a01b03168152602090f35b9050346103555760203660031901126103555735916008548310156112fc575061160c6020926118e9565b91905490519160031b1c8152f35b5050346102855781600319360112610285576020906007549051908152f35b505034610285578160031936011261028557602090517f00000000000000000000000000000000000000000000000000000000000000008152f35b505034610285578160031936011261028557602090517f00000000000000000000000000000000000000000000000000000000000000008152f35b505034610285578160031936011261028557602090516127108152f35b9190503461035557826003193601126103555780516341025b3d60e11b8152916020908390817f00000000000000000000000000000000000000000000000000000000000000006001600160a01b03165afa918215610a90576020939261173f575b506001600160801b03905191168152f35b6001600160801b0391925061176090843d8111610de157610dd381836119b5565b919061172e565b5050346102855781600319360112610285576020906008549051908152f35b50503461028557816003193601126102855760209051611f408152f35b50503461028557816003193601126102855760209060ff600b541690519015158152f35b5050346102855781600319360112610285576020906109316120f1565b905034610355576020366003190112610355573590811515809203610355577f6568dc49b6d526e1f8d05a7b2461dd0c9e234d9d116e3bfead83feb0db31f6f491602091611830611a36565b60ff19600b541660ff831617600b5551908152a180f35b83346112fc5760203660031901126112fc576118616118af565b611869611a36565b600380546001600160a01b0319166001600160a01b039290921691821790557f88a1b85551c24a4e5f9cf247c6c99d1d27e79bce5532970af2756d44b42d4b5d8280a280f35b600435906001600160a01b03821682036118c557565b600080fd5b346118c55760003660031901126118c55760206040516301e133808152f35b6008548110156119205760086000527ff3f7a9fe364faab93b216da50a3214154f22a0a2b415b23a84c8169e8b636ee30190600090565b634e487b7160e01b600052603260045260246000fd5b6004359067ffffffffffffffff821682036118c557565b9181601f840112156118c55782359167ffffffffffffffff83116118c557602083818601950101116118c557565b90600182811c921680156119ab575b602083101461199557565b634e487b7160e01b600052602260045260246000fd5b91607f169161198a565b90601f8019910116810190811067ffffffffffffffff8211176119d757604052565b634e487b7160e01b600052604160045260246000fd5b6020808252825181830181905290939260005b828110611a2257505060409293506000838284010152601f8019910116010190565b818101860151848201604001528501611a00565b6001546001600160a01b03163303611a4a57565b606460405162461bcd60e51b815260206004820152602060248201527f4f776e61626c653a2063616c6c6572206973206e6f7420746865206f776e65726044820152fd5b81810292918115918404141715611aa157565b634e487b7160e01b600052601160045260246000fd5b8115611ac1570490565b634e487b7160e01b600052601260045260246000fd5b91908203918211611aa157565b908060209392818452848401376000828201840152601f01601f1916010190565b908160209103126118c557516001600160801b03811681036118c55790565b60405163a9059cbb60e01b60208201526001600160a01b03929092166024830152604480830193909352918152611b6591611b606064836119b5565b611bbc565b565b6040516323b872dd60e01b60208201526001600160a01b03928316602482015292909116604483015260648083019390935291815260a081019181831067ffffffffffffffff8411176119d757611b65926040525b60018060a01b0316906040516040810167ffffffffffffffff90828110828211176119d7576040526020938483527f5361666545524332303a206c6f772d6c6576656c2063616c6c206661696c6564858401526000808587829751910182855af1903d15611d01573d928311611ced5790611c5793929160405192611c4a88601f19601f84011601856119b5565b83523d868885013e611d0c565b805191821591848315611cc9575b505050905015611c725750565b6084906040519062461bcd60e51b82526004820152602a60248201527f5361666545524332303a204552433230206f7065726174696f6e20646964206e6044820152691bdd081cdd58d8d9595960b21b6064820152fd5b919381809450010312610285578201519081151582036112fc575080388084611c65565b634e487b7160e01b85526041600452602485fd5b90611c579392506060915b91929015611d6e5750815115611d20575090565b3b15611d295790565b60405162461bcd60e51b815260206004820152601d60248201527f416464726573733a2063616c6c20746f206e6f6e2d636f6e74726163740000006044820152606490fd5b825190915015611d815750805190602001fd5b60405162461bcd60e51b8152908190611d9d90600483016119ed565b0390fd5b67ffffffffffffffff1660009081526009602090815260408083208054600a845282852080546001600160a01b0319831690935585905593959490936001600160a01b039081169390918415611ee357611dfa90611eed565b917f0000000000000000000000000000000000000000000000000000000000000000169083516370a0823160e01b81523060048201528181602481865afa988915611ed8578099611ea2575b5050612710611e79847fc84cdbfe6ab7b6c8ba19d9d43549658919bc51ecb43173ab3da971dd32dd24359798999a611a8e565b0491828781611e91575b5050508351928352820152a3565b611e9a92611b24565b388287611e83565b9098508189813d8311611ed1575b611eba81836119b5565b810103126112fc5750965196612710611e79611e46565b503d611eb0565b8551903d90823e3d90fd5b5050505050509050565b6008548015611f0a57611f0091066118e9565b90549060031b1c90565b5050600a90565b611f1d60075442611ad7565b8015611fd257611f3690611f3042611fd8565b90611a8e565b80611f43575b4260075590565b7f00000000000000000000000000000000000000000000000000000000000000006001600160a01b0316803b156118c5576040516340c10f1960e01b815230600482015260248101839052906000908290604490829084905af18015611fc657611fae575b50611f3c565b67ffffffffffffffff81116119d75760405238611fa8565b6040513d6000823e3d90fd5b50600090565b7f00000000000000000000000000000000000000000000000000000000000000009081811161205a57505060005b7f0000000000000000000000000000000000000000000000000000000000000000901c7f0000000000000000000000000000000000000000000000000000000000000000808210612055575090565b905090565b61208e9161206791611ad7565b7f000000000000000000000000000000000000000000000000000000000000000090611ab7565b612006565b61209f60065442611ad7565b7f0000000000000000000000000000000000000000000000000000000000000000908181116120ea576120e16120e7926120dc6005549384611a8e565b611ab7565b90611ad7565b90565b5050600090565b6120fd60075442611ad7565b8015611fd2576120e790611f3042611fd856fea2646970667358221220c5e3cc5e2abe272367e006354b13a1b3098a035189c1f30b0b3929455529ca5b64736f6c63430008130033",
  "linkReferences": {},
  "deployedLinkReferences": {}
}